:100000000C9418010C942A010C942A010C942A01D6
:100010000C942A010C942A010C942A010C942A01B4
:100020000C942A010C942A010C942A010C942A01A4
:100030000C942A010C942C010C9464010C942A0158
:100040000C942A010C942A010C942A010C942A0184
:100050000C942A010C942A010C942A010C942A0174
:100060000C942A010C942A010C942A010C942A0164
:100070008080807F7B78777B85939D9C8C715544B5
:100080004A6998C4DACD9F5F260C205AA6E5FFE79F
:10009000A7581A031D5BA3D9EAD29D643B31456B77
:1000A00092AAAEA08A766C6C737C828482818080F6
:1000B00080807F7D7B80888E8571626B8CACAA800E
:1000C0004A3B67B1DAB8601A2680DFF3A635003400
:1000D000A7F9E5801D0F5CC1EABB622A3B7FBABE6F
:1000E000926051688A9B938073757D8282807F8045
:1000F00080807F7D7E858A82706A7F9FA0784D5642
:1001000094C7AD592554BBE9A22E0F6CE4F0800EC4
:100110001893F7D75A0A3CB2EAAE472665B7C48AA5
:1001200050507FA49C7B6972848A847D7D7F80800F
:1001300080807E7E848579728597805D73A99F56C5
:100140004AA0CA722570E0B0262EC5EC59037FFE86
:10015000A70E35D7E24A1291EA8F2456C4B7554507
:1001600092B48057759A8E727385877F7D7F808069
:1001700080807E80858074809380627FA87F4B7FA3
:10018000C17F317FDA7F1A7FEE7F097FFC80007F9D
:10019000FF80017FF9800C7FEA80207FD480388047
:1001A000BB80517FA28067808E80787F82807F8035
:1001B000807F7E81847A798D856880A273569FA91D
:1001C0004A5FCA8D258FE04F26D1C51359FC8001A7
:1001D000A7F13528E2B5126EEA7024A9C44855BAD1
:1001E000924B80A875658E8D737A87807D80808024
:1001F000807F7F827E7A8A7D70957F60A0874DA9FF
:100200009438ADA625ABBB16A2D10F93E40F7FF1B6
:10021000186CF7285AF53C4DEA5147D96548C47522
:1002200050AF7F5B9C84698D847584827D808080E3
:1002300011241FBECFEFD0E1DEBFCDBF11E0A0E0A3
:10024000B1E001C01D92A330B107E1F70E948F0118
:100250000C949E010C9400001F920F920FB60F9207
:1002600011242F933F934F935F938F939F93EF931B
:10027000FF931BB820910001422F50E0CA01805922
:100280009F4FFC01849140555F4FFA01349190E0FB
:10029000830F911D9093020180930101969587959C
:1002A00088B92F5F2F732093000180E88BB9FF91ED
:1002B000EF919F918F915F914F913F912F910F906F
:1002C0000FBE0F901F9018957894889518958FEF12
:1002D00087B983E88AB9E1E8F0E089E0808384EFB8
:1002E00091E090938900809388008AEE91E090934A
:1002F0008B0080938A0096E090936F0088E1809352
:10030000C1009093C200F093C500E093C4007894BC
:1003100083B7817F83BF83B7816083BF08950E94C5
:1003200067018091C00087FFFCCF9091C60080914B
:10033000C00085FFF6CF9093C600F3CFF894FFCFAF
:00000001FF
