:100000000C9438200C9455200C9455200C945520B9
:100010000C9455200C9455200C9455200C9455208C
:100020000C9455200C9455200C9455200C9455207C
:100030000C9455200C9457200C94D4200C945520EB
:100040000C9455200C9455200C9455200C9455205C
:100050000C9455200C9455200C9455200C9455204C
:100060000C9455200C9455200C9455200C9455203C
:100070008080808080808080808080808080808080
:100080008080808080808080808080808080808070
:100090008080808080808080808080808080808060
:1000A0008080808080808080808080808080808050
:1000B0008080807F7B78767B86939D9C8C71544476
:1000C0004A6998C4DACE9F5E250C1F5AA6E600E85E
:1000D000A75819031D5BA3DAEAD29D633B31456B38
:1000E00092ABAEA18A766C6C737C828482818080B4
:1000F00080807F7D7B80898F8671616A8DAEAD80C7
:10010000473766B4DFBB5E15217FE5FAA831F930C9
:10011000A900EB7F17085AC4F0BE6025377FBDC128
:10012000935F4E668B9D948073747D8383807F8004
:100130008080807D7B7B8085878380848F92805CBC
:1001400040497FC6ECD07F2F133A7FAFAE908091AD
:10015000AFB18035092680DD00D5803B2D507F99D9
:10016000968780858C8B8074717780848381808072
:1001700080807F7D7E858B826F697FA1A3784A53C3
:1001800095CBB1571F51BFF0A429076BEBF77F0642
:10019000119500DD570237B5F1B1432064BBC98A20
:1001A0004C4D7FA69E7B6771848B847D7C7F808095
:1001B00080807F7D7C7E807E7A7E91A39B73484386
:1001C0006C9DA9918094B6AB5E0A035ED200CC7997
:1001D00059748A6A2E246CD3FFCC703A4772867A9F
:1001E0006E7D9BA99777666C7B84848180808080FC
:1001F00080807F7C7C838B897A6B6F869A957B6706
:100200006D818C86808790825F5176B7D09636124A
:100210005BD100B231FB44C2FABC4E1A499FC9A956
:100220006E526587968D7E787B808180808080800D
:1002300080807F7D7C7F84847E79808F97896B57D7
:100240005D78929FA4A4977445315297C7B87F5D9B
:1002500076A8B071211564D200CB692E3E769B95AD
:100260007B717F9293857672787E81818180808098
:1002700080807E7E848579728698805D73AA9F5582
:100280004AA1CB722470E1B0252DC6ED59017F0043
:10029000A80D34D8E3491191EB902356C5B85544C5
:1002A00092B48057759A8E727385877F7D7F808028
:1002B00080807F7E807E77758698907C7F8F79475F
:1002C0004485B69E80A2C7881C1271A78073C600A1
:1002D000AC2A1D6B804D56BBF6B65D597F734854F2
:1002E00094B4997B80897D6D7280858180808080C7
:1002F00080807F7D8083818086856F607FB1AA68E2
:10030000436B9C948097A5611951DE00800E379D48
:10031000AD848FB280202DAFF9AB3A377F9F8982B1
:10032000948C655B7F9E9378727C828180808080D4
:1003300080807F7E7E7F7D7E878B8075859C8C57BD
:1003400040689DA9A4AFA65D13319BCA8F597FBE9B
:10035000AF736271582E54C500BF5B4164766F79EC
:100360009699807384928572717C8282818080806C
:1003700080807E7D818682797A81807D8C94744DA7
:100380006CBEC861135CDDDC5E1E66B5A5787F8738
:1003900059479BE9A41915A800A5273199C28F6375
:1003A0006E837F7D8A8C7A6F7B89877E7C7F80805D
:1003B00080807F7E7F817E797E888B898D8767466E
:1003C0005DA0BA865B87CBB045104894A8A4B3AEB5
:1003D000764A6994702C47BF00B95040758D73649C
:1003E0007B93928B8B84746D788585807E808080F2
:1003F00080807F7D7F8485817E7B74768D9F895E02
:100400005D8EA67F5B7FB294453E95D2A85D4C661B
:10041000768BBBC6700E2AB500B0382975ACA185A5
:100420007B756D748B9384757882837F7E7F8080EB
:1004300080807F7D7E80817F808280818D937A54D1
:100440005683A4938096AE85392C73B2A9847F8C91
:10045000847C8D8F571F4AC200BD53366389877EC7
:1004600082857F818B8C7D71768083818080808086
:1004700080807E80858074809380627FA87F4B7FA0
:10048000C17F317FDA7F1A7FEE7F097FFC80007F9A
:100490000080017FF9800C7FEA801F7FD480378045
:1004A000BB80517FA28067808E80787F82807F8032
:1004B00080807F7F807B737D8F8B80909F77465C71
:1004C00087725FA9ECAE556C8C3AFE69E1BD80BEC7
:1004D000E468F6358D6950B600B1586F89503173B4
:1004E000AE9980939B7A6574817D7C8283807F80C6
:1004F00080807F7E80807E888F775C739F9A797FF3
:100500008756429DECA130438C7F72C5E153E65281
:10051000E4C8717F8D3C25A700A3344C897F77A563
:10052000AE6D47719B907D808179798183807F80DA
:1005300080807F7E7E7C7B838C8274839A8C6A68C9
:100540006F5B60AFECB5574A6451509FD08B4C8BBA
:10055000D3A04D4E614451BE00B859526B606390B8
:10056000A6846D83968776787C7A7C8283807F8070
:1005700080807E7E81837F8182736F91A97B4568B5
:10058000B0A86D6A806768BBD251FC7500BF373F69
:100590008D8B7CB2AF3D179CF99A294DA19F7D852B
:1005A00086656594A37D65788B867E7E807F7F805F
:1005B00080807F7E7F7F7C7F837F8097A277455777
:1005C0008D937C8CA48D7B9C9631FC69E9D57F7BD7
:1005D000997854717A4244B800B34E517C76677B67
:1005E0008B7E7F9B9D7A657283837F8081807F80F5
:1005F00080807F7D7F82838683716884A28E676F0F
:100600008D816984A4856281965F49A6E98F19343A
:1006100099B8A6A37A2328AE00AA36397C96959D70
:100620008B605A849D89747A83807D8081807F80ED
:1006300080807F7E7E7F7F83847B778B9D866061D9
:10064000797A7697B69B737775443A91DAAA5966A8
:100650009F9E7E755E2F49BD00B8524268797E8F9D
:100660008E75718D998471767E7F7F8181807F8088
:1006700080807E7F858375788E8D6E6C9098736791
:1006800087927D7880777D9C8C5063BFB13735C968
:10069000E13E0BB30060FD8AFB891368D8A03D5E84
:1006A000AD9E64688D8F7A7881827F7F807F7F8026
:1006B00080807F7F827F75788C91807D908A66575D
:1006C0006F848896A4998A866431459CB1767FDCD4
:1006D000D3420671B05B34AA00A74064A1763A60A9
:1006E000A6A6807D8D8674727C80808181808080CA
:1006F00080807E7E82827C808C83686A90A2886FF4
:100700006F71748EA490716A645F92D9B13019943C
:10071000D38358A3B03D17A1009E284DA1966981AF
:10072000A6885A668D95837A7C7D7E8081807F80C5
:1007300080807F7E807F7A7E8B8877778F957961C6
:10074000636E7E9FB6A37E66504471B8B06259AEA8
:10075000CA76437586423CB300AF475184795D7BCE
:10076000A29371768D8D7D76797D7F8181807F806A
:1007700080807E7E83847D7B8380747E988D635EA3
:100780008DA9906B5B6895BD963E3FA3CA7B4C8458
:10079000995A5FC6C93B0A9B00981E4BB2AC6D6C60
:1007A0008B826D7E948872758386817E7E7F808049
:1007B00080807F7E81807B7B8486808796855D5468
:1007C00079989385808599A4752C328FC39B7FA2DD
:1007D0009F58498F994132AF00AB3F509189606B70
:1007E0008E8E7F88928370717E83818080808080EE
:1007F00080807E7D81838080847C6E78969777660A
:10080000798A857F807F878F754F6CBDC366336D16
:100810009F8886B4992A1DA700A42D3E91A18384A8
:100820008E786377928E7B777E81807F807F8080D9
:1008300080807F7E7F807E7F85817881948F6E5DD2
:100840006E838A8F95928D84623D59A8BF8361899A
:10085000A27D6C8C7C3239B500B045457D87747EB5
:100860008F847481918978747B808180808080807E
:10087000807F7E81847A798D86677FA373559FAB55
:10088000495ECC8D238FE34E23D3C710580080FEE2
:10089000A8F43325E5B70F6EED6F22AAC64754BC06
:1008A000924A80A974658E8E737A87807D8080805D
:1008B00080807F8080787784867D90A38060797641
:1008C0004360B7AE80B4C8521A6C712D8000C773F4
:1008D000ACA91C08808956A8F8A55D877F34479588
:1008E000947A9AA97F6C7C7C727B858280808080E0
:1008F00080807F7F807C818F866B70877F81A896C8
:1009000046489BA280A7A32E1EACDA83809B3A1197
:10091000AB008F50805F309AF4973D677F6188C14C
:10092000935266887F8092877277828280808080EF
:1009300080807F7F7E7A7D8987787F90857B8C79A8
:10094000404E9DB4A4BBA63613729B738FBD8058D6
:10095000AFCE622A585954B700B25B62644A6FA89E
:10096000966F8093847D857D71788283818080807D
:1009700080807E7F818082887A677FA38A65758088
:100980006E94C1721E70D49E6280683BA1007FFE8F
:100990005DC89880A05D2091F2903065967F8EA50D
:1009A0006F4A7FA9896F7B7F7B83867F7C7F808076
:1009B00080807F7F7F7D7E847E768BA38C68686954
:1009C0005F86B6905D92C68949544B41A500B04CF4
:1009D00076A36A51715A4AAEF8AA5363766273924B
:1009E0007B6A91A98A707578788085807E80808006
:1009F00080807F7E7F80858C7E6874928D7E8980EA
:100A00005D73A6895B8BB26E457F957BA8C14C0157
:100A100076E6BB8070392AA700A4384A757FA1B456
:100A20007B4B6D958B7E847F787E83807E808080FB
:100A300080807F7E7E7D818780737F958D7A7A6EC0
:100A40005670A49B809FAE68395D7371A9CF7F40BB
:100A500084C08D5A573F4AB800B3534F636887A18B
:100A600082657F998B7C7D7A767D83818080808092
:100A700080807E808480788087807F807080A58061
:100A80004080D97F1380F47F1380D37F51807F8093
:100A9000AF7F267FF67FFC7F0080127FD2804D8063
:100AA0009680807F7380917F7180887F7C8080803A
:100AB00080807F7F817C777E87878B8B7A7A87683F
:100AC0004077C59B5B9FD9721351917070A8B3A9F1
:100AD000AF701B4EA77136A400A042749B6046778E
:100AE0009691928D7B7C8378717E86817E808080DA
:100AF00080807E7E81807E85877A74777A91AA80D5
:100B00004064B2935B96C057137FDEAE70624C6157
:100B1000AFB06D7FA752199A00972A5D9B7F759998
:100B200096736D767B8B937F717B84817E808080D2
:100B300080807F7E807D7C8287817F827F89926EAC
:100B40004064ACA380A8BA57135DA99780887F88BA
:100B5000AF98535A80533EAE00AA495D7F68668CB9
:100B6000968380827F85887A717B84828080808072
:100B700080807E7E82827E807E777F8C837D846F84
:100B80005D9CCE70136EE5AA455F8A7889AD7F5271
:100B9000768774A3BF500D940092205CAC96798444
:100BA0007B6D7F8E827E827A7884877F7C7F808057
:100BB00080807F7E807F7C7F807F88918679766150
:100BC000568EC189498AD59539446B6E92C0A67CF0
:100BD000847A5875925134AA00A6415C8C79697C5C
:100BE000827E8E94857B7B76768286807E808080F6
:100BF00080807E7E8081818480757783868B9073F0
:100C00005680B3834983C2813967A49D928B59472B
:100C100084AA969A923A1FA2009F2F4B8C908C9593
:100C2000826871838587877B768085807E808080DF
:100C300080807F7E7F7F7F82817C7F8987858267BE
:100C4000517BAE936A95BC793150868E98A17F6BAB
:100C50008D987977763F3BB100AD464F797A7C8CA1
:100C600086777F8A86838178757F84817F80808084
:100C7000807F7E80857C75878E726E939067739877
:100C8000876D7D8780887D638CAF6340B1C83536C2
:100C9000E1C10B4C009FFD75FB761397D85F3DA11A
:100CA000AD6164978D707A87817D7F8080807F8041
:100CB00080807F80827A75838C7E7F999069667947
:100CC0006F6988A0A4A58A5F64724545B1DA807611
:100CD000D39D062AB086349D009A4085A14A3A8F5A
:100CE000A67C809D8D71747D7C7C808181808080DC
:100CF00080807E7F827D7C8B8C70688590818890DF
:100D00006F577499A49C714464A09282B194192F76
:100D1000D3DE585CB06817930091286DA16969B063
:100D2000A65E5A868D8083857C797E8181807F80D6
:100D300080807F7F807B7A868B7A778C8F7C797AB4
:100D4000635A7EA7B6AC7E4950757176B0AD5962D4
:100D5000CABA434086633CA900A5476A84575D9E92
:100D6000A273718E8D7D7D7E797A7F8281807F8076
:100D700080807E7F83807D86836D749A986C637F8C
:100D80008D8F90755B74959696803F4CCADE4C1F94
:100D900099B55F7FC9660A8D008C1E6CB27F6D9B12
:100DA0008B586D9E947372808382817F7E7F80805A
:100DB00080807F7F817D7B8384787F9C966C5D6E55
:100DC0007984938C808E9987755D324EC3E57F560A
:100DD0009F9C495A996132A400A13F699168608E35
:100DE0008E6E7FA09274707A7E80818080808080F9
:100DF00080807E7E81808089846E6E8D967E777FF6
:100E00007976858780888772757F6C7CC3B0332143
:100E10009FCC867F994B1D9D009B2D57917F83A76B
:100E20008E58638F927F7B807E7E808080808080E2
:100E300080807F7E7F7E7E8685767891947B6E71C2
:100E40006E738A9695998D6D62645974BFBF614CBB
:100E5000A2B36C627C4C39AD00A945587D6D749A83
:100E60008F6A7494917D787B7B7E81818080808085
:100E700080807E80858076808C80747F8680837F72
:100E80006F809C7F5B80A47F6480887F93804C7F91
:100E9000D37F127FFF7FFA7F0080107FD880418050
:100EA000A6806D7F858081807C80827F7E8080802F
:100EB00080807F7F827D767E8B857F88887B756E44
:100EC00063799C948097A476505D6974999E7F9F06
:100ED000CA740E5AC274269B00983577AD683F7964
:100EE000A28C8089877D7B7A797E828180808080D8
:100EF00080807E7F82807B848B7B6E79888D8F7FE4
:100F0000636B8D8E80909261507FA3A29969336943
:100F1000CAA44C7FC25E109300912366AD7F62929B
:100F2000A276637887888780797C818080808080C2
:100F300080807F7F817E7A828A81788189878271B1
:100F40005C6A909C95A0965F446485929D866186BC
:100F5000C4933E629D5C2FA500A23C64946D5A8AA6
:100F60009F8274828884817B777C8181808080806D
:100F700080807E7F83817B80847977898E7D737387
:100F80007995A3744972AD9F7567647AACA1595D78
:100F90009F85519AD45C078F008D1B65BA9065833D
:100FA0008E71718A8C7E7A7B7E83837F7E7F808048
:100FB00080807F7F817F7A7F857F7F8E8E7A6B674F
:100FC0006E8BA1876A88AB9162505272ACB37F7D01
:100FD000A27B4277AB5A27A1009E36639E7A5C7D46
:100FE0008F7E7F908C7C76787B8183807F808080F1
:100FF00080807E7E81817E83857771828E888075F8
:101000006E8096826A839C80626C8097AC89425223
:10101000A2A17395AB48169B009928559E8D789197
:101020008F6D69828C85807C7B8082807F808080D0
:1010300080807F7E807F7D82857C7A878E84776BBF
:10104000667C978F80929E7A55586D8BAD9C666EAC
:10105000A4946178904A2FA900A53C578B7B6E8A97
:10106000907876898C827C797A7F8280808080807B
:10107000807F7F827E7A8B7D6F967F5EA3874AAC6E
:101080009534B1A81FAEBF0FA4D60794EB087FF923
:10109000116A002257FD374AF14E43DF6444C97597
:1010A0004CB280599E84678E847484827C80808058
:1010B00080807F817C78807B7A98917E9A7B49754D
:1010C0006C49A9BE80C7B52E5F6C0575D179CA0081
:1010D0005A5D8A032FAF6D97FD9570A44831866ED7
:1010E0006EB49B7E967D677C7B77848380808080D6
:1010F00080807F807C7C8B867A846F629A9D7B98CF
:101100006D2F8CB280B990095FAE76CDD014369633
:101110005BBA004D31824488FA874E814960C99E8E
:101120006E89655D96927E877B73818380808080E7
:1011300080807F7F7C7A84827E8A7F76978E6B79AF
:101140005D3F92BEA4C79720457252A6C75E7FB985
:101150007698B02A217364A900A669763E4A9B8CD2
:101160007B9780759389767D787581838180808077
:1011700080807F807E808B806F807F80A37F4A7F8E
:101180009580B1801F7FBF80A480077FEB807F7F29
:10119000117F00805780377FF17F437F647FC98054
:1011A0004C7F807F9E80677F848084807C7F80806E
:1011B00080807F7F7D7C847E75878B8B9F7A46685D
:1011C0007A77AE9B5B9FBC727751FE70DFA8B3A9A4
:1011D0003C70B74E3A7158A400A05E744F609F7780
:1011E0006091928D9A7C65787E7E84817E808080FD
:1011F00080807F7E7D808B85767A75789D906A7FF2
:101200007B6699925E95A05A78804FABD964506303
:1012100041AD00803E554098F7964A5F527FC9978E
:1012200062746E77998A767F7E7C82817E808080F0
:1012300080807F7E7C7D86827A817F829B89616EC1
:101240006C649BA380A8A3575E5D3C97D3887F887E
:101250005998C85A2E5357AE00AA5E5D4768A98CAC
:101260006E8380829785727A7B7B82828080808089
:10127000807F7E80818082777A98805D8A9A757F70
:101280006E6BC08D1F8FD361628069C3A1017F0027
:101290005D389880A0A1216EF16F319996808D5BA9
:1012A00070B4805789907B7F7C7C86807C80808036
:1012B00080807F807F7D7E787E988A728C8C686942
:1012C0006069B5A25EA7C55E49554CA1A54DAF00AA
:1012D000763F6B5172894B95F69354877662745EB4
:1012E0007BB4916F8A887578787C85827E808080D7
:1012F00080807F7F7F80857F7E8C745D8DA58980D7
:101300005D55A69D5BA2B240458095E1A8034CC205
:10131000767BBB80706C2A8C008B3870757FA17DCA
:101320007B9B6D578B97847F787983817E808080CB
:1013300080807F7F7E7D817E808F806E8D977A6EAC
:101340005659A4AB80B0AE46395D73BDA9417FD07C
:1013500084708D5A57664AA400A1536C63688777DE
:1013600082A1806B8B8E7D7A76798382808080806B
:1013700080807E7F8082857A75897F729590646F88
:101380007A8DC27A1379D693775F41ABC14E7FB223
:101390003C52C2A3896A1D8600862E6F8696A56878
:1013A0006094806F928A737A7E82867F7C7F808051
:1013B00080807F7F7F7F817A7A8D887E93885E614F
:1013C0006C83B9904992CA845E443495BC79A6C5B1
:1013D00059529375696441A0009D4B6B70798A687E
:1013E0006E9C8E7D908570767B8085807E808080EF
:1013F00080807F7E7F8187807A82776F93997773F1
:101400006C75AA8A498CB7705E676DC3BC44598FEE
:101410005982D09A694D2B98009639597090AD81B8
:101420006E86716C90907C7B7B7E84807E808080D9
:1014300080807F7E7E7F837F7C87807992916F67BB
:101440006372A8996A9CB36B4F505AACB9687FA578
:101450006A78A777564F45A900A54E5A637A967CBD
:10146000768F8078908A7878797D83817F8080807C
:10147000807F7E81817C7F7E828C6F6EA984459780
:10148000B0576D9580986844D2AEFC8A004037C052
:101490008D747C4DAFC21763F96529B2A1607D7A66
:1014A000869A656BA38265878B797E8180807F8039
:1014B00080807F807F7A7C7D83907F7EA27D45794E
:1014C0008D5A7CAAA4B07B489672FC78E97B7FD7C2
:1014D0009968542A7AA0448F008E4E987C4A67738C
:1014E0008BA4807E9D7E657D837A7F8281807F80D4
:1014F00080807F807F7D83848382686BA2946790E5
:101500008D4869A3A4A8622D96A049B6E935198F24
:1015100099A8A65C7A812885008536817C69959496
:101520008B865A679D8D748583777D8281807F80CD
:1015300080807F7F7E7B7F82848877789D8B607AB6
:10154000794F76AEB6B5733875753A9DDA6659AA95
:101550009F927E405E76499F009C527868577E89B4
:101560008E9171779987717E7E787F8281807F806E
:1015700080807E80808083807B80747FA97F437F92
:10158000A97F85805C7F877FC680F87F00804D7F44
:10159000607FAC8092801D7FFD802D7F8C7F998045
:1015A00071806D7FA3806480898080807E7F808051
:1015B00080807F7F7F7D807E7E857F88A37B446E59
:1015C0008F798B9480978E769B5DFB74ED9E7F9FC9
:1015D0007474835A70743F9B00984A777568827957
:1015E0007A8C80899E7D657A837E818180808080EF
:1015F00080807F7F7F8085847E7B6E79A38D5E7FF8
:101600008F6B7C8E80907B619B8035A2ED69336906
:1016100074A4C080705E2A9300913866757FA5928D
:101620007A7663789E887080837C7F8080807F80DC
:1016300080807F7F7E7E8282808178819F875B71C0
:10164000806A839C95A0845F80642D92E086618689
:1016500080939B625B5C43A500A24D64666D8F8A9C
:10166000808274829B846F7B807C8081808080807C
:10167000807F7E8083807D79839274659893637F79
:101680008D70908A5B8B956996803FB3CA214CE040
:10169000994A5F7FC9990A7200731E93B2806D6484
:1016A0008BA76D61948C727F837D81807E8080802A
:1016B00080807F80817D7B7984938074968A5D6E43
:1016C000796D939C809F9965755D329BC3577FE7C9
:1016D0009F4C495A99883291008F3F869168606586
:1016E0008EAA80729286707A7E7D818180808080D1
:1016F00080807E7F8180807F84896E66969C777FE4
:10170000795F85968099875075806CC9C32233B103
:101710009F7C867F99711D8900882D74917F837EBF
:101720008E94636192917B807E7B808180808080BB
:1017300080807F7F7F7E7E7E858C787294926E71B2
:101740006E608AA295A78D52626459B1BF4D61C087
:10175000A2736C627C6B399D009A45707D6D7479C3
:101760008F9A746F918B787B7B7B81828080808065
:1017700080807E7F8181817B7E8777759C8C5B7387
:101780008F899A7C497BA28E9B672DA0D65A59A639
:10179000745D8B9AAB6F1385008425739E90866E63
:1017A0007A8F717398876F7B8381827F7E7F808041
:1017B00080807F7F807F7E7B808A807E998658674D
:1017C00080829B8D6A8FA38380502691CE7A7FB7CB
:1017D000805B70778B6A319900973E6F877A776D5F
:1017E0008096807E95846D787F8082807F808080E7
:1017F00080807E7F808183808082717299946C75F5
:1018000080778F886A899373806C55B5CE50428CEF
:101810008081A2958B57209300923061878D9380B1
:1018200080856970958C777C7F7E81807F808080C9
:1018300080807F7F7F7F807F81857A7A978E676BBC
:10184000757491948097966E6D5848A5C86C669F84
:1018500087798778755737A2009F4360787B847CAF
:10186000838C7679948974797D7E81818080808073
:10187000807F7E82817982867A7E7F828C6B74B251
:101880006C41C89E13A3DD235EE1664AA5877F787D
:1018900059B89B16A4E61557005A27CE993D8F9C40
:1018A0006E7C80828A737A907B7687817C80808050
:1018B00080807F817F787E827E868B8C8D6C67892D
:1018C0005D4DBAB05BB6CB354593484DA8ADB3A4DA
:1018D0007695690770B54788008850A97534738B71
:1018E0007B8F928E8B737483787885827E808080E4
:1018F000807F7F807F7B858A7E7974798D8489A1C2
:101900005D3AA6A85BAEB21945C1958AA8674C5C42
:1019100076D6BB3970972A7E007F38917553A1AC7B
:101920007B716D778B82848A787583827E808080DC
:1019300080807F807E7A818680807F838D7E7A879B
:101940005645A4B280B9AE29398E737CA98C7F84A8
:1019500084B48D2557864A9A009753846347879BA2
:10196000828180838B7F7D82767683838080808076
:10197000807F7E80807D858575767F8D956F649074
:101980007A72C2851386D66C77A04154C1B17F4D5F
:101990003CADC25C89951D7900792E908669A5972A
:1019A000606B8090927573857E7D86807C80808060
:1019B00080807F807F7B81827A7E8892936F5E7A3F
:1019C0006C6FB998499BCA675E753454BCC4A679DC
:1019D000599693406985419500934B8370578A8B44
:1019E0006E7D8E959075707E7B7D85817E808080FA
:1019F00080807F7F7F7E87887A7477849380778CDE
:101A00006C61AA924995B7535E986D82BC8F594319
:101A100059C6D065696E2B8E008D3972706FADA47A
:101A20006E66718490807C847B7B84817E808080E4
:101A300080807F7F7E7C83857C7B7F8A927D6F7BAD
:101A40006362A89F6AA3B3544F775A78B9A47F689A
:101A50006AAEA74C566845A1009E4E6E635F96988D
:101A60007676808B907E787E797B83817F80808084
:101A7000807F7E81827D7E7F7E887F73838284905B
:101A80005D63CE8F1391E55545A08A8789527FAD5E
:101A90007678745CBFAF0D6B006D20A3AC69797B69
:101AA0007B92807182818285787B87807C80808038
:101AB00080807F80807B7C7D808C887F867D767A2D
:101AC0005663C1A049A4D55639756B7A927CA6C1DC
:101AD000846E58409298348B008A41928C57697674
:101AE000829B8E7E857E7B7E767B86817E808080DB
:101AF00080807E80807E818380827770868F908CCC
:101B00005656B39A499EC2413998A4A89247598B18
:101B1000849E966592811F8400842F808C6F8C8FA9
:101B20008284716D85898784767985817E808080C5
:101B300080807F7F7F7C7F8181867F7A8788827BA0
:101B40005159AEA56AAABC4631778697986B7FA299
:101B50008D8E794C76783B990097467A795F7C87B1
:101B6000868E80798685817E757984827F8080806B
:101B700080807E80818082807A807F808C7F74806C
:101B80006C80C880137FDD7F5E80667FA5807F7F4D
:101B9000597F9B80A47F157F0080277F997F8F804E
:101BA0006E7F807F8A807A7F7B8087807C80808048
:101BB00080807F7F807E7F7E7C8487868C7C6C713A
:101BC000637ABF903E92D2784F645476A7989E98DD
:101BD0006A767D628577339500934079836D7E7B4D
:101BE000768A8B878A7D777B797F86807D808080EF
:101BF00080807E7F808084837C7C787B8C8A8180DF
:101C0000636FB48B3E8DC3674F80829BA76E616DFF
:101C10006A9DAE808564228F008E316B837F9A8FA0
:101C20007678747A8A86807F797D85807D808080D1
:101C300080807F7F7F7E81817E817F818D867874A9
:101C40005D6DB0975B9ABE6545686E8FA8857F8590
:101C5000769092677062389F009C446975708A889C
:101C60007B8280818B837C7C787D84817E80808078
:101C7000807F7E81837B7D84837F7481987263A162
:101C80008D5690945B97954296C13F5CCA844C7B7D
:101C900099A55F39C9C40A6400671EB4B2536D9335
:101CA0008B7D6D819477728A837981817E8080803B
:101CB00080807F80817A7B8184857F8996715D8732
:101CC000795A93A480A99947758E3259C3A27F9BF4
:101CD0009F90492599A8328600863F9E914760884B
:101CE0008E8B808B927670827E7A818280808080DB
:101CF000807F7E80817C8087847B6E7A96837799D3
:101D0000794C859E80A2873375B06C87C36D33652F
:101D10009FC0864B99911D7F007F2D8D915E83A181
:101D20008E75637992817B887E77808180808080C8
:101D300080807F807F7B7E8485807882947E6E85A4
:101D40006E518AA895AE8D3A628B597DBF896183A9
:101D5000A2AA6C377C853994009345837D52749593
:101D60008F817483917F78817B788182808080806D
:101D7000807F7E80817E81847E78778A9C735B8C75
:101D80008F769A834984A2719B982D5FD6A5595965
:101D900074A28B65AB90137A007B258C9E6F869125
:101DA0007A70718C98786F84837E82807E80808048
:101DB00080807F80807C7E82807E7F8F9972587B3E
:101DC0007F729B936A96A36C8077265CCEB67F7AEF
:101DD0008091704C8B843191008F3E83875F77892F
:101DE000807D809195776D7E807D82817F808080EF
:101DF00080807E7F807E83868076718399806C8AE6
:101E00007F678F8F6A91935C80935581CE8C424F10
:101E100080B8A26A8B71208B008A30758772939D7F
:101E2000806B698395807783807C81807F808080D0
:101E300080807F7F7F7D8084817C7A88977D677CAE
:101E40007567919A809D965B6D794879C89E666C9E
:101E500087A78755756C379B009943717865849483
:101E600083777689947E747E7D7C8181808080807A
:101E7000807F7E80837E7B7F848677768E82738C64
:101E8000796AA38B498DAD6075986485AC5E59A263
:101E90009F7A5165D4A3077000721B9ABA6F657C54
:101EA0008E8E71758C817A847E7C83807E8080802A
:101EB00080807F80817C7A7E85897F7F8E7E6B7B30
:101EC0006E69A1996A9DAB5E6277527BAC7D7FB4EF
:101ED000A271424CAB9327890088368E9E5F5C7856
:101EE0008F95807F8C7E767E7B7C83817F808080D7
:101EF00080807E80817E7E82858171738E8C808AD7
:101F00006E5E96956A989C4E629380A0AC5342890F
:101F1000A298736AAB811683008328809E72788CA6
:101F20008F8369718C8780837B7A82817F808080B8
:101F300080807F7F807D7D8185857A7B8E87777CA1
:101F4000665F979F80A39E5055796D93AD6F669C99
:101F5000A48C615590792F9400933C7B8B656E86A1
:101F6000908B767A8C847C7E7A7A82818080808065
:101F700080807E8082807F807F80787F937F6A7F71
:101F80007F80A7803E7FB27F80804E7FBB80617F55
:101F9000807F7780BA7F0F7F0080217FA87F7B8042
:101FA0008080747F9080757F7F8083807D8080803B
:101FB00080807F7F817E7D7F81837F85927D657438
:101FC000757BA58D5B8FB0796D684378B9947F94EC
:101FD000877864679D7829920090377A9470707B37
:101FE00083888086907E737C7D7F83807E808080E6
:101FF00080807E7F81808182817D747B9288767FE4
:1020000075729B895B8BA36B6D806A97B9714C70FD
:1020100087988D809D691A8D008B2B6E947F878C9D
:1020200083796D7B90857B7F7D7D82807E808080C3
:1020300080807F7F807E7F8182807A8192857075AB
:102040006D709B947097A468616C5C8DB7846A8492
:102050008D8E7A6A87662F9A00983C6C85727C8791
:10206000868277818F83787C7B7D82817F80808070
:10207000807F80827A858075936E7F9857A17F5686
:10208000C14D7FBB25C38034EE2E7FD603D980257A
:1020900000257FD706D38031EA3880BF2BB7805127
:1020A000BB5A7F9C5D9480728E787F837D80808018
:1020B000808080807A7E7A768F81919F6F8B664355
:1020C00087538ECC80D7923E8C09469D4CF2CC87AC
:1020D000E432426AFB9C95860086919524725C5797
:1020E000AE839CA57187746C8179818480818080A6
:1020F000807F7F7F7A8385828F6D6E826FAE9966D7
:10210000873871C180CA6D158C4FB9F94C89331C61
:10211000E492BDB4FB6E6A7800786E7224A1A38944
:10212000AE566382719D8B7781747E8380807F80C1
:102130008080807F7A7F807F8C7B7F8C79998057AD
:102140006F477FC7A4D17F2C64317FC16CAE80679D
:10215000D37C7F710065809E009C806B2776807E9B
:10216000A6757F8F7A8F80727C777F848181808053
:10217000807F7F7F7C86867B82687FA17B8F614D9D
:10218000B38C9B8C138EA391D71E3CA871F980044D
:102190008E55C8E9206B576F00705E703DC2A96A0A
:1021A000864D7FA77C89726F8B8182807C80808046
:1021B00080807F7F7B81807A83788BA181845A465F
:1021C0008D7F9CA35BA8A47E96102C8B85F9B357BA
:1021D00099548794186373980096756A388D84694A
:1021E0008B6F92A781826E6D837F82827E808080DA
:1021F00080807F7E7B848782836A748E819C7C5EF4
:102200008D6C889C5BA08B63963E79C985B34C0F1F
:102210009994D8C61845568E008D5D5338ACB28A55
:102220008B516D9081917E75837D80817E808080D1
:1022300080807F7E7B80838084767F9385907054BE
:10224000796A8DA980AF9160752C5EAB8FC4804B8D
:102250009F83A48F14496BA600A26F563589948181
:102260008E6A7F96848A79717E7C8182808080806C
:10227000807F7F807F867C718F847F7A60AC924D77
:102280008775AC9B139FBA6F8C1EA9F51E6A7F954C
:10229000E40553E972923E5B005E498D76C266406A
:1022A000AE887F79649C886F817E84817C80808009
:1022B00080807F7F7D8179748C8A8B876F987B4645
:1022C0006F6FA7AE5BB4B368641075BE4E9AB3B7B8
:1022D000D31E39944F7D628B008A677D5E8D574D8A
:1022E000A6979288728F7D6D7C7D83827E808080B0
:1022F00080807F7F7D84807C8C7D74736FAF9D5EDA
:102300006F5D94A65BAB9A4C643EC2FC4E544C701D
:10231000D35E8BC64F5E458100814F665EAC866E94
:10232000A6796D71729D8D757C7A82827E808080A7
:1023300080807F7F7D807E7B8B837F7F779F8954AA
:10234000635F96B180B89D4F502C94D2667D7F9389
:10235000CA5B698F3D5C5F9C009964645289736DB0
:10236000A2877F7F78938471797A8282808080804F
:10237000807F7F7F7E868177837A7F88779A784D8A
:102380008D95B0831383BE9F961E6EC6679E7F6039
:10239000993692E9675D387B007C44656FC28A5A42
:1023A0008B737F8979907C6F838384807C8080802D
:1023B00080807F7F7E827E788481888E7D8F6D484D
:1023C0007989AB96499AB88D751356A978B5A687C1
:1023D0009F3C6FA9505A559700955C635E9A765D55
:1023E0008E838E917E89776D7E8184817E808080D0
:1023F00080807F7E7E84837D847777807DA1875AED
:10240000797B9C914993A57975368FD778805951FE
:102410009F6DACCF50434090008E4A525EB199768A
:102420008E6C71807E9583737E7F82817E808080BA
:1024300080807F7E7D82807D857D7F8681977B53B6
:102440006E769C9E6AA2A572622975BD83997F747F
:10245000A2678BA1414755A2009F5C545495867397
:102460008F7B7F88808E7D717B7E82817F80808064
:10247000807F7F8180827A7A9377718C8090656B80
:10248000C166589D80A14D5AEE5744AB80AC405276
:10249000005240AB80A94658EA5C4F9F809B5B6826
:1024A000BB6D688E808A73798E7C7C8180807F8012
:1024B00080807F807E7F777991807F95858759574F
:1024C0009F626AB3A4BA6354B43129938FCC8085D8
:1024D000F64C2471589260840084658E64764B6556
:1024E000B6827F9884846E72877B7D8381807F80B3
:1024F000807F7F7F7E827F8191736881859F7B6FE4
:102500009F5056ABA4B14A39B45F76D08F86193D3F
:10251000F68C76A35874437A007B4D7764967A865E
:10252000B6645A8184937E7A87787B8281807F80AB
:1025300080807F7F7D7F7C7F8F7C778987927061B1
:10254000875568B5B6BC61418C445CB197A3596DA1
:10255000E47D5A75446C5D970095637056796A7E88
:10256000AE78718B868B787681797D8381807F8050
:10257000807F7F7F7F847F7C897074968D8A565E92
:10258000BC8873885B896F8BE63E239AA8D04C2D5C
:10259000BD637DC6707236740075427575AC7E7110
:1025A0009C5E6D9A8B866D758D817E807E807F802E
:1025B00080807F7F7E807D7C887A7F998D83545454
:1025C0009D7F7D9A809E7C7FB22C1D88A9DB8061D7
:1025D000B95F5F8F576A539200905B6F63896D6F2D
:1025E0009A737F9D8B826B71867F7F8180807F80D5
:1025F00080807F7E7E83828188706E8A8D956D66F5
:102600009D716F9580986A6AB24F57B6A9A6332B11
:10261000B98F9CB457543E8B008A495E63A1908762
:102620009A5D638C8B8D7777867D7E8180807F80BD
:1026300080807F7E7D807F808878788F8D8D675DBC
:102640008A6F78A195A67566923D48A2AAB7615592
:10265000B7827E8C4754549E009B5B5E58877F8177
:10266000996E74918B887474827D7F8180807F8065
:10267000807F7F80818478769182747C7A9D775E7A
:102680009F787E925B957E75B43E6CCE70714C8E59
:10269000F62E2FC6A78C2567006934899BAC52554E
:1026A000B6856D7B7B927C75877E7F817E807F8007
:1026B00080807F7F808077778F877F857F926C5443
:1026C000877386A280A7876E8C2C54AF80947FA9D5
:1026D000E436258F807E47880087507E7F894C5A5C
:1026E000AE917F86808B7771817E808280808080B2
:1026F00080807F7F80837D7D8F7D6E767FA38666E1
:102700008765779C80A075598C4F8EDD805F337410
:10271000E46762B48067318100813E6D7FA16F7391
:10272000AE7B63757F968277817B7F8180807F809F
:1027300080807F7F7F807B7C8D82787F83997A5DAC
:1027400079657FA795AD7E59743D74C1897E618F8F
:10275000DA624F8C686349960094526A6F8764709E
:10276000A986747F828F7D747E7B7F8280807F804C
:10277000807F7F7F80847D79887B778686946A5A84
:102780009D8F8C8249829097B2364FB49297596848
:10279000B94867CF9265287C007D366C8CB1726336
:1027A0009A767187858C7673868281807E80808020
:1027B00080807F7F7F827C7988817F8B878C645348
:1027C0008A878F926A94948A922941A198AB7F86D6
:1027D000B74A54A17662429300914C697995666438
:1027E00099827F8D86877371828181817F808080CD
:1027F00080807F7E7F83807E88797180879A7861F0
:102800008A7C848D6A8F857A924570C69880425BF7
:10281000B77085BF764F318D008B3E5B79A782788C
:102820009970698086907C76827F80807F808080AE
:1028300080807F7E7E817E7D887E7A858993715AB5
:102840007E788899809C8A747D375FB29B95667686
:10285000B66B6F9B6450459C009A4F5B6D9176758B
:10286000997B7686878C79737F7E8081808080805B
:10287000807F7F817F807C818F677FA3607A927F5A
:10288000874DACAB13B1B9358C80A9721E0080FEA8
:10289000E48E537F72D23E46FF4B49BE767F6687F9
:1028A000AE4A7FA9647C887F817884827C80808026
:1028B000807F7F807D7C797F8C778BA26F767B6831
:1028C0006F55A7B85BC0B341645175674EFEB352F4
:1028D000D379394E4FA8627D007D679E5E60577C3C
:1028E000A66D92A8727A7D787C7983837E808080C1
:1028F000807F7F807D8080868C69748F6F8E9D80C5
:102900006F4394B15BB79A256480C2A54EB74C0A59
:10291000D3B98B7F4F89457300744F875E7F869D47
:10292000A64F6D9272898D7F7C7682827E808080B8
:1029300080807F7F7D7D7E838B757F947786896E97
:10294000634B96B980C19D32505D949066C88047B4
:10295000CA9F695A3D7C5F910090647D5268739074
:10296000A2687F977884847A797782838080808058
:10297000807F7F807F82818283677FA37879786F71
:102980008C7BAF8D158FBD7895606F6F670080FE73
:10299000999191A268883A6EFD6F45866F958A88F5
:1029A0008B4A7FA9797C7C7A827F84807C8080803E
:1029B00080807F7F7E7F7E80847388A37D766D613B
:1029C0007975AB9E49A3B870754556687800A63BEB
:1029D0009E816F75507B558DFF8C5C7C5E79768017
:1029E0008E638DA97E7A77767E7E84817E808080DC
:1029F00080807F7F7E818385846877947D888773DC
:102A000079679C99499CA55C75678F9678CB590529
:102A10009FB1AC9A5064408500854A6A5E9099994E
:102A20008E4D71987E85837B7E7C82817E808080C6
:102A300080807F7F7D7F808385727F9781837B67A6
:102A40006E679CA46AA9A55B6250758883D58037A0
:102A5000A29E8B774160559A00985C68547A868F65
:102A60008F617F9B80827D787B7C82827F8080806B
:102A7000807F7F8081827A7B8C797F89658D986F5A
:102A80006F6BBB97139BCD61645FB7A22FA37F5B76
:102A9000D35B44A39EA128600063369994965E6D33
:102AA000A6707F8B69888B7A7C7C85817C80808016
:102AB00080807F807F7F797B8B80888F7085856128
:102AC0006369B4A649ABC35F50448D8E4FB9A683EA
:102AD000CA593475798E48830083518A7B79556B46
:102AE000A2818E9272838276797C85827E808080BC
:102AF000807F7F7F7F817E818B76778170979F73C8
:102B0000635CA5A049A5B04A5067C6BC4F84594E26
:102B1000CA89729A7977337C007C40797B9078847B
:102B2000A26B7181728E8E7B797A83817E808080A8
:102B300080807F7F7E7F7C7F8A7D7F87768F8E6798
:102B40005C5DA3AA6AB0AE4D4450A1A7629C7F71A0
:102B5000C47E5C7762704B92009054736B7A6B7E8C
:102B60009F797F8977898678777A83827F80808052
:102B7000807F7F7F80837F7D84747F90768783666C
:102B80007986BA861387CB88754F889461BC7F425B
:102B90009F6A77B48B7529770078387887A17B7521
:102BA0008E667F93778481777E8085807C8080802D
:102BB00080807F7F7F807D7C857B87947B82785D32
:102BC0006E7FB4953E98C47F623D6F8771C99E67E2
:102BD000A265608C716F438E008D4D7375876E7228
:102BE0008F758B977B817C747B7F85817D808080D6
:102BF00080807F7F7F828181857378887B908D6BD9
:102C00006E74A9913E93B56E62589DAB719E613C06
:102C1000A28C91AA715C328800883F65759A8A8679
:102C20008F6474897B8A85797B7E84817D808080B6
:102C300080807F7F7E807F8085797F8C7E8B8263A2
:102C40006671A79B5B9FB26B5548859D7BAD7F5C92
:102C5000A4827A8A605B46990097506469867C8179
:102C600090717F8E7E8781767A7D83817E80808061
:102C7000807F7F8181807881916F74977A7C777F64
:102C80009F5E7E9D5BA17E4EB4806C7770D54C2993
:102C9000F6892F7FA7B72559005C34AA9B7F528401
:102CA000B65C6D9B7B7D7C7F877A7F817E807F8019
:102CB000807F7F80807D777F8F797F9A80796C6E2F
:102CC000876086AA80B087508C5D546D80DE805D01
:102CD000E47B255A809E477E007E50977F684C7D1E
:102CE000AE717F9E7F7B777A817B808280808080BF
:102CF000807F7F8080807D858F6F6E8B7F8A867FCF
:102D0000875277A480A9753C8C808E9C80A933283B
:102D1000E4AB627F8087317600773E857F7F6F9658
:102D2000AE5B638D7F86827F81787F8280807F80AB
:102D300080807F7F7F7E7B828D77789083857A719C
:102D400079567FAD95B47E427464748D89BA6152B0
:102D5000DA994F62687D498E008D527D6F6D648D6A
:102D6000A96D749282837D7B7E797F8280807F8053
:102D7000807F7F8080817D81886D779B867B6A7371
:102D80009D7C8C8A498B907AB2674F7392E2591C72
:102D9000B98D679A92862872007336848C907286F9
:102DA0009A56719F857D767B867F81807E8080802C
:102DB00080807F7F7F7F7C8088757F9C8778646739
:102DC0008A778F986A9C94739250416C98E68049F8
:102DD000B7805477767C428A00894C7D797A668008
:102DE00099697FA1867B7378827E81817F808080D4
:102DF00080807F7F7F818084886D719087867875E1
:102E00008A6C84946A978563926C709198BC421E18
:102E1000B7A785957669318400843E6F798D829459
:102E20009957699386847C7C827C80817F808080B6
:102E300080807F7F7E7F7E8288747A938982716BA7
:102E40007E6B889E80A28A617D585F879BC66643A1
:102E5000B6996F786466459500944F6C6D7B768C5F
:102E600099667696878179797F7C80818080808061
:102E7000807F7E808281787C8F7A77877889827361
:102E80008770959149949B698C678699689A596473
:102E9000E4642D9ABB991B68006A2C93A990507228
:102EA000AE7471887986817B817D82817E8080800D
:102EB00080807F80807F787C8D807F8C7C8477672A
:102EC000796E969E6AA39D6574506D8B76AD7F83F7
:102ED000DA602577978B388200824488907A4C6F2D
:102EE000A9817F8E7D827C787E7D82817F808080BB
:102EF000807F7F7F80817C808D7871807C928C75D3
:102F000079638B9A6A9D8E55746C9CB07683425817
:102F1000DA8756959779277C007D357A908D68837E
:102F2000A96F69817D8B857C7E7B81817F8080809C
:102F300080807F7F807F7B7F8C7D7A867F8C816B9A
:102F40006F638EA380A89256645884A0809766739E
:102F5000D37E497880723D8F008E48757F7B607F7D
:102F6000A67A76877F8780797C7B8182808080804B
:102F7000807F7E7F81827C7E8876788D8186766B6D
:102F80008A849C853E85A4879258699085B0614E5D
:102F9000B76F5AAAA6771F7900792F799A9A6A771C
:102FA000996B748F81837B79828082807D80808021
:102FB00080807F7F80807B7D887C7F9084826F6330
:102FC0007E7F9C915B94A47F7D485A858CBC7F6BEF
:102FD000B66A4C8A8C71368C008B42758886627416
:102FE00099777F93838178767F7F82817E808080CE
:102FF00080807F7F80827F8188757487848E806FD8
:103000007E76928E5B9098717D5F80A48C994C4700
:10301000B68A75A38C6228870086366988967A8579
:1030200099686D888388807A7F7E81807E808080A9
:1030300080807F7F7F807D80887A7A8A85897867A3
:1030400075739497709B996E6E50709891A76A6192
:10305000B581658879603A95009346687B85708173
:103060009873778C84867C777D7E81817F80808059
:10307000807F7F827C80867882827F7C7B98617F64
:10308000B3369BBA13C3A313D7803CBF71727F8E34
:103090008E3DC88020F8573200395EDC3D7FA95D47
:1030A0008685807B7C8F727F8B7482837C8080801E
:1030B000807F7F817B7C807883898B88818A5A6836
:1030C0008D469CC25BCBA42A96512C9B859FB3B2A4
:1030D0009944874E18C17370007175B2386084616D
:1030E0008B95928A81866E78837782837E818080B9
:1030F000807F7F807B808780837C747581A17C7FCB
:103100008D3388BB5BC38B0F968079D885584C6B09
:103110009984D88018A3566600685D9A387FB28279
:103120008B776D7381957E7F837480837E808080B2
:1031300080807F807B7D837F84827F808595706E99
:1031400079408DC080C99121755D5EB78F817F8F79
:103150009F77A45A148F6B8700876F8B3568947B99
:103160008E868080848D797A7E768183808080804F
:10317000807F7F807C82887B7B797F898A8D576F77
:10318000AA6BA497139BAF61C85F25A29EA37F5B28
:10319000605BE0A331A14960006352994996B66D26
:1031A00071707F8B88886D7A897C83817C80808038
:1031B00080807F807C7F837B7E80888F8B8554613D
:1031C0008F69A2A649ABAD5F9B441F8EA2B9A683AF
:1031D0007459A975278E62830083668A4279976B3A
:1031E0007A818E9289836C76837C83827E808080D4
:1031F000807F7F7F7C8189817E7677818B976E73DC
:103200008F5C94A049A59A4A9B6758BCA284594EEA
:103210007489E69A27774C7C007C55794290BA8471
:103220007A6B7181898E787B837A82817E808080BF
:1032300080807F7F7C7F857F807D7F878C8F6767A5
:10324000805D96AA6AB09C4D805049A7A49C7F716E
:10325000807EB97721705F92009064733E7AA07E81
:1032600080797F898A897478807A82827F80808061
:10327000807F7F817E828175838B7F6F77A0786F5F
:103280008D5CB0A213A6BE4B965F6ED567447FBC23
:10329000992692A367BB3853005744AC6F968A5166
:1032A0008B98806C79947C7A837A84827C8080800D
:1032B000807F7F807E7F7E76848E887C7D946D612A
:1032C000795EABAE49B4B84E754456B47872A6CCAC
:1032D0009F306F7550A15579007A5C995E79765769
:1032E0008E9F8E7B7E8C77767E7A84827E808080B5
:1032F000807F7F807E81837C8484776D7DA58773CA
:1033000079509CA849ADA53975678FE3783D5996EA
:103310009F61AC9A508A407200734A875E909970A0
:103320008E89716A7E97837B7E7882827E808080A0
:1033300080807F7F7D7F807B85887F78819A7B6797
:103340006E549CB06AB7A53F625075C683637FAA6E
:10335000A25D8B77417F558A00895C7F547A866EA7
:103360008F91807680907D787B7982827F8080804B
:10337000807F7F807E8384787E827F7D83966B666C
:103380008F7AB28D138FC0779B4F51BA8B757F8A1E
:103390007442B1B46289366D006F42866BA19C6045
:1033A0007A84807C838E7677837F84807C80808023
:1033B00080807F7F7E80817980868784868E645D31
:1033C0008076AD9B3E9FBB71803D43A592909EA1B0
:1033D00080458F8C507E4D860086557E5F87886144
:1033E000808D8B85858973747F7E84817D808080CC
:1033F00080807F7F7E82857D807E7878869C796BD9
:10340000806BA2973E9AAC61805871CA92656176D2
:10341000806CC0AA506C3C80008047705F9AA47595
:10342000807C747785917D797F7C83817D808080AD
:1034300080807F7F7D80827D81827F7F87947263A1
:10344000756AA1A05BA5AB5F6D4860B6977E7F8C67
:103450008767A18A44684E920091576D5686927391
:103460008385807F868D79767D7C83817E80808058
:10347000807F7F817F807F7A8981747D8D90567F68
:10348000BC4F73A75BAC6F37E68023AAA8764C8944
:10349000BD537D7F70D0364C005042BD757F7E6934
:1034A0009C836D7D8B8A6D7F8D787E827E807F8010
:1034B000807F7F817E7D7D7A88877F868D87546E31
:1034C0009D547DB280B87C3FB25D1D94A9977FA6C4
:1034D000B9535F5A57B1537400755BA563686D6843
:1034E0009A8F80878B846B7A86797F8280807F80B9
:1034F000807F7F807E808280887D6E778D996D7FD2
:103500009D466FAC80B26A2BB28057C2A9623370FD
:10351000B9839C7F579A3E6C006E4994637F90817B
:103520009A7963768B8F777F86777E8280807F80A3
:1035300080807F807D7E7F7F888278808D9067719C
:103540008A4C78B395BB7534926448ACAA81618C7F
:10355000B7797E62478C548600855B89586D7F7C85
:10356000998574808B8A747B82787F8380807F804A
:10357000807F7F807F81837C827A77879389517374
:10358000B370849149948569D7671899BC9A596436
:103590008E64A29A69993468006A4193709093721C
:1035A0008674718890866A7B8B7D80817E80808026
:1035B00080807F807E7F807C83807F8C9284506738
:1035C0009C6E899E6AA38B65B050168BB9AD7F83C4
:1035D00095608277568B4C8200825488637A816F23
:1035E00089817F8E90826A78867D80817F808080CD
:1035F000807F7F7F7E8184808378718092926575E1
:103600009C637D9A6A9D7C55B06C44B0B9834258E6
:103610009587B39556793B7C007D467A638D9D8373
:10362000896F6981908B737C867B7F817F807F80AF
:1036300080807F7F7D7F827F837D7A86928C616BA5
:103640008D6382A380A8835696583AA0B797667375
:10365000997E967849724D8F008E56755A7B8D7F74
:103660008B7A76878F877179837B80828080808058
:10367000807F7F8180817D788888777386986A7360
:103680009D658C99499D9058B2674FC0925359AD32
:10369000B93C679A92AC285E006136A18C90725D4D
:1036A0009A927171858F767B867B81817E80808006
:1036B000807F7F807F7F7C78888B7F7C879064672A
:1036C0008A658FA46AA99458925041AA98757FBCC4
:1036D000B7405477769A427A007B4C94797A665F49
:1036E0009999807C868A7378827B81827F808080B2
:1036F000807F7F807F81807D88837171879E7875D0
:103700008A5A84A06AA48547926C70CF984A4291E5
:10371000B76785957688317400753E86798D82739A
:103720009987696E86937C7C827A80817F80808095
:1037300080807F7F7E7F7E7C88867A798996716B98
:103740007E5B88A880AE8A4A7D585FBA9B6766A375
:10375000B6636F78647F458800874F7F6D7B767195
:10376000998E7678878E79797F7A80828080808042
:10377000807F7F808082807A8381787D8C91626B6C
:103780009C7B958B3E8C9B79B0583DAEA77761882A
:10379000954F89AA8587297100723785839A856636
:1037A0008983747D8A8B7279867F82807D80808018
:1037B00080807F7F7F807E7A83857F838D8C5E6330
:1037C0008D7796975B9A9D749648359FA88D7F9BC1
:1037D000994F738A707E3E850085497E758678662E
:1037E0008B8B80848B877076837E82817E808080C5
:1037F00080807F7F7F82827E837E74798D97706FD9
:103800008D6E8C935B959066965F5CBEA86A4C78D3
:10381000996F9CA3706F308000803D737596907790
:103820008B7C6D788B8E787A837D81817E808080A1
:1038300080807F7F7E80807D84827A7F8D916A67A1
:10384000826D8F9C70A09364835050AEA97E6A8B6A
:103850009C6B8688626B4290008E4C706B85837582
:103860008D84777F8B8B7677807D81817F80808050
:10387000807F7F827E7D818083787F8B777F789049
:103880008D41B0AC13B2BE2496A06E7E67A87F5661
:103890009981925C67E63845004A44CD6F698A8019
:1038A0008B6E808D797F7C85837684827C8080801E
:1038B000807F7F817E7B7E7E848088907D7B6D7A19
:1038C000794AABB549BDB8317575567378BDA680D8
:1038D0009F756F4050C1556F00705CB25E57767A2D
:1038E0008E808E937E7D777E7E7784837E808080BF
:1038F000807F7F817E7E8384847577827D8C878CB8
:10390000793C9CB049B7A51C75988FA17888594A15
:103910009FA5AC6550AA406700694AA05E6F999365
:103920008E6971827E8883847E7582827E808080AB
:1039300080807F807D7C8082857C7F8881867B7B88
:103940006E449CB76ABEA52862777591839F7F6E8F
:10395000A2948B4C4199558200815C93545F868A76
:103960008F78808A80847D7E7B7682837F80808052
:10397000807F7F807E8084807E737F91837D6B7F5C
:103980008F66B2951398C05A9B8051798BC07F3E49
:103990007487B18062A936630065429F6B7F9C8308
:1039A0007A658094837E767F837C84817C8080802E
:1039B000807F7F807E7E817F807A8794867A647123
:1039C0007F66ADA13EA6BB5A8064437192CB9E64D4
:1039D000807C8F6250984D7E007E55925F6D887E10
:1039E00080748B98857C737B807C84827D808080D2
:1039F000807F7F807E808584807278898688797FC9
:103A00007F5BA29D3EA1AC498080719692A16139F5
:103A100080A2C08050853C78007947845F7FA49164
:103A20008062748A85857D7F807A83817D808080B5
:103A300080807F7F7D7E828281787F8D8784727493
:103A4000755DA1A65BABAB4C6D68608B97B07F5A80
:103A50008795A167447D4E8B008A577E5670928A67
:103A60008370808F8682797C7D7A83827E8080805D
:103A7000807F7F8180807F7C84817F7E768C837F46
:103A8000795BBA9D13A1CB497580889F61797F8747
:103A90009F5E77808BBC2959005C38AE877F7B6E38
:103AA0008E82807D7787817F7E7A85817C80808011
:103AB000807F7F807F7E7D7B858587857B86787113
:103AC0006E5DB4A83EADC44C62646F9071929E9ED0
:103AD000A25C606271A7437600774D9E756D6E6D36
:103AE0008F8C8B867B837C7B7B7A85827D808080BC
:103AF000807F7F807F808180857D78797B948D80B9
:103B00006E52A9A33EA8B53C62809DB571686173F1
:103B1000A28291807195327000723F90757F8A8188
:103B20008F7A74787B8C857F7B7884827D8080809F
:103B300080807F807E7E7F7F85817F807E8E827485
:103B40006655A7AB5BB1B240556885A47B807F8A80
:103B5000A47A7A67608A46850084508769707C7D84
:103B6000908480807E88817C7A7983827E80808048
:103B7000807F7F808081817D7F7B7F858087767558
:103B80007F73B98E1390CB6D806C6B9480957F6A38
:103B9000806A969580942A6D006E388F7F8D8C7424
:103BA0008076808680847B7C7F7E85807C80808020
:103BB00080807F807F7F7F7C8180858A82836F6B1E
:103BC0007571B599379DC46A6D585B8987A69982CE
:103BD00087667D786C89408200824A87727B7E721C
:103BE0008381898C828278797D7D85817D808080CA
:103BF000807F7F7F7F81838081797A80828F8077C9
:103C00007568AB953798B85C6D6F81A88783665EE1
:103C10008786A6916C7A317D007D3E7B728B968380
:103C2000837276808289807D7D7C84817D808080A6
:103C300080807F7F7E7F817F827D7F85848A796E91
:103C40006D67A99E51A2B55C615E719C8D947F7574
:103C50008D7E8F795E74438D008C4D77687C887F74
:103C6000867B808683867C7A7B7C84817E80808054
:103C7000807F7F81807E7D80887A7788867F6A8C4E
:103C80009D518CA149A6903BB2984F7E929E59615E
:103C9000B981676592CC2854005736BA8C6F728010
:103CA0009A737189857F7684867881817E80808011
:103CB000807F7F817F7C7C7E88807F8D877C647B1A
:103CC0008A558FAB6AB194419277417698B07F80E4
:103CD000B777544C76B4427200734CA8795F667B18
:103CE0009980808F867D737E827981827F808080BB
:103CF000807F7F807F7E808388777181878A788AC2
:103D00008A4A84A66AAC85309293709B9886425505
:103D1000B79D856A76A2316C006E3E9A7972828F69
:103D2000996E698286867C83827780827F8080809C
:103D300080807F807E7D7E82887D7A878985717C88
:103D40007E4E88AD80B48A377D795F8E9B9966718F
:103D5000B6916F556495458100814F906D65768869
:103D6000997976888783797E7F7880828080808049
:103D7000807F7F80808080808376788E8C7D627F5C
:103D80009C6B95913E939B62B0803D7AA7B3614B4B
:103D90009585897F85A12968006A3799837F858207
:103DA000896A74908A7E727F867C82817D80808021
:103DB000807F7F807F7E7E7F837B7F918D7B5E7423
:103DC0008D6A969C5BA09D6096683573A8BF7F69DD
:103DD000997C736770943E7E007E498F7570787E03
:103DE0008B7680948B7D707C837C82817E808080CA
:103DF000807F7F807F808283837474878D87707FCC
:103E00008D618C985B9B905296805C92A89B4C45F0
:103E1000999C9C7F70843079007A3D83757F908E69
:103E20008B676D898B84787F837B81817E808080A6
:103E300080807F7F7E7E808284797A8B8D836A7595
:103E400082628FA070A59353836C5089A9A96A5F81
:103E50009C92866A627D428A00894C7E6B7283895D
:103E60008D72778D8B82767C807B81817F80808054
:103E7000807F7E8181807C7C8881787E8189767F4D
:103E80008A629C973E9AA45492806999857A61854A
:103E9000B7655A7FA6B01F6000632FA49A7F6A722D
:103EA0009982747E81867B7F827B82817D80808007
:103EB000807F7F80807E7B7C88847F8484856F7414
:103EC0007E639CA15BA5A4557D685A8D8C8F7F99DC
:103ED000B6624C678CA03678007842998870627020
:103EE000998A80858383787C7F7B82817E808080B5
:103EF000807F7F8080807F80887E747A8490807FBE
:103F00007E59929D5BA198477D8080AC8C6C4C75EE
:103F1000B682757F8C9128730074368D887F7A8184
:103F2000997B6D79838A807F7F7A81817E80808092
:103F300080807F807F7E7D7F88817A80858C787588
:103F4000755B94A570AA99496E6C709F91806A8880
:103F5000B57B656A79883A84008446867B72707D79
:103F60009883778084877C7C7D7A81827F80808043
:103F7000807F7E8081817F7D837C7A8488866D7757
:103F80008D75A08B378DAA70966F56919891666D3E
:103F9000996D7991989021700071318C908B7C761D
:103FA0008B7876858684777D837E83807D80808014
:103FB00080807F80807F7D7D84807F898983686E1B
:103FC0008273A0955199A96D835E4C889BA07F82D6
:103FD0009C6968798388358100814186827C72740E
:103FE0008D80808A8782757A807E83817E808080C2
:103FF000807F7F7F80808180847A7580898D7778CB
:10400000826B979251959E6183726DA29B825463DD
:104010009C858B8F837B297D007D377C828986827E
:104020008D746F8087887C7D807C82817E8080809B
:1040300080807F7F7F7F7F7F847E7B848989727091
:10404000796A989A649E9F60756261989E916C7679
:104050009F7E7A7A7476398B008A4578787C7D7F6A
:104060008E7C78858885797B7E7C82817F8080804C
:1040700011241FBECFEFD0E1DEBFCDBF11E0A0E025
:10408000B1E0EAE3F2E402C005900D92A031B1077D
:10409000D9F711E0A0E1B1E001C01D92AE31B10746
:1040A000E1F70E94FF200C941B210C9400001F924A
:1040B0000F920FB60F9211240F931F932F933F93DC
:1040C0004F935F936F937F938F939F93AF93BF9320
:1040D000CF93DF93EF93FF931BB880911001E09192
:1040E0001401F0E096E0EE0FFF1F9A95E1F7E80F5C
:1040F000F11DE059FF4FE491E8B98F5F8F73809312
:10410000100190E89BB98823D1F560E030E007E02A
:1041100010E07EEF2EC0C32FD0E0AE0140505F4FC5
:10412000FA0120812E3F21F12F3F31F4C85FDE4F8D
:104130008881682B10821CC0283019F4FA01708322
:1041400017C0822F992787FD9095F801E81BF90B7E
:10415000E85FFE4FDE01AB5EBE4F80819C918923FC
:1041600039F0C85FDE4F8881682B2F5FFA0120830A
:104170003F5F383080F26093140130931D01FF914E
:10418000EF91DF91CF91BF91AF919F918F917F91EF
:104190006F915F914F913F912F911F910F910F90D0
:1041A0000FBE0F901F9018957894889518958FEFF3
:1041B00087B983E88AB9E1E8F0E089E0808384EF99
:1041C00091E090938900809388008AEE91E090932B
:1041D0008B0080938A0096E090936F0088E1809333
:1041E000C1009093C200F093C500E093C40078949E
:1041F00083B7817F83BF83B7816083BF08950E94A7
:10420000D720909113012FEFA92FB0E0FD01E050CE
:10421000FF4FE0818091C00087FFFCCFEE3FD1F7D8
:104220008091C600FD01EB5EFE4F8083A050BF4F22
:0A4230002C939F5FE9CFF894FFCFB5
:10423A00FEFEFEFEFEFEFEFE010204081020408085
:00000001FF
