:100000000C9438200C9455200C9455200C945520B9
:100010000C9455200C9455200C9455200C9455208C
:100020000C9455200C9455200C9455200C9455207C
:100030000C9455200C94F5230C9457200C945520C7
:100040000C9455200C9455200C9455200C9455205C
:100050000C9455200C9455200C9455200C9455204C
:100060000C9455200C9455200C9455200C9455203C
:100070008080808080808080808080808080808080
:100080008080808080808080808080808080808070
:100090008080808080808080808080808080808060
:1000A0008080808080808080808080808080808050
:1000B0008080807F7B78777B85939D9C8C71554475
:1000C0004A6998C4DACD9F5F260C205AA6E5FFE75F
:1000D000A7581A031D5BA3D9EAD29D643B31456B37
:1000E00092AAAEA08A766C6C737C828482818080B6
:1000F00080807F7F7E808284817B7779838D8C80F6
:10010000706B788E9B907661657F9CA28B69596934
:100110008BA49E7F625E75939F9177666B7F9192B1
:1001200085767278838885807C7C7F8080807F80E4
:100130008080807E7B787A7F878E92948F7E6449E0
:1001400040588FCCECD794451315417DAEC9D2CA27
:10015000AF7D3D0D093E97E5FFDC934E2D375A7E6E
:10016000969E9E978C7F736E717981848381808047
:1001700080807F7E7F8285817875808F907C666BA2
:100180008AA3966C526A9DB491574776B2B87F475E
:100190004C89BBAB6D455E99B5976353729BA28545
:1001A00068687F928E7D74798285827E7E7F808072
:1001B0008080807E7C7B7D7D7E8797A39771493F81
:1001C0005D8AA5A7A4ACB18F4503055AC7FEE6A575
:1001D00076685E3F213381DCFFD481453E576C73E6
:1001E0007B8FA5A89376676B7881838281808080DE
:1001F00080807F7D7E828785797177899489736B12
:100200007A8F8F7B6D7B949676576499BDA1593018
:1002100058AEDAAB4F2353ACD5A85A395E9BB3978F
:100220006D5F728A91867A797E82817F7F7F8080FE
:1002300080807F7D7B7C7F807F838D99957C5B4AEE
:10024000587B9AAAB0B0A2783D172D77C2DABB903E
:100250007F84784A1D297AD9FFD27B3E3B5E7B8220
:100260007F86959D927E6F6E777F8282818080806F
:1002700080807F7E83847A758493806475A1985E84
:10028000559ABB753773CDA6383EB7D6611C7FE54E
:100290009F2544C6CE54288DD58C365FB6AC5E51B2
:1002A0008EA9805F77948B757684857F7D7F808033
:1002B00080807F7E7F7D777686989280818B744563
:1002C0004482B4A48BA9C3831A0F669E8481CFFF96
:1002D000AC2E1B5E734E5FC0F7BB645A776A4656FE
:1002E00094B49D8081877A6D7280858280808080C1
:1002F00080807E7E82847D79868E775E79AEA55EF3
:100300004585B4845284C3881D3ED4F96C0659CE09
:10031000AB4963C6B1331DA1F49E2E45A2AC6F63F9
:1003200094A072587A9D9175728085807E808080BD
:1003300080807F7E7E7E797987938B7C83927D4AD5
:100340004076ABA999AFB871131879B08A74B3E845
:10035000AF4A3561633E5CC6FFC0624E6C6C55644B
:1003600096AB927C838B7E6E717E8482808080804F
:1003700080807E7D828680777D878074859B7F4D9F
:1003800062B9CC641360E2D44D1E7FC792577FA838
:100390006D3580E9B7210FA4FFA12238A6C280598C
:1003A00077907F7385917F6F7988877E7C7F80804F
:1003B00080807F7E7F7F7B78818E8F88898769446C
:1003C0005394B7947196C89E340C4D949E9EC2CDA2
:1003D0008A414A7A6B3753C3FFBD5A48727C615FCA
:1003E000849F98898884756C758385817F808080DF
:1003F00080807E7D8085827C7F83797287A089570B
:100400005B9EB8743C73C9AD423095D4974E6390EF
:10041000795E97D5961A1CACFFA82D328FB68D6EDB
:100420007D867570869484727784857F7D7F8080D9
:1004300080807F7E7E7F7D7B828A89848A8D724BDD
:100440005188AE98809CBB8C301960A2A090A9B94D
:100450008E595F7B603053C4FFBE5A436A7D6D6C1A
:1004600086978F858988796E758184818080808068
:1004700080807E80848077808F80687FA07F557F9A
:10048000B47F417FC87F2E7FD87F217FE3801A7F92
:10049000E6801B7FE180237FD580337FC380468049
:1004A000AF805A7F9B806C808B80797F82807F8039
:1004B00080807F7F7F7B747D8D8C83919C764A5A70
:1004C0007F7167ABE6B1606B7F370768D6C090C1BC
:1004D000D96700317F685CB8F8B3626E7F4E3673BF
:1004E000A99B8594987A67737F7D7D8283807F80C6
:1004F00080807E7F82807A838F7C627AA18C657F08
:10050000A16D408DDA8F2D64B87F439FE56B006B42
:10051000E8A13F7FBD612291EA903168AA7F5B919B
:10052000B07751799C877380877D798082807F80C6
:1005300080807F7F7F7B777F8D887E8C9B7F565EE0
:10054000766765AFECB65E5B6F3E237ED5AD78AE69
:10055000D87E1D386E5759BEFFB95F617353477F10
:10056000A8937D8E977F6D747D7C7D8283807F8054
:1005700080807E7E82827C8086766C8DA97C466EB1
:10058000B49E5E6F966D54ACD95D0077FEAF294F77
:10059000AA885DA5C24E1595F493275AAE976C8430
:1005A000936C608FA37E657A8C847C7F807F7F8054
:1005B00080807F7E7F7D797E878483969F76465676
:1005C00084867899BC9C758A882F0067E1D18D98C4
:1005D000AE703656754E51BBFEB6585A7865557892
:1005E0009589849A9B7A657281817F8181807F80E1
:1005F00080807E7E81827F8487746787A78756701C
:10060000A38B5C7CA87C5290BB612392F999164421
:10061000AEA278A1A43A19A1FF9E2A4B99947B918E
:1006200095675988A1846D7A88817C7F817F7F80DE
:1006300080807F7E7F7D7B8087827E919E7D525AE7
:100640007D7C759DC2A1727B7B371A7ADCBE7A8B6A
:10065000AF834C5A694451BEFFB8585270686281EA
:1006600095847D94997E6B737F7F7E8182807F806D
:1006700080807E7F858375788E8D6F6C9097736890
:1006800087927D7880777D9B8C5164BDB03937C867
:10069000DF3F0DB2FD610089F9891568D79F3E5E85
:1006A000AC9D65698D8E7A7881827F7F807F7F8027
:1006B00080807F7F817E75788C9182809088645560
:1006C0006C81899AA99E8C825E2C4196B1818BDEC9
:1006D000D0430667A35B3DAFFFAB486398703A60B9
:1006E000A5A784808D8573727B80808181808080C6
:1006F00080807E7E8382787B8D896B6A909D7D6A07
:100700007C83798291837785795679CCB23227B10F
:10071000DC5D2DACDC4F0795FF931B5AC09C516EDE
:10072000AA945F678E927E797F807F8080807F80B1
:1007300080807F7E807E777B8B8E7E7D908D6C59D6
:100740006779859EB0A28775563553A2B1777ACB6B
:10075000CC591F6993503FB3FFAE4A5C8D71496B12
:10076000A39F7E7D8D8877737A7E80818180808053
:1007700080807E7E83847A7A87847279969067609F
:100780008BA38B6E666C8EB4934349ACC46745995A
:10079000AF5146C1DA450596FF941953BEA95F686B
:1007A000958A6A77938A74758285817E7F7F80803F
:1007B00080807F7E807F797A878A828693855E5368
:1007C000738F918E919196966A2A358FBD9689B9CD
:1007D000AF51317C964A3AB2FFAD46578F7D536791
:1007E00095978387918370717D82818080808080DE
:1007F00080807E7E82837C7D87826F769595716412
:10080000829486787677889E834A5EB8C15F398AFB
:10081000AF695DB9C03C0F9DFF9A224CACA46C74CB
:1008200095846675928D79778083807F7F7F8080C5
:1008300080807F7E807F7A7C87887E83938A6657DC
:100840006E868D92999590896231469ABB8C7BAC6D
:10085000AF62437C8A433DB4FFAF4851877D5D70F2
:1008600095927E84908674727C8181818080808064
:10087000807F7E81837B7A8C856A7F9E745A9BA55C
:100880005062C28B2E8DD6542FC9BE1E5DF0800ED5
:10089000A3E63D30D8B01D70DF712DA4BD4E59B414
:1008A000905080A476688C8C757B86807D8080805B
:1008B00080807F807F787784867E91A38060777345
:1008C0004361B6AF85B6C6521A666C2F82FFCC79EB
:1008D000ACA51B067A875AACF8A860857B33469393
:1008E000947D9BA9806C7B7B727B858280808080DD
:1008F00080807E80827B7D8F866877967969A5A2CD
:100900004551B7984D9CC73B1CC3D4456AD35C0185
:10091000ABFF5E36B68D1B83F6832B8AA5516CC167
:10092000944B739A7A72918B727885817E808080E5
:1009300080807F7F7F797986877C8B9C826A7E74BA
:100940004058ADB393BBBB4513697D4988E8B06E91
:10095000AFB634106A7357B3FFAE5E767139549BED
:10096000967891A182727F7C717984838080808067
:1009700080807E7F827E7F897E677FA28361828C7A
:100980006384C37A2179D7865098842F8BFE8000A8
:1009900073D47A65B4781C87EF862D7AA46F7DAB0B
:1009A0007A4B80A8836C80847980867F7D7F80806D
:1009B00080807F7F7F7B7B84817A8DA388656D6B50
:1009C0005578B69C6EA0C6743758553B99FFBC60ED
:1009D0008BA24C34726952AFF8AA596F765062916B
:1009E000857296A9876F7779767E85817F808080F2
:1009F00080807E7F817E818B7F677A9A856D8A8BEE
:100A00005C76B6853E85C6714495975092E0660047
:100A10007DE28F689A622193F7913069927189B271
:100A20007E4B769F85748483777E85807D808080F1
:100A300080807F7F7E7B7C858278899E896D736DC7
:100A4000506FAFA17BA6BD672F5B644E9DEEA7578D
:100A50008FB05D39665C50B4FFB058646E536C99CA
:100A6000876F8EA388747A79757D84827F80808079
:100A7000807F7E80847F7880867E7F82717DA48265
:100A8000417DD7801681F07C1685D17853887F7799
:100A9000AE872979F383007EFC7E1582CF7C4E845D
:100AA000957C8082737E9080717F88807C8080803E
:100AB00080807F7F817C777E87878D8E7C7784673F
:100AC0004074C39F63A3D76F13508A6A74B2B8A8E7
:100AD000AF731A449E723CA7FFA34875955A457997
:100AE000969094907C7A8277717E86817F808080D8
:100AF00080807E7F837F7A83877C7A7E7585A782DC
:100B00004071C789338BDC6A1384D88E5F7A696A37
:100B1000AF9C467AD26E098AFF891D72B97C5F8EBE
:100B20009677777E76839280717D87807D808080C6
:100B300080807F7F807C79808785888A7D7D8969B8
:100B4000406DB9A171A6CA641355947A79A4A39B88
:100B5000AF83304A8F653FABFFA74A6C8A5E5281F4
:100B6000968B8D8B7E7E8478717D85827F80808060
:100B700080807E7F83817C8181787F8A7D7B8F7678
:100B80005491D1761374E99A356EA17477A57F5983
:100B9000888B5B93D162078CFF8B1B69B88C6B864B
:100BA0008370808C7D7D867D7582887F7C7F808050
:100BB00080807F7F807D7A7F83828B9182777A634A
:100BC0004D83C1925795D4852B48736A88C0AF8CEA
:100BD0009479405E925E3AAAFFA646668D6A5B7C77
:100BE00089859194827A7D76748086817E808080EA
:100BF00080807E7E82817E8381777B867F829377F1
:100C00005185C47E2D7ED8883170AB867E966D531B
:100C10008D9B6E90B9561194FF922360A78A768EB1
:100C2000866D79877F81887D7580867F7D7F8080D6
:100C300080807F7E807E7B808380878E837C7F65C3
:100C40004C7CB9966499CA7A294D7E788BB39E8381
:100C50009686506187553CADFFA9485F846C6583DB
:100C60008A818B90837E7F77747F85817F8080806F
:100C7000807F7E80857C76888D7170948E66769973
:100C8000836C82877989836285B16A3EABCB3B33C3
:100C9000DCC40F4AFCA00075F9761598D65E3FA318
:100CA000AA6066988C707B88807C80807F80808042
:100CB00080807F80817A75838B7F829A8F68667649
:100CC0006A688CA3A4A8905D5B6D4643ADDF8B7B07
:100CD000CF9B0725A6853AA1FF9E46849B463B8E67
:100CE000A47E849E8C71747C7B7C818281808080D8
:100CF00080807E80837D78898D706C8E8F717F96E9
:100D000079617E908A927D5374AC7D5AADB62B2D5D
:100D1000DAD32D50DE880682FF821A86C16250AA7D
:100D2000A95E61918C767F877E7B7F8080807F80CB
:100D300080807F7F807A77848B7D7E958F706E77C1
:100D4000666388A6ABAB8B55546F5857AECC7A729E
:100D5000CBA7202E97773DA5FFA24879904C4994C8
:100D6000A37A7E988C76777D7A7B80828180808062
:100D700080807E7F837E7A87876E739994696A8983
:100D800088838E7C627B93848D914F45BEDC4822A4
:100D9000AFBD456CDB7A0585FF84197BBF735E9F11
:100DA00095596B9D917176828180817F7F7F808054
:100DB00080807F7F817C7983877B829C926B61704E
:100DC000717993968D9A997767603A49B9E5896602
:100DD000AF9B3144996E39A5FFA24472915A538E4C
:100DE000957583A09072717A7C7F818180808080EC
:100DF00080807E7F827E7C88876E709393727388FA
:100E00007F79898372848C757F8F635DBCC63C2239
:100E1000AFC75A6FC26A0E8EFF8C216FAD756AA480
:100E20009559679691777A827F7E80807F808080D7
:100E300080807F7F807C7A84877A7E9792716871C8
:100E40006D738F9A959D936D60634A5AB8D57B6197
:100E5000AFA542498D643BA8FFA5466A895D5C93B6
:100E600095737E9B8F76757B7B7E81818080808071
:100E7000807F7E80857F76808B7E7581857E848174
:100E80006E7E9D805A80A67D62838A7B8F85517A93
:100E9000CE85177BF982007FFA7F1581D47D44824D
:100EA000A47D6E81847E82807C7F82807E80808033
:100EB00080807F7F827D767E8A85828A8879746D44
:100EC00060779E97839BA7734B5B676F98A7889FFC
:100ED000C7760E52B9752C9EFF9B3A77A7633F7B6E
:100EE000A18C838C867B7A79787E838180808080D8
:100EF00080807E7F847F78828B7D727E86838A81EC
:100F00006875988668879F705883968A937B43702C
:100F1000CD942B7CE5730387FF871876C67D4F8AB7
:100F2000A479697E858284807A7E82807F808080B9
:100F300080807F7F817D77808A847F88887E796EBC
:100F40005E71999A8B9EA16A465E727B9A9D7B9593
:100F5000C5822155AB6B2FA2FF9F3D709E654A81D4
:100F6000A0887E89877E7D7A787D8281808080805E
:100F700080807E7F84807A81877A76878B7C7A797D
:100F8000748CA2784D77AD936D727277A19B576484
:100F9000AF883D8EE26A0289FF88176FC488598442
:100FA00095747188897E7D7D7D82837F7E7F808040
:100FB00080807F7F817E787F8781818E8C796E694A
:100FC0006783A18F7591AB845653596EA4B3878AFA
:100FD000AF7A2F65AC642CA2FF9F3A6B9E6F517D58
:100FE000958482908A7B78787A8083807F808080E5
:100FF00080807E7F83807B82877974848B827F79F7
:1010000070849D7E5B7EA58665747E85A2904C5E15
:10101000AF954E8CCE600A8FFF8E1D67B688638AAF
:1010200095726D8589817F7E7C80827F7E7F8080C6
:1010300080807F7F817E7A8087807F8B8C7D736AC2
:10104000647D9D927D94A57B52566479A5A97C838D
:10105000AF853D67A15D2FA5FFA13C6596705982C4
:1010600095817E8D8A7E7A79797F82817F8080806A
:10107000807F7F827E7A8A7D70957F60A0874DA970
:101080009438ADA625ABBB16A2D10F93E40F7FF128
:10109000186CF7285AF53C4DEA5147D96548C47594
:1010A00050AF805B9C84698D847584827D80808054
:1010B00080807F817C78807B7A98917E9A7B49754D
:1010C0006C49A9BE80C7B52E5F6C0575D179CAFF82
:1010D0005A5D8A032FAF6D97FD9570A44831866ED7
:1010E0006EB49B7E967D677C7B77848380808080D6
:1010F000807F7F817D7B8B81748E78609F9160A3E0
:101100008332A0AD4AB3AA0C86C538ADDF0D5FCDE2
:10111000328DFF3546C63D65F56848B55850C987DC
:101120005BA0745B9A8B718B807383827E808080DE
:1011300080807F807C79827E7B938A7B99835676C0
:101140006644A0BF8EC8AA27546E2188CE6EAEE535
:10115000647499112998699EFF9C6D92433A8E7927
:1011600073AA917A96826C7D7A7683838080808060
:10117000807F7F807E7E8B7F6F877F74A3824A8E85
:101180009566B18D1F8FBF5AA49C0786EB587FA828
:101190001178FF6057A9376EF16F439F646CC97C6B
:1011A0004C9080739E816784847C84807C80808066
:1011B00080807F807C7A837D778E8E869D7A476D56
:1011C0007564ACAA6AAFBA566D5C0072DA96BDCD92
:1011D0004868A52F358A609FFF9C65884C4D9573A4
:1011E000669F9687997C66797D7B84827F808080EC
:1011F000807F7F807D7E8B8172837A72A08A598CFA
:10120000885DA5943E97B04D8E982A9AE2506894D6
:101210002890FF654B8F3B7CF47C478B5B6FC988C4
:10122000578877709B866E84827A83817D808080E8
:1012300080807F7F7C7B847F798B88829C81526FCA
:101240006F5EA4AB78B2AF4E63601A82D68AA6BB3B
:10125000537AAE37307A5FA4FFA1647C49529A7DFD
:101260006B988E8398806B7A7C7A83827F80808073
:10127000807F7E81817F837879987F5D8D9870846F
:101280007265BE901F92D15869895EBEA9017FFF29
:10129000553EA47598AC236AF16C32A19079945EA6
:1012A0006CB480578B8F79817C7B86807C8080803A
:1012B00080807F807F7C7E787E988B738E8A646B43
:1012C0006165B4A662ABC3584C58429BAB53B3FFA5
:1012D00073436F47688F4F95F793578B705C7660B9
:1012E00079B492718C867379797B85827F808080D6
:1012F000807F7E80807F847B7B937B5C8E9D7984E6
:101300006B5CB597359AC54B5C8870CCAC006BE9CB
:101310005F57B17686952576FA77349084799C6B01
:1013200070AB78568C927C817B7A85817D808080C1
:1013300080807F807E7C7F7A7E9587718F8F6A6CBC
:101340005C5DAFAB6EB0BD4D44594FA7AE4CA2F241
:1013500078537B485E814D9CFF995581685D7D691E
:101360007CAF8C6F8D897679777A84827F8080805C
:10137000807F7E8080808579768F7F699493657980
:10138000797BC3841385D778757344B2BE2E7FD220
:101390003F4BBF8D8B881D7AFF7A2D868888A46489
:1013A00062A28065918C737D7E7F86807C80808048
:1013B00080807F7F7E7D80797B918A7A92885D654F
:1013C0006874B79C559FC86E574D3395B96CAEDFA6
:1013D000614C865C6478489CFF9A517A6C6983659D
:1013E00071A79179908570777A7E85817E808080E3
:1013F00080807E7F7F80867C788B7B6993976E7AF6
:101400007372B88A2C8CC86B6A7458BCBC2D6EBEC3
:101410004C62C58C7C772383FF8332797D87A770EC
:1014200068997965918E787E7D7D85807D808080CC
:1014300080807F7F7E7D817B7C8F8678928B6568C4
:10144000646EB09E61A2BE665251439FB8669DCF46
:10145000675D905F5C6D49A0FF9D5271676B896EFF
:1014600074A18A778F877378797D84817F8080806B
:10147000807F7E81817C817E7F8D716CA88446997E
:10148000AC547597749A723FCBB2008BFB3A41C64D
:101490007F738B49A4C81D60F5632DB6995D86796D
:1014A0007F9D6869A28265888A797E817F807F803E
:1014B00080807F807F7A7C7D8291827EA07C46784E
:1014C000885883AC9EB384458E710078E47B8ADBB8
:1014D00090675D266FA14B90FD8F549974476C7394
:1014E00087A5837E9C7E657D8179808280808080D7
:1014F000807F7E81807C828180896D6AA78B5297F4
:10150000A04B729E85A26E32B7AE199EF9322FB4EF
:1015100086899C4D91AF1E6EFF6F2EA48C609084C7
:1015200082956267A1876B8787777E8180807F80C5
:1015300080807F807E7A7E7E828E7E7C9F825079C4
:10154000815380AFA6B5803E82721586E0737BCB57
:1015500093776B2D65924B96FF94548D6D4C747BF5
:10156000899F7E7B9B816A7D80798082818080805B
:10157000807F7E80807E837F7C857478A781468A89
:10158000A86E8389618A8466C3930084F9644E9B44
:10159000667BA66A939C2273F67431958D72957D55
:1015A000748B6D77A1816583897D80807F80808049
:1015B00080807F807F7C7F7D7F8A8284A17C467251
:1015C0008A6B8A9F89A38E6191650076E69089B9BE
:1015D0007B6E77446B874796FC945185715A7B7676
:1015E0007D9783859C7D657B827C818180808080E6
:1015F000807F7E80807E84817D837175A7874F89FF
:101600009E667F8F6F917F59B4921394F95B3F8FE1
:101610006D8CB26B858B217DFF7D318883739C86B9
:1016200077866874A1846983877B7F807F807F80D1
:1016300080807F7F7E7C807F7F887F82A0804E73CA
:10164000846587A292A68A5987671182E4877BAE58
:101650007F7B8247627C479CFF99507C6B5C817DDD
:101660007F937E829C80697B817B8082808080806A
:10167000807F7E80827F7E7982927564999260837A
:101680008E6B938C568E9961978739B0CE1D50E33F
:101690008E4C6D77C0A20D6FFF70209AAC7A756585
:1016A00086A96E60958B7181837C81807E8080802D
:1016B00080807F80807D7B7A8394817596885B6F44
:1016C000786996A080A49D5E735E2D96C55B88EABE
:1016D000974D50508D8C3991FF9044898962646692
:1016E0008AAC837493856F7A7E7C828180808080CF
:1016F000807F7E80817F7F7C828F726598966983F0
:1017000085648E91659493578A864CBACA1E45CFDC
:1017100091617C78AD901578FF79268C9F7B7D70E8
:1017200088A16A60958E7581817B81817F808080B0
:1017300080807F80807D7C7B83917F74968C6170BC
:10174000746492A288A697576B613C9FC3577CDB59
:10175000995C5D5483813B96FF94468082646C6DF6
:101760008BA57E729287727A7D7B81828080808059
:10177000807F7E808180807B7E8B766F9B8E5B7B83
:101780008F7C99834B83A17A9A762FA5D54358BD38
:101790007758878AAE86127BFF7B2484A086846B71
:1017A0007C99716C97886F7E837F82807E80808039
:1017B00080807F7F807E7D7B808E817B9886586A4B
:1017C0007C769A967299A27279572691CB7087CCC3
:1017D0008556676386793797FF95437B846D726A78
:1017E000829F827A95846D797F7E82817F808080DE
:1017F00080807E7F8180817D7F89746E9A91637BFA
:101800008875948859899A708E7740AED1414EAFD1
:101810007C6991899F791882FF82297B96858A74D9
:101820007E936D6B968B737E817E82807E808080BE
:1018300080807F7F7F7E7E7C818C7F7A98895E6CC2
:10184000787196997B9C9D6A72593499C96B7CC159
:10185000886371657D70399AFF9845747E6F7771E2
:10186000839B7E79948670797E7D82817F80808063
:10187000807F7E828179828679807F7F8D6C71B254
:101880006E40C79F13A4DC2162E1604EA97F7F8078
:1018900054B4A116A0E81656FF5928CF963D939A46
:1018A0006C80807F8B7479907C7687817C8080804F
:1018B00080807F817F787E827E888C8B8E6D64882D
:1018C0005E4DB8B15EB7C9344790434FABAAB4ABD5
:1018D00074916B076CB54989FF8952A8723374897A
:1018E0007A91938D8C747382787885827E808080E3
:1018F000807F7E81807A84877B7D7B7C8D767AABCE
:10190000683DB9A330A8CA1E57D47468AA736B7314
:1019100061C0AD248BC81F66FF682FB688469AA1A8
:10192000717A787C8B7A7D8E7A7585827D808080D5
:1019300080807F807E797F837F8587888E746C87A7
:101940005B4AB0B26BB9BF30428E5361AB9DA19E72
:10195000799D791263A34A90FF8E539B6B3B7C8FDA
:101960007D8C8C898C787782777784827F80808069
:10197000807F7E81807C8585767A7F87936F689D66
:10198000775FC48F1391D84F71B94A53BA9C7F6364
:1019900043AEB84290B51B6BFF6D2CA88B59A09736
:1019A00064748089907575897E7A86807C80808059
:1019B00080807F807F7A80827B838A8F916E607F38
:1019C0006761B8A353A7C952557F3853B6B7AD90D6
:1019D0006392832868984591FF8F4F926F48828960
:1019E000728690928F75717F7A7B85827E808080EF
:1019F000807F7E80807C858678797C849276709AE0
:101A00007159B9942B97CA4766B25D68B88F6E5CFE
:101A10004FB9C04981A02276FF773198805DA49D9F
:101A2000697179848F7A78887C7A85817D808080DD
:101A300080807F807E7A81837C81868C9174667FB2
:101A4000635CB1A55FAAC04C507F4762B5AC9C8770
:101A5000699C8D2F608B4796FF9450896A4D878EC5
:101A600075838A8E8F78747F797A84827E80808075
:101A7000807F7E81827D7F7F7D887F738581819459
:101A8000605ECC911394E34F4BA782838F537FAD5D
:101A90006F7C7D54B9B60E68FF6A21A9A8647E7E6A
:101AA0007892807184808086787A87817C8080803B
:101AB00080807F80807B7C7E808C8980877C727B2D
:101AC0005760BFA34EA7D2513C7762769780A9C2D8
:101AD00081705C388A9B398CFF8B449587526B7779
:101AE000809B8F80867D7A7E767B86827E808080DA
:101AF000807F7E80817D80817E857C7286868692D5
:101B00005D59C2952998D54745A38D91924F709FF5
:101B1000768B8959A8A31572FF74279B9B678585CF
:101B20007B8D7A7085848286787A86817D808080BC
:101B300080807F80807B7D7F808A867E8880777CA6
:101B4000565CB8A459AAC94B39786D8199799AB66F
:101B5000847C683D808F3B91FF8F468B8056727EE0
:101B60008296897E87807C7E767A85827E80808060
:101B7000807F7E80817E81807B837F7B8A7F778967
:101B80006971C9871388DF6A59926C7FA06F7F9053
:101B90005E80946CA9981375FF7625929C738B8058
:101BA0007086807A897F7C837A7D87807C80808044
:101BB00080807F80807C7E7E7D8788848B7B6D7635
:101BC0005F6EBE99479CD166496D5574A390A4AAD7
:101BD0007275724D83873792FF9043858260787A61
:101BE00079918D85897D777C787D86817E808080E6
:101BF000807F7E80817E82817C817C798A847C88E2
:101C0000656BC08C258DD3615390788BA1697287E9
:101C1000658C9D6D9B8A197DFF7D2A8793749086C4
:101C200073837B7889827E827A7C86807D808080C7
:101C300080807F7F7F7D7F7F7E8685828B7F7176B0
:101C40005D6AB89B529FC95F456E607EA48997A16B
:101C5000767F7B507B7E3996FF94457E7C627D7FCC
:101C60007B8D88838A7F797D787C85817E8080806A
:101C7000807F7E81827B7E848280757F987263A361
:101C80008B53969653999D3D92C43F5CC97F528079
:101C90008FA46A35C2C90C62FF651FB8AD5173923B
:101CA00087806F7F9477728B827982817E8080803B
:101CB00080807F81807A7B818386818995715D8632
:101CC000765898A67DAB9F45708C315AC2A188A1E9
:101CD000988D4F2190A93787FF87439F8B44648756
:101CE0008B8D838A927670827D7982827F808080DC
:101CF000807F7E81817B7F85827E737D97796B9FDC
:101D0000834F919A639D963886BD516EC67647770C
:101D100092AF793DAFB4146DFF6E26A8A1557C98A3
:101D2000887C6B7D937B768A807881817F808080C0
:101D300080807F80807A7C8283847F8695766386AC
:101D4000725494A885AD9A40698B4067C0977C987F
:101D500099975C28869C398DFF8B459584486B8CC0
:101D60008B8A7E87927A73817C7982828080808060
:101D7000807F7E80827D80847F7B77859A735E966C
:101D80008D679B8B498DA35B96AA345ED195596A6A
:101D900079A28451B0A81270FF71249EA162829131
:101DA0007C77718696787087837C82807E80808045
:101DB00080807F80807B7D818082818C97725A7F3A
:101DC0007A679B9C70A0A45B777F2A5BC8AD878DE8
:101DD000868F66398894368EFF8C428F8653718742
:101DE0008285828E94776E7F7E7C82817F808080E8
:101DF000807F7E80817D81857F7A748399786594E8
:101E00008662968F57919D548BA7446DCE8B4F64FD
:101E10007EAC8E55A2991778FF792993976588969D
:101E20007F746E83957B7386817B82807E808080C9
:101E300080807F80807B7E8281817F8A97765F7FB2
:101E40007663989E78A29F55707F3867C6A47C867B
:101E50008997703D80893892FF9044878056768CB0
:101E600084827E8B937A717F7D7B82817F8080806C
:101E7000807F7E81837D7C7F838677768F81728F62
:101E80007966A58D448FB05A759E6182AE5D5CA265
:101E9000967D5B5ECEAA096EFF6F1CA0B66B6B7E53
:101EA0008A8E73748C8079857E7C83807E8080802E
:101EB00080807F80817C7B7E848A81808F7C697C2E
:101EC0006D66A39C6AA0AE5960794E78AE8086B6E6
:101ED0009C734844A2962D8AFF893A91975A60795B
:101EE0008D9682808C7E757E7B7C83817F808080D6
:101EF000807F7E80827E7D81838475758F85778EDD
:101F00007561A0915293AA536E9C6C8DAE595398F3
:101F100098886761BE9C0F75FF762195AB6C7284C3
:101F20008B8A6F738C837C847D7B83817E808080B1
:101F300080807F80817C7C7F84887F7E8F806E7CA8
:101F40006A629F9E72A3A9545B795881AE7A7CAD78
:101F50009D7D5348988D2F8EFF8D3C89915D667EC7
:101F60008D927E7E8C80787E7B7B83817F8080805B
:101F7000807F7E80827F7E808082787C927F6C876B
:101F80007D74A7863E87B36E7C8E547FB772618D59
:101F900084807170BE930D77FF78208EAB7677804A
:101FA0008185747B8F7F77827F7E83807D80808038
:101FB00080807F80817D7C7E81868183917C667735
:101FC0007171A5956198B06A67704576B58E86A3E4
:101FD0008C765C559A862D8FFF8D3A8592656B7B4A
:101FE000858E82848F7D747D7C7D83817F808080DF
:101FF000807F7E80827F7F818181767A91837187E5
:10200000796FA3894A8BAD67748D5F89B66D5886E9
:10201000878A7B71B288127DFF7E2486A2767D85B9
:102020008382717A8F8279827E7D83807E808080B8
:1020300080807F7F807D7D7F82857F82917F6A78AF
:102040006E6DA297699AAC6462704F7FB5887D9C73
:102050008E7F6557927E2F92FF913C7E8C66707FBB
:10206000868B7E828E7F767D7C7D83817F80808063
:10207000807F80827A858075936E7F9857A07F5687
:10208000C14D7FBB25C38034EE2E7FD603D980257A
:10209000FF257FD706D38031EA3880BF2BB7805128
:1020A000BB5A7F9C5D9480728E787F837D80808018
:1020B000808080807A7E7A778E81919E6F8A674554
:1020C00087558ECA80D492418C0D489C4EEFCA87AA
:1020D000E134446A009B9486FB86919427725E5992
:1020E000AD839BA37286746C8179818480818080AA
:1020F000807F7F817A84827A916D788F60A78A5CF5
:10210000AA4379BF4AC77826C73B98E620B85F2024
:10211000F65299CA00AA764EF55278A027AE8E687C
:10212000B65874926598847489767F837E807F80A8
:10213000808080807A7E7C7A8D7F8A977390704CC5
:102140007E4F88C98DD38B397D1B5DAA59D6AD7B57
:10215000DB505B6D00868C8FFD8E8A8527746B67E4
:10216000AA7D909B758A796F7F788084808180803A
:10217000807F7F807B86847889697FA06C976B4D98
:10218000BC7392A013A4976DE61E52BD44F480095F
:10219000BD3FB0E90F946455FF58698F31C29B5E13
:1021A0009C4F7FA56F8E766F8D7E81817C80808035
:1021B0008080807F7B807E79887C8EA07A875F4557
:1021C0008A6D96B46ABB9D65920D36926EF7BD6AB4
:1021D000B7466B830C7A8091FF90807B308274626B
:1021E000997796A67B84716C827D82837F808080C4
:1021F000807F7F7F7B85857C886A7A96729C775604
:10220000A7688AA537AA8D5CC32E6DCA56D2660E02
:10221000BA62BCD80E7A6269FF6B677B31B7A27075
:102220009B51769A74917C72897C81827D808080BA
:1022300080807F7F7B807F7B887A889A7C8C684BCC
:10224000826791B578BC965B841A4A9F75E0A66355
:10225000B65C7B830C6C7C98FF967C712F827D6DC5
:1022600099748E9F7D87756E807C81837F8080804E
:10227000807F7F807E867C7190817F7E5EAC904D7A
:102280008F6FA7A013A5B3679A1EA5F318797F8750
:10229000EA0758E9639B4554FF584F946CC2694163
:1022A000B1827F7D629B876F837D83817C8080800C
:1022B00080807F807D8079748C898C8A6F96784647
:1022C000736BA3B260B9AE626A0F6EBA4DA7B6B1B6
:1022D000D5213A8E4381698AFF896D815589584F8E
:1022E000A794948C718D7C6D7D7C83837F808080AE
:1022F000807F7F807E857E768E7E7A7A65AD9554EE
:1023000084669DA432A9A659862CB0F62D6D6A79F3
:10231000E22D6FDA56834766FF68518363B97655BD
:10232000AD7D7779689C8971807B82827D80808099
:1023300080807F7F7D807B778C86878772997E4BBC
:102340006E659DB36EBAA659611A7BC1579AA2A356
:10235000D1384D8D3D746791FF8F6B775188635BEA
:10236000A58E8C88748F7F6E7B7B82837F8080803C
:10237000807F7F7F7E868075887B7F866EA07F4D85
:102380009185AB8F1391B7889D1E7FD549977F6745
:10239000B82680E95F76406BFF6D4B7869C280514B
:1023A0009A757F8770947F6F838084807C80808023
:1023B00080807F7F7D817C7688838A8E789170474C
:1023C000787BA6A355A8B27973115CAD67B5AE94BE
:1023D000B5335B9C456C6092FF90657057916A586D
:1023E00098889191798B786D7E7F83827E808080C2
:1023F000807F7F7F7E85817888797B8271A38553FA
:10240000887BA2942C97AD798D298DDB548A6E60E0
:10241000B7418EDD55684276FF774D6D62BA885FB1
:102420009972798373968271817F83817D808080A8
:1024300080807F7F7D817D798882868B7A94754CC0
:102440007475A1A561ABAB706B1B69B56DA99D8B54
:10245000B545689940625F97FF95656954907262CF
:1024600098848A8D7A8C7B6F7D7E83827F8080804A
:10247000807F7F817F837B7A9376728D7B92686881
:10248000C1635DA175A55256EE524BAF72B1474D77
:10249000FF4D47B072AE4C54EA5855A3769E5F6626
:1024A000BB6B6B8F7C8B75788E7B7C817F807F8014
:1024B00080807F807D7F78799181829681875B544F
:1024C0009B606FB69FBE6A51AF2B2D9485D28A85D3
:1024D000F34828704B946784FF846B8F5B764E6360
:1024E000B582849A81856F71867B7E8380807F80B0
:1024F000807F7F807E827C7C93746E897D987069FA
:10250000B65A5BA784AC5048DB555DBF78A3354411
:10251000FF635AAE639A4960F66352946C9D6A7188
:10252000BB67648B7E8F78788C7A7C8280807F809A
:1025300080807F807D7F7A7B907F7E92838C6358C2
:10254000935B6EB7A6BF694AA03341A089C17B7C6B
:10255000ED5B3D714485658BFF8A6A835677596DC3
:10256000B27E7E9582877373847A7E8381807F803A
:10257000807F7F807F847E7B8E717394848F5C5F8D
:10258000C3776B955E986574F14030A88DCC4A3264
:10259000DD566AC4698D3E64FF66498A70AB736A12
:1025A000AB606C9883896F758F7E7D817E807F8024
:1025B00080807F7F7D807B7A8C7C82988785575353
:1025C0009B727AA789AD786BAE29258E97DA896FD1
:1025D000CF544B824C7B5F8DFF8C647C5C81626945
:1025E000A479839D86836D71867D7F8280807F80C4
:1025F000807F7F7F7E837F7D8D71718F8593666203
:10260000B36F6A996F9D6367D74747B391B83F31FE
:10261000D86B7BBC5E7C4070FF714B7C68A67D757F
:10262000A85F6892848C74768B7D7D817F807F80AB
:1026300080807F7F7D807C7C8B7B7F9488895F57C7
:10264000936C78A992AF7663A130369899CB7B6969
:10265000CC645A8246705E92FF91637458816A71AD
:10266000A3767E9887857172847C7F8280807F804C
:10267000807F7F80818479769280757E779E775D7A
:10268000A3747E9656997E6FBB3C6DCF667B50845B
:10269000F92C35C999922C62FF643A8E91AE55544B
:1026A000B8826E7E78937C74877E7F817E807F8007
:1026B00080807F807F8078778F8781887E916B5341
:1026C000877087A780AC89688C2852AD7A9E88A6CF
:1026D000E436288B71814F88FF87578175874D5A63
:1026E000AE8F83897E8A7671817D808280808080B2
:1026F000807F7F8080847B78917F727C7AA17E60EE
:10270000986D7B9A659E7A64A9437BD66D72457BF2
:10271000F1444AC18A82316DFF6E3E8287A96161B0
:10272000B47D6A7B7A947F75857D7F817F807F8091
:1027300080807F7F7F8079798E857F857F947156B9
:10274000826B84A888AE8561832F5FB47E957C9C64
:10275000E047388A6976508DFF8C587970865762C9
:10276000AC8B7E867F8C7972807C8082808080803A
:10277000807F7F7F80847C788C7C76847F986F5A82
:10278000A184878B4B8D8A86B8375ABF7D91586D4F
:10279000D13D59CE8D792D70FF723A7A89B1695D3C
:1027A000A57871857F8F7873878080807E80808018
:1027B00080807F7F7F817A788B83818B838E665246
:1027C000897C8C9C72A0907B902747A489AB8790D2
:1027D000C94244966D704B8EFF8D5473738E5E604C
:1027E000A186828D82887471827F81817F808080C2
:1027F000807F7F7F80847D7A8B7B7482809A755DF9
:10280000987C848F5992857AA93D68C682884E67E4
:10281000CE5067C7826D3078FF793D7281AD7167A8
:10282000A4756D8280907B74857F80807E8080809F
:1028300080807F7F7E817B7A8A817F8983906C55BF
:1028400084778A9E7BA38D73872D53AB8CA27C8962
:10285000C750519566674C93FF91546D6E8D6567B7
:10286000A1837E8B838A7672817E81817F80808046
:10287000807F7F817F807C808F677FA25F7D917D5D
:102880008B4DA9AC14B3B635927AA7781CFE8000A4
:10289000E68756856BD24245FE4A4CBF71836883FA
:1028A000AF4B7FA8647E877F827884827C80808023
:1028B000807F7F807D7C797E8C788CA26F78796533
:1028C0007155A5BA5EC2B141674C726B4EFDB456EC
:1028D000D4743A5049A7657EFF7E6A9E5A61587A41
:1028E000A76E93A8727B7D777C7983837E808080BE
:1028F000807F7F817E807E838E687B9B6584967DD2
:102900008148A0AF30B5AA2E817BB28C2FE16B033A
:10291000DF9A6C845DB54457FF5A4EA96883748D65
:10292000AC4C789F69838A7F807783827D808080AA
:1029300080807F807D7D7B808C77879D727D7F68A6
:102940006C519FBA6BC2A83B5F517E7A57E9A15187
:10295000D0834C5443976485FF85689155646281A8
:10296000A56C8CA2747E7F787B7883837F80808047
:10297000807F7F807E817F8188677FA26E7C81736C
:102980008D6AAC99159DB95F976883754AFE800082
:10299000B68A7C9966A43F5EFD61499B6E907E85F8
:1029A000994B7FA8717D807B837C84817C80808033
:1029B00080807F807D7E7C7F88758AA37778716236
:1029C0007768A8AA53B0B45C7046606B67FFAD48E7
:1029D000B57959664A8D5D87FF86638A5B706A7C2C
:1029E000986890A8797B79767D7C84827E808080CF
:1029F000807F7F807E81808388687C9C71828674E2
:102A00008562A49D2BA2AF54896A8F8654E86E011B
:102A1000B79A8A975B91406AFF6B4A8D668E868D66
:102A2000994B79A17381837C817B83817D808080B8
:102A300080807F807D7E7D808874869E797D7764AE
:102A40007263A2AC5FB2AD55694A6C786CED9C457F
:102A5000B586666845815D8DFF8C62805771718394
:102A600098678AA37A7E7B777C7B83827E80808056
:102A7000807F7F8080827B7B8D777F8C648C976F5B
:102A80007567B89B139EC95C6D5FB4A12BAD7F5277
:102A9000D65C47A394A72D5CFF5F3A9E8E965F6D30
:102AA000A86D7F8E68888A7A7D7C85817C80808015
:102AB00080807F807F7F797B8B8089926F84836029
:102AC0006667B1AA4EAFBF5B5542878C4EC2A980E4
:102AD000CC5935716E914F83FF82578D7476556C4A
:102AE000A3808F95728281757A7C84827E808080BB
:102AF000807F7F8080817C7E8C767C8868909A70D5
:102B00006F62AF9E29A2BD536462BBAC389F704D0B
:102B1000D36F599F86963167FF693E9084936A7799
:102B2000A66B7A8A6B8A8C7B7C7B84817D8080809B
:102B300080807F807E7F7A7D8B7E868F72888662A2
:102B40006362ABAB59B1B75450478F9556B69A797B
:102B5000CA67447267854F88FF8857846E775E73B3
:102B6000A27D899174858376797B84827E80808042
:102B7000807F7F8080827D7C88747F906E898A6967
:102B80007A78B88F1391C875765597984BBB7F4369
:102B9000B56667AE8A8B2D6BFF6D3B88879D717222
:102BA00098677F93718584787E7E85807C80808025
:102BB00080807F7F7F7F7B7C877C889476837B5E31
:102BC0006C74B19F47A3C06E5F3E768863CAA46FE2
:102BD000B4614F7F6B7E4B89FF89537E717F647038
:102BE00098798D9777817E747B7E84817E808080CA
:102BF000807F7F7F7F827E7E88747C8C718D8D6BE1
:102C00007572B0932596BF6C6E589FA254AE7241F8
:102C1000B57473AA7F7E3073FF743D7F7F9A797A93
:102C200098667B8F738886797D7D84817D808080A6
:102C300080807F7F7E7F7C7D877C859178867F60AA
:102C4000696FACA152A6B9675A427E9068BF976A75
:102C5000B46C5B7F64754B8EFF8D54776D7F6B76A4
:102C60009877889479847F757A7D84817E8080804E
:102C7000807F7F8181807980916E7598777E797E63
:102C80009F5C819F53A4824BB47C717A65D9522496
:102C9000F68535839CBA2B56FF5939AC9382558201
:102CA000B65A6F9C787E7D7F877A80817E80808017
:102CB000807F7F807F7D787E8E79819B7D796D6B33
:102CC000855E89AD7DB38C4E8957567079E2885FF9
:102CD000E377285A749F4D7EFF7E559778684D7B29
:102CE000AD72839F7E7C7779817A80827F808080BD
:102CF000807F7F8080807B82906E739379837F7EDC
:102D000095577EA263A77E44A47C7E896CC7472525
:102D1000EF9349838DA72F62FF643C9E8982608A6E
:102D2000B35A6B977A827F7F84797F827F807F809E
:102D300080807F807F7D79808E797F977F7E726CA7
:102D4000805A86AE85B48849805A627B7DD47C5A8D
:102D5000DF82385D6C924E84FF84568E726A568193
:102D6000AC707E9B7F7E7979807A80828080808043
:102D7000807F7F8080817C808C6D779A7E7C71766D
:102D80009E6F8A9349968D67B36D5E787CE0591D7E
:102D9000D0885793919B2B66FF6839958B8C6884FC
:102DA000A557719F7F7E797C867D81817E80808022
:102DB00080807F807F7E7A7F8A77819C8279686736
:102DC000876C8EA270A793638D514B6F88E68752F4
:102DD000C87B436B708A4985FF85528875735D7D1A
:102DE000A16D82A1827B7578817D81827F808080C8
:102DF000807F7F8080817D828B6D749680817677E5
:102E000096698697579A885EA56F6B8480D04F1E0F
:102E1000CD946592858D2F6FFF703C8A838B708A6D
:102E2000A3576E9A80817B7D857C80817E808080A7
:102E300080807F807F7E7B808A767F98837D6D69AE
:102E400083688BA478A98F5D855456798ADA7C4F84
:102E5000C785506C69804A8AFF8953807073648289
:102E6000A06C7E9D837E7778807C81827F8080804D
:102E7000807F7E808281797C8F7977897589837361
:102E8000896D959444979C649066889961A25C5C76
:102E9000E664329BB19E2064FF663097A291537224
:102EA000AF71738B7786817B827D82817E8080800B
:102EB00080807F80807F787C8D80818F7B83776628
:102EC000796B97A26AA79E61744D6C8A72B68680F0
:102ED000DA6028738B8E3F82FF82498A88784D6F33
:102EE000A98082917C827C777E7C82827F808080B8
:102EF000807F7E8081817A7E8E787586778D8774DB
:102F000083689198529B975D866890A26799535801
:102F1000E1724199A391246CFF6E338D988F5C7997
:102F2000AD6F6F887988837C807C81817E80808092
:102F300080807F80807F797D8D7E7F8C7C867B67A3
:102F4000756794A472A99A5C6E50759275AD7C7A7F
:102F5000D76B357483844087FF864B8382785575A1
:102F6000A87D7E8E7D847D787D7C82827F8080803E
:102F7000807F7E8081827B7D8B76788D7C877B6E67
:102F80008B7A9A8C3E8EA177935D769374AF614F66
:102F9000C96B4DA4A589226FFF703187999763751E
:102FA000A26C748F7C847D7A827F82807D80808019
:102FB00080807F7F807F7A7C8A7D81917F8272632F
:102FC0007C769A9A619EA271794861867FBE8672EC
:102FD000C4653F7F867E3D88FF87487E847F5B7225
:102FE0009F7A82947F8179767F7E82817F808080C4
:102FF000807F7F7F81827C7E8A76768A7D8A7F6FE2
:103000008675968F4A929C6F8A607E9C78A5584CF4
:10301000C87659A29A7F2576FF76347F92956A7B8F
:10302000A16A718C7D867F7A817E82807E8080809D
:1030300080807F7F7F7F7B7E8A7C7F8E80857565A9
:103040007872979C69A09E6B744C698E82B57D6E78
:10305000C36F497F7F763E8CFF8B49797F7F617795
:103060009F787E9180837B777E7D82817F80808048
:10307000807F7F827C80867882827F7C7B98617F64
:10308000B3369BBA13C3A313D7803CBF71727F8E34
:103090008E3DC88020F85732FF395EDC3D7FA95D48
:1030A0008685807B7C8F727F8B7482837C8080801E
:1030B000807F7F817B7C807883898B88818A5A6836
:1030C0008D469CC25BCBA42A96512C9B859FB3B2A4
:1030D0009944874E18C17370FF7175B2386084616E
:1030E0008B95928A81866E78837782837E818080B9
:1030F000807F7F827B80867B82807B797D9C6C7FDA
:10310000A43594BB2FC39A11BD8054C979686C80D3
:103110009259CE801DD75746FF4B5DC23B7FAC6CAA
:10312000888078787E91777F887482837D808080A4
:10313000807F7F817B7D817B84878785838E626AA8
:10314000864396C268CB9D278A563EA58994A0A641
:103150009B56915217AF7078FF7972A437638A6AD1
:103160008C8F8B8682887278817682837F80808044
:10317000807F7F817C81877A7E7C7F8484915B7570
:10318000AE56A1A513ABAB42CE6C2EAD8C8F7F6F2C
:10319000724FD6952AC44F4EFF5257B4448DB16733
:1031A00079798085838B6F7C8A7983827C8080802B
:1031B000807F7F807C7E827A80848A8C8787576438
:1031C0008E5AA0B251B9A948984A249396AEAB98AA
:1031D00084509A6420A4697BFF7B6D9B3E6E8F6751
:1031E0008189908E86846D77837A83837E808080C8
:1031F000807F7F817C81877C7E7B7C8185956577E4
:10320000A2529AA82AADA23CBA6E43B790846F67C7
:103210007964DA9226AE4F5BFF5E57A3428BB3719F
:103220007C767981848D737D877882827D808080B1
:1032300080807F807B7E837C81828689878B5E66AF
:1032400088579BB35DBAA3438E4E359D98A39C8F40
:10325000875FA2661F966781FF816B913C6F936FBA
:1032600083868A8B86877077817982837E8080804F
:10327000807F7F817E818275838A7F71789F75715F
:103280009256ADA513AABA439F6467D2684B7FB527
:1032900098299A9E5DC33D4EFF5248B367938E5363
:1032A0008B96806E79937B7B847984827C8080800E
:1032B000807F7F807D7E7E77848D897E7E926A622C
:1032C0007C5AA9B14CB8B5487A464FB07A79A8C8AB
:1032D0009E33726E47A65A78FF78609D587578586D
:1032E0008E9D8E7D7E8B76767F7A84827E808080B6
:1032F000807F7F817E81837883877C707AA17B72D7
:103300008A52A6A728ADB13D926675D76F4771A7BF
:103310009A40A39B55B03F5AFF5E4AA46291945FC6
:103320008C907A6D7B957D7B827983827D80808095
:10333000807F7F807D7F7F78848B867C7F956F64A4
:103340007857A3B258B8AE43734B5BB77E739ABC41
:103350009F447C704299597EFF7E609355767E61D2
:103360008E98897B7F8D78777E7983827E8080803E
:10337000807F7F807E82837780847F797F996D6C68
:10338000936AAE98139CBC5FA15956C27E677F9822
:10339000813AABA95BA43B5FFF62469B669A995C4E
:1033A000808A80787F8F7779847C84817C8080801C
:1033B00080807F807D7F807881898882838F65602F
:1033C0008068AAA645ABB75D804245A88989A3AFAE
:1033D0008C3F857D48915580FF805C8D597E825E53
:1033E00085938D8382897475807C84827E808080C1
:1033F000807F7F807E82847980827D77809B736DE1
:103400008C64A89B259FB458955C63C88262738FB7
:10341000854CB2A654953D68FF6A489062989C65B9
:1034200082867B7680917A7A827B84817D8080809F
:1034300080807F807D7F817A8287858083926A62A7
:103440007B65A6A750ADB158794650AE8B8397A641
:103450008E4D8C7D44875585FF845C85567E8765BF
:1034600086908881838B76767F7B83827E80808046
:10347000807F7F827E80807A8881757D8A91587F67
:10348000BB4B78AA51AF7632E48026ADA076548A41
:10349000B650887F65D63B48FF4D46C16D7F846737
:1034A00099846F7C898A6D7F8D777F827E807F8013
:1034B000807F7F817D7D7D7A878781868B88556D32
:1034C0009B5282B47ABB833CAD5B1F95A49888A8BD
:1034D000B45065584DB45873FF745FA75C6771674B
:1034E000989082888A856C79867880837F808080B6
:1034F000807F7F817E80817C8880737B8B94617FDD
:10350000AF4876AB60B1742ED0803AB6A16E4980D8
:10351000B563937F5CC03D55FF5948B1677F8B71A0
:1035200098806C7A898D717F8A777F827F807F8097
:10353000807F7F807D7D7E7C87857F848C8B5C6EA9
:10354000944F80B582BC8038A25E2F9DA4907C9E53
:10355000B45E705B48A6587AFF7A5E9D5969776EB3
:10356000988C7E858A876F7A84788083808080803B
:10357000807F7F817E81827B847D77838F8D55786C
:10358000B660829C47A08351DB711FA2AD8C5A7339
:103590009B5B9C9062B3395AFF5D45A76B8A906D27
:1035A0008C7A72838C886C7D8C7B80817E8080801D
:1035B000807F7F807D7E7F7B8483818A8F86536935
:1035C0009A6188A96EAE8B53AD541B90ADA58793BD
:1035D000A05979694D9D537CFF7C5B965D717C6B36
:1035E0008E88828C8C836B78867B80827F808080C3
:1035F000807F7F807E80837D847C75808F905C79E6
:10360000AC5C7F9F55A37F4BCA7231ABAD83516DCC
:103610009D6AA48E5BA43B63FF66479B6689947595
:103620008D786E818C8A707D8A7A7F817E807F80A2
:1036300080807F807D7E807C84827F888F89596BAB
:10364000945E86AA76B0874EA3572998AD9D7C8C50
:10365000A165816B49925381FF815B8E5A728172A1
:103660008F857E898C856E79847A80827F80808048
:10367000807F7F8180817E78878778748498697461
:10368000A05F8E9D43A19250B66A4DC08F565DA932
:10369000B43C729785B42D59FF5C3BA8838E785D4E
:1036A00098917372848F757C877B81817E80808006
:1036B000807F7F807F7F7C78878B817E878F636729
:1036C0008B6191A868AE965292503FA8957A86BBBE
:1036D000B3415A716A9F4879FF79519871776A5F4F
:1036E0009798827E86897278827B81827F808080B3
:1036F000807F7F807F817F7A87857673859A6F75DB
:10370000985C8B9F50A38E4AA96B59C59153549FC7
:10371000B44D7D957CA63062FF653D9D7D8D7E65B7
:10372000988D70718490787C857A81817E8080808C
:10373000807F7F807E7F7D7A87897F7D87916869A2
:10374000865D8EA970AF934D8B534AAE97757CB250
:10375000B34D64726495497EFF7E52906D777066BA
:1037600097947E7C868B7578817A81827F80808039
:10377000807F7F807F8280798483797A8994647066
:103780009F6E93943D969965B46042B59B6C62932D
:103790009F4885A17F9D2D65FF673B967F9583633D
:1037A0008E887579878C737A877D81817D80808012
:1037B00080807F807F7F7E79858781828A8D5F652B
:1037C0008C6C95A060A49B63954B38A29F8886A8BB
:1037D000A2496C7D688E4680FF804F8B6F7E74643B
:1037E0008F90828288887177827C82817E808080BF
:1037F000807F7F807F81817B8482777989966A71DF
:10380000986990964999945FA9634EBB9D67598CBE
:10381000A0558D9F7791306CFF6E3D8D7A93876AAE
:103820008F857178888E767B857C81817E80808093
:1038300080807F807E7F7E7A85867F808A8F6466A7
:10384000886992A167A6975E8D4E42A7A0827DA14E
:10385000A354747D63864684FF8350846B7E7969AC
:10386000908D7E8089897377817C81827F80808042
:10387000807F7F827E7D817F83787F8A7881768F4B
:103880008F41AEAD13B3BC239A9E6B8367A47F5A5E
:10389000987C965F62E73B44FF4946CE6B6B8C7E1B
:1038A0008B70808B79807B85837684827C8080801E
:1038B000807F7F817D7C7E7E848089907D7C6B791A
:1038C0007B4AAAB64BBEB6307873527679BAA784D3
:1038D0009E7170414BC1576FFF705EB25B58777835
:1038E0008E818E927E7D767D7E7784837E808080C1
:1038F000807F7F817E7E828184787C867A867C8EC2
:10390000883FA7AE27B5B3208E9B778F6E997155F0
:103910009B8A9F625AD13D51FF5548BD656D918587
:103920008C6E7A887B837E84817683827D808080A2
:10393000807F7F817D7C7F7F847F858D7F80717993
:103940007748A5B756BEB02D71745E817DB0997D64
:103950009F7C7A4547B35775FF765EA7585B7D7E9F
:103960008E7E898F7F80797D7D7783837E80808046
:10397000807F7F817E7F838080767F8E7F7F6F8553
:103980009157B0A013A4BE439C8B5A7F7DB37F4B4D
:103990008280A87360C33955FF5944B36A78968012
:1039A000816A80907F7F7881837984817C80808028
:1039B000807F7F817D7D807E817D8892827B677420
:1039C0007E5AABAB44B1B8487D69487588C3A274D0
:1039D0008D7583544CAA5377FF785AA05C64817A22
:1039E000867B8C95827D747C7F7A84827E808080C9
:1039F000807F7F817E7F848180757D8B80847485CC
:103A00008A53A9A224A7B63E918A668A81A77348E1
:103A1000868CAE7459B33B5FFF6246A665789A8682
:103A200083697B8C80827A81827984827D808080A8
:103A3000807F7F807D7D807F827C858F837F6C759A
:103A40007A57A7AC4FB2B243776A537E8AB9966F62
:103A50008F7F8A57489E537DFF7D5A975966867F90
:103A600087788892837F767C7E7983827E8080804F
:103A7000807F7F81807F7F7C84807F7F768B808149
:103A80007E57B8A013A4C8437D82819E637C7F8348
:103A90009D5F7E7D82C32D55FF593BB3817E7E6F36
:103AA0008D81807E778780807F7985817C80808012
:103AB000807F7F817F7D7D7B858587867B85757116
:103AC000715AB2AA41B0C1486764688E7397A09DCD
:103AD000A15C645D68AB4875FF7651A16F6A706D3B
:103AE0008F8C8B877C837B7B7C7A85827E808080B9
:103AF000807F7F817F7F807D847F7D7D788E8481C4
:103B00007954B1A223A7C03F75828AA66876747CD7
:103B10009F6D877D79B3305EFF613DA77B7E8476A4
:103B20008E7E7B7C798982807E7984827D80808094
:103B3000807F7F807E7D7E7D858484847C88797291
:103B40006E57ADAB4BB1BB4462667195769095965E
:103B5000A2676D6063A0487AFF7B52986B6B7573A8
:103B60008F8987857D857C7B7B7984827E80808040
:103B7000807F7F817F80817D817D7F837C89797B50
:103B80008166B896139AC85A82767198748D7F723E
:103B90008B668F8A7CAA2D61FF643BA07D8688722C
:103BA000857A80847C857D7E807C85817C80808018
:103BB000807F7F807E7E7F7C828286897F84706E1C
:103BC0007566B2A23DA7C1596D5D5E8A7FA29D8DCB
:103BD0009262746B6699457CFF7C4F936E7379702B
:103BE00088858A8A7F82797A7D7B85827D808080C4
:103BF000807F7F807F80817E827C7D817D8C7D7BCC
:103C00007D62B299219CC1547B777A9F7886756DCD
:103C10008D729689759E3069FF6B3D9778858C789B
:103C200086787C817D877E7E7F7B85817D8080809C
:103C300080807F807E7E7F7D838184878086746F95
:103C40007263AEA346A8BC55685F6691829B93875A
:103C5000936B7C6C61904680FF80508C6A737D759D
:103C60008983878880847A7A7C7B84827E80808046
:103C7000807F7F81807E7E7F877A788784806A8C50
:103C80009D4E90A342A89537B19750828D9C5E625D
:103C9000B47D706688D12C51FF5539BD866F777E13
:103CA0009873738983807683867881827E80808012
:103CB000807F7F817F7C7C7E8780818D867D647A1A
:103CC000895393AD66B3983E9075427894B08683DD
:103CD000B373594B6DB64772FF7350A9735F6A791E
:103CE0009781828F857E737E827981827F808080BA
:103CF000807F7F817F7E7F81877976858584708BC9
:103D0000964C8CA54FAA9033A5965D8C8F94555EEA
:103D1000B4887A687FC02F5AFF5D3CB17F717D8483
:103D20009871708684837883857881827E80808094
:103D3000807F7F817E7C7D7F877F7F8B8780697A94
:103D4000855190AE6EB4943A88754C8195A87C7D6F
:103D5000B37D634F67AB4777FF7851A06F616F7E8C
:103D6000977F7E8D8680757E817881827F8080803E
:103D7000807F7F81807F80808478798B887F668454
:103D80009C5E95993C9D9B4EB089467F9AA9625551
:103D90009F80837582B62C5DFF603AA9817982800D
:103DA0008E6E758D877F7481867A82817D8080801A
:103DB000807F7F807F7D7E7E857E818F897C61761E
:103DC0008B6096A45EA99D50926C3B769EB98575DA
:103DD000A2776B5B6BA34479FF794E9B7168747B10
:103DE000907B8292887D727C827B82827E808080C2
:103DF000807F7F817F7F81818477778988836B84CF
:103E0000965B919C48A0964AA68851889BA05A52DE
:103E1000A08A8B767AAA2F65FF673C9F7B7A86857E
:103E20008F6D728A87827681857A81817E8080809B
:103E3000807F7F807E7D7E7F857D7F8D8A7F65769A
:103E4000865D93A666AB994C8B6D457E9EB17D7168
:103E5000A37F735D659A457DFF7E4F946D6A787F81
:103E6000907A7E8F887F747C817A81827F80808047
:103E7000807F7E81817F7D7C8780797F808975814D
:103E80008C5E9D9A399EA64E95826899827D648249
:103E9000B365637D9CB7235DFF6032AA937E6F722A
:103EA0009881767F80867B80827A82817D80808007
:103EB000807F7F80807E7B7C8784818583846D7317
:103EC0007E5F9DA45AA9A6507E68578C8A938599D7
:103ED000B361526281A53C77FF77479C816D657025
:103EE000978A82868282777C7F7B82827E808080B6
:103EF000807F7F81807F7E7E877F777D818C7981C7
:103F0000885B999C45A0A1498D8270A085775C7DD6
:103F1000B3706C7D93AB2664FF6635A08D7E75779C
:103F2000977E737D81877C80817A82817E8080808C
:103F3000807F7F807F7E7C7D87837F838487717491
:103F40007B5D9AA562ABA24C78695F928C8E7D9363
:103F5000B26A5B647B9C3D7BFF7B48957C6E6A7597
:103F600097877F848384797C7F7A82827F80808038
:103F7000807F7E8080807F7D857D7A838487707B53
:103F80008E6A9F933695A96097785C948E8A677441
:103F9000A26A748894A32466FF68339B8E85797522
:103FA0008F7B77838484787E837C83817D8080800F
:103FB000807F7F807F7E7D7C8582818886836A701A
:103FC00081699F9D54A1A85E81624F89939D858BD5
:103FD000A466626E7D963B7CFF7D46907E746E7219
:103FE000908481898582767B807C83817E808080BD
:103FF000807F7F8080807F7E857D7881858A747CCC
:1040000089669C954098A45B9078659B90856070CC
:10401000A2747C878C99276CFF6E369388857D7996
:104020009079748184867A7E827C82817D80808092
:1040300080807F807F7E7E7D85817F8686856D7195
:104040007D669C9F5BA3A55A7C63578F95977D8661
:10405000A46E696E788E3C80FF80478B7A7573768C
:1040600091827F878583777B7F7C82817E80808041
:1040700011241FBECFEFD0E1DEBFCDBF12E0A0E024
:10408000B1E0E4EBF7E502C005900D92A033B10773
:10409000D9F717E0A0E3B2E001C01D92A731B10744
:1040A000E1F70E94C7230C94D82B0C94000078945D
:1040B000889518952F923F924F925F926F927F92C0
:1040C0008F92AF92BF92CF92DF92EF92FF920F93B7
:1040D0001F93DF93CF93CDB7DEB727970FB6F89432
:1040E000DEBF0FBECDBF9F838E83DC0192968D9184
:1040F0009C91939759962D913C915A97820F931FBB
:10410000292F2695269580913E02821748F08091AE
:104110003E02622F70E090E0861B970B459784F07B
:1041200080913E02821708F0CDC1622F70E080912D
:104130003E02FB01E81BF109E531F1050CF4C2C1B7
:10414000AE81BF8118968C9118970D90BC91A02DCF
:10415000A80FB11D8C91992787FD9095EE81FF8165
:1041600021853285281B390B32872187828D8695E0
:104170008695E82FF0E0E15CFD4F4081842F992780
:1041800087FD9095820F931FEE81FF819287818733
:104190004C938085A281B381A80FB11D8C91992782
:1041A00087FD909543855485481B590B5487438759
:1041B00080A191A1218D328D820F931FE92FE69569
:1041C000E695F0E0E15CFD4F2081822F992787FD85
:1041D0009095840F951FEE81FF81948783872C93A0
:1041E0008085A481B581A80FB11D8C91992787FD89
:1041F000909545855685481B590B56874587868D72
:10420000978D218D328D820F931FE92FE695E695CC
:10421000F0E0E15CFD4F2081822F992787FD90958A
:10422000840F951FEE81FF81968785872C9380856B
:10423000AE81BF811696ED91FC911797E80FF11DA5
:104240008081992787FD90951F962D913C915097DD
:10425000281B390B50963C932E931F97615C7D4F22
:10426000DB014C91842F992787FD9095820F931F36
:10427000AE81BF8150969C938E931F9740839696F4
:10428000BC91BD83BB2309F035C1EE81FF81838CD6
:10429000EE81FF81618472849301442737FD40954C
:1042A000542F29833A834B835C83A384B484CC2426
:1042B000B7FCC094DC2CE584F6840027F7FC00955D
:1042C000102F27853089442737FD4095542FCA0188
:1042D000B9010E94F62A1B012C01C801B701A801EF
:1042E00097010E94F62A260E371E481E591EC60147
:1042F000B501A60195010E94F62A7B018C01698116
:104300007A818B819C819B01AC010E94F62AE60E8A
:10431000F71E081F191F2E143F04400651060CF407
:10432000FCC0EE81FF8180A591A5A2A5B3A5821551
:104330009305A405B505ECF4FD81FF23D1F4EE81CE
:10434000FF8181899289A389B489A2019101281BE7
:10435000390B4A0B5B0BDA01C90188519C4FAF4FF7
:10436000BF4F3CF489E086A317A28A9480865B98AD
:10437000838CAE81BF8151962D923D924D925C927D
:10438000549718968C911897282D30E02150304082
:104390008F5F18968C93815090E0821793070CF4EE
:1043A00085C0AE81BF8118961C92189796968C9105
:1043B000882309F47BC0AE81BF8197962C91979793
:1043C000220F97962C93EE81FF8180A591A5A2A53F
:1043D000B3A582159305A405B50514F4216027A3A0
:1043E000AE81BF8150961C921E921F971E961C9202
:1043F0001E921D971C961C921E921B971A961C9239
:104400001E9219978C9111969C9160E070E0482D56
:1044100050E00E94552BEE81FF81438D8281938174
:1044200060E070E050E00E94552BAE81BF815B964A
:104430004C915B9714968C91149715969C9160E023
:1044400070E050E00E94552BEE81FF81438D868104
:10445000978160E070E050E00E94552BAE81BF81F3
:1044600096964C919697493009F45AC059962D91D9
:104470003C915A9794968D919C919597281B390B56
:104480005A963C932E935997842F815096968C93ED
:104490009697882379F497968C9197978093C60086
:1044A0005B9A59962D913C915A9704C0EE81FF81F9
:1044B000218D328DEE81FF81848D958D280F391FDE
:1044C000328F218F27960FB6F894DEBF0FBECDBF77
:1044D000CF91DF911F910F91FF90EF90DF90CF90E0
:1044E000BF90AF908F907F906F905F904F903F9074
:1044F0002F900895AE81BF8118962C91189730E0C7
:104500005B968C90882D90E00197281739070CF066
:10451000BFCE22243324210104CF1701280101CF6B
:1045200088E0AE81BF8196968C93969759962D918F
:104530003C915A97BFCF8F929F92AF92BF92CF92EA
:10454000DF92EF92FF920F931F93CF93DF938FEF42
:1045500087B98FE88AB98BB18C608BB989E0809379
:10456000810084EF91E0909389008093880080EE31
:1045700091E090938B0080938A0096E090936F0077
:1045800080E680937C0086EC80937A0088E18093BB
:10459000C1009093C20088E092E09093C5008093A0
:1045A000C4002FE332E0C90160E070E040E450E075
:1045B0000E94552BAFE7B2E088E5ED0119928A958C
:1045C000E9F7E7E1F3E080E094E0EF019C01199264
:1045D00021503040E1F780903B0290903C02ED0189
:1045E0008BE1C82ED12CCA0EDB1EAA24BB24F501F8
:1045F000E05FFE4F60E070E48CE197E42081318160
:10460000428153810E9458277B018C0120E030E0D9
:1046100040E854E40E945E260E9488247D8F6C8FBF
:10462000C801B70120E030E040E85EE30E945E266A
:1046300020E030E040E854E40E945E260E94882496
:1046400079A368A3C801B70120E030E040E05EE351
:104650000E945E2620E030E040E854E40E945E269E
:104660000E9488247F8F6E8FC801B70120E030E060
:1046700040E450E40E945E2620E030E040E05EE34B
:104680000E945E2620E030E040E854E40E945E266E
:104690000E948824F6017087678360E070E080E8FC
:1046A00092E4A80197010E9458270E945C2B0E9467
:1046B0008824F60160839401295E3C4F3983288366
:1046C000E62FF0E09F01280D391DA901495E5C4FDE
:1046D0005B834A832E0F3F1FA901495E5C4F5D83B8
:1046E0004C832E0F3F1FA901495E5C4F5F834E83B1
:1046F00049018E0E9F1E70E080E090E00E948828A5
:10470000A80197010E945E2620E030E040E852E4D4
:104710000E94002620E030E040E854E40E945E263B
:104720000E948824F60172876187F501E45EFE4FDE
:1047300080819181A281B381F60185879687A787C1
:10474000B08B24E030E0A20EB31EAC968CE290E079
:10475000C80ED91E98E0A916B10409F048CF90926E
:104760003C0280923B02789483B7817F83BF83B7FA
:10477000816083BFDF91CF911F910F91FF90EF90E8
:10478000DF90CF90BF90AF909F908F9008950F9340
:104790001F930E949B2282E0809339021FEF01E069
:1047A00008C08FE792E00E945A208BEA92E00E94B4
:1047B0005A208091C00087FFF4CF90913902A92F31
:1047C000B0E0FD01E050FF4F80818E3FE9F780911E
:1047D000C600AF5CBD4F8C931083992319F40093EE
:1047E0003902DFCF10923902DCCF1F920F920FB641
:1047F0000F9211242F933F934F935F936F937F9367
:104800008F939F93AF93BF93CF93DF93EF93FF93D8
:104810005F9820913002E22FF0E0E952FD4F808155
:1048200088B92F5F2F73209330025F9A90913D02D9
:10483000E92FF0E0809179008E57E15CFD4F808395
:1048400080917A00806480937A0090933E029F5F0B
:104850009F7390933D02222309F041C0A1E3B2E08F
:10486000C8E0D1E060E020E030E09EEF17C080813A
:10487000883009F447C08C9187FD47C080818F3F05
:1048800019F08C91880F8C9380818F5F80832F5FCC
:104890003F4F119621962830310569F0F901E0501B
:1048A000FF4F80818E3F99F380818F3F01F7888190
:1048B000682B5A98E3CF60933A0270E00024769513
:1048C00067950794769567950794762F602D6059C4
:1048D0007F4F87ED92E040E450E00E944C2BFF9127
:1048E000EF91DF91CF91BF91AF919F918F917F9188
:1048F0006F915F914F913F912F910F900FBE0F904D
:104900001F90189590835A9AC2CF8881682BB6CF92
:10491000EF92FF920F931F937B018C0120E030E018
:1049200040E05FE40E94042888238CF0C801B701AE
:1049300020E030E040E05FE40E9400260E9434283E
:104940009B01AC01205030404040504806C0C80197
:10495000B7010E9434289B01AC01B901CA011F9123
:104960000F91FF90EF900895A0E0B0E0EAEBF4E241
:104970000C94152BDC012B01FA019C91923008F468
:1049800039C1EB018881823008F433C1943069F475
:10499000843009F02FC111969C9111978981981745
:1049A00009F428C1A8E2B1E025C1843009F421C18D
:1049B0008230A9F4923009F01DC19A01AD0188E05E
:1049C000EA010990AE01E90109929E018150C1F707
:1049D000E201898111969C918923818308C19230DB
:1049E00009F407C112962D903C901397EB018A8130
:1049F0009B811496AD90BD90CD90DC901797EC8084
:104A0000FD800E811F819101281B390BB90137FFF1
:104A100004C066277727621B730B603271050CF0A8
:104A200061C0121613066CF537014801062E04C04A
:104A300096948794779467940A94D2F721E030E0B3
:104A400040E050E004C0220F331F441F551F6A95F9
:104A5000D2F721503040404050402E213F2140238A
:104A60005123211531054105510521F021E030E0A8
:104A700040E050E079018A01E628F7280829192941
:104A80003CC0232BD1F1260E371E35014601062EE0
:104A900004C096948794779467940A94D2F721E09F
:104AA00030E040E050E004C0220F331F441F551F88
:104AB0006A95D2F721503040404050402A213B2196
:104AC0004C215D21211531054105510521F021E0E1
:104AD00030E040E050E059016A01A628B728C82814
:104AE000D9280BC0821593052CF01C01AA24BB24E5
:104AF000650103C0EE24FF24870111969C91D20129
:104B000011968C91981709F445C0992339F0A801A2
:104B100097012A193B094C095D0906C0A6019501B8
:104B20002E193F09400B510B57FD08C011823382EB
:104B3000228224833583468357831DC081E081838D
:104B40003382228288279927DC01821B930BA40BD6
:104B5000B50B84839583A683B7830DC0220F331FC3
:104B6000441F551F24833583468357838281938155
:104B70000197938382832481358146815781DA01AD
:104B8000C9010197A109B1098F5F9F4FAF4FBF4383
:104B900028F30BC0918333822282EA0CFB1C0C1D8C
:104BA0001D1DE482F5820683178383E080832481C0
:104BB00035814681578157FF1AC0C901AA2797FD41
:104BC000A095BA2F81709070A070B07056954795DF
:104BD00037952795822B932BA42BB52B8483958314
:104BE000A683B78382819381019693838283DF01B9
:104BF00001C0D201CD01CDB7DEB7E2E10C94312B7B
:104C0000A0E2B0E0E6E0F6E20C94212B69837A831F
:104C10008B839C832D833E834F835887E9E0EE2E60
:104C2000F12CEC0EFD1ECE010196B7010E94252A43
:104C30008E010F5E1F4FCE010596B8010E94252AF6
:104C40008A8991E089278A8BC701B801AE01475E46
:104C50005F4F0E94B4240E945029A096E6E00C9475
:104C60003D2BA0E2B0E0E7E3F6E20C94212B698350
:104C70007A838B839C832D833E834F835887F9E00F
:104C8000EF2EF12CEC0EFD1ECE010196B7010E9415
:104C9000252A8E010F5E1F4FCE010596B8010E9496
:104CA000252AC701B801AE01475E5F4F0E94B424B8
:104CB0000E945029A096E6E00C943D2BA0E2B0E0C3
:104CC000E4E6F6E20C94152B69837A838B839C834C
:104CD0002D833E834F835887CE010196BE01675FC7
:104CE0007F4F0E94252ACE010596BE016F5E7F4F41
:104CF0000E94252A9985923088F089898230C8F0EF
:104D0000943019F4823051F404C0843029F4923084
:104D100081F488E291E0C6C0923049F420E09A859F
:104D20008A89981321E02A87CE010996BBC0823078
:104D300049F420E09A858A89981321E02A8BCE01D4
:104D40004196B0C02D843E844F8458886D887E88FB
:104D50008F88988CEE24FF248701AA24BB24650148
:104D600040E050E060E070E0E0E0F0E0C101817020
:104D70009070892BE9F0E60CF71C081D191D9A01AB
:104D8000AB012A0D3B1D4C1D5D1D80E090E0A0E0B5
:104D9000B0E0E614F7040805190520F481E090E07E
:104DA000A0E0B0E0BA01A901480F591F6A1F7B1F9C
:104DB000AA0CBB1CCC1CDD1C97FE08C081E090E057
:104DC000A0E0B0E0A82AB92ACA2ADB2A3196E0324C
:104DD000F10549F0660C771C881C991C5694479481
:104DE00037942794C3CFFA85EA892B893C898B8530
:104DF0009C85280F391F2E5F3F4F17C0CA01817055
:104E00009070892B61F016950795F794E79480E0F0
:104E100090E0A0E0B0E8E82AF92A0A2B1B2B76954F
:104E20006795579547952F5F3F4F77FDE7CF0CC0AC
:104E3000440F551F661F771F17FD4160EE0CFF1CC6
:104E4000001F111F21503040403090E0590790E082
:104E5000690790E4790760F32B8F3C8FDB01CA016F
:104E60008F779070A070B07080349105A105B10566
:104E700061F447FD0AC0E114F1040105110529F0B0
:104E8000405C5F4F6F4F7F4F40781A8EFE1711F0D6
:104E900081E08A8F4D8F5E8F6F8F78A383E0898F3B
:104EA000CE0149960E945029A096E2E10C94312B44
:104EB000A8E1B0E0EEE5F7E20C941D2B69837A835C
:104EC0008B839C832D833E834F835887B9E0EB2EE1
:104ED000F12CEC0EFD1ECE010196B7010E94252A91
:104EE0008E010F5E1F4FCE010596B8010E94252A44
:104EF0002985223008F47EC03989323010F4B80197
:104F00007CC08A859A8989278A87243011F02230CB
:104F100031F4231709F06EC068E271E06EC03430DE
:104F200039F41D861E861F86188A1C861B8604C0BF
:104F3000323021F484E08987B7015FC02B853C853E
:104F40008B899C89281B390B3C872B87ED84FE8439
:104F50000F851889AD88BE88CF88D88CEA14FB04E9
:104F60000C051D0540F4EE0CFF1C001F111F215005
:104F700030403C872B8720E030E040E050E080E08C
:104F800090E0A0E0B0E460E070E0EA14FB040C05FF
:104F90001D0540F0282B392B4A2B5B2BEA18FB0808
:104FA0000C091D09B695A79597958795EE0CFF1CE2
:104FB000001F111F6F5F7F4F6F31710531F7DA01ED
:104FC000C9018F779070A070B07080349105A105F1
:104FD000B10561F427FD0AC0E114F10401051105D2
:104FE00029F0205C3F4F4F4F5F4F20782D873E8741
:104FF0004F87588BBE01675F7F4FCB010E945029BE
:105000006896EAE00C94392BA8E1B0E0EAE0F8E217
:105010000C94212B69837A838B839C832D833E831D
:105020004F83588789E0E82EF12CEC0EFD1ECE014F
:105030000196B7010E94252A8E010F5E1F4FCE01F7
:105040000596B8010E94252A8985823040F0898919
:10505000823028F0C701B8010E949D2A01C08FEF5D
:105060006896E6E00C943D2BACE0B0E0EAE3F8E2B1
:105070000C94252B69837A838B839C83CE010196C4
:10508000BE016B5F7F4F0E94252A8D81823061F1C6
:10509000823050F1843021F48E81882351F12EC06A
:1050A0002F81388537FD20C06E812F3131051CF0EE
:1050B0006623F9F023C08EE190E0821B930B2985D3
:1050C0003A854B855C8504C056954795379527955D
:1050D0008A95D2F76623B1F0509540953095219589
:1050E0003F4F4F4F5F4F0EC020E030E040E050E0B8
:1050F00009C02FEF3FEF4FEF5FE704C020E030E043
:1051000040E050E8B901CA012C96E2E00C94412B32
:10511000A8E0B0E0EEE8F8E20C941D2B7B018C01D6
:10512000611571058105910519F482E0898360C0DC
:1051300083E089838EE1C82ED12CDC82CB82ED8284
:10514000FE820F831887C801B7010E940129FC0164
:105150003197F7FF3BC0222733272E1B3F0B570108
:105160006801022E04C0D694C794B794A7940A94F9
:10517000D2F740E050E060E070E081E090E0A0E035
:10518000B0E004C0880F991FAA1FBB1F2A95D2F751
:105190000197A109B1098E219F21A023B123009776
:1051A000A105B10521F041E050E060E070E04A293E
:1051B0005B296C297D294D835E836F8378878EE11F
:1051C00090E08E1B9F0B9C838B8312C0309781F0E5
:1051D0000E2E04C0EE0CFF1C001F111F0A94D2F704
:1051E000ED82FE820F831887CE1ADF0ADC82CB8223
:1051F0001A82CE0101960E9450292896EAE00C946A
:10520000392BEF92FF920F931F937B018C0180E06B
:10521000E81680E0F80681E0080780E0180788F4C7
:105220008FEFE816F1040105110531F028F088E050
:1052300090E0A0E0B0E017C080E090E0A0E0B0E037
:1052400012C080E0E81680E0F80680E0080781E000
:10525000180728F088E190E0A0E0B0E004C080E109
:1052600090E0A0E0B0E020E230E040E050E0281B19
:10527000390B4A0B5B0B04C016950795F794E7941E
:105280008A95D2F7F701E05DFE4F8081281B310936
:1052900041095109C9011F910F91FF90EF900895A5
:1052A000DF92EF92FF920F931F93FC01E480F58051
:1052B00006811781D1808081823048F480E090E0BF
:1052C000A0E1B0E0E82AF92A0A2B1B2BA5C0843004
:1052D00009F49FC0823021F4EE24FF24870105C029
:1052E000E114F1040105110519F4E0E0F0E096C0C5
:1052F000628173819FEF623879070CF05BC022E80E
:105300003FEF261B370B2A3131052CF020E030E02F
:1053100040E050E02AC0B801A701022E04C07695F3
:105320006795579547950A94D2F781E090E0A0E001
:10533000B0E004C0880F991FAA1FBB1F2A95D2F79F
:105340000197A109B1098E219F21A023B1230097C4
:10535000A105B10521F081E090E0A0E0B0E09A0164
:10536000AB01282B392B4A2B5B2BDA01C9018F7734
:105370009070A070B07080349105A105B10539F42A
:1053800027FF09C0205C3F4F4F4F5F4F04C0215C97
:105390003F4F4F4F5F4FE0E0F0E02030A0E03A0792
:1053A000A0E04A07A0E45A0710F0E1E0F0E079013C
:1053B0008A0127C06038710564F5FB01E158FF4F91
:1053C000D801C7018F779070A070B07080349105BC
:1053D000A105B10539F4E7FE0DC080E490E0A0E03E
:1053E000B0E004C08FE390E0A0E0B0E0E80EF91E6A
:1053F0000A1F1B1F17FF05C016950795F794E79422
:10540000319687E016950795F794E7948A95D1F73A
:1054100005C0EE24FF248701EFEFF0E06E2F6795C3
:1054200066276795902F9F77D794DD24D7948E2F8A
:105430008695492F462B582F5D29B701CA011F9128
:105440000F91FF90EF90DF900895FC01DB01408108
:1054500051812281622F6F7770E0221F2227221F45
:105460009381892F880F822B282F30E0991F99274D
:10547000991F11969C93119721153105A9F5411596
:1054800051056105710511F482E037C082E89FEF94
:1054900013969C938E9312979A01AB0167E0220FAB
:1054A000331F441F551F6A95D1F783E08C930DC0BD
:1054B000220F331F441F551F12968D919C911397F5
:1054C000019713969C938E931297203080E03807B3
:1054D00080E0480780E4580758F314962D933D93D5
:1054E0004D935C93179708952F3F310579F441153B
:1054F00051056105710519F484E08C93089564FFEA
:1055000003C081E08C9312C01C9210C02F57304012
:1055100013963C932E93129783E08C9387E0440F6D
:10552000551F661F771F8A95D1F7706414964D93A7
:105530005D936D937C93179708951F93DC01FB0196
:105540009C91923008F447C08081823008F443C0B7
:10555000943051F411961C91843099F58181682F13
:1055600070E0611B71093FC0843021F0923031F44A
:105570008230B9F18181882389F12DC011961C9167
:1055800011978230F1F081811817D9F412962D917C
:105590003C911397828193818217930794F0281787
:1055A0003907BCF014968D919D910D90BC91A02D62
:1055B0002481358146815781281739074A075B07BF
:1055C00018F4112341F00AC082179307A407B50706
:1055D00040F4112319F061E070E005C06FEF7FEF38
:1055E00002C060E070E0CB011F910895629FD0017E
:1055F000739FF001829FE00DF11D649FE00DF11D8E
:10560000929FF00D839FF00D749FF00D659FF00D3C
:105610009927729FB00DE11DF91F639FB00DE11D29
:10562000F91FBD01CF01112408952F923F924F928F
:105630005F926F927F928F929F92AF92BF92CF9222
:10564000DF92EF92FF920F931F93CF93DF93CDB72B
:10565000DEB7CA1BDB0B0FB6F894DEBF0FBECDBFA3
:1056600009942A88398848885F846E847D848C8474
:105670009B84AA84B984C884DF80EE80FD800C817D
:105680001B81AA81B981CE0FD11D0FB6F894DEBF60
:105690000FBECDBFED010895FB01DC0102C00590F6
:1056A0000D9241505040D8F70895DC0101C06D9330
:1056B00041505040E0F708953BD080F09F3740F4D0
:1056C00091110EF44DC060E070E080E89FE3089512
:1056D00026F01B16611D711D811D01C01BC0882392
:1056E00071F4772321F09850872B762F07C066231B
:1056F00011F499270DC09051862B70E060E02AF0DC
:105700009A95660F771F881FDAF7880F9695879509
:1057100097F908959F3F31F0915020F48795779540
:105720006795B795880F911D9695879597F9089578
:1057300025D0A0F0BEE7B91788F4BB279F3860F4E6
:105740001616B11D672F782F8827985FF7CF86959B
:1057500077956795B11D93959639C8F30895E894A8
:10576000BB2766277727CB0197F9089557FD9058F7
:10577000440F551F59F05F3F71F04795880F97FB15
:10578000991F61F09F3F79F08795089512161306CF
:105790001406551FF2CF4695F1DF08C016161706FE
:1057A0001806991FF1CF8695710561050894089533
:0457B000F894FFCF9B
:1057B400FEFEFEFEFEFEFEFE0102040810204080F6
:1057C40000007A450080BB4500C0DA451027000080
:1057D400983A0000B88800000000000000000000B3
:1057E4000001020203030303040404040404040484
:1057F4000505050505050505050505050505050555
:105804000606060606060606060606060606060634
:105814000606060606060606060606060606060624
:105824000707070707070707070707070707070704
:1058340007070707070707070707070707070707F4
:1058440007070707070707070707070707070707E4
:1058540007070707070707070707070707070707D4
:1058640008080808080808080808080808080808B4
:1058740008080808080808080808080808080808A4
:105884000808080808080808080808080808080894
:105894000808080808080808080808080808080884
:1058A4000808080808080808080808080808080874
:1058B4000808080808080808080808080808080864
:1058C4000808080808080808080808080808080854
:1058D4000808080808080808080808080808080844
:00000001FF
