:100000000C9438200C9455200C9455200C945520B9
:100010000C9455200C9455200C9455200C9455208C
:100020000C9455200C9455200C9455200C9455207C
:100030000C9455200C9457200C94DC200C945520E3
:100040000C9455200C9455200C9455200C9455205C
:100050000C9455200C9455200C9455200C9455204C
:100060000C9455200C9455200C9455200C9455203C
:100070008080808080808080808080808080808080
:100080008080808080808080808080808080808070
:100090008080808080808080808080808080808060
:1000A0008080808080808080808080808080808050
:1000B0008080807E7B7A7E87909388725E586B907A
:1000C000B3BEA5713E2A4586C8E7CD86380F236AA0
:1000D000BDEEE3A2511C1F559DCFD3AB71473F5AD4
:1000E00083A2A99A816F6A717D858683807F7F80D4
:1000F00080807F7E7D8084878278717586969580EA
:10010000655D7398AD9C704D537FAFB9935A405A5B
:1001100093BCB27F4E476EA0B59D71555D7F9D9F8C
:1001200089706874858D8980797A7E8181807F80ED
:1001300080807F7D7B7B818A8E887B6E6B73808CD9
:10014000929593877055485E94CDDDB059100B534E
:10015000BCFFF099380B2A78BDD1B3805B55657B25
:10016000898E8D8A857D777579808484817F7F8073
:1001700080807F7E7F83857F757585948D706075A7
:100180009CA88253548ABAA8633A61AEC88E423C96
:1001900084C7B7683759A4C293534A7CACA5775932
:1001A000698D9B8A726E7D89877F7B7D8080808050
:1001B00080807F7D7C7E82848485898571595B8384
:1001C000B8C89C56324B80A09F98A1A5803A134195
:1001D000AEFFEC882C1F5690A299959C95724D4AC3
:1001E00072A1B19A78686E7C8383818180807F80E0
:1001F00080807F7D7D838A86786E778A9286767509
:100200008285776C81A5AA76383C91E5D869051975
:1002100097FFE769092492DFC6713D5289A494795A
:10022000727E847E787C8689817A7A7F81818080E3
:1002300080807F7D7C7F848784807F7E786F6F82E3
:100240009CA48F6E5D67787D7F92B2BA8A380C3D30
:10025000ADFFEC862719579DB6A2887E7D7569682B
:100260007A91988D7C75787D7F7F808181807F8079
:10027000807F7F80837C7989886E789B825A87AD66
:10028000694FA7AE455BCB95277FDE6723B0D23998
:100290003ED5AA216DDE7A289AC95648B1A44D6C84
:1002A000AD855A849A776F8988797C83807F7F8037
:1002B00080807F7F7F797A8A908180896B4E77A753
:1002C0009389B2942F308B9176C3EF74155679448D
:1002D0007DFFDC59557D3D2BA4E39B789672355A02
:1002E0009F998393926F677C847F8284807F7F80D5
:1002F00080807E7F817C7E8E896A6C8E877299A7D2
:10030000553798BE7478B4660B7FFC9D408A902167
:1003100058FFD22D45A16B50C5DA4F298DA06D8AAB
:10032000B0774A799C84798782757C84817F7F80CD
:1003300080807F7E7E7B7E8B8D7D79817365849EC0
:100340008176A09C5851807462B3ED94384D5B3F28
:1003500088FFE0624761444FB6DB8D64807555735A
:100360009D8C7689917A717D807C8184817F7F806C
:1003700080807E7F82807F877D697EA78C556C9B85
:100380008579A2812C6AEDB22147B4926FB39010A7
:100390004EFFCF2036AE996EA597324FCCBC505150
:1003A000928F788B8B6B708F8D7A7981817F808033
:1003B00080807F7E7F7D7E87867B839076546B985E
:1003C0009B99A67A2F4AA4A06B90C38D54685D3484
:1003D00080FFDE583E6B6061A4B47A78A5884552F0
:1003E0008C998F93876B6C82867F7F82807F7F80E2
:1003F00080807F7E80808289806B76968C6E7E94F2
:100400007466928F5E81C5862157C1AF7F8F661952
:1004100068FFD73A2D808786BAA23F43A2AC6E70A0
:1004200093816C818B797A8A86787A8181808080C9
:1004300080807F7E7E7D808886797C897B657793CE
:100440008C879A84505F97865D8DC9A1635E4B331C
:1004500088FFE05F37595F73B2B6756991865B6755
:100460008D8E838B88747381837D7F82817F7F8073
:1004700080807E80848077808F80687FA07F557F9A
:10048000B47F417FC87F2E7FD87F217FE3801A7F92
:10049000E6801B7FE180237FD580337FC380468049
:1004A000AF805A7F9B806C808B80797F82807F8039
:1004B00080807F7E7F7C7884958C75777F66568A76
:1004C000C4A96F7684472483EAC47484923500718A
:1004D000EBC97F96A13E0464CBB4849CA35A2F67DA
:1004E000A19683919374657686838082827F7F80D4
:1004F00080807F7E81807C858E7A62789D916F7FFF
:1005000094654693DA953558A17F5BACDB63006256
:10051000DEAE597FA5542B99EA97395E997F699889
:10052000AB735176998A7880847B7A8182807F80D0
:1005300080807F7E7E7D7C879185717482776B88D9
:10054000A68E6D8599633369B9B38FA09735006224
:10055000DBD598918032197BD3B67C808963527C3D
:100560009D897687917E707981807F82827F7F806E
:1005700080807E7E82827D7F8378728FA2744877AE
:10058000BC9D535E95886F9EAD4C22A2FF8A054D9F
:10059000CFB55D6E926356B1CE5E1E7DD39C4E6329
:1005A000928A79878A736F868E7F787E82807F8039
:1005B00080807F7E7F7F7D838A847B838565518277
:1005C000C2B375626D5A5797C291689AB24E005382
:1005D000D4DA9A85753B348BC3916894B0763F5AD0
:1005E0008E989092886F6A7D88827E8081807F80DD
:1005F00080807F7E8082808384766D859D84627911
:100600009E835774A9956A7A885954BAEB7300444B
:10061000C7CA8273724A56B7D8772E65AB956B7C82
:10062000937E6D7F8B7E7985877C797F82807F80CA
:1006300080807F7E7E7F7F858980767E87736282E1
:10064000AA9B7272836D597EA38D80ACAF49004D19
:10065000CBE1A98463323C96CB9A677E9978576E3A
:100660008E8D838A8878727E847F7E8182807F806F
:10067000807F7E80877C7089976E619BA25A5DAD7A
:100680009E4F69AE8D5B7A95807F7F6786B06C39AF
:10069000A5D54621CFDE1E28EFC90A48F4A4136C65
:1006A000DD853584B6775B8994797683827F7F8018
:1006B00080807E7F8179748A9A817189804E5CA75F
:1006C000B58989945E305691AFC3B274565637449B
:1006D000C0FF9A59957D012BDBE36978C272105AED
:1006E000BE996A93A46F5A7C8B7F7E84827F7F80C1
:1006F00080807E7F847D778C946C5C8D9F7475A3E5
:10070000823F64B7AD796F695D7FA49A94883F2C6E
:10071000ACF17A36979D2655FFD01833C09C42899C
:10072000CF783379AE846B878B767783837F7F80B6
:1007300080807E7E807B798B957D6D8183656F9EC9
:100740009B76819C7C5158748EB3BE94694D283F32
:10075000BAFFAD627761164FE0DB6764A17538734D
:10076000B48C64899E7A687D867C7E84827F7F805B
:1007700080807E7F85807886896B6DA3A3584E9993
:10078000AB797181696CA7AE6B4C6890BBAE4319B5
:100790009FF57D2884AA5270E1950053F8B729553A
:1007A000B48E5D8A9E6C628D957A7581827F7F8022
:1007B00080807E7E817D7A878E7B77908654569866
:1007C000B499887A524A7DA09590968D83682C348E
:1007D000B1FFAE586C6B3461CCB45678C6882952E0
:1007E000A3997D93946B63828C7F7C82827F7F80D0
:1007F00080807E7E82807D89896B68969F6E6594FD
:1008000093666D8F88819686555789AFB98F2A195F
:10081000A4FF9C3A66805186ECA21243CAAC4C708D
:10082000AE8156819B796E8A8D78778182807F80B8
:1008300080807E7E807D7D888C79738987656693D4
:10084000A08782846C5F7786808DA4A18A5E233323
:10085000B0FFB95F5D593B73D3B65769AB86456747
:10086000A08E758B93746C81877D7C82827F7F8064
:10087000807F7E81837B7A8C856A7F9E745A9BA55C
:100880005062C28B2E8DD6542FC9BE1E5DF0800ED5
:10089000A3E63D30D8B01D70DF712DA4BD4E59B414
:1008A000905080A476688C8C757B86807D8080805B
:1008B00080807F7F7F797B8B8D7E848A645284A049
:1008C0008294BE7E275491697BEAD449407F482EAA
:1008D000BAFF936599610B5DCBA780B09C3F4288BE
:1008E0008B7899A57B677A7E778088827E7F8080EF
:1008F00080807E7F817C7E8F866974907C74A69DCB
:10090000454DAB9C63A0B7351DB9D76073BB4D088F
:10091000ABFF73419E79248DF58C337B955878C15C
:10092000944E6D937C789189727884817F808080E9
:1009300080807F7F7E7B7E8C8B7B7C836D668D99B8
:10094000757FAB8A506B865667D2D870576E362F3C
:10095000B6FFA76B7C4D1C74D3AC7991864E5D9528
:100960008D7288977E73807F767D85827F807F8081
:1009700080807E7F827F7F887C6983A4815A7D927C
:100980007287B1692791E77E3282965B9AD95400CB
:100990009CFA77378B8754A3D1562097CA775F8A02
:1009A0007B6893A06F63878F7D7C817E7E80808053
:1009B00080807F7F7F7C7F88857A86917156759352
:1009C0008EA1B06A2964A7816FB0B16C70863A2499
:1009D000AEFFA76172573883C18968A2A9614E75BD
:1009E0007E809FA076667A837D8084817F808080F0
:1009F00080807F7E807F828A7E6A7A96846F898EED
:100A000067739F7B549CC7622B82AC839FB03B086B
:100A1000A0FF95486D6654ADDC702D7AA779769964
:100A20008165829276718A8B7B7A807F7F808080DD
:100A300080807F7E7E7D808985787F8A76667F90C4
:100A4000828EA37749739A6E61A8BA857A772E262B
:100A5000ADFFB366624A3E8FC992678C956661822C
:100A6000827A91967A6F7F827B7E8281808080807D
:100A7000807F7E81847A778E89657BA7794D98B84F
:100A8000504AC8A72070EE700DB1EA2D29EDB802CA
:100A90006BFF6F09AFE1393AD3A82C73CB7743963C
:100AA000AA63669B8B6A7D8E7E7882827E7F808041
:100AB00080807F808179798C8D7780936D4F86AA35
:100AC0007879BD922851AC7956CBE44E2B947B2893
:100AD0008DFFA0448A922A41C0BB6F8AA9623E7EE4
:100AE0009C7C819C886B75837D7D84837F7F7F80E8
:100AF00080807E80827B7B8E886874987E649DAACD
:100B00004E46B0AA4F82CB5A11A5E95F48BF890E65
:100B10007AFF8E268AAC415BDAAD3860A77961A195
:100B2000A462608E8B76828B7B7781827F7F8080D0
:100B300080807F7F807A7C8C8B767B8C725F8DA3AC
:100B4000706EAF9846639F684DBEE46B4083652925
:100B500092FFAD4E767B3257C8BC6C79966753894D
:100B60009A77799388737A827C7B8383807F7F8076
:100B700080807E80837D7C8A81677FA7815382A36A
:100B80006B6DB6862579ED891E82BE5A64D68A03BE
:100B900073FF8F1E7EB35E6DC6872875CC8C507D2B
:100BA00093727B9881677C8F827A7F817F7F808040
:100BB00080807F7F807C7D898675829675537A9E42
:100BC0008388B37F295DB88854A5C668549567218A
:100BD0008CFFAD476F814764BBA05F87B0744871DD
:100BE0008E828B9A82697685817D81827F7F8080EB
:100BF00080807E7F817E7F8B8269799B84648A9CE2
:100C00006463A78F4886D2731F81C57971B76E0C54
:100C10007DFFA0316B935D7ECE913365B08A648A8F
:100C2000936E728F8371818C7F797F8180808080C9
:100C300080807F7F807C7E8A86747D907860819AB8
:100C40007B7DA887436BAB784DA0CB7C6087572317
:100C500090FFB64F62704A72C2A55F799F76587C4A
:100C60008F7D829383707A847F7C8182807F808075
:100C7000807F7E80857C76888D7170948E66769973
:100C8000836C82877989836285B16A3EABCB3B33C3
:100C9000DCC40F4AFCA00075F9761598D65E3FA318
:100CA000AA6066988C707B88807C80807F80808042
:100CB00080807F7F817B7888907E79877A5D70984D
:100CC000998E927E5E5F686FA4CE94577D7F294394
:100CD000D9DF616CBE690066DD9D5EA3B3503886C6
:100CE0009D7A829C886E737F7F808382807F7F80E5
:100CF00080807E7F837D7A8A8D706B8B8F778394E3
:100D0000745D7B9493967A4C6BA8886AADA9252D67
:100D1000D6D84054CA7B0E89FF88207CB3645BAD73
:100D2000A75D5E8D8C7A81867D7A7F8180807F80D1
:100D300080807F7F807B7A8B917C73837D697A96BC
:100D40008C7F8C89736D635A8FCAA7728570133735
:100D5000DCF3786DA5520075EEA85A8FA153499324
:100D6000A07478958A74787F7C7E828280807F8070
:100D700080807E7F847F7A86866C759F9460649085
:100D80009486846C608EA67E73825A61D2CC1D13C9
:100D9000D5E83C42C486239EF85C0094E8784188FC
:100DA000986B7A9B82677A8D857D7D7F808080803D
:100DB00080807E7F817C7B888C7A7B918056629359
:100DC000A6A1946A4A64828197B0866C9D860C24A1
:100DD000DCFF7A619E570F83E78945A2C7613475AE
:100DE00094808EA0836672838280818180807F80E0
:100DF00080807E7F827F7D89866C6F949470738DF6
:100E000083747D7C7C9A98655F827883CEAC0D116B
:100E1000D1F5614CA06829A9FF710D7BC67A5A975C
:100E200099676F918572808A817A7D7F80808080CA
:100E300080807E7E807D7D898B78768A82666F90C9
:100E4000958E8C7764737C6E82A897859F77092630
:100E5000D3FF8E66864A1C8FE9924A8CAE664C821E
:100E6000937A8396846F7882807E808180807F8071
:100E7000807F7E81867A728D91676DA48E517CB35E
:100E8000754F9BA35671B2724EADA6346EE3730ECE
:100E9000ACF43314E7D80640FFA40474EE7725942D
:100EA000C36651989B6C718D86787E82807F80802E
:100EB00080807E808279768C937776937B4F74AA3C
:100EC0008E79A392465189797CCBBB4E559450289C
:100ED000B9FF7544B3920241E5BB4E8AC662257ED6
:100EE000B07C729C946B6C83837D8183807F7F80D8
:100EF00080807E80847B778D8F6969978E6687A8D6
:100F00006A488FA87582A05C42A3B6607BBC571369
:100F1000ADFA5B2ABAAA165DFFAB1661C679469F89
:100F2000BA634F8D9877798A81777D82807F7F80C1
:100F300080807E7F817A798C9176728C7E5F7EA3B1
:100F4000826E9898606382686DBEC26B638341292C
:100F5000B6FF894E997B1157E7BC5179AE673F893F
:100F6000AB776C9392737382807B8083807F7F806A
:100F700080807E80857D788A896773A791536DA371
:100F8000856D97864879C5894A828F5A96D65703C8
:100F9000A6FF5D1EAFB3316DF0870275ED8C337D1A
:100FA000AB7268988F67738F887A7C81807F80802E
:100FB00080807E7F827C7A898C757A9680536B9E46
:100FC00095889D7F425D9C8873A5A5687695432191
:100FD000B0FF8A4790812764D8A04587C8743471D0
:100FE0009F827E9A8B696F85857D7F82807F7F80DF
:100FF00080807E7F837E7B8B8869709B9164799CE7
:1010000079638E8F6586B17342819F7999B7450C5C
:10101000A6FF78319293397EF0911465CB8A4D8A80
:10102000A66E638F8E71798C84797C8180808080BC
:1010300080807E7F817C7C8A8B7476908260759ABA
:101040008A7D9587586B937868A0AE7C7D8739231D
:10105000AFFF984F7F702E72DCA54979B376477C3D
:101060009D7D77938B707484827C7F82807F7F806C
:10107000807F7F827E7A8A7D70957F60A0874DA970
:101080009438ADA625ABBB16A2D10F93E40F7FF128
:10109000186CF7285AF53C4DEA5147D96548C47594
:1010A00050AF805B9C84698D847584827D80808054
:1010B00080807F807C798482809784667F6D57A151
:1010C000A87BAF8D27688047BCE96C8E90004BB43D
:1010D00068B3FC61508A224BCD938FCB6940826408
:1010E00066AE977A9179667F817C86837E807F80E9
:1010F000807F7F817D7B8B83768A75619D966A9FD9
:101100007B3199AF5EB5A00B78BC4FB9D91050B9FF
:10111000419EFF3E3EAD4072F7734AA25256C98FC0
:1011200062976E5B998D768A7E7382827E808080E4
:1011300080807F7F7C7A8685818F7C66827B689BBE
:10114000956BA1974B7979399DD786A796033599E9
:1011500075C7FF66406D2963D99E85AA5C4A8F7862
:101160006F9F887590806F7F7E7A84837F807F8079
:10117000807F7F807E7E8C7D6C878378A17A449689
:10118000A369A37B1DA7D650848917AFFE3852A24E
:1011900037A5FF2E2FB9698BDC3D2FBE8D73AC5C5C
:1011A0004CAC946D8A766D90897780807E8080804B
:1011B00080807F7F7C7C86827B8D8674856A50965A
:1011C000AE8EA87622719C64A4B661A1AF1D378B48
:1011D0006ECBFF5C36764473C87B73BC815D7E57F3
:1011E00060ACA08087726A84847D83817F808080E8
:1011F00080807F7F7D7F8B8272827A749D885D91F3
:101200008C5B948A4DAEBA3E69864AC5EC3338850C
:1012100053BFFF41258C649BE55D39987776B276A4
:101220005D99826A8B80778D83767F807F808080D6
:1012300080807F7F7C7D87847D887F7287766092C7
:101240009D7F9D81437E91558DAD79B3AF1E2A7BE5
:1012500079D7FF612F614782D2876FA17462896A53
:10126000699F927B88797183817B82827F807F8076
:10127000807F7E82817A82847B827B7D956D66B45D
:101280007E37B3B32683D14D5FB1747C8459B19A54
:101290001AA7E2115EFF532CD09045948D748A6E8C
:1012A0007E9F696CA17D678D887580837E7F80803D
:1012B00080807F807E788186848B8077805E61B23B
:1012C0009864BCA21759A55989DA9C8061297A8A49
:1012D0004BD6FF374DB62D28CFB479A5845B695F17
:1012E00080AA827D9B756284857983847F7F7F80DD
:1012F000807F7E817F7A85887D7E7277987B73B4CC
:101300006E23ACC14194C72F44B0919F90438B830F
:1013100026CBFF1241DD4941EFA23C7A79749C80D3
:1013200084965B65A4856D8D847280847F7F8080C8
:1013300080807F807E79828885867A74826C6FAAAD
:10134000895AADA63A6B994B75CBAB986E286179EB
:101350005CE1FF4342963343D8B8748D7561787170
:10136000849D7878997D6A8381788284807F7F806C
:10137000807F7E81807C8583757C7E8A9C6554AC71
:101380008F51B4970E8AF1664F876398AF628C7263
:101390001FD0FF0734E66A56D9762791A78B855868
:1013A00071A67A73987367928C757E827F80808035
:1013B00080807F807E7B83857F858281855E5AA544
:1013C0009F79B38A1764B6707CAE8B93833E626D4F
:1013D00056E4FF3B399E4A52C999649D95706A55FF
:1013E00077A88D8191706687877A81837F7F8080DF
:1013F000807F7E807F7D868678797883997567A4E3
:101400008049A49E3995D45343857FAFAF566B6214
:101410003BDEFF1E2BB7666DE18630798F89926EB9
:101420007897706F967C708F87747D827F808080C4
:1014300080807F7F7E7C848780817D7D876A66A0B7
:10144000926EA7913572A9616DA89AA4893A5063EA
:1014500063EBFF4432864B63D1A0638A8672776662
:101460007B9D837D91776D868479808380807F806A
:10147000807F7E81817C817E7F8D716CA88446997E
:10148000AC547597749A723FCBB2008BFB3A41C64D
:101490007F738B49A4C81D60F5632DB6995D86796D
:1014A0007F9D6869A28265888A797E817F807F803E
:1014B00080807F807E7A7F82889478698F70479D54
:1014C000BE7B8A8C566A584EE1DC3F8CC00F1EAE44
:1014D0009EADBB6586880051EE9067C28D476568FA
:1014E00081A8827B9C79607F877D828380807F80DA
:1014F000807F7E80807D838281876C6AA58F5A95EC
:10150000984870A18EA56C2EA8AA2CA8F23129A704
:101510008995A452859F2376FF7732988363948AB6
:1015200084906066A0896F8785777E8180807F80C8
:1015300080807F7F7E7A8285898F7266917B559BC2
:10154000AD6C84966D79533AC6D659A7C4050799F0
:10155000A5C6CF676F6E0063FF9D61A97C4B747851
:10156000859E77759D80667F837A818380807F806A
:10157000807F7E80807F837E7A85777BA47C458E8A
:10158000AF71797D62999161AC850F9EFF51329563
:101590008198A24B7AA54687E35528A8A877816948
:1015A000759C7B73947A6A8A8B7A7D807F80808039
:1015B00080807E7F7E7C8282828E7B749668379765
:1015C000CC8F8C7540707562D3B930A4E416008C52
:1015D000A0D0D65962751272F87A4CC0A35A6155E0
:1015E00076AF908096715E848A7C808280807F80D6
:1015F00080807E7F7F7F85817C817176A586528DFC
:10160000A063748878A4894D95852CB6FF441C840A
:101610008AB1B74F64894295F465279296788E789F
:101620007993716F9580708A88787C8080807F80C4
:1016300080807F7F7E7D84848389767294764E92CB
:10164000B27F84815E7E7154B1AE53B4D71C007BEF
:10165000A2D9D96154612182F58750A28E62736A42
:101660007B9F837B94796983867B7F8280807F8068
:10167000807F7E82837A7D8484826D7DA76E4EB367
:101680009D398DB153839F4E94AF3D7CBF5A749961
:1016900058A6A41498FC1E2FFF901993B575686E78
:1016A0009A9E546DB07D5D8D8E757D83807F7F8029
:1016B00080807E8080787C868C8B7477905E4CB244
:1016C000B1649DA23A597D59B4DA6E809129498A54
:1016D0007DD6CE377DB70027F8B453A5A55B4D5F07
:1016E00097AA707DA97558848B798084807F7F80CC
:1016F000807F7E81817B7F86857E6A79A27C62A9DC
:101700008B3785B3719092407BA66198BB5058820D
:1017100069BBB5297CC9294EFF9B267B9A777B80C4
:101720009991516BA984688A89757D83807F7F80B8
:1017300080807E807F797F898B867074906C5CACB2
:10174000A05994A8566A77499ACE859997253579F4
:1017500086E5DA4168970841FFBA538E925F607060
:10176000989E6878A67D618387788084807F7F805B
:10177000807F7E81827D80837E7C7289AB6741A879
:10178000AA558E953F89BC6883863296E06554736E
:101790005EC9BF116FDD3A59FF760590C88A665B56
:1017A0008CA36674A5745E9191767A828080808025
:1017B00080807E80807A7F868685778196573EAC52
:1017C000BE779E8C265F9A6EA6B76097B3322C6A5E
:1017D00080F6E72E5AA31449FF9E3AA3B96E4A4DEC
:1017E0008CB07D82A26D58888E797E83807F7F80C9
:1017F000807F7E80817D8285807A6E83A67556A1EA
:10180000974D869C5E94AA566F8555ABD759406517
:101810006DD7CA255CB33F6EFF85157AAC88776FAC
:101820008E966171A17C698E8B757B8280807F80B2
:1018300080807E7F7F7B81888682737D956752A4BE
:10184000A96B9494476F8F5C8DAE78AAB230215FFC
:1018500087FBEA3B4D871F5FFFA5408CA2705E624D
:101860008EA2747D9E76628789787E8381807F8058
:10187000807F7E828179828679807F7F8D6C71B254
:101880006E40C79F13A4DC2162E1604EA97F7F8078
:1018900054B4A116A0E81656FF5928CF963D939A46
:1018A0006C80807F8B7479907C7687817C8080804F
:1018B00080807F817E78818883898379795E6BAE31
:1018C0008B6DC9910C72AB3A8CFD8D5D7D48527564
:1018D0007CDECA3F82A0004BF18965D28A306F82DC
:1018E0007290948C896E70857B7B88837D808080EC
:1018F000807F7E81807A84887C7C787A8D7C7FA7CB
:10190000643CB2A540AAC11C52CD7E75AA6D606D23
:1019100067C7B42C80B6236FFF7033A9804B9DA49A
:10192000747874798B7D7F8D797585827E808080D7
:1019300080807F807E78838A84857D757D6A76ABA2
:101940007E5FBE9B297FA02977F3A279863C39650B
:1019500086F1DB446B84025DFF9660B87A377D9038
:10196000778888868B767685797987837E80808074
:10197000807F7E81807C86857379838B936560A769
:10198000805DC28303A7F64154B1516DCF885C5985
:101990005BD8BE1273C93580FF4311C6AE598C8225
:1019A00060879085826B7894807683807D8080804C
:1019B00080807E807E7A83877E83868380595EA640
:1019C0009881C57C0077C2517FD67E749E5339576B
:1019D0007FF8DE39618C196CF2744ECB9D476C70C8
:1019E00068959F90836870897F7B86827E808080E7
:1019F000807F7E807F7C878777777B849375709FDD
:101A00007453B08E30ACD83648A7708CC975454F2A
:101A10006BE3CA275FA13B8FFF5D1FA59560979081
:101A20006B7F827F84757E907D7682817E808080D0
:101A300080807F7F7E7B85897F807F7E82676BA1B0
:101A40008A73B7862284B3436DCA918CA14A2A4E09
:101A500087FFE5425174207CF8824FB08C4F7A7F2B
:101A60006F8C9289847076887D7984827E80808074
:101A7000807F7E8282797F897F777C8D8B5E78BD47
:101A80006736CAAF0F89EC413ECB954D7397A85D81
:101A90003ED2AF0090FF2B34EF8627A2A95E768B53
:101AA00087826D8196727291817583837D7F80803C
:101AB000807F7E8180777E8B868080867B5171BD22
:101AC000805AD2A30063C64B65EFB45655647B5869
:101AD00061F8D41D79C50C2BEFA856B19E495B79EE
:101AE0008791828D946C6A897F7886847E7F8080DE
:101AF000807F7E818179818B807476878D6B83B8BE
:101B00005D2CC0B72B95DD2F2EC6A96B7C85884F29
:101B10004CE7C20978DC2949FF93278C96608498AA
:101B20008A7B647C9779788F7E7383837E808080C4
:101B300080807E807F78808C867D7A817E607BB598
:101B40007652C3A82171B73F57E1C0716259644F03
:101B50006CFFDC2A68A71442F5AE569A8D506B864E
:101B60008A897887937471877D7785847F7F808069
:101B7000807F7E81827B81887A737F95905A6BB358
:101B8000764EC697048DFE5836A68666949C89428A
:101B900046EBC4006EE44358EF71169EBA72737937
:101BA0007C887B868E6B7293847581817E80808039
:101BB00080807E80807A8089817C828C805367AF30
:101BC0008B6FC68D036BD1625FC5A16D766D654667
:101BD00067FFDB2460AC2B50E59149A8A9605E6CDF
:101BE0007E938B8E8C696D8B827983837E808080DF
:101BF000807F7E80817B838A7B717990926675B0CD
:101C00006B43BDA01E99F04527A49A809B8A6D3531
:101C100051FFD5075AC63F68FF7F168AA873808692
:101C2000808172818F727792817481827E808080C0
:101C300080807E807F7B828A827B7D87826172A8A2
:101C40008166B8932477C05755BAAB827E645542FB
:101C500071FFDE3255943261E7984C9599646C7946
:101C6000818B82898C717389807882837F80808068
:101C7000807F7E81827B7E848280757F987263A361
:101C80008B53969653999D3D92C43F5CC97F528079
:101C90008FA46A35C2C90C62FF651FB8AD5173923B
:101CA00087806F7F9477728B827982817E8080803B
:101CB00080807E80807A7D8687867A7B876761A236
:101CC0009B729F8C4475824CA9DD6766A157397859
:101CD000A2C59250A4970058F28750BDA0455E81DE
:101CE000868C818991736D84817C84827F807F80E2
:101CF000807F7E80817C8086837D717C967D6F9DD8
:101D00007F4D8E9C6BA092357FBA5B78C571417117
:101D100094B58141A5A91873FF74299F9958809B98
:101D2000897A697B937E78897F7881817F808080C2
:101D300080807E807F7A7F8888847577896F6AA1AA
:101D400091679A94567F7D3D98D8797BA64C276BF6
:101D5000A7D7A35292830065FF914DAB92486A8C3E
:101D600089867985927871847F7A83827F807F806B
:101D7000807F7E80827D80837D7B78889B6D579C71
:101D800096669682449CB35385A33672E3853B6482
:101D900090BF83309FB52380FF540FB3BD63718123
:101DA0007D857C848D71728E857980807E80808037
:101DB00080807E80807B7F8684837C828C5F53A042
:101DC000A880A27C30799959A0C75A76BF5A1E5E66
:101DD000A6E4A8448B8A076FFF7639BFB2505A73C6
:101DE0007E928C8E8D6B6B88847B82817F808080DD
:101DF000807F7E80817D82857F7974839A776598E4
:101E0000895E8E8A5DA2A647749E5289DB772F5A1F
:101E100094CB943C89992B8BFF651B9CA8687D8C87
:101E2000807F747F8D78788C82787F807F808080BF
:101E300080807E7F7F7B81878480777F8C6B609BB7
:101E4000997599854A83904D8DBE6F8ABC531656FD
:101E5000A7EAB34C7976117CFF813EA8A057687F32
:101E6000818A83888D737186817A82827F807F8068
:101E7000807F7E81837A7B878578738B966468B256
:101E80008143A4A73F88B94B6DBF6B569D93786380
:101E900073C47E15B5EA1441FF85179CBE64608942
:101EA000998261819D746D8E857680827F7F80802E
:101EB000807F7E8181787B898A807784875A64B22B
:101EC0009361AD9D30689D5489DB895D8069585F61
:101ED0008AE3A12F9DB9003AF9A142A8B1534D7AE6
:101EE000978E748A9A706787847983837F7F7F80D7
:101EF000807F7E81827B7D8985777085957073ABCD
:101F000077409BAA5890AB4160B57F70A083625A1E
:101F10007CCF90249CC71D55FF8E2189A9686F92A4
:101F2000987C5D7D9B7B738C827680827F808080B5
:101F300080807E8081797D8A8A7E738189646EAD9E
:101F40008859A5A2467395487AD39873865F4756F9
:101F500090EDAF368BA1054BFFA74396A1575B854C
:101F600098876D869A766D86817882837F7F7F8061
:101F7000807F7E81837C7E87817576929A605EAB5E
:101F80008C56A393328BCC5E63A0606AB798604B8B
:101F900076DB931296D5285EFF730899CB745F7A2F
:101FA0008F876E85976E6D9188777E817F80808028
:101FB00080807E80817A7D89867C798C8C5559AD34
:101FC0009D6FAE8D216CB1637FC27E6E9A6E42486A
:101FD0008CFBB42783AB0D52FF9130A7C0614B6DD2
:101FE0008F927E8E956A678A867981827F808080D3
:101FF000807F7E80827C7F888174728C986C69A5DA
:1020000081509A994C93BC52589C7580B6884F4623
:102010007DE3A12182B62E6DFF7F1487B5756D8596
:10202000908168809575728E85767E817F808080B4
:1020300080807E80807B7F8A867B76878C6165A8A6
:102040009167A4933B77A65771BA8D829C653643FE
:1020500091FEBD3374941762FF983594AD655A793B
:102060008F8B778894716D898479808380807F805D
:10207000807F80827A858075936E7F9857A07F5687
:10208000C14D7FBB25C38034EE2E7FD603D980257A
:10209000FF257FD706D38031EA3880BF2BB7805128
:1020A000BB5A7F9C5D9480728E787F837D80808018
:1020B000807F8080797F7E7D978185874F7C726F5E
:1020C000CC87989D19745952F88EB2BC0070433673
:1020D000FC8DC1D011754030D985B6C63F7E5548BC
:1020E000A87E9BA46A82716D887E84847E807F80B6
:1020F000807F7F807A84837D906D758A66A99060E9
:102100009D4076BF5EC77421B143A3EB31A7502039
:10211000EE69A6C10094725DF760748F27A995746B
:10212000B3586E8C6999877586767F837E807F80B1
:1021300080807F7F797F8182977C7C8057898071C6
:10214000B5728FA93E865439D18DCAD8185C242720
:10215000FBAFD8C700553C4CEF96A8A5317F6B600C
:10216000AA758A996F8A796F837B83857F807F8048
:10217000807F7F807C868378856D839D6D8B6B5D92
:10218000BE78818A27B3A669B61C6CD75DC4571781
:10219000D773A4AA009E9877D3335CA765BD7A480D
:1021A0009870929960827E7D8F7A7D807E8180801A
:1021B00080807F7F7A81827D8D7B87915F74646C64
:1021C000CD9B9580157C8070D26799CA3E7B2D206F
:1021D000E7B0D2B400636062D26C90B76393593FAA
:1021E0009585A5A2677973768A7E81827F807F80BC
:1021F000807F7F7F7B84857D866D7B9274957A64FA
:10220000A3687B9551B89653933089E46EA23E192A
:10221000D095B7A2007A8A8ADE525C8958B18B6366
:10222000986B828E6989837D88787D817F818080AB
:1022300080807F7E7A8183818C797F896780726FCD
:10224000B4878C8B3B89795DB06BAAD7526B1F200A
:10225000DEC3DAAB004F5D76DC7D869A58906C5712
:10226000957D94976E807977867C80837F807F8050
:10227000807F7F817F817C7F906B7B9E697D848165
:10228000994597BE2892AC608D4FB7A400D1B0217C
:10229000A57D997C2DE97C1ECE8167846BB6625941
:1022A000BE6D69937B87767D8E777E847E7F7F800F
:1022B000807F7F807D7E7C82937980915F6C7A883D
:1022C000AA6FA2A82067876AAA89CC9E008B7B2E62
:1022D000B7AFBF8C2DA35223C8A492976A8F4C52DC
:1022E000B081829A7D7D6E77897B81847F7F7F80BC
:1022F000807F7F807D817E839365719A6B8B9282D4
:102300008A2991D43DA6A63C714BDBCD00C18C003F
:10231000B5A4BC7B05CE702AF8945B6953BB726987
:10232000C961588D7E907B7D8B737D857F807F809A
:1023300080807F7F7C7E7E869675798D60758489AE
:10234000A05E9FB72F738050988AE8BC007A5C1714
:10235000C4CFDC8D0F8A462CE6B58D845890575D2E
:10236000B87977967F84727787798186807F7F803E
:10237000807F7F807E837F7E89667EA87175727B79
:10238000A85E98A21397CB787C2BA3BC2ED58B008C
:10239000A5A5B76F08CE9148D5684A8285C95F4523
:1023A000AE757A98747D748291777B827F8080800D
:1023B00080807F7F7C7F7E829073839D62636A844E
:1023C000BD81A797006AA57CA168C6B815935C0477
:1023D000BFD7E18200945F39D9927A977DA4433ABE
:1023E000AA8790A276756B7B8E7B7F847F807F80AF
:1023F000807F7F7F7E8281828966789E76817E7CE7
:1024000095528EA938A1B9616737B5D043B76B0033
:10241000AABDC77101A8865FE3794B6D73BE715C7D
:10242000AC6F708F78847B828C767B837F8080809A
:1024300080807F7F7C7F80858F727C9469707683BB
:10244000A8739C9D27799967896CCEC72E80470811
:10245000BDE3E78200795D52E19B75826F9E595220
:10246000A78083987A7C727C89797F8480807F8042
:10247000807F7F817F837B7A9376728D7B92686881
:10248000C1635DA175A55256EE524BAF72B1474D77
:10249000FF4D47B072AE4C54EA5855A3769E5F6626
:1024A000BB6B6B8F7C8B75788E7B7C817F807F8014
:1024B000807F7F807D7F7B7E968079846D7D647454
:1024C000CA8575935B784261F78978A855752A4E5D
:1024D000FF897FB560792D4AE08383AF727F4A5BC5
:1024E000B07E82987D816E738A7E808380807F80BB
:1024F000807F7F807E827D7E93736C877F9C756AF0
:10250000AE5459AB8DB14E3FCF5667C97D9A2B3E25
:10251000FF7066AC5A8E4768FD6A518A659C717877
:10252000BB6460887F917B798A797C8280807F80A0
:1025300080807F7F7C7F7D81967D738071866F75C3
:10254000BA76709C7084404EDD898CBD6067154200
:10255000FFA194B24E622B5BF08F7C9A657F596A23
:10256000B078789180877374877C7F8380807F8048
:10257000807F7F807F857E798D7076988289576392
:10258000CF7A5F885EAA736DDD2E3BC899B8262A84
:10259000FF7567A34B986279F24039A08EB25C5107
:1025A000AD727A957482747D927B7A807F807F8011
:1025B00080807F7F7D817D7E917C7B8D737657705F
:1025C000D5967680487C5D73E96B6BBC757C113267
:1025D000FFA797AA42683E68E7706BAC858F474BB0
:1025E000A5848E9C787A6D788D7E7E8280807F80B7
:1025F000807F7F7F7E84807E8D6F709085936666FE
:10260000BA6A5D9377B36D56BD375ADCA0A011212D
:10261000FB94829F397A5C89FF5639887CAD6E665F
:10262000AD6C708D78887A7D8D797A8180807F809D
:1026300080807F7E7C817F819179768876806271CF
:10264000C487728A5E885960CF6D80CE7E6D002906
:10265000FEBDA9A732543C77F57D6798778E575B0E
:10266000A67E83957A8072788A7C7E8280807F8045
:10267000807F7E818181767F996B6D9E7C7D6B8171
:10268000B84572BE53927C60C1507FA43BD0742188
:10269000E17D5D7C66E8461EFF803A8493B6405932
:1026A000D96D54938B876A7D94777A84807F7F80FD
:1026B000807F7F807E7E77839E7774936B69638A49
:1026C000CC6C87AF36635E67DF8BA7A31E8D452179
:1026D000F5B7958E51A91B14FFAA6E9A8992264AC6
:1026E000D0816F9E8B7D6276917B7E85807F7F809F
:1026F000807F7E8080807A82956C6A9380887981E1
:10270000A0406FBD719B754E9F5996B851AF58222E
:10271000D79A7C7C54B94941FF8E416F7FAB5A6F89
:10272000CC6951898B8C737D8D767A8480807F8093
:1027300080807F7F7E7E7A859A76708C71777188B3
:10274000B36181B156745E55BB89B5B5377A352210
:10275000E9C7A78B45892535FFAF6B83798E436128
:10276000C67A68948B836B788B797E85807F7F8037
:10277000807F7E8081837A7E916772A783755C7B80
:10278000C36075A13F969C78AC2E6FBA67D1540593
:10279000DBA47E6F42CB5F4AFF692382A9C6414812
:1027A000C5756697837D6B829777788280807F80FE
:1027B00080807E7F7E7F7A829773779C7364568455
:1027C000D4818896266A7D7CCA6996B748922C087F
:1027D000EED5AE823293343BFF9155979DA3293CB1
:1027E000BF877DA18475637B937B7C8480807F80A1
:1027F000807F7E7F7F827D828F696E9B85816C7CEE
:10280000AB5671A65E9E9063903D87C974B2400B33
:10281000D3B8957237A55D62FF7A2D6F92B9596072
:10282000BD70618D858373829077798280807F808F
:1028300080807E7F7E7F7D849472739377716683C0
:10284000BB73829C47797768AC6DA5C55980210D13
:10285000E4DFBB812B793A54FF9A56828B9D435318
:10286000B8807497857C6B7C8D797C8481807F8037
:10287000807F7F817F807C808F677FA25F7D917D5D
:102880008B4DA9AC14B3B635927AA7781CFE8000A4
:10289000E68756856BD24245FE4A4CBF71836883FA
:1028A000AF4B7FA8647E877F827884827C80808023
:1028B000807F7F807C7D7B8496758496516884863A
:1028C000A576B89E007D8F43B7B3CB7D04AF4E068F
:1028D000F9C2919755911736FC7C80CD6B64486F97
:1028E000AA6596B169757B77807C87847D808080BE
:1028F000807F7F807E807F848D6978966988987DCF
:102900007B469BB040B6A32B787BB7973AD2600644
:10291000DBA4788456A64561FF634F9C63827B925B
:10292000AA4D749A6C858B7F7F7782827E808080AF
:1029300080807F807C7D7E8794747D8E5C768D85A3
:102940009368A9A4298A85369AAAD4972197390928
:10295000EED2A59346752051FF8A7AAD5F685F7FFE
:10296000A76288A36F7D80797D7A85847E807F8051
:10297000807F7F807F827F80866882A36D767E786D
:10298000956DA08C1AABC45B805B8F9057E562009D
:10299000CFA77A794EAC6372E8423FAD8A946A70F1
:1029A000995E8DA364768483857981807D80808023
:1029B00080807F7F7D7F7F838D72859B6066758041
:1029C000AA89AF850582A660A08BB0923BAC3C0083
:1029D000E4D4A6883D7D3B61ED6A69BD837A4F6191
:1029E00098709EAC67707A7D847C83827E808080C4
:1029F000807F7F807E81818386687C9B72818779DE
:102A00008861979539B1B54A6E60A1A664C94C003A
:102A1000CDBB907A3F8F5F81F15641967A92787F55
:102A2000995C819A6A7D8883827880817E808080AB
:102A300080807F7F7C7F81858D717F9466717F80B0
:102A40009B7BA48E248D9B508B8ABDA64A992B001C
:102A5000E0E2B58732683C71F57866A5757A6071F9
:102A6000996B92A26C777F7D817B83827E80808050
:102A7000807F7F81817E7A848F657CA6686C90934D
:102A80007D43B1B61494CB52647CC96F0AF4A6009E
:102A9000ADAD745868E94F2BEA7A46958C93567918
:102AA000B85B6EA0777A7E83857781837D80808016
:102AB000807F7F807F7C7A879371809B5E5F869624
:102AC0009265B9A90A6FA95B85A5DD7400B67B0A7A
:102AD000BFD39E6B59B23027E69A70A3847A436BBA
:102AE000B16E81A57974757D847A84847E7F7F80C0
:102AF000807F7F81807E7C878E66779D6E779790C2
:102B0000733DA6BA349DBC43557CD48920D7870039
:102B1000B0C18B5C56C64D42F38747807C91678776
:102B2000B55967977B818283827580837E808080A0
:102B300080807F807E7C7C89946F7A9662698E9695
:102B40008759B2B11F7AA14974A4EC8B0BA663001C
:102B5000C5E7B06C479B2C36F7A56B91777A507818
:102B6000B36878A07C7A797D817883857F7F7F8048
:102B7000807F7F8080807D8388677FA6726A818B5B
:102B8000895EA99B1994D26A5F63AF843CE2870097
:102B9000A6BF8B5751C66654DC6A3D8F9A9E5B6C0C
:102BA000A5677C9D74757D8687787F827E80808016
:102BB000807F7F807E7E7D868D6F829F675E7A902C
:102BC0009A76B4940875B96E7B89C88627B5660075
:102BD000BAE2AE65439F4648E1885F9E93884760AE
:102BE000A4758BA575707581867A82837E808080BE
:102BF000807F7F807F807F8588677A9F7574888AD1
:102C00007F56A0A1329CC55B5365BA974ACC710030
:102C1000A9CD9B5B45AC6364E5763F7F8C9B69796E
:102C2000A4647496777B808584777F827F808080A0
:102C300080807F7F7E7E7E878D6E7D996B68818EA2
:102C40008F6CAB9A217FAF5F6D88D09836A454000B
:102C5000BAECBA68398A4658E9905D8D8787556D18
:102C6000A371829E78767A80837981837F80808049
:102C7000807F7F8181807980916E7598777E797E63
:102C80009F5C819F53A4824BB47C717A65D9522496
:102C9000F68535839CBA2B56FF5939AC9382558201
:102CA000B65A6F9C787E7D7F877A80817E80808017
:102CB000807F7F807F7D798396787A906B6F728436
:102CC000AF7990963F7E6B53CAA5917E4CA2332775
:102CD000FFB06590868C0F4AFB7D62B88B6B4173A9
:102CE000B16C81A37A787579857D82837F807F80BE
:102CF000807F7F8080807C83906E71917B86827ED6
:102D000090547DA46BA97C409B7C859170BD41252E
:102D1000EB9B5483859C3168FF6A3E958382668E67
:102D2000B15A69937B84817F83797F827F807F80A2
:102D300080807F807E7E7B859476758B6F787B84A8
:102D4000A16E8A9C56886847B2A1A0925991262408
:102D5000F8BF7A8E7577165CFF8860A37E6E527F0F
:102D6000AE69799B7C7E797A827B82837F807F804B
:102D7000807F7E8080817C808C6B789F7D776C7972
:102D8000A96F838B44A69A5FA55F658E85D93B0E9C
:102D9000F0A2517A7CA73F74FF4927A8A5925472EC
:102DA000A9627C9F73777C83897A7E807E80808015
:102DB00080807F7F7F7F7B8391747C977069668042
:102DC000B988918430828264BE8A858F69A71E107B
:102DD000FEC97B876B7E2065FF6C4EB59C7A406593
:102DE000A7728CA67572747D887D81827F807F80BA
:102DF000807F7F8080817E828B6C74977F80777AE2
:102E000099657E925DAA915290647AA18BBF2F1230
:102E1000E7B36A7A6B8D4381FF5C2F93938F657F55
:102E2000A6617496777D808286797E817F8080809E
:102E300080807F7F7E7F7D849073779174747180B2
:102E4000A87C8A8C4A8B7C57A68894A0739516130D
:102E5000F3D38C865D6B2873FF7950A08D7B527302
:102E6000A56F839D7878797E857B80827F807F8047
:102E7000807F7E81827E7784936973A1786E7D9056
:102E8000934B92B03F92A1588C7C997142E5781097
:102E9000D1A84D5D92DC2F35FF7A2E92A691447A0F
:102EA000C45F619C847B76838A787E837F80808008
:102EB000807F7E80807C7786987277996C6176952A
:102EC000A5679EA62C70885DA6A3B4752CB3561179
:102ED000E1CD766C7FAF122CFF9954A19D7A316DB4
:102EE000C06F73A384756F7D887A81847F7F7F80B4
:102EF000807F7E80817E7A86916A70997C79858ECA
:102F000087478BB15899964C7B7DA68751CA62132F
:102F1000CCB766627EBB354CFF863480948E578674
:102F2000BE5E5D9385807B8286777E837F807F8097
:102F300080807E807F7D798896717393716D7E929B
:102F4000975F96A9467B8252929EBC893EA0471409
:102F5000DBD7886F6F971B42FF9F558E8E7B45791D
:102F6000BA6C6D9B857B747D857980847F7F7F8043
:102F7000807F7E8082807A838E6776A67E6A718B60
:102F80009C5E919B3494B46A80638B8462E261009E
:102F9000CDBF655776C64454FC6A208FB39E466CFD
:102FA000B6676E9D7E7576868C787D827F80808008
:102FB000807F7E80807E7986936F799F725E6B9032
:102FC000AD769D9421759C6E9A89A6864AB542007D
:102FD000DEE28A65669F2548FF88449EAB883260A2
:102FE000B4757EA57F706F818A7A7F837F807F80B2
:102FF000807F7E8081807C858D67729E80747A89D7
:1030000090578BA04C9BA95C71669A966BCB4F0234
:10301000CACC795B66AB4564FF77277FA29A567965
:10302000B3656896807B7A8588777D827F80808093
:1030300080807E7F7F7E7C87916F76987669748EA4
:103040009F6D96993B7F94608988B09757A336040B
:10305000D8E898695A8A2B59FF90478D9B87456E0F
:10306000B071779C8176748087797F8380807F8040
:10307000807F7F827C80867882827F7C7B98617F64
:10308000B3369BBA13C3A313D7803CBF71727F8E34
:103090008E3DC88020F85732FF395EDC3D7FA95D48
:1030A0008685807B7C8F727F8B7482837C8080801E
:1030B000807F7F817A7D847D8A8C84756A805B883D
:1030C000C761ABAB008D8025F1B56DBA4E394F812C
:1030D000AC80F19115B42A27FD6C8EE63F62824FD9
:1030E000879795897D846878887885857D807F80BD
:1030F000807F7F817B80877D837E78777F9E727FD4
:103100009C3490BB3EC39510B08060CE7D636179E6
:103110009568D2801BC55651FF555DB53A7FAE7399
:10312000897D74767F92797F867481837D808080AB
:10313000807F7F807A7D85808A877D73708A6A87A9
:10314000B0579FAF2897791ECAAC85C95F353C70D0
:10315000AD9AF58E11933143FF7C85C23B678E6437
:103160008A8C888380897079847784847E807F804C
:10317000807F7F817C8289787C7C8287828D527976
:10318000BF529A9D04C3C133C05931D39A7B5D6746
:10319000906AE07300D96F5DFF2643D25B94A14B28
:1031A000798C8F81758471858F7580827D81808017
:1031B000807F7F807A7F867D848585807379528247
:1031C000C977A69100909A45D38F63C5754A3B6332
:1031D000A89FF885059C4851F35B74D55C777E45C4
:1031E0007C999E8D787C6B7D8B7983837E808080BB
:1031F000807F7F807B81897D7E7A7B818595647BE2
:10320000A74B90A32FC3AE2AA06155DD9E6B475BF1
:103210009589E57502AF6A72FF4448AF5391A86380
:103220007F83827B7989788489747F827E818080A4
:1032300080807F807A7F878084827F7C77836082B2
:10324000B66B9D9920999138B88D79D47E422A57D2
:10325000ABB3FF8400824763FB6B6FBA5378895826
:10326000809092867B82717E877882837E807F8049
:10327000807F7F827E7E817E857A7C897D816D9351
:103280009B36A5BE18A0BA3B988077A24D8AA36B47
:103290006E75C65733FF6022E76C55AA658F875F4E
:1032A00098866F7E88876E838C7480847D80808012
:1032B000807F7F817C7C80818C8280836F70659928
:1032C000B052B3B6007BA03FB6AB98A4315B7B6332
:1032D00088A4EE6621D23813F08E7ABB60776C50EA
:1032E00099948189897F667D8A7783857E7F7F80B7
:1032F000807F7F817D7E838186777684808B7693C5
:103300009026A0CA2BACB42485808CBC557A885BEF
:103310007690DD561CE8582FFF794E975690946CA6
:103320009D7F65798B8D7283897280847E80808099
:10333000807F7F817C7C82848C7F7A7E727A6F989A
:10334000A347ACBD1886982EA1A9AAB93D4E6255D7
:1033500090BAFC6813B73526FF9A74A65477795F44
:103360009B8D78848B856B7E877582857E807F8040
:10337000807F7E817E80847E80757F92837A5E8F5F
:10338000A945A8AD00A6D74A8D6069B96C91894C52
:103390006F95E24A0EF46F3CF5573BAA78A1844C36
:1033A0008F8C7B83837F6C8890747E837D8080800C
:1033B000807F7F807D7D8281867E828A766D5D9230
:1033C000B467AE9F007FB156A58C8AB15565654E36
:1033D00089BAF46113BA4F39E97C67B274866C48D4
:1033E0008D978B8C837968818C7881847E808080B6
:1033F000807F7F817D8085818173798C85846A8DD2
:103400009A3C9FB31EAEC93A79637FCC75816E41F9
:1034100079ACEE4F05D2694FFF673B946B9E905D90
:103420009185727D858572878C737E837E80808096
:10343000807F7F807C7E8483877B7D8678756691A4
:10344000A85CA7A61689A947938B9AC25E595043D8
:103450008FCBFF6307A34B48F68763A06986775637
:1034600090908387847E6D81897680847F807F8041
:10347000807F7F827E80807A8881757D8A91587F67
:10348000BB4B78AA51AF7632E48026ADA076548A41
:10349000B650887F65D63B48FF4D46C16D7F846737
:1034A00099846F7C898A6D7F8D777F827E807F8013
:1034B000807F7F817D7D7F7D8E897A787C80538639
:1034C000CA6888A03B8A603BF7A84DAB814A33802D
:1034D000C980AE8D55A71B3DFF716CCC69696B5BD4
:1034E000989181878983677A8B7A82837E807F80B7
:1034F000807F7F817E80827D887F72798B96667FD8
:10350000A84775AC68B2722BC48045BBA26A437AE7
:10351000B56D997F57B43F5CFF5F49A8637F8E7696
:10352000987D6978898E747F89777E827F807F809D
:10353000807F7F807C7E81808D8575757E876185AB
:10354000B76083A454925F34D8A264B987452974C4
:10355000C694B88B4A8F2351FF7D6AB3616C776A3A
:103560009789798289876D7B877981837F807F8046
:10357000807F7F817E81837A837D78858F8A4D7B72
:10358000C35F7A9542B18F47D26420BDBB7C3E6E4B
:10359000B5709D7649C14E66FF3E34BC808F81591F
:1035A0008E897C8183836D838F787D817E8080800E
:1035B000807F7F807D7F827D89847C80817A4A8242
:1035C000D078888E2F8D784EE68C44BA9C53216734
:1035D000C79AC0843D972F59FF6159C77B78694FBF
:1035E0008E958C8A837C677E8D7A80827F807F80B7
:1035F000807F7F807E81847D837B74818F905C7CE3
:10360000B057779B5BB3873EB7683EC8B9703163EC
:10361000B487AB7840A44F75FF523AA4748D8B6A7F
:103620008F82747C848773838B777D817F807F809A
:1036300080807F807C7F83808981787D83825881B0
:10364000BD6E839448947445CA8B5CC59E4D195FCA
:10365000C4AAC78336823468FF6F5AB07079755F29
:103660008F8D828584816D7E89797F827F807F8046
:10367000807F7E82807E7E7E8A7A73888A815E9158
:10368000AD3C89B83E9D9541B980539F798A786D4C
:103690009876985A60F43E2AFF6E3BA6828E70613F
:1036A000A985627E938668838F757E837E807F8006
:1036B000807F7F817E7C7D81908277827D725A9629
:1036C000BC5896AF2B7B7E48CFA5739F6060576731
:1036D000AC9FBA6A52C72122FF8C5FB37D785A56DD
:1036E000A7917488927F627E8D7880847F7F7F80AF
:1036F000807F7F817F7E7F818A7970838B886A8FCC
:103700009E3A83B956A28C38A28069AF807C6363ED
:103710009B8CA65F54D14141FF7B3F92768C7C709D
:10372000A67F5E7A928A6F838B757D837F807F8090
:10373000807F7F807E7D7F838E7F747F7F7B65939C
:10374000AC538FB04585793FB6A083AD6A58485ECB
:10375000ACAEC26D48AC2838FF945E9E7279686644
:10376000A48A6E839184697E897780847F807F803C
:10377000807F7E818080807E8677768F8E7B548C62
:10378000B54F89A5319FA953AB664AAF948E615559
:103790009891AB5447DF5048FF5E2BA2929B6E5529
:1037A0009E8A6E828C7F688691767C827F80808004
:1037B000807F7E807E7E7F818B7E7A89826E519132
:1037C000C368959D217F9259C18B69AE7A66445139
:1037D000ABB6CA633BB6323EFF7D4EAF8C86594BCB
:1037E0009D957E8B8C7A63818F787F837F807F80AD
:1037F000807F7E807F8081808676738A8E83618AD7
:10380000A64A84A84AA49F49976961BB9880514FF2
:103810009BA2B65A3EC0505AFF6D319085987A658A
:103820009D84697E8C846F858D757C827F807F808E
:10383000807F7E807E7E81838A7C768583775D8FA4
:10384000B2618FA13A888B4FAB8A7AB9815E384CCE
:10385000ACC1D067359E3750FF86509C8085675B32
:103860009C8E77868C7F69818B787E8380807F8039
:10387000807F7F827E7D817F83787F8A7881768F4B
:103880008F41AEAD13B3BC239A9E6B8367A47F5A5E
:10389000987C965F62E73B44FF4946CE6B6B8C7E1B
:1038A0008B70808B79807B85837684827C8080801E
:1038B000807F7F817D7B8182898083846B726F941E
:1038C000A25EB9A4038EA12DB3C28A854E775C5542
:1038D000AEA7B96F53B81C39FF6C6BD868577370BB
:1038E0008B7F8F947A7A747F827986837D808080C3
:1038F000807F7F817E7E838284777A857B887F8DBF
:10390000843EA3AF33B6AE1E86997F9772926952FA
:103910009C92A46455C43E58FF5B49B4626E95897D
:103920008D6D77857C857F84807583827D808080A6
:10393000807F7F807C7C8284897E7D80707B799192
:103940009457ADA7239697289EB998975B6C4C4FD8
:10395000AEB5C271499E244DFF7869BE605D7E7C24
:103960008D7A868E7D7F787F807885837E8080804B
:10397000807F7F817E7F847F7F7582917D7B6B8A54
:103980009A54AD9908B4D0388E81609585A8674265
:103990009998AA5848D24D61FF3B35C87E7B886F05
:1039A00082768A8F747A7A88867682817C8080801B
:1039B000807F7F807D7D8281857D848A726E668E28
:1039C000A86FB4910091B243A5A57F946C7C4A4244
:1039D000ABBBC7683EA63256FB5E5ACF79687164AE
:1039E0008283989676747482847984827D808080C4
:1039F000807F7F807E7F858180747C8B80837588CB
:103A00008D4FA29E28B7BF317D8175A58B96553EFF
:103A10009CA9B55D3FB44E70FF4E3AB0727C917C6C
:103A200084728189777F7E87837681817D808080A3
:103A3000807F7F807C7D8484857B7F8675766F8D9B
:103A40009C66AC971A98A83993A18EA474713C3CDB
:103A5000ADC9D06A35913464FF6B59BA6F6A7B7017
:103A6000857E8E90797A7882827883837E8080804A
:103A7000807F7E82807C7F8386737D9379737A9E3C
:103A80008535B8BA08A0D234779B907948B39E4464
:103A90007E9DA33F5EFF4029FC6A3DB1807B787725
:103AA0009B74728C837D7587867482837D80808011
:103AB000807F7F817E7B7E858B7A808C6F6774A010
:103AC0009652BFAF0080B63E90BAA87C36887C4341
:103AD00092BEC05153D12725F88760BA7B68646BCA
:103AE0009980819384786F82847784847D808080BC
:103AF000807F7F817F7D80858672788D7C7B829BB5
:103B00007C32AEBB25A6C42C69989E8D54A1863EFE
:103B100084ADB04652DE413EFF763F9E747B82828A
:103B20009B706B8685827A87837482837D80808098
:103B3000807F7F817E7B80868B797B8872707B9E85
:103B40008C4BB6B31789AD3481B6B48E417C693CD9
:103B500097CCCB5547B92835FF8F5DA9716A6F7631
:103B60009A7C7A8E857D7482827684847E80808041
:103B7000807F7E81807E818282707F997E6E6F9948
:103B80008F47B6A700A2E2476D81848A64B587306B
:103B90007FB4B53A47EB5045FC5B2EAE8F88766A12
:103BA00091797C8F7F77758A887581827D8080800E
:103BB000807F7F817E7C80848678819174656C9A19
:103BC0009C63B99D0083C25186A09B8A538B6A3542
:103BD00092CDCA4F42BD3B42F27953B389766462BB
:103BE000908489947F737084867883837E808080BC
:103BF000807F7E817F7E8284826F7A9380777896C1
:103C00008543ADAA1BA7D33D6181939B6DA3722C05
:103C100086C1BF423DCE5056FF69329B8387807676
:103C200092757589807C7989867480827E80808097
:103C3000807F7E807E7C818687767D8E766C729991
:103C40009459B5A30F8CBC43789FA89B5980582CDE
:103C500097DDD85034AC374CFF814FA67E766D6C23
:103C60009280829081787384847782837E80808042
:103C7000807F7F81807E7E7F877A788784806A8C50
:103C80009D4E90A342A89537B19750828D9C5E625D
:103C9000B47D706688D12C51FF5539BD866F777E13
:103CA0009873738983807683867881827E80808012
:103CB000807F7F817E7C7E818C807B83797566901E
:103CC000AB659A9C328B823EC4B56B847678455E38
:103CD000C39F8F7279AD1447FF7058C6815F6473BC
:103CE000977F8190847B707F857A83837E807F80BD
:103CF000807F7F817F7E8081877975848587738AC5
:103D0000924A8AA656AB8E319F946492918E505BF4
:103D1000B48F806979B7305FFF623EAA7B7180877C
:103D200098706E8484847A83847781827E80808098
:103D3000807F7F807E7D7F838B7E77807C7C6E8E94
:103D40009F5E94A047927D37B0AF7A937D6F3A57CC
:103D5000C1AB9B746D991B56FF7A58B377636F7D27
:103D6000977B7A8B857F747F837982837E807F8047
:103D7000807F7E81807F807F84777A8E887C628856
:103D8000A45D909437AAA647A6814990A39F4D4F62
:103D9000B393826071C13B67FF492CB9937C757204
:103DA00090787D8C7F7B7686887880817E8080800D
:103DB000807F7F807E7E7F81887D7D897D715E8C26
:103DC000B1719A8E298E934CB99F63918C7D354C3D
:103DD000C2B29E6C65A0245DFF644AC28E6C6368AB
:103DE0009083899280767082877A82827E808080BA
:103DF000807F7F807F7F81818476778988826B87CF
:103E000099588B984CAD9D3F95815D9EA492414AF7
:103E1000B3A1906465AA3E73FF5732A7877C7E7C6E
:103E200090757787807F798586787F817E80808096
:103E3000807F7F807E7E8183887B79857F78678B9A
:103E4000A56A94933E948C45A79B739E8F732D48CF
:103E5000C0BCA86E5B8E2969FF6E4CB0836E6D731B
:103E6000907E828D817B7481857981827F807F8045
:103E7000807F7E82817D7C828975768F84756E9944
:103E800094439BAF349AAA429396707A70A97A4F62
:103E90009D977E4B82E82F39FF6E31A8947C68781D
:103EA000A47669898B7D7186887680837E80808008
:103EB000807F7E81807B7C848E7B798A7A6B6A9C12
:103EC000A258A4A826809748A7B2877D5D87604C3A
:103ED000ADB59A5875C51931FF864EB28F6C576EC5
:103EE000A38076908B796C82877882847E807F80B5
:103EF000807F7E81807D7E848974738B857C7696BD
:103F00008B4095B0499FA13B85937F8B779B694AF6
:103F10009FA58C5174CD334AFF783698897C728284
:103F2000A37365858B817685867680837E8080808D
:103F3000807F7E807F7C7D858D7A76877C7271998B
:103F400097549DAA3B87914197AD938C657C5348CC
:103F5000ADBFA55C69B01F42FF8D50A2846E63782F
:103F6000A27C718C8B7D7181857881837F807F803D
:103F7000807F7E81817E7E8286727895887166944C
:103F80009C519BA02A9CBA508A81688886AC683D67
:103F90009DAB8E466DD93D4FFF6225A6A087676E0B
:103FA0009C7A728C877971888A777F827E80808004
:103FB000807F7E807F7D7E848A787B907E6762981A
:103FC000A865A39A1E83A6559D9D7F8A728A503C40
:103FD000ACC6A85361B82747FF7942AF9A775764B8
:103FE0009B847E9387746C84897981837E808080B2
:103FF000807F7E80807E7F838672759089786E92C6
:10400000924D95A33FA0AF487D8177968A9D5A3BFC
:104010009FB69A4C62C0405DFF6C2B969486717877
:104020009B776D88877D758788767E827F8080808C
:10403000807F7E807F7D7F858A77788C806F6A9590
:104040009D5F9D9D338A9E4D8F9A8A9778804539D2
:10405000ACCEB15858A42C55FF8144A08F78626F24
:104060009B80798E87797184877880837F807F8039
:1040700011241FBECFEFD0E1DEBFCDBF12E0A0E024
:10408000B1E0EAEFF7E502C005900D92A033B10769
:10409000D9F717E0A0E3B2E001C01D92A634B10742
:1040A000E1F70E947B240C94FB2B0C9400001F92E0
:1040B0000F920FB60F9211242F933F934F938F932C
:1040C0009F93AF93BF93CF93DF93EF93FF935F984B
:1040D00020913002E0913A02F0E00024F695E79555
:1040E0000794F695E7950794FE2FE02DE20FF11D5A
:1040F000E059FF4FE491E8B92F5F2F73209330020E
:104100005F9A90913D02E92FF0E0809179008E57FF
:10411000E15CFD4F808380917A00806480937A0017
:1041200090933E029F5F9F7390933D02222371F50F
:10413000A1E3B2E0C8E0D1E090E020E030E04EEF53
:1041400016C08081883091F18C9187FD32C08081CA
:104150008F3F19F08C91880F8C9380818F5F8083C3
:104160002F5F3F4F119621962830310569F0F901F4
:10417000E050FF4F80818E3F99F380818F3F09F798
:104180008881982B5A98E3CF90933A02FF91EF9150
:10419000DF91CF91BF91AF919F918F914F913F91BF
:1041A0002F910F900FBE0F901F90189540835A9A31
:1041B000D7CF8881982BCBCF7894889518950F937B
:1041C0001F938C01FC01148A138A128A118A108AA7
:1041D0001786168615861086438D8081918160E052
:1041E00070E050E00E94782BF801438D828193812A
:1041F00060E070E050E00E94782BF801438D8481EC
:10420000958160E070E050E00E94782BF801438DCA
:104210008681978160E070E050E00E94782B1F91CA
:104220000F9108952F923F924F925F926F927F92DB
:104230008F929F92AF92BF92CF92DF92EF92FF92B6
:104240000F931F93CF93DF93EC018AA19BA1298D3C
:104250003A8D820F931F292F2695269580913E0235
:10426000821748F080913E02622F70E090E0861B3A
:10427000970B459784F080913E02821708F061C148
:10428000622F70E080913E028B01081B11090531FD
:1042900011050CF456C18885A881B981A80FB11DFC
:1042A0008C91992787FD90952D853E85281B390B8C
:1042B0003E872D87EA8DE695E695F0E0E15CFD4FBF
:1042C0004081842F992787FD9095820F931F9E87A9
:1042D0008D874C938885AA81BB81A80FB11D8C91D5
:1042E000992787FD90954F855889481B590B588B06
:1042F0004F8788A199A1298D3A8D820F931FE92FAD
:10430000E695E695F0E0E15CFD4F2081822F99274C
:1043100087FD9095840F951F988B8F872C938885A8
:10432000AC81BD81A80FB11D8C91992787FD909517
:1043300049895A89481B590B5A8B498B8E8D9F8D01
:10434000298D3A8D820F931FE92FE695E695F0E0CF
:10435000E15CFD4F2081822F992787FD9095840F86
:10436000951F9A8B898B2C938885EE81FF81E80FAE
:10437000F11D8081992787FD90952B893C89281B09
:10438000390B3C8B2B8B615C7D4FDB014C91842F77
:10439000992787FD9095820F931F9C8B8B8B408371
:1043A000ED84FE840027F7FC0095102F2F853889B7
:1043B000442737FD4095542F69887A88882477FCF4
:1043C0008094982CAB88BC88CC24B7FCC094DC2C9F
:1043D000CA01B9010E94222B1B012C01C801B7019F
:1043E000A80197010E94222B260E371E481E591E37
:1043F0005594479437942794C601B501A6019501B9
:104400000E94222B7B018C01C401B301A401930102
:104410000E94222BE60EF71E081F191F15950795FF
:10442000F794E7942E0C3F1C401E511E2EA1222310
:10443000B1F588A599A5AAA5BBA582159305A405E4
:10444000B5050CF58B859C85892B09F0F2C081E0C0
:1044500090E09C878B87EC8DFD8DCF0192958295A6
:104460008F7089279F7089279A87898749855A8500
:1044700041545B40B0F081E08EA31FA2898D9A8DDC
:104480008E0F9F1FEFC08B859C85892B41F049853E
:104490005A8541505A4008F0DCC01C861B86EC8DC2
:1044A000FD8D2D8A3E8A4F8A588E2223A1F12B85BD
:1044B0003C852115310509F087C088A599A5AAA5D5
:1044C000BBA582159305A405B5050CF0AFC04985C1
:1044D0005A855C874B87CF01929582958F7089278B
:1044E0009F708927840F951F9A8789878050904AEB
:1044F00090F08FA18093C6005B9A1EA21A8619863F
:104500001C861B861D8A1E8A1F8A188ECE010E9459
:10451000DF20EC8DFD8D88852B8D30E021503040E3
:104520008F5F8887815090E08217930724F0188668
:104530008EA18823C9F4298D3A8D2E0F3F1F3A8F03
:10454000298FDF91CF911F910F91FF90EF90DF9016
:10455000CF90BF90AF909F908F907F906F905F9023
:104560004F903F902F9008959F0136952795329553
:1045700022952F7023273F70232789859A85820FE4
:10458000931F6CA17DA1AB01529542954F704527B9
:104590005F704527841B950B9A8789878B859C853F
:1045A000009731F0280F391F241B350B3C872B87D0
:1045B000CF0196958795861B970B298D3A8D280FED
:1045C000391F3A8F298FB9CF88A599A5AAA5BBA570
:1045D000281639064A065B064CF549855A85CA01F4
:1045E000821B930B12E081389107E8F060E1813083
:1045F000960708F442C02050384F2417350798F426
:104600006FA1A0E8B0E0832F82958F708D0102C06A
:10461000159507958A95E2F7602B6FA32050304FD0
:104620002417350780F31C861B8655CF49855A858C
:1046300052CFEC8DFD8DCF01929582958F70892799
:104640009F70892749855A85480F591F5A8749877E
:104650000DCF81E08EA31FA2898D9A8D2C8D3D8D6B
:10466000820F931F9A8F898F1A8619861C861B8644
:10467000CE010E94DF205B9864CF96958795820FCC
:10468000931F892F82958F7020E830E002C0359506
:1046900027958A95E2F78FA1822B8FA3C4CF8F92A3
:1046A0009F92AF92BF92CF92DF92EF92FF920F93C1
:1046B0001F93CF93DF938FEF87B98FE88AB98BB1C0
:1046C0008C608BB989E08093810084EF91E09093B6
:1046D00089008093880080EE91E090938B00809316
:1046E0008A0096E090936F0080E680937C0086ECD1
:1046F00080937A0088E18093C1009093C20088E0A3
:1047000092E09093C5008093C4002FE332E0C9018A
:1047100060E070E040E450E00E94782BAFE7B2E048
:1047200087E8ED0119928A95E9F7E6E4F3E080E085
:1047300094E0EF019C01199221503040E1F7809004
:104740003B0290903C02ED017BE1C72ED12CCA0EBA
:10475000DB1EAA24BB24F501E05FFE4F60E070E49D
:104760008CE197E420813181428153810E9484272A
:104770007B018C0120E030E040E854E40E948A266E
:104780000E94B4247D8F6C8FC801B70120E030E017
:1047900040E85EE30E948A2620E030E040E854E4EE
:1047A0000E948A260E94B42479A368A3C801B70195
:1047B00020E030E040E05EE30E948A2620E030E026
:1047C00040E854E40E948A260E94B4247F8F6E8FB2
:1047D000C801B70120E030E040E450E40E948A269E
:1047E00020E030E040E05EE30E948A2620E030E0F6
:1047F00040E854E40E948A260E94B424F60170879F
:10480000678360E070E080E892E4A80197010E946D
:1048100084270E947F2B0E94B424F60160839401B8
:104820002A5B3C4F39832883E62FF0E09F01280D57
:10483000391DA9014A5B5C4F5B834A832E0F3F1FE2
:10484000A9014A5B5C4F5D834C832E0F3F1FA9017A
:104850004A5B5C4F5F834E8349018E0E9F1E70E062
:1048600080E090E00E94B428A80197010E948A2667
:1048700020E030E040E852E40E942C2620E030E0C6
:1048800040E854E40E948A260E94B424F60172870C
:104890006187F501E45EFE4F80819181A281B38141
:1048A000F60185879687A787B08B24E030E0A20EBB
:1048B000B31EAD968DE290E0C80ED91E9CE0A916FD
:1048C000B10409F048CF90923C0280923B02789468
:1048D00083B7817F83BF83B7816083BFDF91CF912F
:1048E0001F910F91FF90EF90DF90CF90BF90AF900E
:1048F0009F908F900895FF920F931F930E944F23D4
:10490000109239021FEFE2E0FE2E01E00CC08FE7AB
:1049100092E00E9412218CEA92E00E94122189ED1D
:1049200092E00E9412218091C00087FFF0CF909109
:104930003902A92FB0E0FD01E050FF4F80818E3F8A
:10494000E9F78091C600AF5CBD4F8C93108399232B
:1049500019F400933902DBCF913019F0109239022B
:10496000D6CFF0923902D3CFEF92FF920F931F93DD
:104970007B018C0120E030E040E05FE40E943028C1
:1049800088238CF0C801B70120E030E040E05FE40C
:104990000E942C260E9460289B01AC0120503040D0
:1049A0004040504806C0C801B7010E9460289B01E2
:1049B000AC01B901CA011F910F91FF90EF900895CA
:1049C000A0E0B0E0E6EEF4E20C94412BDC012B0118
:1049D000FA019C91923008F439C1EB018881823050
:1049E00008F433C1943069F4843009F02FC1119672
:1049F0009C9111978981981709F428C1A8E2B1E028
:104A000025C1843009F421C18230A9F4923009F023
:104A10001DC19A01AD0188E0EA010990AE01E901EA
:104A200009929E018150C1F7E201898111969C9102
:104A30008923818308C1923009F407C112962D9011
:104A40003C901397EB018A819B811496AD90BD90A9
:104A5000CD90DC901797EC80FD800E811F81910135
:104A6000281B390BB90137FF04C066277727621B63
:104A7000730B603271050CF061C0121613066CF5F1
:104A800037014801062E04C0969487947794679462
:104A90000A94D2F721E030E040E050E004C0220F59
:104AA000331F441F551F6A95D2F7215030404040B4
:104AB00050402E213F21402351232115310541052E
:104AC000510521F021E030E040E050E079018A0119
:104AD000E628F728082919293CC0232BD1F1260EF6
:104AE000371E35014601062E04C0969487947794AC
:104AF00067940A94D2F721E030E040E050E004C02F
:104B0000220F331F441F551F6A95D2F721503040A2
:104B1000404050402A213B214C215D212115310587
:104B20004105510521F021E030E040E050E059011D
:104B30006A01A628B728C828D9280BC08215930572
:104B40002CF01C01AA24BB24650103C0EE24FF2421
:104B5000870111969C91D20111968C91981709F4B6
:104B600045C0992339F0A80197012A193B094C093E
:104B70005D0906C0A60195012E193F09400B510B96
:104B800057FD08C0118233822282248335834683F5
:104B900057831DC081E08183338222828827992731
:104BA000DC01821B930BA40BB50B84839583A68336
:104BB000B7830DC0220F331F441F551F2483358335
:104BC00046835783828193810197938382832481D3
:104BD000358146815781DA01C9010197A109B109DF
:104BE0008F5F9F4FAF4FBF4328F30BC0918333823A
:104BF0002282EA0CFB1C0C1D1D1DE482F58206833B
:104C0000178383E08083248135814681578157FF54
:104C10001AC0C901AA2797FDA095BA2F817090707C
:104C2000A070B0705695479537952795822B932B9A
:104C3000A42BB52B84839583A683B783828193812C
:104C4000019693838283DF0101C0D201CD01CDB7EC
:104C5000DEB7E2E10C945D2BA0E2B0E0E2E3F6E225
:104C60000C944D2B69837A838B839C832D833E83A5
:104C70004F835887E9E0EE2EF12CEC0EFD1ECE019D
:104C80000196B7010E94512A8E010F5E1F4FCE017F
:104C90000596B8010E94512A8A8991E089278A8B5A
:104CA000C701B801AE01475E5F4F0E94E0240E9439
:104CB0007C29A096E6E00C94692BA0E2B0E0E3E644
:104CC000F6E20C944D2B69837A838B839C832D832E
:104CD0003E834F835887F9E0EF2EF12CEC0EFD1E3A
:104CE000CE010196B7010E94512A8E010F5E1F4F1F
:104CF000CE010596B8010E94512AC701B801AE0144
:104D0000475E5F4F0E94E0240E947C29A096E6E067
:104D10000C94692BA0E2B0E0E0E9F6E20C94412BA0
:104D200069837A838B839C832D833E834F8358874B
:104D3000CE010196BE01675F7F4F0E94512ACE01CE
:104D40000596BE016F5E7F4F0E94512A9985923071
:104D500088F089898230C8F0943019F4823051F497
:104D600004C0843029F4923081F488E291E0C6C016
:104D7000923049F420E09A858A89981321E02A87A5
:104D8000CE010996BBC0823049F420E09A858A8919
:104D9000981321E02A8BCE014196B0C02D843E8429
:104DA0004F8458886D887E888F88988CEE24FF24E5
:104DB0008701AA24BB24650140E050E060E070E078
:104DC000E0E0F0E0C10181709070892BE9F0E60C21
:104DD000F71C081D191D9A01AB012A0D3B1D4C1D26
:104DE0005D1D80E090E0A0E0B0E0E614F704080567
:104DF000190520F481E090E0A0E0B0E0BA01A9013B
:104E0000480F591F6A1F7B1FAA0CBB1CCC1CDD1C42
:104E100097FE08C081E090E0A0E0B0E0A82AB92A9F
:104E2000CA2ADB2A3196E032F10549F0660C771C7C
:104E3000881C991C5694479437942794C3CFFA85BD
:104E4000EA892B893C898B859C85280F391F2E5F29
:104E50003F4F17C0CA0181709070892B61F0169581
:104E60000795F794E79480E090E0A0E0B0E8E82AA6
:104E7000F92A0A2B1B2B76956795579547952F5F37
:104E80003F4F77FDE7CF0CC0440F551F661F771FBC
:104E900017FD4160EE0CFF1C001F111F2150304018
:104EA000403090E0590790E0690790E4790760F39B
:104EB0002B8F3C8FDB01CA018F779070A070B07090
:104EC00080349105A105B10561F447FD0AC0E114E4
:104ED000F1040105110529F0405C5F4F6F4F7F4FD2
:104EE00040781A8EFE1711F081E08A8F4D8F5E8F09
:104EF0006F8F78A383E0898FCE0149960E947C2929
:104F0000A096E2E10C945D2BA8E1B0E0EAE8F7E2BC
:104F10000C94492B69837A838B839C832D833E83F6
:104F20004F835887B9E0EB2EF12CEC0EFD1ECE011D
:104F30000196B7010E94512A8E010F5E1F4FCE01CC
:104F40000596B8010E94512A2985223008F47EC0B6
:104F50003989323010F4B8017CC08A859A89892752
:104F60008A87243011F0223031F4231709F06EC003
:104F700068E271E06EC0343039F41D861E861F86EB
:104F8000188A1C861B8604C0323021F484E089878D
:104F9000B7015FC02B853C858B899C89281B390B09
:104FA0003C872B87ED84FE840F851889AD88BE88E9
:104FB000CF88D88CEA14FB040C051D0540F4EE0CD8
:104FC000FF1C001F111F215030403C872B8720E021
:104FD00030E040E050E080E090E0A0E0B0E460E04D
:104FE00070E0EA14FB040C051D0540F0282B392B5A
:104FF0004A2B5B2BEA18FB080C091D09B695A795EF
:1050000097958795EE0CFF1C001F111F6F5F7F4F58
:105010006F31710531F7DA01C9018F779070A07097
:10502000B07080349105A105B10561F427FD0AC077
:10503000E114F1040105110529F0205C3F4F4F4FA9
:105040005F4F20782D873E874F87588BBE01675F63
:105050007F4FCB010E947C296896EAE00C94652B77
:10506000A8E1B0E0E6E3F8E20C944D2B69837A8383
:105070008B839C832D833E834F83588789E0E82E62
:10508000F12CEC0EFD1ECE010196B7010E94512AB3
:105090008E010F5E1F4FCE010596B8010E94512A66
:1050A0008985823040F08989823028F0C701B801B3
:1050B0000E94C92A01C08FEF6896E6E00C94692B24
:1050C000ACE0B0E0E6E6F8E20C94512B69837A8319
:1050D0008B839C83CE010196BE016B5F7F4F0E9444
:1050E000512A8D81823061F1823050F1843021F477
:1050F0008E81882351F12EC02F81388537FD20C045
:105100006E812F3131051CF06623F9F023C08EE14A
:1051100090E0821B930B29853A854B855C8504C002
:1051200056954795379527958A95D2F76623B1F01E
:1051300050954095309521953F4F4F4F5F4F0EC092
:1051400020E030E040E050E009C02FEF3FEF4FEFAC
:105150005FE704C020E030E040E050E8B901CA0158
:105160002C96E2E00C946D2BA8E0B0E0EAEBF8E2BC
:105170000C94492B7B018C0161157105810591050A
:1051800019F482E0898360C083E089838EE1C82EB0
:10519000D12CDC82CB82ED82FE820F831887C8017E
:1051A000B7010E942D29FC013197F7FF3BC0222750
:1051B00033272E1B3F0B57016801022E04C0D694E3
:1051C000C794B794A7940A94D2F740E050E060E007
:1051D00070E081E090E0A0E0B0E004C0880F991F8B
:1051E000AA1FBB1F2A95D2F70197A109B1098E21E9
:1051F0009F21A023B1230097A105B10521F041E033
:1052000050E060E070E04A295B296C297D294D83DC
:105210005E836F8378878EE190E08E1B9F0B9C836B
:105220008B8312C0309781F00E2E04C0EE0CFF1C51
:10523000001F111F0A94D2F7ED82FE820F83188798
:10524000CE1ADF0ADC82CB821A82CE0101960E943E
:105250007C292896EAE00C94652BEF92FF920F933D
:105260001F937B018C0180E0E81680E0F80681E066
:10527000080780E0180788F48FEFE816F1040105AD
:10528000110531F028F088E090E0A0E0B0E017C010
:1052900080E090E0A0E0B0E012C080E0E81680E09E
:1052A000F80680E0080781E0180728F088E190E020
:1052B000A0E0B0E004C080E190E0A0E0B0E020E237
:1052C00030E040E050E0281B390B4A0B5B0B04C078
:1052D00016950795F794E7948A95D2F7F701E05D64
:1052E000FE4F8081281B310941095109C9011F91D5
:1052F0000F91FF90EF900895DF92EF92FF920F933E
:105300001F93FC01E480F58006811781D1808081A4
:10531000823048F480E090E0A0E1B0E0E82AF92A89
:105320000A2B1B2BA5C0843009F49FC0823021F4C6
:10533000EE24FF24870105C0E114F10401051105E5
:1053400019F4E0E0F0E096C0628173819FEF62386B
:1053500079070CF05BC022E83FEF261B370B2A31A0
:1053600031052CF020E030E040E050E02AC0B801E8
:10537000A701022E04C076956795579547950A9424
:10538000D2F781E090E0A0E0B0E004C0880F991F60
:10539000AA1FBB1F2A95D2F70197A109B1098E2137
:1053A0009F21A023B1230097A105B10521F081E041
:1053B00090E0A0E0B0E09A01AB01282B392B4A2BFA
:1053C0005B2BDA01C9018F779070A070B0708034C8
:1053D0009105A105B10539F427FF09C0205C3F4FB5
:1053E0004F4F5F4F04C0215C3F4F4F4F5F4FE0E096
:1053F000F0E02030A0E03A07A0E04A07A0E45A0716
:1054000010F0E1E0F0E079018A0127C06038710511
:1054100064F5FB01E158FF4FD801C7018F77907009
:10542000A070B07080349105A105B10539F4E7FE94
:105430000DC080E490E0A0E0B0E004C08FE390E015
:10544000A0E0B0E0E80EF91E0A1F1B1F17FF05C001
:1054500016950795F794E794319687E0169507958A
:10546000F794E7948A95D1F705C0EE24FF248701CD
:10547000EFEFF0E06E2F679566276795902F9F7787
:10548000D794DD24D7948E2F8695492F462B582FFD
:105490005D29B701CA011F910F91FF90EF90DF9036
:1054A0000895FC01DB01408151812281622F6F77D9
:1054B00070E0221F2227221F9381892F880F822BC1
:1054C000282F30E0991F9927991F11969C931197C7
:1054D00021153105A9F5411551056105710511F435
:1054E00082E037C082E89FEF13969C938E931297C9
:1054F0009A01AB0167E0220F331F441F551F6A95C5
:10550000D1F783E08C930DC0220F331F441F551F2A
:1055100012968D919C911397019713969C938E935D
:105520001297203080E0380780E0480780E4580771
:1055300058F314962D933D934D935C9317970895CC
:105540002F3F310579F4411551056105710519F4B5
:1055500084E08C93089564FF03C081E08C9312C0B3
:105560001C9210C02F57304013963C932E931297E5
:1055700083E08C9387E0440F551F661F771F8A9541
:10558000D1F7706414964D935D936D937C93179748
:1055900008951F93DC01FB019C91923008F447C0F1
:1055A0008081823008F443C0943051F411961C91EC
:1055B000843099F58181682F70E0611B71093FC0CB
:1055C000843021F0923031F48230B9F18181882326
:1055D00089F12DC011961C9111978230F1F08181D3
:1055E0001817D9F412962D913C91139782819381CB
:1055F0008217930794F028173907BCF014968D9101
:105600009D910D90BC91A02D2481358146815781BB
:10561000281739074A075B0718F4112341F00AC01D
:1056200082179307A407B50740F4112319F061E02E
:1056300070E005C06FEF7FEF02C060E070E0CB016B
:105640001F910895629FD001739FF001829FE00D2A
:10565000F11D649FE00DF11D929FF00D839FF00DF1
:10566000749FF00D659FF00D9927729FB00DE11D9D
:10567000F91F639FB00DE11DF91FBD01CF0111247A
:1056800008952F923F924F925F926F927F928F92E6
:105690009F92AF92BF92CF92DF92EF92FF920F93C1
:1056A0001F93CF93DF93CDB7DEB7CA1BDB0B0FB6CB
:1056B000F894DEBF0FBECDBF09942A883988488888
:1056C0005F846E847D848C849B84AA84B984C8841E
:1056D000DF80EE80FD800C811B81AA81B981CE0F15
:1056E000D11D0FB6F894DEBF0FBECDBFED010895FA
:1056F000DC0101C06D9341505040E0F708953BD06C
:1057000080F09F3740F491110EF44DC060E070E0DE
:1057100080E89FE3089526F01B16611D711D811D11
:1057200001C01BC0882371F4772321F09850872B88
:10573000762F07C0662311F499270DC09051862B50
:1057400070E060E02AF09A95660F771F881FDAF7FD
:10575000880F9695879597F908959F3F31F091505E
:1057600020F4879577956795B795880F911D969545
:10577000879597F9089525D0A0F0BEE7B91788F46A
:10578000BB279F3860F41616B11D672F782F882726
:10579000985FF7CF869577956795B11D9395963964
:1057A000C8F30895E894BB2766277727CB0197F9BC
:1057B000089557FD9058440F551F59F05F3F71F001
:1057C0004795880F97FB991F61F09F3F79F0879568
:1057D0000895121613061406551FF2CF4695F1DFF1
:1057E00008C0161617061806991FF1CF8695710581
:0A57F000610508940895F894FFCFB6
:1057FA00FEFEFEFEFEFEFEFE0102040810204080B0
:10580A000000E1450080BB4500009645A861000004
:10581A00384A0000085200000000000000000000A2
:10582A00000102020303030304040404040404043D
:10583A00050505050505050505050505050505050E
:10584A0006060606060606060606060606060606EE
:10585A0006060606060606060606060606060606DE
:10586A0007070707070707070707070707070707BE
:10587A0007070707070707070707070707070707AE
:10588A00070707070707070707070707070707079E
:10589A00070707070707070707070707070707078E
:1058AA00080808080808080808080808080808086E
:1058BA00080808080808080808080808080808085E
:1058CA00080808080808080808080808080808084E
:1058DA00080808080808080808080808080808083E
:1058EA00080808080808080808080808080808082E
:1058FA00080808080808080808080808080808081E
:10590A00080808080808080808080808080808080D
:10591A0008080808080808080808080808080808FD
:00000001FF
