:100000000C9438200C9455200C9455200C945520B9
:100010000C9455200C9455200C9455200C9455208C
:100020000C9455200C9455200C9455200C9455207C
:100030000C9455200C947C220C9457200C94552041
:100040000C9455200C9455200C9455200C9455205C
:100050000C9455200C9455200C9455200C9455204C
:100060000C9455200C9455200C9455200C9455203C
:100070008080808080808080808080808080808080
:100080008080808080808080808080808080808070
:100090008080808080808080808080808080808060
:1000A0008080808080808080808080808080808050
:1000B0008080807F7B78777B85939D9C8C71554475
:1000C0004A6998C4DACD9F5F260C205AA6E5FFE75F
:1000D000A7581A031D5BA3D9EAD29D643B31456B37
:1000E00092AAAEA08A766C6C737C828482818080B6
:1000F00080807F7F7E808284817B7779838D8C80F6
:10010000706B788E9B907661657F9CA28B69596934
:100110008BA49E7F625E75939F9177666B7F9192B1
:1001200085767278838885807C7C7F8080807F80E4
:100130008080807E7B787A7F878E92948F7E6449E0
:1001400040588FCCECD794451315417DAEC9D2CA27
:10015000AF7D3D0D093E97E5FFDC934E2D375A7E6E
:10016000969E9E978C7F736E717981848381808047
:1001700080807F7D7E848881736E7F989A7A575EB7
:1001800090B8A461375DAFD49B3E2570D0D97F2451
:100190002D8FDFC6612249A8D5A452386BACB68832
:1001A000595A7F9C967C6D758388837E7D7F808085
:1001B00080807F7D7C7D7F7E7B8193A39972484286
:1001C0006797A8998C9CB4A25607035CCFFFD4888C
:1001D00063707B5C2A2873D6FFCF753D44697D77B9
:1001E00072839FA99677666B7A83848180808080F2
:1001F00080807F7C7D848B86756A77929E87645E23
:1002000080A49D70526EA6B5803E4293DBC3590E0A
:1002100039B4FEC644003FBBF4B6491E56ACC89A7A
:100220005F507295998473758085827F7E7F808010
:1002300080807F7D7C7E81807D7E8B9A987C574AF2
:1002400061889E9E99A2A78B4C182575CAE1B37A46
:100250006E878E6125216FD5FFCE7238416C888301
:10026000777D929F947D6D6E79818381808080807F
:1002700080807F7E83847A758493806475A1985E84
:10028000559ABB753773CDA6383EB7D6611C7FE54E
:100290009F2544C6CE54288DD58C365FB6AC5E51B2
:1002A0008EA9805F77948B757684857F7D7F808033
:1002B00080807F7E7F7D777686989280818B744563
:1002C0004482B4A48BA9C3831A0F669E8481CFFF96
:1002D000AC2E1B5E734E5FC0F7BB645A776A4656FE
:1002E00094B49D8081877A6D7280858280808080C1
:1002F00080807E7E82847D79868E775E79AEA55EF3
:100300004585B4845284C3881D3ED4F96C0659CE09
:10031000AB4963C6B1331DA1F49E2E45A2AC6F63F9
:1003200094A072587A9D9175728085807E808080BD
:1003300080807F7E7E7E797987938B7C83927D4AD5
:100340004076ABA999AFB871131879B08A74B3E845
:10035000AF4A3561633E5CC6FFC0624E6C6C55644B
:1003600096AB927C838B7E6E717E8482808080804F
:1003700080807E7D818682797A81807D8C94744DA7
:100380006CBEC861135CDDDC5E1E66B5A5787F8738
:1003900059479BE9A41915A8FFA5273199C28F6376
:1003A0006E837F7D8A8C7A6F7B89877E7C7F80805D
:1003B00080807F7E7F807D797F898D8B8D8665456E
:1003C0005B9CB78C668EC8A9410E438FA8AABAB4AD
:1003D0007A4B6187682F4EC2FFBC574270846E64AF
:1003E0007D95958D8B83736C778485807F808080ED
:1003F00080807E7D8085837D7C7E7A7A8C997E5517
:1004000065A7B86F356DC9BA522D7CC3A66B6777E7
:100410006767AAD88C131FAEFFAA2F2D88B89873D0
:10042000747C77798A907F727986857F7D7F8080E2
:1004300080807F7D7E807E7C808788888D8A6D4BE2
:100440005890AF917493BC983D1A559CA99DA4A552
:10045000805F71865F294FC3FFBD573E6984776F08
:10046000808F8D898B86776E768284817F80808075
:1004700080807E80848077808F80687FA07F557F9A
:10048000B47F417FC87F2E7FD87F217FE3801A7F92
:10049000E6801B7FE180237FD580337FC380468049
:1004A000AF805A7F9B806C808B80797F82807F8039
:1004B00080807F7F7F7B747D8D8C83919C764A5A70
:1004C0007F7167ABE6B1606B7F370768D6C090C1BC
:1004D000D96700317F685CB8F8B3626E7F4E3673BF
:1004E000A99B8594987A67737F7D7D8283807F80C6
:1004F00080807E7F82807A838F7C627AA18C657F08
:10050000A16D408DDA8F2D64B87F439FE56B006B42
:10051000E8A13F7FBD612291EA903168AA7F5B919B
:10052000B07751799C877380877D798082807F80C6
:1005300080807F7F7F7B777F8D887E8C9B7F565EE0
:10054000766765AFECB65E5B6F3E237ED5AD78AE69
:10055000D87E1D386E5759BEFFB95F617353477F10
:10056000A8937D8E977F6D747D7C7D8283807F8054
:1005700080807E7E81837F8182746F91A87B4668B4
:10058000AFA76E6A806768BAD0530075FCBE394069
:100590008D8B7CB0AE3F1A9BF5992B4EA09E7E852D
:1005A00086656694A27D65788A867E7E807F7F8060
:1005B00080807F7E7F7E7B7E84818298A076465578
:1005C000878F7F91A9937F978C2D0067E3D78B85C9
:1005D0009A754F6771444DBBFDB655527670647A7B
:1005E0008C82849C9B7A657281827F8181807F80EE
:1005F00080807E7E8082818383726B8BA784536A26
:10060000A1976B76917464A2B8561C8CF9AA27370F
:1006100093A190AC972F1CA5FFA22D42909C89918D
:1006200089625F8DA1826B7987837D7F807F7F80E8
:1006300080807F7E7E7E7D80847F7E939F7D5159EA
:100640007F857C95B0987B887F351778DFC67A7B6D
:100650009D856069663B4DBEFFB8564C6E716D82DC
:100660008D7E7E969A7E6A737F807F8181807F8077
:1006700080807E7F858375788E8D6F6C9097736890
:1006800087927D7880777D9B8C5164BDB03937C867
:10069000DF3F0DB2FD610089F9891568D79F3E5E85
:1006A000AC9D65698D8E7A7881827F7F807F7F8027
:1006B00080807F7F817E75788C9182809088645560
:1006C0006C81899AA99E8C825E2C4196B1818BDEC9
:1006D000D0430667A35B3DAFFFAB486398703A60B9
:1006E000A5A784808D8573727B80808181808080C6
:1006F00080807E7E8382787B8D896B6A909D7D6A07
:100700007C83798291837785795679CCB23227B10F
:10071000DC5D2DACDC4F0795FF931B5AC09C516EDE
:10072000AA945F678E927E797F807F8080807F80B1
:1007300080807F7E807E777B8B8E7E7D908D6C59D6
:100740006779859EB0A28775563553A2B1777ACB6B
:10075000CC591F6993503FB3FFAE4A5C8D71496B12
:10076000A39F7E7D8D8877737A7E80818180808053
:1007700080807E7E83847D7B8380747E988D635EA3
:100780008DA9906B5B6895BD963E3FA3CA7B4C8458
:10079000995A5FC6C93B0A9BFF981E4BB2AC6D6C61
:1007A0008B826D7E948872758386817E7E7F808049
:1007B00080807F7E80807A7B8487828995845C5369
:1007C00076959489868A9A9F6F29308CC2A089A8D1
:1007D000A0574585904239B2FFAE45518B835E6B81
:1007E0008E90838A92826F717D83828080808080E8
:1007F00080807E7E82837E7D847E717C97926C6217
:10080000849B8B746B728FA9874553AFC771417AF4
:100810009C6E71BEB33313A0FF9E2546A4A77777C5
:100820008D7D697B948B76768184817F7F7F8080CC
:1008300080807F7E80807C7D85857F8695886356DD
:10084000728D908D8E8F959368304096C0967B9D6B
:10085000A1665385853C3CB5FFB0474C84836672E6
:100860008F8C7E87928573727C828180808080806D
:10087000807F7E81837B7A8C856A7F9E745A9BA55C
:100880005062C28B2E8DD6542FC9BE1E5DF0800ED5
:10089000A3E63D30D8B01D70DF712DA4BD4E59B414
:1008A000905080A476688C8C757B86807D8080805B
:1008B00080807F807F787784867E91A38060777345
:1008C0004361B6AF85B6C6521A666C2F82FFCC79EB
:1008D000ACA51B067A875AACF8A860857B33469393
:1008E000947D9BA9806C7B7B727B858280808080DD
:1008F00080807E80827B7D8F866877967969A5A2CD
:100900004551B7984D9CC73B1CC3D4456AD35C0185
:10091000ABFF5E36B68D1B83F6832B8AA5516CC167
:10092000944B739A7A72918B727885817E808080E5
:1009300080807F7F7F797986877C8B9C826A7E74BA
:100940004058ADB393BBBB4513697D4988E8B06E91
:10095000AFB634106A7357B3FFAE5E767139549BED
:10096000967891A182727F7C717984838080808067
:1009700080807E7F817F81887B677FA28964788287
:100980006C91C0742072D3995E856E399CFE7F0095
:1009900062C9927AA463208FF08E306A997C8AA50E
:1009A000724B7FA8886F7C807B82867F7C7F808073
:1009B00080807F7F7F7C7D837F778CA38B67686857
:1009C0005C82B5946597C58343524B40A3FFB555F0
:1009D0007CA161476F5D4EB0F8AC5665745C6E915A
:1009E0007E6E93A989707578778085817F808080FD
:1009F00080807E7E807F828A7C677B9B8A6F8082FC
:100A00006583B67D387DC68552848054A0E56A0032
:100A10006CD6A17B90532498F796335E8B7C93AC75
:100A2000764B78A0897580807980857F7D7F8080F6
:100A300080807F7E7E7C7E858076889F8C6E6F69CD
:100A40005779B099719DBE763B555A51A6F0A34E89
:100A500081AE6F4A64514CB5FFB1555C6C5E7697C0
:100A6000806B8DA48A747878767F84817F80808083
:100A7000807F7E80847F7880867E7F82717DA48265
:100A8000417DD7801681F07C1685D17853887F7799
:100A9000AE872979F383007EFC7E1582CF7C4E845D
:100AA000957C8082737E9080717F88807C8080803E
:100AB00080807F7F817C777E87878D8E7C7784673F
:100AC0004074C39F63A3D76F13508A6A74B2B8A8E7
:100AD000AF731A449E723CA7FFA34875955A457997
:100AE000969094907C7A8277717E86817F808080D8
:100AF00080807E7F837F7A83877C7A7E7585A782DC
:100B00004071C789338BDC6A1384D88E5F7A696A37
:100B1000AF9C467AD26E098AFF891D72B97C5F8EBE
:100B20009677777E76839280717D87807D808080C6
:100B300080807F7F807C79808785888A7D7D8969B8
:100B4000406DB9A171A6CA641355947A79A4A39B88
:100B5000AF83304A8F653FABFFA74A6C8A5E5281F4
:100B6000968B8D8B7E7E8478717D85827F80808060
:100B700080807E7E82817E817E767F8D827B867183
:100B80005C99CE71136FE5A643648D7387B17F4E78
:100B9000788D719DC2550C92FF901F5FAD92778644
:100BA0007C6B7F8F827C827B7783877F7C7F80805A
:100BB00080807F7E807E7B7F817F8A938677756150
:100BC000548AC08D518FD38F3644686A92C6AB7FEA
:100BD000887B526A8D5539ACFFA8455F8972667D66
:100BE000837F9096857A7B76768186807E808080F2
:100BF00080807E7E818180837F757C8983818A73FA
:100C0000598EC3792A78D6953E6798838BA26F490F
:100C10007E9B809AAE4B1498FF962658A090808EAB
:100C20007F69798B8380847B7782867F7D7F8080DC
:100C300080807F7E807E7D80817E868F867C7A63C9
:100C40005283B9915D93C9853349737694B99C7881
:100C50008B875F6C824D3BAEFFAA475982736D83D1
:100C6000857D8A92857D7D76758085817E80808078
:100C7000807F7E80857C76888D7170948E66769973
:100C8000836C82877989836285B16A3EABCB3B33C3
:100C9000DCC40F4AFCA00075F9761598D65E3FA318
:100CA000AA6066988C707B88807C80807F80808042
:100CB00080807F80817A75838B7F829A8F68667649
:100CC0006A688CA3A4A8905D5B6D4643ADDF8B7B07
:100CD000CF9B0725A6853AA1FF9E46849B463B8E67
:100CE000A47E849E8C71747C7B7C818281808080D8
:100CF00080807E80837D78898D706C8E8F717F96E9
:100D000079617E908A927D5374AC7D5AADB62B2D5D
:100D1000DAD32D50DE880682FF821A86C16250AA7D
:100D2000A95E61918C767F877E7B7F8080807F80CB
:100D300080807F7F807A77848B7D7E958F706E77C1
:100D4000666388A6ABAB8B55546F5857AECC7A729E
:100D5000CBA7202E97773DA5FFA24879904C4994C8
:100D6000A37A7E988C76777D7A7B80828180808062
:100D700080807E7F837F7C86846D749A966B65828B
:100D80008A8D93765875999391834549C5E14E1D97
:100D90009AB85D7BCB6A0A8BFF8A1D6FB47D6C9D10
:100DA0008C576E9F937274808282817F7E7F808059
:100DB00080807F7F807D7A838479829C946C5E6D55
:100DC0007481969183939D826D5B344CBFE8885DFE
:100DD000A09B4452936338A7FFA3446A8D635D8D43
:100DE0008F7183A1917370797D80828180808080F2
:100DF00080807E7F827F7E87846D729596736E8100
:100E000082828E7E687E92848383575EC3CD431E2A
:100E10009CC26E7CB65D1293FF912466A57D75A27F
:100E20008D576998927777808080817F7F7F8080DF
:100E300080807F7F807D7C8485787F989471656ECB
:100E4000707B92948B979778665E435BBDD97B5895
:100E5000A1A45255885B3AAAFFA6456486656692AE
:100E60008F6F7E9C9177737A7C7F81818080808078
:100E7000807F7E80857F76808B7E7581857E848174
:100E80006E7E9D805A80A67D62838A7B8F85517A93
:100E9000CE85177BF982007FFA7F1581D47D44824D
:100EA000A47D6E81847E82807C7F82807E80808033
:100EB00080807F7F827D767E8A85828A8879746D44
:100EC00060779E97839BA7734B5B676F98A7889FFC
:100ED000C7760E52B9752C9EFF9B3A77A7633F7B6E
:100EE000A18C838C867B7A79787E838180808080D8
:100EF00080807E7F847F78828B7D727E86838A81EC
:100F00006875988668879F705883968A937B43702C
:100F1000CD942B7CE5730387FF871876C67D4F8AB7
:100F2000A479697E858284807A7E82807F808080B9
:100F300080807F7F817D77808A847F88887E796EBC
:100F40005E71999A8B9EA16A465E727B9A9D7B9593
:100F5000C5822155AB6B2FA2FF9F3D709E654A81D4
:100F6000A0887E89877E7D7A787D8281808080805E
:100F700080807E7F83817B818478778A8D7C757584
:100F80007893A4754773AF9C726B6776A9A55A5A7C
:100F90009F895096D55F068EFF8C1A67BB8E64853D
:100FA0008E70728C8B7D7B7C7E83837F7E7F808046
:100FB00080807F7F817E7A7F857F818F8D796B674F
:100FC0006B88A28A6E8CAD8C5C4F526EAAB9877FFB
:100FD000A37C3E6EA65D2DA3FFA03A659A745A7E4F
:100FE000907F82928B7B76777B8183807F808080ED
:100FF00080807E7F82817D82847875878D817A76FC
:10100000738B9F7B557AA8906A6C7382AA9A51550C
:10101000A0955E94C4570D93FF912060AF8C6C8AAD
:101020008F6E6E888B807D7C7D81837F7E7F8080CC
:1010300080807F7F817E7B80857E7F8D8E7D7068C6
:1010400068829E8E7690A78457535C78AAAF7C7A8C
:10105000A4864B6F9B562FA6FFA33C6093756183BC
:10106000907D7E8F8C7E78787A8083807F80808070
:10107000807F7F827E7A8A7D70957F60A0874DA970
:101080009438ADA625ABBB16A2D10F93E40F7FF128
:10109000186CF7285AF53C4DEA5147D96548C47594
:1010A00050AF805B9C84698D847584827D80808054
:1010B00080807F817C78807B7A98917E9A7B49754D
:1010C0006C49A9BE80C7B52E5F6C0575D179CAFF82
:1010D0005A5D8A032FAF6D97FD9570A44831866ED7
:1010E0006EB49B7E967D677C7B77848380808080D6
:1010F000807F7F817D7B8B81748E78609F9160A3E0
:101100008332A0AD4AB3AA0C86C538ADDF0D5FCDE2
:10111000328DFF3546C63D65F56848B55850C987DC
:101120005BA0745B9A8B718B807383827E808080DE
:1011300080807F807C79827E7B938A7B99835676C0
:101140006644A0BF8EC8AA27546E2188CE6EAEE535
:10115000647499112998699EFF9C6D92433A8E7927
:1011600073AA917A96826C7D7A7683838080808060
:10117000807F7F807E7F8B7F6F827F7CA3804A848D
:101180009577B1841F85BF73A4890782EB727F8D29
:10119000117DFF75578D377AF17A438A6479C97E5C
:1011A0004C85807B9E806781847E84807C8080806B
:1011B00080807F7F7D7C847D768A8C899E7A466A5A
:1011C0007870ADA061A4BB6873550071DDA2B6B69E
:1011D000416DB043387A5BA2FF9F617B4E599B768D
:1011E0006296938A9A7C65787E7D84817F808080F8
:1011F00080807F7F7D7F8B8172807B79A087578401
:101200008A6DA78B398DB26592882594E3686C80CE
:101210002590FF764D7A3B84F484467B5C7AC988BE
:10122000568078789C846D81827D83807D808080EB
:1012300080807F7F7C7C847F788787869D80516CCF
:101240007369A6A36EA8B25F6A591780D996A2A83F
:101250004B7DB848346D5AA6FFA360724B5DA07EEB
:1012600067908C8799806A797D7C83827F8080807B
:10127000807F7E81817F837879987F5D8D9870846F
:101280007265BE901F92D15869895EBEA9017FFF29
:10129000553EA47598AC236AF16C32A19079945EA6
:1012A0006CB480578B8F79817C7B86807C8080803A
:1012B00080807F807F7C7E787E988B738E8A646B43
:1012C0006165B4A662ABC3584C58429BAB53B3FFA5
:1012D00073436F47688F4F95F793578B705C7660B9
:1012E00079B492718C867379797B85827F808080D6
:1012F000807F7E80807F847B7B937B5C8E9D7984E6
:101300006B5CB597359AC54B5C8870CCAC006BE9CB
:101310005F57B17686952576FA77349084799C6B01
:1013200070AB78568C927C817B7A85817D808080C1
:1013300080807F807E7C7F7A7E9587718F8F6A6CBC
:101340005C5DAFAB6EB0BD4D44594FA7AE4CA2F241
:1013500078537B485E814D9CFF995581685D7D691E
:101360007CAF8C6F8D897679777A84827F8080805C
:1013700080807E7F8081867A758A7F709690617486
:101380007D85C17E137ED5887B693BA9C5477FB922
:101390003854C89885761F81FF812F79838FA9697A
:1013A0005E97806D938A727C7F80867F7C7F808051
:1013B00080807F7F7E7E817A7A8E897E94865B6351
:1013C0006C7CB7954F98C87A5E492E91BF79AACCAC
:1013D00059539268626D459FFF9C4F716B708A688C
:1013E0006E9F8F7D91846F767B7F85817E808080EC
:1013F00080807E7F7F81867D77877C6F95936A75FD
:10140000767CB8842985C87A706B4EB3C34470AAC1
:101410004467CD9578692489FF88336F7A8DAC73E2
:1014200064917A6C928C767C7D7F85807D808080D3
:1014300080807F7F7E7E827C7B8B867C948A6265C7
:101440006876B1985B9CBF71584D3D9BBD729BBF48
:1014500060619A695B6447A2FF9F506A66728E70F2
:10146000719A8A7B918672777A7E84817E80808071
:10147000807F7E81817C817E7F8D716CA88446997E
:10148000AC547597749A723FCBB2008BFB3A41C64D
:101490007F738B49A4C81D60F5632DB6995D86796D
:1014A0007F9D6869A28265888A797E817F807F803E
:1014B00080807F807F7A7C7D8291827EA07C46784E
:1014C000885883AC9EB384458E710078E47B8ADBB8
:1014D00090675D266FA14B90FD8F549974476C7394
:1014E00087A5837E9C7E657D8179808280808080D7
:1014F000807F7E81807C828180896D6AA78B5297F4
:10150000A04B729E85A26E32B7AE199EF9322FB4EF
:1015100086899C4D91AF1E6EFF6F2EA48C609084C7
:1015200082956267A1876B8787777E8180807F80C5
:1015300080807F807E7A7E7E828E7E7C9F825079C4
:10154000815380AFA6B5803E82721586E0737BCB57
:1015500093776B2D65924B96FF94548D6D4C747BF5
:10156000899F7E7B9B816A7D80798082818080805B
:10157000807F7E80807F847F7A81757DA78046838F
:10158000A679888359838B76C0860081F876548942
:101590005B7EB1788C8A247BF67C3387887B9C7F4A
:1015A0006F846F7CA1806581887F80807E80808051
:1015B00080807F7F7F7D807E7D878187A17B466F56
:1015C0008B748E98809C926E935F0075E79988A9C2
:1015D00071718451697B4699FC974F7C7062827867
:1015E000799083889D7D657A827E818180808080EC
:1015F00080807E7F807F85817B80727AA7864E8304
:101600009E718589658A866AB386108FF96D4580DB
:10161000628DBC78807B2283FF83327C807BA286B4
:1016200072806A7AA1836981867D80807F808080D4
:1016300080807F7F7E7D817F7E867F84A1804D70CC
:10164000866E8B9C889F8E668A610F80E5917CA058
:10165000757D8D546171459EFF9B4F746A64877ED2
:101660007B8D7E859C80697A817D81818080808070
:10167000807F7E80827F7E7982927564999260837A
:101680008E6B938C568E9961978739B0CE1D50E33F
:101690008E4C6D77C0A20D6FFF70209AAC7A756585
:1016A00086A96E60958B7181837C81807E8080802D
:1016B00080807F80807D7B7A8394817596885B6F44
:1016C000786996A080A49D5E735E2D96C55B88EABE
:1016D000974D50508D8C3991FF9044898962646692
:1016E0008AAC837493856F7A7E7C828180808080CF
:1016F000807F7E80817F7F7C828F726598966983F0
:1017000085648E91659493578A864CBACA1E45CFDC
:1017100091617C78AD901578FF79268C9F7B7D70E8
:1017200088A16A60958E7581817B81817F808080B0
:1017300080807F80807D7C7B83917F74968C6170BC
:10174000746492A288A697576B613C9FC3577CDB59
:10175000995C5D5483813B96FF94468082646C6DF6
:101760008BA57E729287727A7D7B81828080808059
:1017700080807E7F8181817C7D8877749C8C597785
:1017800090849C7E467EA4869B6E2AA0D8545BAB38
:101790006D5E9392A6791581FF81277A9A8B8B6E65
:1017A0007792727298876E7D8380827F7E7F808041
:1017B00080807F7F807E7E7B7F8B817E998556684F
:1017C0007E7D9C916C94A47B7C53238ECE7A86BEC6
:1017D0007C5B736C82703799FF9743748173786D6B
:1017E0007E99827E96836D787F7F82817F808080E4
:1017F00080807E7F8181827D7E8675739B8F6177FD
:10180000897D978353849E7B90703AA8D45152A0CF
:10181000726D9C91996E1A87FF862B72918A9076D1
:10182000798D6F709789717D827F82807E808080C4
:1018300080807F7F7F7E7F7D7F897F7D99885C6AC6
:101840007A7898947497A07476563096CC757CB458
:101850007F667B6D7A68399CFF9A446E7C747D73D9
:101860007F957E7C95856F787E7E82817F8080806B
:10187000807F7E828179828679807F7F8D6C71B254
:101880006E40C79F13A4DC2162E1604EA97F7F8078
:1018900054B4A116A0E81656FF5928CF963D939A46
:1018A0006C80807F8B7479907C7687817C8080804F
:1018B00080807F817F787E827E888C8B8E6D64882D
:1018C0005E4DB8B15EB7C9344790434FABAAB4ABD5
:1018D00074916B076CB54989FF8952A8723374897A
:1018E0007A91938D8C747382787885827E808080E3
:1018F000807F7E81807A84877B7D7B7C8D767AABCE
:10190000683DB9A330A8CA1E57D47468AA736B7314
:1019100061C0AD248BC81F66FF682FB688469AA1A8
:10192000717A787C8B7A7D8E7A7585827D808080D5
:1019300080807F807E797F837F8587888E746C87A7
:101940005B4AB0B26BB9BF30428E5361AB9DA19E72
:10195000799D791263A34A90FF8E539B6B3B7C8FDA
:101960007D8C8C898C787782777784827F80808069
:10197000807F7E80807D858575787F8B956F649470
:101980007A6CC2881389D66377A74156C1A77F575F
:101990003CABC25489A01D74FF752E988664A59631
:1019A000606F808C927573867E7C86807C80808060
:1019B00080807F807E7B81827A808991936F5D7B3E
:1019C0006B6AB89C4EA0C9605C773355BCBEA984D5
:1019D0005B938F38668B4394FF934D886E52888952
:1019E0006F818F949075707E7B7C85817E808080F6
:1019F000807F7E807F7D868677777C8794766C92E9
:101A00007566B98D298FCA596DA35368BF9B7052F3
:101A100048B5C8597C8F237DFF7D328B7D67A99B9C
:101A2000666D7A88917A76867D7C85807D808080DF
:101A300080807F807E7B82837B7F868E9374647CB4
:101A40006766B29E59A3C05957784162BBB29A7C6F
:101A5000629C973D5F804599FF964E8069568D8EBA
:101A6000727E89909079737E7A7B84817E8080807B
:101A7000807F7E81827D7F7F7D887F738581819459
:101A8000605ECC911394E34F4BA782838F537FAD5D
:101A90006F7C7D54B9B60E68FF6A21A9A8647E7E6A
:101AA0007892807184808086787A87817C8080803B
:101AB00080807F80807B7C7E808C8980877C727B2D
:101AC0005760BFA34EA7D2513C7762769780A9C2D8
:101AD00081705C388A9B398CFF8B449587526B7779
:101AE000809B8F80867D7A7E767B86827E808080DA
:101AF000807F7E80817D80817E857C7286868692D5
:101B00005D59C2952998D54745A38D91924F709FF5
:101B1000768B8959A8A31572FF74279B9B678585CF
:101B20007B8D7A7085848286787A86817D808080BC
:101B300080807F80807B7D7F808A867E8880777CA6
:101B4000565CB8A459AAC94B39786D8199799AB66F
:101B5000847C683D808F3B91FF8F468B8056727EE0
:101B60008296897E87807C7E767A85827E80808060
:101B7000807F7E80817F828079807F7F8D7F73846C
:101B80006D79C7831383DD776088627DA77C7F834F
:101B900057829E76A289167BFF7C2787977A918150
:101BA0006D81807E8B7F7A817B7F87807C80808047
:101BB00080807F7F807D7F7E7C8587868D7B6A733A
:101BC0006375BE944397D0704F674F74A998A29ED7
:101BD0006A777C57807D3794FF93437E80667E7B57
:101BE000768C8C878B7D767B797E86817E808080EB
:101BF00080807E7F807F83817A7F7D7D8D837883E7
:101C00006973BF872488D26E5A876E88A875737CE3
:101C10005E8DA677967E1B82FF822B7E8F7A9587BC
:101C2000707E7B7C8B827C817A7E86807D808080CA
:101C300080807F7F7F7D80807D8485848D7F6F74B1
:101C40006170B8974E9AC9694B69597DA99196966A
:101C50006F81845A78753998FF9644787B688280C2
:101C6000788988858B7F787C787D85817E8080806F
:101C7000807F7E81827B7E848280757F987263A361
:101C80008B53969653999D3D92C43F5CC97F528079
:101C90008FA46A35C2C90C62FF651FB8AD5173923B
:101CA00087806F7F9477728B827982817E8080803B
:101CB00080807F81807A7B818386818995715D8632
:101CC000765898A67DAB9F45708C315AC2A188A1E9
:101CD000988D4F2190A93787FF87439F8B44648756
:101CE0008B8D838A927670827D7982827F808080DC
:101CF000807F7E81817B7F85827E737D97796B9FDC
:101D0000834F919A639D963886BD516EC67647770C
:101D100092AF793DAFB4146DFF6E26A8A1557C98A3
:101D2000887C6B7D937B768A807881817F808080C0
:101D300080807F80807A7C8283847F8695766386AC
:101D4000725494A885AD9A40698B4067C0977C987F
:101D500099975C28869C398DFF8B459584486B8CC0
:101D60008B8A7E87927A73817C7982828080808060
:101D7000807F7E80817D81837D7A77889B735B8F76
:101D80008E719D864487A669979E2F5FD49E5C6066
:101D90006FA1905EA8981477FF7726929C6B89912B
:101DA0007873738997786F85837D82807E80808049
:101DB00080807F80807C7E817F80818E9872587C3D
:101DC0007C6E9D976A9AA6657A79275CCBB38683E9
:101DD0007D8F714485893691FF8F4287835A77883A
:101DE0007E81829095776E7E7F7D82817F808080EC
:101DF000807F7E80817E82857E7975859A78628EED
:101E0000886B998A528CA0618D9C3E6DD195535CF4
:101E100074AA98619C8C197EFF7E2A89936C8E959A
:101E20007A716F86967B7284817C82807E808080CE
:101E300080807F807F7C7F82807F7F8B98765E7CB6
:101E4000796A9A99729DA15F74793467CAAA7C7D78
:101E500080977A487D803794FF9343807E5D7C8CA9
:101E6000807E7E8D947A707E7E7C82817F80808071
:101E7000807F7E81837D7C7F838677768F81728F62
:101E80007966A58D448FB05A759E6182AE5D5CA265
:101E9000967D5B5ECEAA096EFF6F1CA0B66B6B7E53
:101EA0008A8E73748C8079857E7C83807E8080802E
:101EB00080807F80817C7B7E848A81808F7C697C2E
:101EC0006D66A39C6AA0AE5960794E78AE8086B6E6
:101ED0009C734844A2962D8AFF893A91975A60795B
:101EE0008D9682808C7E757E7B7C83817F808080D6
:101EF000807F7E80827E7D81838475758F85778EDD
:101F00007561A0915293AA536E9C6C8DAE595398F3
:101F100098886761BE9C0F75FF762195AB6C7284C3
:101F20008B8A6F738C837C847D7B83817E808080B1
:101F300080807F80817C7C7F84887F7E8F806E7CA8
:101F40006A629F9E72A3A9545B795881AE7A7CAD78
:101F50009D7D5348988D2F8EFF8D3C89915D667EC7
:101F60008D927E7E8C80787E7B7B83817F8080805B
:101F7000807F7E80827F7F807F80797F937F69836F
:101F80007F7BA9823B82B5787F864D7EBC7D638254
:101F90007B827C78B788107CFF7C2286A67B7E8142
:101FA0007D81757F907F75817F7F84807D8080803B
:101FB00080807F7F807D7D7F80848185927C647539
:101FC0007376A6915D93B2726B6B4175B9948599E6
:101FD0008578665D967E2D91FF903A7E8F6A717C42
:101FE000828A8286907D737C7D7E83817E808080E4
:101FF00080807E7F817F80817F7F777D93826E83EB
:102000007B76A4864787AF7178865887BB775B7CE1
:102010007E8B8579AB7E1482FF81267E9E7B8285B6
:102020007F7E727D908177817E7E83807E808080BE
:1020300080807F7F807D7E8081837F84927F6875B2
:102040007073A3936496AD6C666C4B7DB88E7D9374
:1020500087806E5F8E772F94FF933C798A6B7580B3
:1020600083887E848F7F757C7C7D83817F80808068
:10207000807F80827A858075936E7F9857A07F5687
:10208000C14D7FBB25C38034EE2E7FD603D980257A
:10209000FF257FD706D38031EA3880BF2BB7805128
:1020A000BB5A7F9C5D9480728E787F837D80808018
:1020B000808080807A7E7A778E81919E6F8A674554
:1020C00087558ECA80D492418C0D489C4EEFCA87AA
:1020D000E134446A009B9486FB86919427725E5992
:1020E000AD839BA37286746C8179818480818080AA
:1020F000807F7F817A84827A916D788F60A78A5CF5
:10210000AA4379BF4AC77826C73B98E620B85F2024
:10211000F65299CA00AA764EF55278A027AE8E687C
:10212000B65874926598847489767F837E807F80A8
:10213000808080807A7E7C7A8D7F8A977390704CC5
:102140007E4F88C98DD38B397D1B5DAA59D6AD7B57
:10215000DB505B6D00868C8FFD8E8A8527746B67E4
:10216000AA7D909B758A796F7F788084808180803A
:10217000807F7F7F7B86857A84697FA17692654D9B
:10218000B683989313969F85DC1E43AF62F7800653
:102190009E4EC0E91A795B66FF68617A39C2A4660F
:1021A0008D4D7FA6778B736F8C8082817C80808041
:1021B00080807F7F7B807F7A85798CA17F855C465C
:1021C0008C799AA960AFA175940F2F8E7DF8B65EB9
:1021D000A44F7D8E146C7896FF94797035897E6655
:1021E000907294A67F836F6D827E82827F808080D2
:1021F000807F7F7F7B85867D84697A98799770540C
:10220000A5779099329C9573BF2C5CBC6DD96A0AF6
:10221000A06AC8DA18665A75FF76616C37B9A97476
:102220008F4F779C7A8E7871887E81817D808080C7
:1022300080807F7F7B80807C8578879B808A644BD1
:10224000847194AB6EB19B6A881A429A82E4A25858
:10225000A562898D1360749BFF99766834888570B8
:10226000916F8CA08086736E817D82827F8080805A
:10227000807F7F807E867C7190817F7E5EAC904D7A
:102280008F6FA7A013A5B3679A1EA5F318797F8750
:10229000EA0758E9639B4554FF584F946CC2694163
:1022A000B1827F7D629B876F837D83817C8080800C
:1022B00080807F807D8079748C898C8A6F96784647
:1022C000736BA3B260B9AE626A0F6EBA4DA7B6B1B6
:1022D000D5213A8E4381698AFF896D815589584F8E
:1022E000A794948C718D7C6D7D7C83837F808080AE
:1022F000807F7F807E857E768E7E7A7A65AD9554EE
:1023000084669DA432A9A659862CB0F62D6D6A79F3
:10231000E22D6FDA56834766FF68518363B97655BD
:10232000AD7D7779689C8971807B82827D80808099
:1023300080807F7F7D807B778C86878772997E4BBC
:102340006E659DB36EBAA659611A7BC1579AA2A356
:10235000D1384D8D3D746791FF8F6B775188635BEA
:10236000A58E8C88748F7F6E7B7B82837F8080803C
:10237000807F7F7F7E86817785787F8A749B784D8A
:10238000928EAC881389B9959E1E70C85DA47F5A41
:10239000A33390E95E673E74FF75496D68C2895842
:1023A00090707F8B76917C6F848284807C8080802B
:1023B00080807F7F7D827E77858189907C8F6C474E
:1023C0007B83A89C4FA0B484781254A873BCAA87BE
:1023D000A63B6AA246625C95FF9462695895735C5D
:1023E00091838F937C89776D7E8084817E808080CD
:1023F000807F7F7F7E85827985777C86779E7E52FF
:102400008984A48D298FAF8790287DCF65977055DB
:10241000A44A9BDE555B407EFF7E4B6462BB8F64AB
:10242000916E7A8778937F71828083807D808080AF
:1024300080807F7F7D827F798580868D7D92724CC2
:10244000767CA29F5BA3AD7B701B60AF78B19B8055
:10245000A74C75A041595B9AFF97616254947965C6
:1024600092808A8F7D8B796F7D7F83817E80808053
:10247000807F7F817F837B7A9376728D7B92686881
:10248000C1635DA175A55256EE524BAF72B1474D77
:10249000FF4D47B072AE4C54EA5855A3769E5F6626
:1024A000BB6B6B8F7C8B75788E7B7C817F807F8014
:1024B00080807F807D7F78799181829681875B544F
:1024C0009B606FB69FBE6A51AF2B2D9485D28A85D3
:1024D000F34828704B946784FF846B8F5B764E6360
:1024E000B582849A81856F71867B7E8380807F80B0
:1024F000807F7F807E827C7C93746E897D987069FA
:10250000B65A5BA784AC5048DB555DBF78A3354411
:10251000FF635AAE639A4960F66352946C9D6A7188
:10252000BB67648B7E8F78788C7A7C8280807F809A
:1025300080807F807D7F7A7B907F7E92838C6358C2
:10254000935B6EB7A6BF694AA03341A089C17B7C6B
:10255000ED5B3D714485658BFF8A6A835677596DC3
:10256000B27E7E9582877373847A7E8381807F803A
:10257000807F7F7F7E847F7B8A707596888C595D93
:10258000BE82748D568F7084E93C2AA099D2502B5C
:10259000C45D7DC9667B3C6EFF6F477C6EAE7E6E10
:1025A0009F5D6E9A87876E748E807E807E807F802E
:1025B00080807F7F7D807C7B897B81998A84565354
:1025C0009B7A7FA080A57F77AD28228B9FDD8865D1
:1025D000BE5A5C8B4C705B91FF8F61745C876B6C37
:1025E0009C75839E88826C71867F7F8180807F80CE
:1025F000807F7F7F7E84807E897072918990636006
:10260000B179729265946E77D3433FAB9BC1452BF2
:10261000C2708AC15D6D3E78FF78497267A986777E
:102620009E5C6A94878A72758B7F7E817F807F80B3
:1026300080807F7F7D807D7D897A7F968A885D56C8
:1026400094747DA288A77C6FA22F3294A0CF7C6067
:10265000BD68688A47675A95FF94606D58867273A3
:102660009C737E9989857072847E7F8280807F8052
:10267000807F7F80818479769280757E779E775D7A
:10268000A3747E9656997E6FBB3C6DCF667B50845B
:10269000F92C35C999922C62FF643A8E91AE55544B
:1026A000B8826E7E78937C74877E7F817E807F8007
:1026B00080807F807F8078778F8781887E916B5341
:1026C000877087A780AC89688C2852AD7A9E88A6CF
:1026D000E436288B71814F88FF87578175874D5A63
:1026E000AE8F83897E8A7671817D808280808080B2
:1026F000807F7F8080847B78917F727C7AA17E60EE
:10270000986D7B9A659E7A64A9437BD66D72457BF2
:10271000F1444AC18A82316DFF6E3E8287A96161B0
:10272000B47D6A7B7A947F75857D7F817F807F8091
:1027300080807F7F7F8079798E857F857F947156B9
:10274000826B84A888AE8561832F5FB47E957C9C64
:10275000E047388A6976508DFF8C587970865762C9
:10276000AC8B7E867F8C7972807C8082808080803A
:10277000807F7F7F80857D79897A778782956B5985
:10278000A08B8B8646878F90B63552B7889C5B634B
:10279000BF4569D0886D2D77FF783A7185B2736136
:1027A0009D747289828D7673878181807E8080801E
:1027B00080807F7F7F817B798981818D858C645248
:1027C0008A828F976C9A9483912642A091B18686D3
:1027D000BB48529C6B674991FF90526D7191666343
:1027E0009B82828F84877371828081817F808080C9
:1027F000807F7F7F7F847F7B897975858397715CFC
:102800009883888A538C8B85A93B5FBE8B92525EDE
:10281000BE5675CA7E63307EFF7E3D6A7EAE796AA3
:102820009C726F85838F7974858080807E808080A4
:1028300080807F7F7E817C7A88807F8B868F6954C1
:10284000857D8C9A749D907B892C4DA793A87C8064
:10285000BB555D9A65604A95FF9353676D906C69AF
:102860009B807E8D85897571817F81817F8080804D
:10287000807F7F817F807C808F677FA25F7D917D5D
:102880008B4DA9AC14B3B635927AA7781CFE8000A4
:10289000E68756856BD24245FE4A4CBF71836883FA
:1028A000AF4B7FA8647E877F827884827C80808023
:1028B000807F7F807D7C797E8C788CA26F78796533
:1028C0007155A5BA5EC2B141674C726B4EFDB456EC
:1028D000D4743A5049A7657EFF7E6A9E5A61587A41
:1028E000A76E93A8727B7D777C7983837E808080BE
:1028F000807F7F817E807E838E687B9B6584967DD2
:102900008148A0AF30B5AA2E817BB28C2FE16B033A
:10291000DF9A6C845DB54457FF5A4EA96883748D65
:10292000AC4C789F69838A7F807783827D808080AA
:1029300080807F807D7D7B808C77879D727D7F68A6
:102940006C519FBA6BC2A83B5F517E7A57E9A15187
:10295000D0834C5443976485FF85689155646281A8
:10296000A56C8CA2747E7F787B7883837F80808047
:10297000807F7F807E82818185677FA2747B7A6F72
:102980008E75AC911694BA70986074745EFE800077
:10299000A28C8CA264903D68FC6A488C6D958786F9
:1029A000904B7FA8767D7D7A837E84817C80808039
:1029B00080807F807D7F7D7F857489A37B776E603B
:1029C0007971A9A34EA8B56A7542576B73FFA941E7
:1029D000A77C68714B80598BFF8A60805B76727E22
:1029E00092668FA97C7A77757E7D84827E808080D6
:1029F000807F7F807E81828385677C9D77818070E8
:102A0000876EA6962999B2658C62808365EB70000B
:102A1000A599979F5A813E72FF73498166938D8D68
:102A2000914B7AA27880807B817D83817D808080BC
:102A300080807F7F7D7F7E808673869E7D7C7362B3
:102A4000756CA4A559AAAF626E47637777EF9A3F7A
:102A5000A787737246765990FF8F5F78587778838F
:102A6000926589A37D7D7A767D7C83827E8080805D
:102A7000807F7F8080827B7B8D777F8C648C976F5B
:102A80007567B89B139EC95C6D5FB4A12BAD7F5277
:102A9000D65C47A394A72D5CFF5F3A9E8E965F6D30
:102AA000A86D7F8E68888A7A7D7C85817C80808015
:102AB00080807F807F7F797B8B8089926F84836029
:102AC0006667B1AA4EAFBF5B5542878C4EC2A980E4
:102AD000CC5935716E914F83FF82578D7476556C4A
:102AE000A3808F95728281757A7C84827E808080BB
:102AF000807F7F8080817C7E8C767C8868909A70D5
:102B00006F62AF9E29A2BD536462BBAC389F704D0B
:102B1000D36F599F86963167FF693E9084936A7799
:102B2000A66B7A8A6B8A8C7B7C7B84817D8080809B
:102B300080807F807E7F7A7D8B7E868F72888662A2
:102B40006362ABAB59B1B75450478F9556B69A797B
:102B5000CA67447267854F88FF8857846E775E73B3
:102B6000A27D899174858376797B84827E80808042
:102B7000807F7F7F80837F7D85737F92738784676B
:102B80007D80B88A138BC8817B5089945AC17F3D60
:102B9000A66A75B3857E2D72FF733B7E83A07A741F
:102BA00091647F95758481787F8085807C8080802A
:102BB00080807F7F7F807C7C867B87957982775D34
:102BC0006F7AB29A439EC078643C6D856DCEA267E1
:102BD000A8645C866975498DFF8C527770846B712F
:102BE00092758C997A817C747C7F84817E808080D0
:102BF000807F7F7F7F82807F85737D8E758B8869E4
:102C0000787AB18E2490C0777254929D61B5733BEF
:102C1000A77780AF7B733079FF7A3D767C9D807B90
:102C200092637B91778783787E7F84807D808080AC
:102C300080807F7F7E807D7E867A85927B857B5FAC
:102C40006C75AD9C4EA0BA715F40768E71C3966371
:102C5000A96F6686636D4A91FF8F52716C8371779D
:102C6000937488957B837E757B7E84817E80808053
:102C7000807F7F8181807980916E7598777E797E63
:102C80009F5C819F53A4824BB47C717A65D9522496
:102C9000F68535839CBA2B56FF5939AC9382558201
:102CA000B65A6F9C787E7D7F877A80817E80808017
:102CB000807F7F807F7D787E8E79819B7D796D6B33
:102CC000855E89AD7DB38C4E8957567079E2885FF9
:102CD000E377285A749F4D7EFF7E559778684D7B29
:102CE000AD72839F7E7C7779817A80827F808080BD
:102CF000807F7F8080807B82906E739379837F7EDC
:102D000095577EA263A77E44A47C7E896CC7472525
:102D1000EF9349838DA72F62FF643C9E8982608A6E
:102D2000B35A6B977A827F7F84797F827F807F809E
:102D300080807F807F7D79808E797F977F7E726CA7
:102D4000805A86AE85B48849805A627B7DD47C5A8D
:102D5000DF82385D6C924E84FF84568E726A568193
:102D6000AC707E9B7F7E7979807A80828080808043
:102D7000807F7F8080817D81896C779B827C6D7371
:102D80009D778E8E44909274B266557687E45C1A75
:102D9000BE89679B8B8D2B6DFF6F398A88917184FB
:102DA0009D5673A0827D777B867E81807E80808029
:102DB00080807F807F7F7B7F8876819D8579656637
:102DC0008873919D6AA1966D8F4D456E8FE9864CF3
:102DD000BB7C51736E804889FF8851807478657E12
:102DE0009B6A82A1847B7477827E81817F808080D0
:102DF000807F7F8080817E82896D759783807274E9
:102E000096728A9152948D6BA56862828AD5531B03
:102E1000BD94739981812F75FF763C81818F788A6B
:102E20009C566F9B8280797C857D81817E808080AD
:102E300080807F7F7F7F7C8088757F99857D6A67B2
:102E4000846F8E9F72A392678750507891DC7C4A82
:102E5000BA865C746878488DFF8C52796F786B8382
:102E60009B697E9D847E7678817D81817F80808054
:102E7000807F7E808281797C8F7977897589837361
:102E8000896D959444979C649066889961A25C5C76
:102E9000E664329BB19E2064FF663097A291537224
:102EA000AF71738B7786817B827D82817E8080800B
:102EB00080807F80807F787C8D80818F7B83776628
:102EC000796B97A26AA79E61744D6C8A72B68680F0
:102ED000DA6028738B8E3F82FF82498A88784D6F33
:102EE000A98082917C827C777E7C82827F808080B8
:102EF000807F7E8081817A7E8E787586778D8774DB
:102F000083689198529B975D866890A26799535801
:102F1000E1724199A391246CFF6E338D988F5C7997
:102F2000AD6F6F887988837C807C81817E80808092
:102F300080807F80807F797D8D7E7F8C7C867B67A3
:102F4000756794A472A99A5C6E50759275AD7C7A7F
:102F5000D76B357483844087FF864B8382785575A1
:102F6000A87D7E8E7D847D787D7C82827F8080803E
:102F7000807F7E7F81827C7D8975798E7F86776C6C
:102F80008C809C883B89A48194596D907DB5634960
:102F9000BC6E5BA99F7E2374FF75327F959A6B761A
:102FA0009B6975917F847C79828082807D8080801E
:102FB00080807F7F80807B7D887C819282816F6230
:102FC0007D7B9C965D99A4797C465B8586C2856BEA
:102FD000B9684B8583763C8BFF8A4778828361741E
:102FE0009A778295818178767F7F82817E808080CA
:102FF000807F7F7F80827D7F8875778C80897B6DE5
:10300000877B988B478D9F798C5B769880AC5B47EC
:10301000BB7965A79575267AFF7B35788F98717C8B
:103020009B68728E80857D79817F82807E808080A2
:1030300080807F7F7F807C7E887B7F9082847363AB
:103040007A779998649BA0737649638C88BA7D6778
:10305000B97154857C6F3D8EFF8D48737D83677891
:103060009A757E9282827A767E7E82817F8080804F
:10307000807F7F827C80867882827F7C7B98617F64
:10308000B3369BBA13C3A313D7803CBF71727F8E34
:103090008E3DC88020F85732FF395EDC3D7FA95D48
:1030A0008685807B7C8F727F8B7482837C8080801E
:1030B000807F7F817B7C807883898B88818A5A6836
:1030C0008D469CC25BCBA42A96512C9B859FB3B2A4
:1030D0009944874E18C17370FF7175B2386084616E
:1030E0008B95928A81866E78837782837E818080B9
:1030F000807F7F827B80867B82807B797D9C6C7FDA
:10310000A43594BB2FC39A11BD8054C979686C80D3
:103110009259CE801DD75746FF4B5DC23B7FAC6CAA
:10312000888078787E91777F887482837D808080A4
:10313000807F7F817B7D817B84878785838E626AA8
:10314000864396C268CB9D278A563EA58994A0A641
:103150009B56915217AF7078FF7972A437638A6AD1
:103160008C8F8B8682887278817682837F80808044
:10317000807F7F817C81887B7C7A7F87878E597175
:10318000AB64A39C13A0AE56CA6428A6989C7F6229
:103190006657DC9E2EAE4B59FF5D54A34793B46B2C
:1031A0007473808986896E7B8A7B83817C80808032
:1031B00080807F807C7E837B7F82898E898655623A
:1031C0008F64A1AA4CB0AB579A4621909EB5A88BAC
:1031D0007A55A46E24966480FF8069914075946A44
:1031E0007D848E9188836C76837B83827E808080D1
:1031F000807F7F807C81887D7D797C8488926172EC
:10320000A15E9D9F28A4A54EB8663CB09A91715CC2
:103210006D69DF9B2B9C4C65FF6755954591B67496
:1032200077717A85878B727B877A82817D808080B7
:1032300080807F807C7F837C7F80868B8A895C64B2
:1032400089609DAC58B2A551904B30999FAA9A8342
:103250007D63AA70228A6386FF8568883F769871AD
:103260007F81898D88866F77827B82827E80808055
:10327000807F7F817E818275838A7F71789F75715F
:103280009256ADA513AABA439F6467D2684B7FB527
:1032900098299A9E5DC33D4EFF5248B367938E5363
:1032A0008B96806E79937B7B847984827C8080800E
:1032B000807F7F807D7E7E77848D897E7E926A622C
:1032C0007C5AA9B14CB8B5487A464FB07A79A8C8AB
:1032D0009E33726E47A65A78FF78609D587578586D
:1032E0008E9D8E7D7E8B76767F7A84827E808080B6
:1032F000807F7F817E81837883877C707AA17B72D7
:103300008A52A6A728ADB13D926675D76F4771A7BF
:103310009A40A39B55B03F5AFF5E4AA46291945FC6
:103320008C907A6D7B957D7B827983827D80808095
:10333000807F7F807D7F7F78848B867C7F956F64A4
:103340007857A3B258B8AE43734B5BB77E739ABC41
:103350009F447C704299597EFF7E609355767E61D2
:103360008E98897B7F8D78777E7983827E8080803E
:10337000807F7F807E8284787E827F7C82966A696D
:103380009372AF921395BD6CA1544EBB88747F8B22
:103390007742B4AE5B953A67FF694590669D9D6044
:1033A0007B84807C828E7578847D84817C80808023
:1033B00080807F807D80817980868784858D635E33
:1033C000816FABA042A5B868823F40A49092A1A3B0
:1033D00083458E8449875283FF835A855A82886148
:1033E000818E8C8584887375807D84817E808080C9
:1033F000807F7F807E82857A7F807D7B83996F6BE3
:103400008D6DA9962499B56496575BC18B6E7483B4
:103410007B52B9AB54893C6FFF704787629BA068B1
:103420007D817B7A838F7879837D84817D808080A4
:1034300080807F7F7D80817A8085858386906860AB
:103440007D6BA7A24CA7B2627C434BAA928B959C42
:1034500086519484457E5288FF875A7E57828B68B6
:10346000828B8883858A75757F7C83827E8080804D
:10347000807F7F827E80807A8881757D8A91587F67
:10348000BB4B78AA51AF7632E48026ADA076548A41
:10349000B650887F65D63B48FF4D46C16D7F846737
:1034A00099846F7C898A6D7F8D777F827E807F8013
:1034B000807F7F817D7D7D7A878781868B88556D32
:1034C0009B5282B47ABB833CAD5B1F95A49888A8BD
:1034D000B45065584DB45873FF745FA75C6771674B
:1034E000989082888A856C79867880837F808080B6
:1034F000807F7F817E80817C8880737B8B94617FDD
:10350000AF4876AB60B1742ED0803AB6A16E4980D8
:10351000B563937F5CC03D55FF5948B1677F8B71A0
:1035200098806C7A898D717F8A777F827F807F8097
:10353000807F7F807D7D7E7C87857F848C8B5C6EA9
:10354000944F80B582BC8038A25E2F9DA4907C9E53
:10355000B45E705B48A6587AFF7A5E9D5969776EB3
:10356000988C7E858A876F7A84788083808080803B
:10357000807F7F807E81837C827B7886918B537471
:10358000B36A86964399885FD76A1C9EB4965D6934
:103590008E60A69761A33862FF64449B6A8E956F24
:1035A000867673878E876B7C8B7C80817E80808023
:1035B00080807F807D7F807B8381818C9085526736
:1035C0009A698BA368A88F5EAC50188DB2AC8689BF
:1035D000955D83714E925180FF80598E5D77816E2B
:1035E0008A83828E8E836B78867C81827F808080C6
:1035F000807F7F807E81837D827A7683908E5A75EC
:10360000AA658399509C8558C86B2CA6B38D5464C9
:10361000916EAC955A963A6AFF6C4691658D997693
:10362000877470848E896F7C897B80817E808080A6
:1036300080807F807D7F807D83807F8990885869AE
:10364000956589A470AA8B58A3532695B2A37C8351
:1036500097688A7249895185FF8459865A7786739B
:103660008A817E8B8E856D78847B80827F8080804E
:10367000807F7F8180817E78878778748498697461
:10368000A05F8E9D43A19250B66A4DC08F565DA932
:10369000B43C729785B42D59FF5C3BA8838E785D4E
:1036A00098917372848F757C877B81817E80808006
:1036B000807F7F807F7F7C78878B817E878F636729
:1036C0008B6191A868AE965292503FA8957A86BBBE
:1036D000B3415A716A9F4879FF79519871776A5F4F
:1036E0009798827E86897278827B81827F808080B3
:1036F000807F7F807F817F7A87857673859A6F75DB
:10370000985C8B9F50A38E4AA96B59C59153549FC7
:10371000B44D7D957CA63062FF653D9D7D8D7E65B7
:10372000988D70718490787C857A81817E8080808C
:10373000807F7F807E7F7D7A87897F7D87916869A2
:10374000865D8EA970AF934D8B534AAE97757CB250
:10375000B34D64726495497EFF7E52906D777066BA
:1037600097947E7C868B7578817A81827F80808039
:10377000807F7F807F82817A8381797D8B92626D69
:103780009E75958F3A919C70B35C3DB0A27664892A
:10379000944D8FA67C912D6BFF6D3B8D7D98886538
:1037A0008983757D898B727A867E82807D80808018
:1037B00080807F807E807F7A838581848B8B5E632F
:1037C0008D72979B5B9F9D6B9649349EA48F859EBF
:1037D000994E758367864483FF834E846E827A6632
:1037E0008B8C82848A877076837D82817E808080C4
:1037F000807F7F807F82817B8380777C8B94676EE4
:103800009870929246949869A95E49B6A3715C82B9
:10381000965996A375873071FF733D8578968C6CA9
:103820008A81727B898D747A857D81817E8080809A
:1038300080807F7F7E807F7B84847F828C8E6265A8
:10384000896E949D63A19A668F4C3EA4A4897D984D
:103850009A587C83627E4587FF864F7E6B827E6BA3
:103860008C897F838A887277827D82817F80808045
:10387000807F7F827E7D817F83787F8A7881768F4B
:103880008F41AEAD13B3BC239A9E6B8367A47F5A5E
:10389000987C965F62E73B44FF4946CE6B6B8C7E1B
:1038A0008B70808B79807B85837684827C8080801E
:1038B000807F7F817D7C7E7E848089907D7C6B791A
:1038C0007B4AAAB64BBEB6307873527679BAA784D3
:1038D0009E7170414BC1576FFF705EB25B58777835
:1038E0008E818E927E7D767D7E7784837E808080C1
:1038F000807F7F817E7E828184787C867A867C8EC2
:10390000883FA7AE27B5B3208E9B778F6E997155F0
:103910009B8A9F625AD13D51FF5548BD656D918587
:103920008C6E7A887B837E84817683827D808080A2
:10393000807F7F817D7C7F7F847F858D7F80717993
:103940007748A5B756BEB02D71745E817DB0997D64
:103950009F7C7A4547B35775FF765EA7585B7D7E9F
:103960008E7E898F7F80797D7D7783837E80808046
:10397000807F7F817E7F84807E747F90827F6B8159
:103980009161B099139DBF529D82527D87BA7F4548
:103990007882B07D5FB2385EFF6144A6697E9B810C
:1039A0007C678092827F7680847B84817C8080802B
:1039B000807F7F807D7D817F807C8793857B657123
:1039C0008062ACA541AAB953806443748FC7A06CD0
:1039D00084778C5D4C9E507CFF7C58975C6A867B1C
:1039E00081778B97847D737B807B84827E808080CF
:1039F000807F7F807E7F84817F747D8D83837181D2
:103A00008B5DAA9C23A0B74C93825E888AAF7442D8
:103A10007C8DB67D58A43A66FF68469B647E9E8680
:103A20007E667B8F82817980827A84817D808080AE
:103A300080807F807D7D8180817B8491857F69729C
:103A40007C5EA8A74BACB34F7A664E7D91BE95675E
:103A50008681926048945081FF81588F596B8A808B
:103A600083768794847F757B7F7A83827E80808053
:103A7000807F7F81807F7F7C84807F7F768B808149
:103A80007E57B8A013A4C8437D82819E637C7F8348
:103A90009D5F7E7D82C32D55FF593BB3817E7E6F36
:103AA0008D81807E778780807F7985817C80808012
:103AB000807F7F817F7D7D7B858587867B85757116
:103AC000715AB2AA41B0C1486764688E7397A09DCD
:103AD000A15C645D68AB4875FF7651A16F6A706D3B
:103AE0008F8C8B877C837B7B7C7A85827E808080B9
:103AF000807F7F817F7F807D847F7D7D788E8481C4
:103B00007954B1A223A7C03F75828AA66876747CD7
:103B10009F6D877D79B3305EFF613DA77B7E8476A4
:103B20008E7E7B7C798982807E7984827D80808094
:103B3000807F7F807E7D7E7D858484847C88797291
:103B40006E57ADAB4BB1BB4462667195769095965E
:103B5000A2676D6063A0487AFF7B52986B6B7573A8
:103B60008F8987857D857C7B7B7984827E80808040
:103B7000807F7F807F81827D807B7F857F88757855
:103B8000836DB7921394C864857069957D957F6A3B
:103B9000826998907A9E2D67FF693B967B8A8D7427
:103BA000817780867F857B7D807D85817C8080801C
:103BB000807F7F807E7F7F7C8180868A82836E6C1F
:103BC000766CB39D3AA2C262705A588986A79B85CB
:103BD0008A657D726590447FFF7F4E8C6D777E7223
:103BE00084828A8C818277797D7C85817D808080CA
:103BF000807F7F807F80827E807B7D83808A7978D2
:103C00007E69B2942097C15F7E71729C808E7666C9
:103C100085749E8F7393306EFF6F3D8F7789917A95
:103C200082757C8480867D7D7F7C85817D8080809F
:103C300080807F807E7F807D818084898286716D97
:103C40007468AE9F44A3BC5D6B5C608F88A092805B
:103C50008C6E837260884583FF834F866A77827695
:103C60008580868A8283797A7D7C84817E8080804B
:103C7000807F7F81807E7E7F877A788784806A8C50
:103C80009D4E90A342A89537B19750828D9C5E625D
:103C9000B47D706688D12C51FF5539BD866F777E13
:103CA0009873738983807683867881827E80808012
:103CB000807F7F817F7C7C7E8780818D867D647A1A
:103CC000895393AD66B3983E9075427894B08683DD
:103CD000B373594B6DB64772FF7350A9735F6A791E
:103CE0009781828F857E737E827981827F808080BA
:103CF000807F7F817F7E7F81877976858584708BC9
:103D0000964C8CA54FAA9033A5965D8C8F94555EEA
:103D1000B4887A687FC02F5AFF5D3CB17F717D8483
:103D20009871708684837883857881827E80808094
:103D3000807F7F817E7C7D7F877F7F8B8780697A94
:103D4000855190AE6EB4943A88754C8195A87C7D6F
:103D5000B37D634F67AB4777FF7851A06F616F7E8C
:103D6000977F7E8D8680757E817881827F8080803E
:103D7000807F7F807F7F81808376798D8A7F63815A
:103D80009C66979539989E5AB082417DA0AF644F4A
:103D900095828C7D7FA92C64FF663A9F7F7E878108
:103DA000896B768F897F7380867C82817D8080801D
:103DB000807F7F807F7E7E7F837C81908B7C5F7322
:103DC0008B6698A05AA49F5A93683776A2BD856ED9
:103DD0009A797462699A437CFF7D4D93706D797C0A
:103DE0008C788293897D717C827C82817E808080C8
:103DF000807F7F807F7F81818376778A8A826881D6
:103E000096639497459A9955A6824C86A1A75C4CD7
:103E1000968B937D779E2F6AFF6C3C977A7E8B857D
:103E20008A6A738C89817580857B81817E808080A0
:103E300080807F807E7E7F80847C7F8E8B7F647499
:103E4000876395A162A69B558D69417DA3B57D6B66
:103E50009B817B6464914481FF804E8D6D6E7D807B
:103E60008C777F91897F737C817B82827F80808049
:103E7000807F7E81817F7D7C8780797F808975814D
:103E80008C5E9D9A399EA64E95826899827D648249
:103E9000B365637D9CB7235DFF6032AA937E6F722A
:103EA0009881767F80867B80827A82817D80808007
:103EB000807F7F80807E7B7C8784818583846D7317
:103EC0007E5F9DA45AA9A6507E68578C8A938599D7
:103ED000B361526281A53C77FF77479C816D657025
:103EE000978A82868282777C7F7B82827E808080B6
:103EF000807F7F81807F7E7E877F777D818C7981C7
:103F0000885B999C45A0A1498D8270A085775C7DD6
:103F1000B3706C7D93AB2664FF6635A08D7E75779C
:103F2000977E737D81877C80817A82817E8080808C
:103F3000807F7F807F7E7C7D87837F838487717491
:103F40007B5D9AA562ABA24C78695F928C8E7D9363
:103F5000B26A5B647B9C3D7BFF7B48957C6E6A7597
:103F600097877F848384797C7F7A82827F80808038
:103F7000807F7E8080807F7D837C7A8486866D7959
:103F80008E70A18F3491AB69987357919491686D3D
:103F9000996D7D8D9199256BFF6D34938B887E761D
:103FA0008B7877858584777D837D83807D80808015
:103FB000807F7F807F7F7E7D848081898883686F1A
:103FC000826EA09A519DAA66835F4B8798A28484D3
:103FD0009C686A747B8E3A7FFF7F458B7C78737315
:103FE0008D81818B8681757A807D83817E808080C2
:103FF000807F7F808080807E837B798387897179D1
:104000008A6C9D913D94A66391735F98958C6169CC
:104010009A76848D89902770FF72368C8688827A92
:104020008C7674838685797D827D82817D80808097
:1040300080807F807F7F7E7E84807F8788856B6F96
:104040007F6B9D9B589FA6627E60538D999C7D805F
:104050009D70707476873B83FF8346857978777788
:104060008D807F898783767A7F7C82817E80808045
:1040700011241FBECFEFD0E1DEBFCDBF12E0A0E024
:10408000B1E0E2ECF4E502C005900D92A832B10770
:10409000D9F714E0A8E2B2E001C01D92AA31B1073D
:1040A000E1F70E944F220C945F2A0C940000789450
:1040B000889518958F929F92AF92BF92CF92DF9280
:1040C000EF92FF920F931F93CF93DF93EC018A89B6
:1040D0009B892D853E85820F931F292F2695269536
:1040E00080913502821748F080913502622F70E08E
:1040F00090E0861B970B459784F0809135028217DC
:1041000008F0D3C0622F70E0809135028B01081B4C
:104110001109053111050CF4C8C08C81A881B98141
:10412000A80FB11D8C91992787FD90952D813E8117
:10413000281B390B3E832D83EE85E695E695F0E04E
:10414000E453FD4F4081842F992787FD9095820F7E
:10415000931F9E838D834C938C81EA81FB81E80FB2
:10416000F11D8081992787FD90952F813885281B27
:10417000390B38872F8364537D4FDB014C91842F9B
:10418000992787FD9095820F931F98878F8340838F
:104190008E88882009F096C09F84ED80FE800027DD
:1041A000F7FC0095102F2F813885442737FD409567
:1041B000542FCA01B9010E948B295B016C01C8010F
:1041C000B701A80197010E948B29A60EB71EC81E31
:1041D000D91E488D598D6A8D7B8D4A155B056C05FE
:1041E0007D05CCF48820B9F489859A85AB85BC859A
:1041F00096018501081B190B2A0B3B0BD901C8013D
:1042000088519C4FAF4FBF4F34F489E08E8B1F8A8B
:104210009A949C829394A986BA86CB86DC868C81FC
:10422000292D30E0215030408F5F8C83815090E009
:104230008217930794F11C828E89882371F18F89EC
:10424000880F8F8B4A155B056C057D0514F4816022
:104250008F8B18861F821E821D82492D50E060E0E0
:1042600070E0888199810E9484294F8550E060E048
:1042700070E08A819B810E9484292D853E858C89EE
:104280009D89281B390B3E872D878E8981508E8B07
:10429000882329F48F898093C6002D853E858889DF
:1042A0009989280F391F3E872D87DF91CF911F9164
:1042B0000F91FF90EF90DF90CF90BF90AF909F90C5
:1042C0008F9008952C8130E09F84892D90E0019794
:1042D000281739070CF061CFAA24BB24650179CFD8
:1042E000BF92CF92DF92EF92FF920F931F93CF93E3
:1042F000DF938FEF87B987E88AB95A9A89E080936C
:10430000810084EF91E0909389008093880080EE93
:1043100091E090938B0080938A0096E090936F00D9
:1043200080E680937C0086EC80937A0088E180931D
:10433000C1009093C20088E092E09093C500809302
:10434000C4002CEC32E040E450E060E070E0C901D1
:104350000E948429ACE0B3E088E3ED0119928A95CC
:10436000E9F786E9E4E8F3E0EF01982F19929A95CE
:10437000E9F7E6E3F2E0EF0119928A95E9F7B090E8
:104380003302ED01CC24DD248B2D90E09C012C57D1
:104390003C4F398328838A5C9D4F9B838A83F60137
:1043A000E05FFE4F208131814281538160E070E403
:1043B0008CE197E40E94DF257B018C0120E030E056
:1043C00040E854E40E94E5240E940F23798B688B17
:1043D00020E030E040E85EE3C801B7010E94E52438
:1043E00020E030E040E854E40E94E5240E940F23DE
:1043F0007B8B6A8BA801970160E070E080E892E413
:104400000E94DF250E94E1290E940F239B01AC013D
:104410002F87B60E70E080E090E00E940D27A80183
:1044200097010E94E52420E030E040E852E40E9439
:10443000872420E030E040E854E40E94E5240E9414
:104440000F237D8B6C8BF601E85EFE4F808191819E
:10445000A281B381888F998FAA8FBB8F19861A8604
:104460001B861C866C96E4E0F0E0CE0EDF1EF3E0C7
:10447000C434DF0709F088CFB0923302789483B751
:10448000817F83BF83B7816083BFDF91CF911F910D
:104490000F91FF90EF90DF90CF90BF9008950F9312
:1044A0001F930E947021109231021FEF01E008C09B
:1044B0008CE093E00E945A2088E293E00E945A2008
:1044C0008091C00087FFF4CF90913102A92FB0E016
:1044D000FD01E050FF4F80818E3FE9F78091C600DB
:1044E000A75DBD4F8C931083992319F4009331027B
:1044F000DFCF10923102DCCF1F920F920FB60F92D6
:1045000011242F933F934F935F936F937F938F93D8
:104510009F93AF93BF93CF93DF93EF93FF935F98F6
:1045200020912802E22FF0E0EC5BFC4F808188B9FB
:104530002F5F2F73209328025F9A90913402E92F06
:10454000F0E0809179008E57E453FD4F8083809195
:104550007A00806480937A00909335029F5F9F7306
:1045600090933402222309F041C0A9E2B2E0C8E0EE
:10457000D1E060E020E030E09EEF17C0808188301D
:1045800009F447C08C9187FD47C080818F3F19F0A7
:104590008C91880F8C9380818F5F80832F5F3F4F3A
:1045A000119621962830310569F0F901E050FF4F4E
:1045B00080818E3F99F380818F3F01F78881682B3E
:1045C0005A98E3CF6093320270E0002476956795A5
:1045D0000794769567950794762F602D60597F4FE5
:1045E00040E450E084E493E00E947B29FF91EF9146
:1045F000DF91CF91BF91AF919F918F917F916F91FB
:104600005F914F913F912F910F900FBE0F901F9090
:10461000189590835A9AC2CF8881682BB6CFEF92B3
:10462000FF920F931F937B018C0120E030E040E06C
:104630005FE40E94892688238CF020E030E040E08F
:104640005FE4C801B7010E9487240E94B9269B013C
:10465000AC01205030404040504806C0C801B7016E
:104660000E94B9269B01AC01B901CA011F910F91AB
:10467000FF90EF900895A0E0B0E0E1E4F3E20C9445
:10468000AA29DC012B01FA019C91923008F439C16E
:10469000EB018881823008F433C1943069F48430AE
:1046A00009F02FC111969C9111978981981709F4EF
:1046B00028C1A0E2B1E025C1843009F421C18230D3
:1046C000A9F4923009F01DC19A01AD0188E0EA0118
:1046D0000990AE01E90109929E018150C1F7E20102
:1046E000898111969C918923818308C1923009F4B4
:1046F00007C112962D903C901397EB018A819B8104
:104700001496AD90BD90CD90DC901797EC80FD8015
:104710000E811F819101281B390BB90137FF04C09D
:1047200066277727621B730B603271050CF061C03E
:10473000121613066CF537014801062E04C0969434
:104740008794779467940A94D2F721E030E040E0B0
:1047500050E004C0220F331F441F551F6A95D2F743
:1047600021503040404050402E213F2140235123D2
:10477000211531054105510521F021E030E040E0EF
:1047800050E079018A01E628F728082919293CC058
:10479000232BD1F1260E371E35014601062E04C00B
:1047A00096948794779467940A94D2F721E030E046
:1047B00040E050E004C0220F331F441F551F6A958C
:1047C000D2F721503040404050402A213B214C211B
:1047D0005D21211531054105510521F021E030E031
:1047E00040E050E059016A01A628B728C828D92816
:1047F0000BC0821593052CF01C01AA24BB24650173
:1048000003C0EE24FF24870111969C91D2011196DA
:104810008C91981709F445C0992339F0A8019701A4
:104820002A193B094C095D0906C0A60195012E19FC
:104830003F09400B510B57FD08C011823382228281
:1048400024833583468357831DC081E0818333826F
:10485000228288279927DC01821B930BA40BB50BBE
:1048600084839583A683B7830DC0220F331F441F13
:10487000551F248335834683578382819381019713
:10488000938382832481358146815781DA01C9016E
:104890000197A109B1098F5F9F4FAF4FBF4328F325
:1048A0000BC0918333822282EA0CFB1C0C1D1D1D60
:1048B000E482F5820683178383E080832481358137
:1048C0004681578157FF1AC0C901AA2797FDA095B5
:1048D000BA2F81709070A070B0705695479537953B
:1048E0002795822B932BA42BB52B84839583A683AA
:1048F000B78382819381019693838283DF0101C014
:10490000D201CD01CDB7DEB7E2E10C94C629A0E219
:10491000B0E0EDE8F4E20C94B62969837A838B83E6
:104920009C832D833E834F835887E9E0EE2EF12C44
:10493000EC0EFD1EB701CE0101960E94AA288E0141
:104940000F5E1F4FB801CE0105960E94AA288A89E2
:1049500091E089278A8BAE01475E5F4FB801C7019E
:104960000E943B230E94D527A096E6E00C94D22912
:10497000A0E2B0E0EEEBF4E20C94B62969837A830E
:104980008B839C832D833E834F835887F9E0EF2EE2
:10499000F12CEC0EFD1EB701CE0101960E94AA2853
:1049A0008E010F5E1F4FB801CE0105960E94AA2806
:1049B000AE01475E5F4FB801C7010E943B230E94D2
:1049C000D527A096E6E00C94D229A0E2B0E0EBEE69
:1049D000F4E20C94AA2969837A838B839C832D83C8
:1049E0003E834F835887BE01675F7F4FCE0101969C
:1049F0000E94AA28BE016F5E7F4FCE0105960E94DD
:104A0000AA289985923088F089898230C8F094303C
:104A100019F4823051F404C0843029F4923081F4C6
:104A200080E291E0C6C0923049F420E09A858A89FC
:104A3000981321E02A87CE010996BBC0823049F441
:104A400020E09A858A89981321E02A8BCE0141962D
:104A5000B0C02D843E844F8458886D887E888F88AE
:104A6000988CEE24FF248701AA24BB24650140E032
:104A700050E060E070E0E0E0F0E0C1018170907033
:104A8000892BE9F0E60CF71C081D191D9A01AB01F2
:104A90002A0D3B1D4C1D5D1D80E090E0A0E0B0E0C4
:104AA000E614F7040805190520F481E090E0A0E081
:104AB000B0E0BA01A901480F591F6A1F7B1FAA0C59
:104AC000BB1CCC1CDD1C97FE08C081E090E0A0E080
:104AD000B0E0A82AB92ACA2ADB2A3196E032F105C9
:104AE00049F0660C771C881C991C5694479437949F
:104AF0002794C3CFFA85EA892B893C898B859C85CD
:104B0000280F391F2E5F3F4F17C0CA018170907068
:104B1000892B61F016950795F794E79480E090E073
:104B2000A0E0B0E8E82AF92A0A2B1B2B76956795B6
:104B3000579547952F5F3F4F77FDE7CF0CC0440F48
:104B4000551F661F771F17FD4160EE0CFF1C001FED
:104B5000111F21503040403090E0590790E0690724
:104B600090E4790760F32B8F3C8FDB01CA018F77CC
:104B70009070A070B07080349105A105B10561F40A
:104B800047FD0AC0E114F1040105110529F0405C5C
:104B90005F4F6F4F7F4F40781A8EFE1711F081E004
:104BA0008A8F4D8F5E8F6F8F78A383E0898FCE01C0
:104BB00049960E94D527A096E2E10C94C629A8E167
:104BC000B0E0E5EEF5E20C94B22969837A838B8339
:104BD0009C832D833E834F835887B9E0EB2EF12CC5
:104BE000EC0EFD1EB701CE0101960E94AA288E018F
:104BF0000F5E1F4FB801CE0105960E94AA28298595
:104C0000223008F47CC03989323010F4B8017AC0FF
:104C10008A859A8989278A87243011F0223031F4D5
:104C2000231709F06CC060E271E06CC0343039F4D5
:104C30001D861E861F86188A1C861B8604C032307D
:104C400021F484E08987B7015DC02B853C858B8981
:104C50009C89281B390B3C872B87ED84FE840F85AC
:104C60001889AD88BE88CF88D88CEA14FB040C055F
:104C70001D0540F4EE0CFF1C001F111F2150304099
:104C80003C872B8720E030E040E050E080E090E07F
:104C9000A0E0B0E46FE170E0EA14FB040C051D0530
:104CA00040F0282B392B4A2B5B2BEA18FB080C0908
:104CB0001D09B695A79597958795EE0CFF1C001FCB
:104CC000111F6150704041F7DA01C9018F77907070
:104CD000A070B07080349105A105B10561F427FD85
:104CE0000AC0E114F1040105110529F0205C3F4FD1
:104CF0004F4F5F4F20782D873E874F87588BBE01DF
:104D0000675F7F4FCB010E94D5276896EAE00C943D
:104D1000CE29A8E1B0E0EFE8F6E20C94B629698369
:104D20007A838B839C832D833E834F83588789E0CE
:104D3000E82EF12CEC0EFD1EB701CE0101960E946B
:104D4000AA288E010F5E1F4FB801CE0105960E9462
:104D5000AA288985823040F08989823028F0B801FC
:104D6000C7010E94222901C08FEF6896E6E00C94EB
:104D7000D229ACE0B0E0EFEBF6E20C94BA296983FB
:104D80007A838B839C83BE016B5F7F4FCE0101963C
:104D90000E94AA288D81823061F1823050F18430E6
:104DA00021F48E81882351F12EC02F81388537FD63
:104DB00020C06E812F3131051CF06623F9F023C02D
:104DC0008EE190E0821B930B29853A854B855C85AB
:104DD00004C056954795379527958A95D2F766234F
:104DE000B1F050954095309521953F4F4F4F5F4F13
:104DF0000EC020E030E040E050E009C02FEF3FEF70
:104E00004FEF5FE704C020E030E040E050E8B90138
:104E1000CA012C96E2E00C94D629A8E0B0E0E3E1C8
:104E2000F7E20C94B4297B018C01611571058105B1
:104E3000910519F482E0898360C083E089838EE163
:104E4000C82ED12CDC82CB82ED82FE820F831887A4
:104E5000C801B7010E948627BC016150704077FFEE
:104E600039C0EE27FF27E61BF70B20E030E040E0DB
:104E700050E081E090E0A0E0B0E00E2E04C0880F8A
:104E8000991FAA1FBB1F0A94D2F70197A109B10964
:104E90008E219F21A023B1230097A105B10521F008
:104EA00021E030E040E050E004C016950795F7940B
:104EB000E794EA95D2F72E293F29402B512B2D83D9
:104EC0003E834F8358878EE190E0861B970B9C832F
:104ED0008B8313C06115710581F0062E04C0EE0CA2
:104EE000FF1C001F111F0A94D2F7ED82FE820F8370
:104EF0001887C61AD70ADC82CB821A82CE010196A5
:104F00000E94D5272896E8E00C94D029EF92FF92D2
:104F10000F931F937B018C0180E0E81680E0F80678
:104F200081E0080780E0180788F48FEFE816F104A5
:104F30000105110531F028F088E090E0A0E0B0E034
:104F400017C080E090E0A0E0B0E012C080E0E8167A
:104F500080E0F80680E0080781E0180728F088E183
:104F600090E0A0E0B0E004C080E190E0A0E0B0E01C
:104F700020E230E040E050E0281B390B4A0B5B0B8D
:104F800004C016950795F794E7948A95D2F7F70130
:104F9000E85DFE4F8081281B310941095109C90193
:104FA0001F910F91FF90EF900895DF92EF92FF9283
:104FB0000F931F93FC01E480F58006811781D18057
:104FC0008081823048F480E090E0A0E1B0E0E82AFF
:104FD000F92A0A2B1B2BA5C0843009F49FC082300C
:104FE00021F4EE24FF24870105C0E114F10401053A
:104FF000110519F4E0E0F0E096C0628173819FEF43
:10500000623879070CF05BC022E83FEF261B370BB4
:105010002A3131052CF020E030E040E050E02AC099
:10502000B801A701022E04C076956795579547955C
:105030000A94D2F781E090E0A0E0B0E004C0880FCD
:10504000991FAA1FBB1F2A95D2F70197A109B10981
:105050008E219F21A023B1230097A105B10521F046
:1050600081E090E0A0E0B0E09A01AB01282B392B61
:105070004A2B5B2BDA01C9018F779070A070B0705A
:1050800080349105A105B10539F427FF09C0205CE2
:105090003F4F4F4F5F4F04C0215C3F4F4F4F5F4F1B
:1050A000E0E0F0E02030A0E03A07A0E04A07A0E40A
:1050B0005A0710F0E1E0F0E079018A0127C060387A
:1050C000710564F5FB01E158FF4FD801C7018F77E7
:1050D0009070A070B07080349105A105B10539F4CD
:1050E000E7FE0DC080E490E0A0E0B0E004C08FE3F4
:1050F00090E0A0E0B0E0E80EF91E0A1F1B1F17FFAA
:1051000005C016950795F794E794319687E01695B4
:105110000795F794E7948A95D1F705C0EE24FF240C
:105120008701EFEFF0E06E2F679566276795902F68
:105130009F77D794DD24D7948E2F8695492F462BC1
:10514000582F5D29B701CA011F910F91FF90EF9071
:10515000DF900895FC01DB01408151812281622FA3
:105160006F7770E0221F2227221F9381892F880FDB
:10517000822B282F30E0991F9927991F11969C9315
:10518000119721153105A9F54115510561057105E5
:1051900011F482E037C082E89FEF13969C938E93C0
:1051A00012979A01AB0167E0220F331F441F551F6E
:1051B0006A95D1F783E08C930DC0220F331F441FF3
:1051C000551F12968D919C911397019713969C935E
:1051D0008E931297203080E0380780E0480780E403
:1051E000580758F314962D933D934D935C9317975E
:1051F00008952F3F310579F4411551056105710579
:1052000019F484E08C93089564FF03C081E08C93CB
:1052100012C01C9210C02F57304013963C932E930F
:10522000129783E08C9387E0440F551F661F771F0A
:105230008A95D1F7706414964D935D936D937C932A
:10524000179708951F93DC01FB019C91923008F49D
:1052500047C08081823008F443C0943051F41196E5
:105260001C91843099F58181682F70E0611B710970
:105270003FC0843021F0923031F48230B9F1818125
:10528000882389F12DC011961C9111978230F1F07D
:1052900081811817D9F412962D913C911397828130
:1052A00093818217930794F028173907BCF014965E
:1052B0008D919D910D90BC91A02D248135814681C9
:1052C0005781281739074A075B0718F4112341F063
:1052D0000AC082179307A407B50740F4112319F0F9
:1052E00061E070E005C06FEF7FEF02C060E070E04A
:1052F000CB011F910895FB01DC0102C005900D92C6
:1053000041505040D8F70895DC0101C06D934150E1
:105310005040E0F70895629FD001739FF001829F93
:10532000E00DF11D649FE00DF11D929FF00D839F34
:10533000F00D749FF00D659FF00D9927729FB00DD1
:10534000E11DF91F639FB00DE11DF91FBD01CF01E4
:10535000112408952F923F924F925F926F927F9205
:105360008F929F92AF92BF92CF92DF92EF92FF9275
:105370000F931F93CF93DF93CDB7DEB7CA1BDB0B21
:105380000FB6F894DEBF0FBECDBF09942A883988C6
:1053900048885F846E847D848C849B84AA84B984CD
:1053A000C884DF80EE80FD800C811B81AA81B981D9
:1053B000CE0FD11D0FB6F894DEBF0FBECDBFED01ED
:1053C00008953DD080F09F3740F491110EF44FC006
:1053D00060E070E080E89FE3089526F01B16611DF1
:1053E000711D811D01C01BC0882371F4772321F03A
:1053F0009850872B762F07C0662311F499270DC08C
:105400009051862B70E060E02AF09A95660F771F26
:10541000881FDAF7880F9695879597F908959F3F2B
:1054200049F0915028F4869577956795B7959F5FD9
:1054300080389F4F880F9695879597F9089525D0C6
:10544000A0F0BEE7B91788F4BB279F3860F41616A2
:10545000B11D672F782F8827985FF7CF86957795AE
:105460006795B11D93959639C8F30895E894BB27C5
:1054700066277727CB0197F9089557FD9058440F79
:10548000551F59F05F3F71F04795880F97FB991FA3
:1054900061F09F3F79F08795089512161306140660
:1054A000551FF2CF4695F1DF08C0161617061806ED
:1054B000991FF1CF86957105610508940895F894B8
:0254C000FFCF1C
:1054C200FEFEFEFEFEFEFEFE0102040810204080EB
:1054D20000007A450080BB45C40900001027000087
:1054E20000000000000000000001020203030303A9
:1054F2000404040404040404050505050505050562
:105502000505050505050505060606060606060641
:105512000606060606060606060606060606060629
:105522000606060606060606070707070707070711
:1055320007070707070707070707070707070707F9
:1055420007070707070707070707070707070707E9
:1055520007070707070707070707070707070707D9
:1055620007070707070707070808080808080808C1
:1055720008080808080808080808080808080808A9
:105582000808080808080808080808080808080899
:105592000808080808080808080808080808080889
:1055A2000808080808080808080808080808080879
:1055B2000808080808080808080808080808080869
:1055C2000808080808080808080808080808080859
:1055D2000808080808080808080808080808080849
:0855E200080808080808080881
:00000001FF
