:100000000C9438200C9455200C9455200C945520B9
:100010000C9455200C9455200C9455200C9455208C
:100020000C9455200C9455200C9455200C9455207C
:100030000C9455200C94CC230C9457200C945520F0
:100040000C9455200C9455200C9455200C9455205C
:100050000C9455200C9455200C9455200C9455204C
:100060000C9455200C9455200C9455200C9455203C
:100070008080808080808080808080808080808080
:100080008080808080808080808080808080808070
:100090008080808080808080808080808080808060
:1000A0008080808080808080808080808080808050
:1000B0008080807E7B797D88929589715A5469927F
:1000C000B9C5A97036203F86D0F3D68730021968AB
:1000D000C4FBEEA64C111550A0D8DCB070403856C9
:1000E00083A6AE9D826D68707D858784807F7F80CA
:1000F00080807F7E7D8084878278717586969580EA
:10010000655D7398AD9C704D537FAFB9935A405A5B
:1001100093BCB27F4E476EA0B59D71555D7F9D9F8C
:1001200089706874858D8980797A7E8181807F80ED
:1001300080807F7D7B7B818A8F897C6E6A717F8CDA
:10014000959894866C51486199D0DDAD560F0B554A
:10015000BDFFF09A390B2975BBD2B6835D53627827
:100160008890908C857C767579808484817F7F806F
:1001700080807F7F81837F787B898B796B7D98916D
:100180006B5F87AA8D575B99B57F4662ADB56C40B2
:1001900074B9A85B4787B994545894AC825A6C964A
:1001A0009979687A8F8A79768085817E7E80808051
:1001B00080807F7E7D7E7E808A958E70575F81995C
:1001C000999AA292561F3896DFD19470684D2941B2
:1001D000A8FFEA8133375C6D78A3D0C176383F72CF
:1001E000949690918C796A6E7E8886817F7F7F80DD
:1001F00080807F7D7F83847F7E827D6F7293AD91CF
:10020000503D7BC2BB734B67887F769CC0902C1A95
:1002100087F6DB5B164FA7B58A768581605A89B56C
:10022000A369516F949783767A80807F80808080E5
:1002300080807F7D7C7E8184898C836F64738C92C7
:100240008581939B78464176AFBCA89378461D3D47
:10025000A8FFEA802C2B5C8396AAB49A664A5F8634
:10026000948880868C8275727B83848280807F8074
:10027000807F7F80837C7989886E789B825A87AD66
:10028000694FA7AE455BCB95277FDE6723B0D23998
:100290003ED5AA216DDE7A289AC95648B1A44D6C84
:1002A000AD855A849A776F8988797C83807F7F8037
:1002B00080807F7F7F797A8A908281876A4E77A655
:1002C000958CB2922F2F86917BC6EE75175173468F
:1002D00082FFDD5D55763B2DA4E39F7B946F355AFD
:1002E0009E9A8594916F677B837F8284807F7F80D5
:1002F00080807E7F817C7E8E896A6C8E877299A7D2
:10030000553798BE7478B4660B7FFC9D408A902167
:1003100058FFD22D45A16B50C5DA4F298DA06D8AAB
:10032000B0774A799C84798782757C84817F7F80CD
:1003300080807F7E7E7B7E8B8E7E79817264839EC1
:100340008479A19A574E7D7567B6EC93374A584128
:100350008AFFE065475D424FB5DB91687F7354715A
:100360009B8D798A9079717C7F7D8184817F7F806C
:1003700080807E7F84807981837884926F5C9CB753
:100380005937AACE583AA2A9617FA05056DAB708C9
:100390003BFFCA0B3DDBAD44719E6D75AE7F418264
:1003A000C07E497FA5816B7F887E7E817F7F808034
:1003B00080807F7F7F7C7B848A868682655784A647
:1003C000867AAAA2472D739996B7BB6943746C3499
:1003D0007BFFDC53437C654987BBA29191613C6DF7
:1003E000A491798D9577697883828282807F7F80DE
:1003F00080807E7F81807E85847679867874A1A7CF
:10040000543796C680618E7D4E7FB5826EA87F146C
:100410005BFFD42D329C956A96A8695D8B7F6695AB
:10042000B2754B779D89777F817B7E81807F8080CD
:1004300080807F7E7F7D7E868A827F7E6C688C9FB7
:100440007B6E9EA663476F8180ACC284566857332B
:1004500084FFDF5B3B6663609BBB967D8067547D5A
:10046000A1887186937E7179807F8182807F7F8071
:1004700080807E80848077808F80687FA07F557F9A
:10048000B47F417FC87F2E7FD87F217FE3801A7F92
:10049000E6801B7FE180237FD580337FC380468049
:1004A000AF805A7F9B806C808B80797F82807F8039
:1004B00080807F7E7F7C7985958D77767C64578B75
:1004C000C4AB73767F442484E9C77A848C3100718D
:1004D000EACD86979C3B0362C9B78A9EA0582F65D8
:1004E0009F9885929274657685838082817F7F80D4
:1004F00080807F7E81807C858E7A62789D916F7FFF
:1005000094654693DA953558A17F5BACDB63006256
:10051000DEAE597FA5542B99EA97395E997F699889
:10052000AB735176998A7880847B7A8182807F80D0
:1005300080807F7E7E7C7C879186727480756B88DC
:10054000A79070849560336BBBB6929F9232006225
:10055000DAD79C927E301879D1B880828861507A3F
:100560009C8A7988907D707881808082827F7F806C
:1005700080807E7F848378798987767A8A7D718E80
:100580009A6451A3C85D1C95F77F0067F9AC194ABE
:10059000CBB04D61A2866291A35F50A5BA603F9235
:1005A000BD7A4D7BA4886A788A847C7E80807F8037
:1005B00080807F7E807E798091917E737165699461
:1005C000B295788E87321792FFC15A73A557004DA6
:1005D000DAE79C8179452F70AA9C94B49E462B74CF
:1005E000AB92788E997B637185868181817F7F80D4
:1005F00080807E7E82827C7F89816D748C8D828CEE
:10060000835151AEDA77236EC37F3793F18B003974
:10061000CCD179667A5E5BA4C1794E8098665EA57E
:10062000B9704574A190747984807C7F81807F80CB
:1006300080807F7E7F7E7C838E8A78727775778FCD
:100640009B81749699502777CFB37890A54F004837
:10065000CFEBAC8065393982B8A3899688534B8536
:10066000A6876F8596826E748182808181807F806B
:10067000807F7E80877C7089976E619BA25A5DAD7A
:100680009E4F69AE8D5B7A95807F7F6786B06C39AF
:10069000A5D54621CFDE1E28EFC90A48F4A4136C65
:1006A000DD853584B6775B8994797683827F7F8018
:1006B00080807E7F8179758A998272877E4E5DA661
:1006C000B58C8B925B2F5491B1C6B475535135469E
:1006D000C0FFA05D9076022DD8E3707BBD6F125AEB
:1006E000BB9A6E94A26F5B7B8A7F7E84827F7F80C1
:1006F00080807E7F847D778C946C5C8D9F7475A3E5
:10070000823F64B7AD796F695D7FA49A94883F2C6E
:10071000ACF17A36979D2655FFD01833C09C42899C
:10072000CF783379AE846B878B767783837F7F80B6
:1007300080807E7E807B798B957E6E8181646F9ECA
:100740009C79839A794E577591B6BF93664A274133
:10075000BBFFB165755D164FDDDB6D689F7338714A
:10076000B28D678A9D79687C857D7E84827F7F805B
:1007700080807D7F8780718191786F928C5C77B764
:10078000883772CE983A59A9B07F4C50AEDA5D08DE
:1007900096FF700B94DB5B44BC9E2975EA7F0E824A
:1007A000EA7E287FBE81597F927E7881817F7F801B
:1007B00080807E7F817C778492867B82745770A64E
:1007C0009F7A8CA26A2D4C99C0B78D6973743B34A3
:1007D000ACFFAC53717C3949B0BB7D91B161206DE8
:1007E000BA91678DA277607888827F82817F7F80CF
:1007F00080807E7F848078858E766B868C7487A7D8
:1008000075376EC6AD615B7D857F7982ACA83F147C
:100810009CFF942D6F9C5B6ACCA8395DB57F429597
:10082000D0753377AF896B7F897B7A81827F7F80B8
:1008300080807E7E807D7A869082767E79687B9FBE
:100840008F6E85A67F474F81A3AC9D847C682F3334
:10085000ACFFB85B61663F60BCBB787D9B673D7D4C
:10086000B38862869E7E6979847F7F82817F7F8064
:10087000807F7E81837B7A8C856A7F9E745A9BA55C
:100880005062C28B2E8DD6542FC9BE1E5DF0800ED5
:10089000A3E63D30D8B01D70DF712DA4BD4E59B414
:1008A000905080A476688C8C757B86807D8080805B
:1008B00080807F7F7F797B8B8D7F85896452839F4A
:1008C0008596BD7D28518C6B80EAD44C3F784531AC
:1008D000BBFF9868945C0B5CC9AA86B0993F4186BF
:1008E0008B7B9AA57B68797E788088827F7F7F80EA
:1008F00080807E7F817C7E8F866974907C74A69DCB
:10090000454DAB9C63A0B7351DB9D76073BB4D088F
:10091000ABFF73419E79248DF58C337B955878C15C
:10092000944E6D937C789189727884817F808080E9
:1009300080807F7F7E7A7E8C8C7C7D826C658C99BA
:100940007882AB894F6882586BD4D871556935313C
:10095000B7FFAA6D7A4B1C72D1AE7E92854D5C9228
:100960008D758A987F737F7E777E85827F807F807A
:10097000807F7E80837F7B83807788916962A5A753
:100980004E53B5A64F6CA3736CB4832487F77100E4
:1009900091F36C2C97A86283A55953BAAE4156B611
:1009A0009E596F96847684827880867F7D80808051
:1009B00080807F7F807C7C8589848984605A8DA13A
:1009C0007A83B4914048797A98D5A94A61924824AB
:1009D000A9FFA55D77673C6CA6908EBA953C458FC4
:1009E00094798A9B8371787A7A8387817E7F8080ED
:1009F00080807E7F817F7E8682747E887175AAA0CA
:100A00004848A4AD7380935856AA9E5791CA4F0286
:100A100099FF8E3C767F5D95BD725396914D6FBD6B
:100A20009D57648B86808981767D84807E808080DE
:100A300080807F7E7F7D7E878880827F6869939BB0
:100A40007176A6975C5C746883C6B4696D813A263A
:100A5000A9FFB2636656427CB39886A085475A9830
:100A60009474809284797D7B788085817F8080807A
:100A7000807F7E81847A778E89657BA7794D98B84F
:100A8000504AC8A72070EE700DB1EA2D29EDB802CA
:100A90006BFF6F09AFE1393AD3A82C73CB7743963C
:100AA000AA63669B8B6A7D8E7E7882827E7F808041
:100AB00080807F8080797A8C8D7880916C4F85A939
:100AC0007A7CBD91284FA8795BCDE4512B8E772A93
:100AD0008FFFA348878D2942BFBC738CA6603E7CE4
:100AE0009B7E839C886B74827D7D84837F7F7F80E7
:100AF00080807E80827B7B8E886874987E649DAACD
:100B00004E46B0AA4F82CB5A11A5E95F48BF890E65
:100B10007AFF8E268AAC415BDAAD3860A77961A195
:100B2000A462608E8B76828B7B7781827F7F8080D0
:100B300080807F7F807A7C8C8C777B8B715E8BA2B0
:100B40007271AF9746609C6952C0E46C3F7F632B23
:100B500094FFAF5175773157C7BD707B946552874D
:100B600099797B93887379817C7C8383807F7F8074
:100B7000807F7E80847D79878470829A70579FB34E
:100B80005046BBB33E5EC08144A5B33155EEA000D4
:100B90006AFE881387CD6755A88A4A8DBA66489C35
:100BA000AD67609290747A867F7C82817E7F808040
:100BB00080807F7F817C7A87897D848C68568DA92F
:100BC0007471B69D3B48958374C1C04E489E722196
:100BD00089FFAC44728D4A53A6A57C99A1584184E3
:100BE0009F7C7B968C71747E7E8084827F7F8080E8
:100BF00080807E7F827D7C8885707B917668A2A9CB
:100C00004E43AAB45E71AD6C3D9EBD5965C97F0867
:100C100076FF9C2871A7646BB7944E78A16B5FA494
:100C2000A8655C898F7C7F857C7B81817F7F8080CC
:100C300080807F7F807C7C88897B7F876D6291A3A9
:100C40006E69AAA052588D7368B8C566558F612326
:100C50008DFFB54C667B4C63B1A97889925E538D4C
:100C60009E78748F8B78787E7C7E83827F7F808075
:100C7000807F7E80857C76888D7170948E66769973
:100C8000836C82877989836285B16A3EABCB3B33C3
:100C9000DCC40F4AFCA00075F9761598D65E3FA318
:100CA000AA6066988C707B88807C80807F80808042
:100CB00080807F7F817B7888917F7986785D70984E
:100CC0009A91937E5C5C6670A6D19759797A274495
:100CD000D8E0676EB9650064DBA063A4B04F3884C8
:100CE0009D7C849C886D727E7F808382807F7F80E4
:100CF00080807E7F837D7A8A8D706B8B8F778394E3
:100D0000745D7B9493967A4C6BA8886AADA9252D67
:100D1000D6D84054CA7B0E89FF88207CB3645BAD73
:100D2000A75D5E8D8C7A81867D7A7F8180807F80D1
:100D300080807F7F807B7A8B917D74827B687996BF
:100D40008E828D88706A615C91CCA972816B123839
:100D5000DBF47D6FA24F0073ECAA5F91A052479124
:100D60009F767A958A74777E7C7E828280807F806F
:100D7000807F7E80867F75838C777791806287A75E
:100D8000745388A6836C6973ACB43F24CFF72800F2
:100D9000DAF3242CDDA81F83E3591CBADE412DB6FB
:100DA000C0595496987676828180817F7E8080803B
:100DB00080807E7F817C788590847E846F5A7AA142
:100DC000928398916148547AC0D57E4A8D921A24B4
:100DD000D7FF785DA367136CCD906BBAB43C2B8FB3
:100DE000AA79799B90716F7A7F8384817F7F7F80DE
:100DF00080807E7F847F79868B747088847592A0D2
:100E000067487FAD9D80645889AA6757CBCA140292
:100E1000D4FF533CAE7F2895EF722696B84D4EBD59
:100E2000B9574F8B96807E817D7D80807F808080CA
:100E300080807E7E807D7B878E80797F7469839BB6
:100E400085768F97775C5668A4C690699281142640
:100E5000CFFF8C638A561F7CD39869A09E47459824
:100E6000A67472928F79757B7D80838180807F806C
:100E7000807F7E81867A728D91676DA48E517CB35E
:100E8000754F9BA35671B2724EADA6346EE3730ECE
:100E9000ACF43314E7D80640FFA40474EE7725942D
:100EA000C36651989B6C718D86787E82807F80802E
:100EB00080807E808279768C937877917A4F74A93E
:100EC000907CA391464F867980CDBD51548E4D2A9A
:100ED000BAFF7A48AF8D0342E2BC538CC260267CD5
:100EE000AE7E749C936B6C82827D8183807F7F80D9
:100EF00080807E80847B778D8F6969978E6687A8D6
:100F00006A488FA87582A05C42A3B6607BBC571369
:100F1000ADFA5B2ABAAA165DFFAB1661C679469F89
:100F2000BA634F8D9877798A81777D82807F7F80C1
:100F300080807E7F817A798C9177738B7D5E7DA2B4
:100F4000847199975F60806970C0C36C617F3F2B2B
:100F5000B7FF8C5196771157E4BD567BAC653F8740
:100F6000AA796E9392737381807C8183807F7F8066
:100F7000807F7E80867D74878C70769A815789B356
:100F80006C469AB3645E968172A5823189EE6B00DD
:100F90009FFE5413B9CD3855D48A238DDD662A9C23
:100FA000C6674D929F747086857C7F817F7F80802D
:100FB00080807E7F827C77878F7D7C8C73567EA934
:100FC0008671A09D5448788392C19F4E6A9E4E219F
:100FD000ACFF8944948D2A53C4A56199B9582D84D6
:100FE000B07C6E9695716D7E82808282807F7F80DC
:100FF00080807E7F847D78888B707291836890A9D1
:10100000644390B47C718B6C629E95598FC955086E
:10101000A1FF722899A73E6BDA942E78BD6B47A486
:10102000BC654D899B7C7785817B7E81807F8080BC
:1010300080807E7F817C7A888D7B7887776285A3AC
:101040007D6998A06758757382B8A966738F42232B
:10105000ACFF964C837B3163CAA96189A75E428D40
:10106000AC78698F9478727E807E8182807F7F8069
:10107000807F7F827E7A8A7D70957F60A0874DA970
:101080009438ADA625ABBB16A2D10F93E40F7FF128
:10109000186CF7285AF53C4DEA5147D96548C47594
:1010A00050AF805B9C84698D847584827D80808054
:1010B00080807F807C798483819684677D6C58A052
:1010C000A97FAF8C27647D4ABEE9718E8B0048B042
:1010D0006DB7FC654F83214BCB9793CA69407E6304
:1010E00068AE997C9078667E807D86837E807F80E6
:1010F000807F7F817D7B8B83768A75619D966A9FD9
:101100007B3199AF5EB5A00B78BC4FB9D91050B9FF
:10111000419EFF3E3EAD4072F7734AA25256C98FC0
:1011200062976E5B998D768A7E7382827E808080E4
:1011300080807F7F7C7A858582907D668079689BC0
:10114000976FA2954A75763C9FD989A692033497EA
:1011500079CAFF6940692862D7A189AB5D4A8B765D
:10116000709F8A77907F6F7F7E7B84837F807F8074
:10117000807F7F817F7E87787197886389836CAC5D
:101180007F32A8BC46829144C2BD0078ED5371A560
:10119000299CF82239DD7869AF4064E46E3AA4896D
:1011A0006F9E6E60A08A6983837B84807C80808050
:1011B00080807F807D7C837F7F988967746D69A440
:1011C0009A6FAD9E39546C5DCFDC587E9F28458C5C
:1011D00069CCFF573A86485BAD819AD66D367571FA
:1011E00077A58B7A957E667A818086827E808080E4
:1011F000807F7F807E7E887E758E7E638B907DA3D0
:101200006F2C99BF6D9284319AB1359CE4454D871E
:1012100045BBFF3429A96E81C65E61B65D47AF9AB2
:10122000788F635F9D9174827F7983817E808080D7
:1012300080807F7F7D7C8582809182677879759EB2
:101240008C64A1A35666694EB1CE7195A227357BF9
:1012500075D8FF5D326F4A6EBB8D90B76241828058
:101260007C99807694836E7B7E7E85827F807F8072
:10127000807F7E82817A82847B827B7D956D66B45D
:101280007E37B3B32683D14D5FB1747C8459B19A54
:101290001AA7E2115EFF532CD09045948D748A6E8C
:1012A0007E9F696CA17D678D887580837E7F80803D
:1012B00080807F807E788086858B80777E5D61B13F
:1012C0009968BBA01856A05B8CDB9F815E2776894E
:1012D00051D8FF3C4DAF2B29CDB67DA68359665E14
:1012E00080AA847E9A756283847A84847F7F7F80DB
:1012F000807F7E817F7A85887D7E7277987B73B4CC
:101300006E23ACC14194C72F44B0919F90438B830F
:1013100026CBFF1241DD4941EFA23C7A79749C80D3
:1013200084965B65A4856D8D847280847F7F8080C8
:1013300080807F807E79828885877A74816B6EA9B0
:101340008B5EADA43A68954D78CDAD976B265E79EE
:1013500060E2FF4742913143D6B9788F755F76706E
:10136000849D7A7A987C6A8281798284807F7F806A
:10137000807F7E81817C827F7987827A886C75BC50
:101380007227B6C9316CB95D7FAF536B9F79A47476
:1013900016C8F6003EFF763BB47952AD8F5F7F7B77
:1013A0008D9A5C6AA9836487887881827E7F808039
:1013B00080807F807F7B8083828E857576606FB230
:1013C0008E5EB7AD2B4B8D6AA1D0847575486F6E5C
:1013D00052E4FF363CAC4D3CB29F86B3844F626C06
:1013E0008BA27A7C9D7A637F847D84837F7F8080DB
:1013F000807F7E80807D84837B837A758A7A81B4C6
:101400006722A8CC527DA94969A8718BA4687F6323
:101410002EDCFF112ED26E55C78951917B638E8CC5
:10142000908F5567A68A6D86837780827F808080C3
:1014300080807F7F7E7B828583897F737A6D79ABA5
:101440008256ABAF465C865C8CC4948A7D435B63FA
:101450005FECFF4035924E51BDA5809D7756707967
:101460008C9872799B806A7F817B83837F7F7F806A
:10147000807F7E81817C817E7F8D716CA88446997E
:10148000AC547597749A723FCBB2008BFB3A41C64D
:101490007F738B49A4C81D60F5632DB6995D86796D
:1014A0007F9D6869A28265888A797E817F807F803E
:1014B00080807F807E7A7F82889479698D6E489C57
:1014C000BE7F8C8A54675650E1DE458CB90E1DAB49
:1014D000A0B1BE6883830051EB946CC28C476266F6
:1014E00081A9847C9B79607F867D828380807F80D8
:1014F000807F7E80807D838281876C6AA58F5A95EC
:10150000984870A18EA56C2EA8AA2CA8F23129A704
:101510008995A452859F2376FF7732988363948AB6
:1015200084906066A0896F8785777E8180807F80C8
:1015300080807F7F7D7A8185898F72668F79559BC8
:10154000AE6F85956B75523CC7D85FA6BE040797F2
:10155000A7C9D1696D690062FCA067AA7C4A71764F
:10156000859F79779C7F667F837B828380807F8065
:10157000807F7E80817F807B7D8E7A6D95825F9C6F
:10158000994D7BA67E816359D5A7007BF66345986C
:1015900079929C4481BC4E71C75649C095537B8556
:1015A0008C93626CA2876882887D80807F80808037
:1015B00080807E807F7B7F7F87997E66836C53A649
:1015C000B66F90A05952425BFFE1277ED224108D66
:1015D0009BCFD45567871759DA8176DA8E325871E6
:1015E0008EA7797AA47D5B7A878083827F807F80D3
:1015F000807F7E80807F827E7F8B7368988C699CE1
:101600008C3D75B2938F5C41BFA71697FF5126861C
:1016100083AFB54369A14581E16542AB84538A95A7
:10162000908C5766A58D6D82857A7F807F808080C3
:1016300080807E7F7E7C818287937864867861A2B9
:10164000A46189A771634249DED74598D21D007A0B
:10165000A1E2E259546D1B6CE88E70BD7D3A698041
:10166000919C6F75A384647B837D828280807F8060
:10167000807F7E82837A7D8484826D7DA76E4EB367
:101680009D398DB153839F4E94AF3D7CBF5A749961
:1016900058A6A41498FC1E2FFF901993B575686E78
:1016A0009A9E546DB07D5D8D8E757D83807F7F8029
:1016B00080807E8080787C878C8B75778D5D4DB146
:1016C000B2689EA039567A5BB6DC73818D27468955
:1016D00081D8D13C7BAF0029F5B659A6A3594B5E02
:1016E00097AA727EA87558838A7A8184807F7F80CA
:1016F000807F7E81817B7F86857E6A79A27C62A9DC
:101700008B3785B3719092407BA66198BB5058820D
:1017100069BBB5297CC9294EFF9B267B9A777B80C4
:101720009991516BA984688A89757D83807F7F80B8
:1017300080807E807F797E898C8770738F6A5BACB6
:10174000A25C96A75366744A9DD2889993203178FB
:1017500089E9DE436693053FFFBD5790915D5D6F5C
:10176000989F6A79A67C618286788084817F7F8059
:10177000807F7E81847C7C7F8287757A9B6C5CBC59
:10178000912791C95B6C895DB3AF1C6BD979697482
:1017900052C8BB0077FF403BE57926ADB65F5D7B65
:1017A000A99A466AB98359878F787E827F7F808025
:1017B00080807E8081797C838B917A73845855BF39
:1017C000AD55A5B9393D6765D7E55472A639366977
:1017D0007AFFEE225DB8102AEBA760C1A8423C66F2
:1017E000A6AB657CB479517E8B7C82847F7F7F80C1
:1017F000807F7E80827C7F8383836D749E796ABACA
:1018000081178AD5767C804298AD3A8DE065465F37
:101810005FE7D6055BDB3950FF8A2193A1606F8DAE
:10182000AD913B64BA8B60878B767D8380808080AE
:1018300080807E7F807B7E868A8B7571866966B3A9
:10184000994F99B85A556555B3D1708CA6382A5E10
:1018500084FFED344F951E49ECAC60A2924E557852
:10186000A39C6077AC805E7F877B8184807F7F8054
:10187000807F7E828179828679807F7F8D6C71B254
:101880006E40C79F13A4DC2162E1604EA97F7F8078
:1018900054B4A116A0E81656FF5928CF963D939A46
:1018A0006C80807F8B7479907C7687817C8080804F
:1018B00080807F817E78818883898479785D6AAD34
:1018C0008E71C8900D6EA63D90FE915E79454F7465
:1018D00080E0CC437F99004AEE8D6AD189316C80DB
:1018E0007392958D896E70847B7B88837D808080E8
:1018F000807F7E81807A84887C7C787A8D7C7FA7CB
:10190000643CB2A540AAC11C52CD7E75AA6D606D23
:1019100067C7B42C80B6236FFF7033A9804B9DA49A
:10192000747874798B7D7F8D797585827E808080D7
:1019300080807F807D78838A85867D747B6975ABA6
:101940008163BE9A287B9D2B7BF6A57A823836650B
:1019500088F5DE47697F005CFE9965B979357A8D37
:10196000778A8A878B757584797987837E80808072
:10197000807F7E81827B82817685877B806B81BD43
:10198000612CCBBA1C8AC43284E13C3CC5A173579C
:101990004DD7BA007CEC3B63E44135EB972686A833
:1019A0007C7B717C957A758A7C7988807B8080804D
:1019B00080807E807F798184828E89756E5B76B629
:1019C0008461CDA4125A9548A9FF76508F5D455683
:1019D0007AFCE031649D1953DB7B74E78A1E638ACD
:1019E0007F8F8B8B91726C807B7E89827D808080E3
:1019F000807F7E80807B858579817E7584798EBAB3
:101A0000521BC1C63C9BB81769DD5C61CE894D4253
:101A10005BF8D7055EC63378FF562FCC822A98B97B
:101A20008272637597837B8A787687817C808080D9
:101A300080807F7F7E7A828682898273746A80AD9D
:101A40007959BBA8366C8B3E91EA8A6F9454364E16
:101A500083FFE43E55822368E08770C57B2E739533
:101A600082868084907A73807A7C87827E80808070
:101A7000807F7E8282797F897F777C8D8B5E78BD47
:101A80006736CAAF0F89EC413ECB954D7397A85D81
:101A90003ED2AF0090FF2B34EF8627A2A95E768B53
:101AA00087826D8196727291817583837D7F80803C
:101AB00080807E8180777E8B878180857A5170BC23
:101AC000835ED2A20060C24D69F1B757535F775869
:101AD00064FBD72177BF0A2BEEAB5BB29D485978E8
:101AE0008792838E946C6A887F7986847E7F8080DB
:101AF000807F7E818179818B807476878D6B83B8BE
:101B00005D2CC0B72B95DD2F2EC6A96B7C85884F29
:101B10004CE7C20978DC2949FF93278C96608498AA
:101B20008A7B647C9779788F7E7383837E808080C4
:101B300080807E807F78808C877E7B807D5F7AB39B
:101B40007956C2A6226EB3415CE2C0726056615003
:101B50006FFFDD2E67A21442F2AF5B9B8C5069844D
:101B6000898A7A87937471877D7885847F7F808066
:101B7000807F7E81827B7F847D7C8188816184BD42
:101B80006131C4BB2377CF545DC27A4788AB9A4694
:101B900041E1BA0075F34E46CF743BB1A5526F9345
:101BA000917F657F9A78718B817884827D7F808038
:101BB00080807E8080797E878484858273567BBA1C
:101BC0007B56CAAC1555AC5D80E29A526977714676
:101BD00063FFDA2064B92E3ED09767BB9A425781E3
:101BE000908D7A8A97726A83807B86837E7F8080DD
:101BF000807F7E81827B81887E797B84846B8DBDB2
:101C00005623BFC63683C83E49C28E60909B7F363E
:101C10004AFBD00060DA4754E681359E96527BA09D
:101C200095785B7A9C7E758B7E7683827E808080C1
:101C300080807E807F7A808884817F7E776382B295
:101C40007352BBAE3364A05271D4A56B736D5F4207
:101C50006EFFDD2E589F3551D49C66A58B4B668A4E
:101C600090867485957971837E7A84837E7F808067
:101C7000807F7E81827B7E848280757F987263A361
:101C80008B53969653999D3D92C43F5CC97F528079
:101C90008FA46A35C2C90C62FF651FB8AD5173923B
:101CA00087806F7F9477728B827982817E8080803B
:101CB00080807F80807A7D8688877A7A856661A237
:101CC0009C75A08C4372804EABDE6B679E54387758
:101CD000A4C89652A1930058F08A55BD9E445D80D9
:101CE000868D838A91726D83817C84827F807F80E0
:101CF000807F7E80817C8086837D717C967D6F9DD8
:101D00007F4D8E9C6BA092357FBA5B78C571417117
:101D100094B58141A5A91873FF74299F9958809B98
:101D2000897A697B937E78897F7881817F808080C2
:101D300080807F807F7A7F8888847677876E6AA0AC
:101D4000926A9A93557C7A3F9ADA7C7BA349266BF8
:101D5000A9D8A6558F7F0065FC9352AB9147688A3E
:101D600089877B85927871837E7B83827F807F8069
:101D7000807F7E81837C7D818084797C916E6BB253
:101D8000823A9EB053888E3FB2D11547EE9B405E9B
:101D90008BC97C15B0DA1668FF4B19D9B73567A126
:101DA000957C607DA07B6D88837A83807D80808038
:101DB00080807E80817A7D84888C7E777E6065AF2E
:101DC0009965A99F3E5F704FC9F04F56B662225B7E
:101DD000A5EDAA3B909A0059F37B55DAA52A4F89C5
:101DE000928D7A8A9A746780817E85827E808080D7
:101DF000807F7E80827D7F8481807478917B77A9CB
:101E0000763793B26E93853595C23D6AE28630543B
:101E100092D6922892B2217AFF6225B69E4278A984
:101E200095765B789C827487807982817E808080C1
:101E300080807E7F807A7F8688897973806A70ACA3
:101E40008D5AA1A7546C6B3FB3E8656FBA55104F1C
:101E5000AAFDBB407C820168FF8752C495305D9526
:101E6000958671849A7A6C807E7C85827F80808062
:101E7000807F7E81837A7B878578738B966468B256
:101E80008143A4A73F88B94B6DBF6B569D93786380
:101E900073C47E15B5EA1441FF85179CBE64608942
:101EA000998261819D746D8E857680827F7F80802E
:101EB00080807E8181787B898B817884865964B12A
:101EC0009464AD9B30669A568CDD8C5F7D65555F62
:101ED0008DE4A4339BB3003AF7A347A9AF524C79E2
:101EE000968F768B9A706786847A83837F7F7F80D4
:101EF000807F7E81827B7D8985777085957073ABCD
:101F000077409BAA5890AB4160B57F70A083625A1E
:101F10007CCF90249CC71D55FF8E2189A9686F92A4
:101F2000987C5D7D9B7B738C827680827F808080B5
:101F300080807E8080797D8A8B7E748087636DADA2
:101F40008A5BA6A1447093497CD69A74845B4455FD
:101F500092F0B238899E034AFFAA4698A055598349
:101F600097896F8699756C86817982847F7F7F805F
:101F7000807F7E81847B7B84847C77888F6172BD47
:101F80007831A9BB4277AC5483C25147B2AB6F469C
:101F90006DE18F009FF32746F4741AB1C252569335
:101FA000A57F557FA678698B867881827E7F808029
:101FB00080807E8082797B878A847C827F566BBA20
:101FC0008E56B3AC30558E5DA0E278528E774B467C
:101FD00089FFB52087B90C3EEF974BBBB2424281D7
:101FE000A18D6D8AA1726383847B83837F7F8080D0
:101FF000807F7E80837B7D8784797284906C7BB8C0
:102000006E2AA1C05883A24371BD6862B699573C3D
:1020100076F1A20A89D32758FF811C9CAF56659E92
:10202000A679507AA57E6E8A837780827F808080B1
:1020300080807E80817A7D888981787E816375B297
:102040008352A7AE4A6487528DD4886B926D3F420B
:102050008EFFBD2E779F1851EF9C4EA5A04B548A42
:102060009F8668859E796B83817A83837F7F80805A
:10207000807F80827A858075936E7F9857A07F5687
:10208000C14D7FBB25C38034EE2E7FD603D980257A
:10209000FF257FD706D38031EA3880BF2BB7805128
:1020A000BB5A7F9C5D9480728E787F837D80808018
:1020B00080808080797F7E7E978285864E7971715F
:1020C000CD8B9A9B196E5754F895B6BA00693F3775
:1020D000FB94C5CF126F3C30D78ABAC6407A5348BA
:1020E000A7809DA46B81706D877E84857E807F80B4
:1020F000807F7F807A84837D906D758A66A99060E9
:102100009D4076BF5EC77421B143A3EB31A7502039
:10211000EE69A6C10094725DF760748F27A995746B
:10212000B3586E8C6999877586767F837E807F80B1
:1021300080807F7F797F8182977E7C7F56867F72C9
:10214000B77791A73C80513BD493CDD71656202822
:10215000FCB5DCC80050384AEE9AACA7327B675F0A
:10216000A9778D9A7089776F837B83857F807F8045
:10217000807F7F807D867F738A7A888D5495916E6B
:10218000A04485C94993655CF64556A847E6711198
:10219000D3689CA400C1A856AD308ECD458D726E1B
:1021A000BD606F9171967B6F8B7E81817D80808019
:1021B00080807F7F7B817E7A91868A814C79817C49
:1021C000B57899AC325C4B69FF918FA12D89402382
:1021D000E0AFCEAE08766549B274BBD14D68505DB4
:1021E000AE7D8C9B7686706B868184837E807F80BB
:1021F000807F7F7F7C8582798A777E84619D9972DA
:102200008A3D7DC76E9F6247C3527AC05EBB511440
:10221000CC8FB39C00939671C15283A43E8A85846F
:10222000B55E658678998173857B80817E808080AC
:1022300080807F7F7B81807E9082827C55848A7DB6
:10224000A26A91B2506D4A55DB8FA3B840762A1D21
:10225000DDC5DCA9005D605EC483ADB4436B637013
:10226000AC767F927A8B766E837F83837F807F804C
:10227000807F7F817F817C7F906B7B9E697D848165
:10228000994597BE2892AC608D4FB7A400D1B0217C
:10229000A57D997C2DE97C1ECE8167846BB6625941
:1022A000BE6D69937B87767D8E777E847E7F7F800F
:1022B000807F7F807D7E7C82947A80905E6B79893E
:1022C000AB73A3A61F64846BAC8ECE9E0085773063
:1022D000B8B3C28D2C9D4F23C7A79698698C4B51DC
:1022E000AF82849B7D7D6E77897C81857F7F7F80B7
:1022F000807F7F807D817E839365719A6B8B9282D4
:102300008A2991D43DA6A63C714BDBCD00C18C003F
:10231000B5A4BC7B05CE702AF8945B6953BB726987
:10232000C961588D7E907B7D8B737D857F807F809A
:1023300080807F7F7C7D7E8696767A8C5F748389B1
:10234000A262A0B52E6F7D529B8FE9BA0074581916
:10235000C5D3DE8E1085432CE5B79186588D555C2C
:10236000B67B79977F83717686798186807F7F803F
:10237000807F7F817F837C7B8D7182995E7B928B56
:102380008C349AD4337A956FAB5194921EECA3009F
:102390009C9EAF670FEA9D2DB36A749D6D9F586731
:1023A000CA695D8F848C72788D7A7F827E8080800E
:1023B00080807F807D7F7B7F957D868F4E66859335
:1023C000A860ADC3154A7274D091BE9400A16B0190
:1023D000BCDAE27D01A6631DBE9AA4B3677B3754C5
:1023E000C47F789D848167708A7E82847E7F7F80AF
:1023F000807F7F807E827E7F8C707B9166879A8AC9
:102400007D2E91D454898B598F58A9AC35CB7F0040
:10241000A2B7C16A07BF9048C57C6E845F9A6C7A88
:10242000C46556878691797988787E837F8080809D
:1024300080807F7F7C7F7E82937B7F8859738D90A5
:102440009656A1C3395F6E60B08EC9AA1C8C530426
:10245000BBE6E97D0088603BCBA298985C7C4F6826
:10246000BD796F9386876F73867C82847F7F7F8040
:10247000807F7F817F837B7A9376728D7B92686881
:10248000C1635DA175A55256EE524BAF72B1474D77
:10249000FF4D47B072AE4C54EA5855A3769E5F6626
:1024A000BB6B6B8F7C8B75788E7B7C817F807F8014
:1024B00080807F807D7F7B7E968179846C7B647554
:1024C000CB88779258744162F88E7CA85370284E5E
:1024D000FF8E84B65F742A4AE08786B0717C485AC2
:1024E000AF8083987D806D738A7F808380807F80BA
:1024F000807F7F807E827D7E93736C877F9C756AF0
:10250000AE5459AB8DB14E3FCF5667C97D9A2B3E25
:10251000FF7066AC5A8E4768FD6A518A659C717877
:10252000BB6460887F917B798A797C8280807F80A0
:1025300080807F7F7C7F7D81967E747F70846E76C5
:10254000BB79729B6D803F50DE8D8FBC5D62144203
:10255000FFA598B24D5E285AEF92809B657C576923
:10256000AF7A7A9280867274877D808380807F8044
:10257000807F7F8080847B768F7C7A89718F777370
:10258000B15564B37D8D4466FF56339C8AC7423291
:10259000EE6F619957AE6E62CA4863B67889597317
:1025A000C269618B848F72748D7E7D807F807F8015
:1025B00080807F7F7E817B7C92857F81667A707D43
:1025C000BB7A7AA062653A6FFF8C669869862A3B6F
:1025D000EDA293A24D784957C5778EBB746E4766BE
:1025E000B47D7A9484846C71898181827F807F80BC
:1025F000807F7F7F7F847D7A92787184749C8172E2
:10260000A5405BC4969D384AF05447BD95B81C1848
:10261000FF8F7A9B3A926372EC5459A36589668363
:10262000CC5F5286879877738B7B7C817F807F809D
:1026300080807F7F7D817D7E9582787D6783787DB8
:10264000B56B75AE726F2D58F88E78B36F7707251E
:10265000FFBFAAA534603D61E18389AF656D4E710E
:10266000BC777091868A6F6F877F808380807F8040
:10267000807F7E818181767F996B6D9E7C7D6B8171
:10268000B84572BE53927C60C1507FA43BD0742188
:10269000E17D5D7C66E8461EFF803A8493B6405932
:1026A000D96D54938B876A7D94777A84807F7F80FD
:1026B000807F7F807E7D77839F7974926967628A4D
:1026C000CE7089AE335F5C67E291ABA31B8641217C
:1026D000F7BC9A904FA21713FFAE739C888E2449C3
:1026E000CF83719F8B7C6175907B7E85807F7F809F
:1026F000807F7E8080807A82956C6A9380887981E1
:10270000A0406FBD719B754E9F5996B851AF58222E
:10271000D79A7C7C54B94941FF8E416F7FAB5A6F89
:10272000CC6951898B8C737D8D767A8480807F8093
:1027300080807F7F7E7E7A859B77708B70757189B4
:10274000B56583B053705B56BE8EB8B53575312212
:10275000EACBAB8D43852234FFB26F85788C405F26
:10276000C57C6A958B836A778B7A7E85817F7F8033
:10277000807F7E818283777B96717599717B7A8B5E
:10278000AA3477D45C7A676FDE515E9256EC6900AA
:10279000D79E756747EA682DE36A489D939F376720
:1027A000E569488F948C6778947A7B827F807F80FC
:1027B00080807E807F7F767F9D7D7A8F5F656F943E
:1027C000C45F8DC43A494874FE918E9432A136009C
:1027D000F2DBAF7D32A7331CEA9A7DB4897B1954B2
:1027E000DD7F659D93815D70917E7F847F7F7F809B
:1027F000807F7E8080827A7F94706F917687858AD1
:10280000972E72D477896359BA587BAC66CB4D004A
:10281000D4B7906A37BF6348EF7C4984809A507A76
:10282000DB65448793916F798E787B8380807F808E
:1028300080807E7F7E7F7A829B7B758966737B91A9
:10284000AF5486C6575D485FDA8FA2AB448C230035
:10285000ECEAC07D26883538F4A47799797C346712
:10286000D5785E94938766728C7C7F84807F7F802E
:10287000807F7F817F807C808F677FA25F7D917D5D
:102880008B4DA9AC14B3B635927AA7781CFE8000A4
:10289000E68756856BD24245FE4A4CBF71836883FA
:1028A000AF4B7FA8647E877F827884827C80808023
:1028B000807F7F807C7C7B8496768495516682873E
:1028C000A77AB89D00788B45BAB7CE7D03A74A0892
:1028D000F9C69698538B1436FA8185CE6B61466D96
:1028E000A96898B169747A77807C87847D807F80BD
:1028F000807F7F807E807F848D6978966988987DCF
:102900007B469BB040B6A32B787BB7973AD2600644
:10291000DBA4788456A64561FF634F9C63827B925B
:10292000AA4D749A6C858B7F7F7782827E808080AF
:1029300080807F807C7D7E8794757D8D5A748B86A8
:10294000956CABA3278682379DAFD7971E9135092B
:10295000EFD7AA9444701C4FFF8E7EAF5F665C7EFB
:10296000A7648AA46F7C7F787D7A85847E807F804F
:10297000807F7F817F827D7D897285975D7C99864E
:102980007E4AA3B634939753A87C826C49F97600AB
:10299000C8A1737255C26C5CCB4462C57670648DFD
:1029A000B054749C7283837A827C83817C80808023
:1029B00080807F807D7F7C80917C898F4F698D8D29
:1029C000976DB2AA1A68795AC8AEA8712BB84A0096
:1029D000E0D4A484418C3E4BD4708DD47056477A99
:1029E000AE698AA7747A7874807F86827D808080C1
:1029F000807F7F807F817F8089707E9064869E85C6
:102A000073429AB9509C8E43907C968758DB5D0048
:102A1000C7B68A7445A2676ED8585FAA697274995E
:102A2000AE536C947688867B7F7A82817D808080AD
:102A300080807F7F7D7F7E83907A82895774938C9C
:102A40008A61A8AF3775744AAEA9B6893CA337002E
:102A5000DDE2B48435753F5DDF7D86BA645B5987FE
:102A6000AC657F9E77807C757E7D85837E8080804F
:102A7000807F7F81817E7A848F657CA6686C90934D
:102A80007D43B1B61494CB52647CC96F0AF4A6009E
:102A9000ADAD745868E94F2BEA7A46958C93567918
:102AA000B85B6EA0777A7E83857781837D80808016
:102AB000807F7F807E7C7A879472809A5E5F859625
:102AC0009469B9A70A6CA55C88A9DE7500B0780C7A
:102AD000C0D5A16D58AD2E27E59D74A48477426AB8
:102AE000B07083A67A74757C837A84847E7F7F80BD
:102AF000807F7F81807E7C878E66779D6E779790C2
:102B0000733DA6BA349DBC43557CD48920D7870039
:102B1000B0C18B5C56C64D42F38747807C91678776
:102B2000B55967977B818283827580837E808080A0
:102B300080807F807E7C7C8994707B9660688D9697
:102B40008A5CB4B01D779F4A77A8EF8B09A15F001C
:102B5000C7EBB46D45972835F7A86E9376784E7617
:102B6000B36A7AA17C79797C817883857F7F7F8045
:102B7000807F7F8181807B818A6E819C656F969644
:102B80007642ABBC2E81AF647E7CA56732F29700A3
:102B9000A0BA865157D86E43C66C59A18A81578313
:102BA000B75F69987F7F7B7F857A81827D80808017
:102BB000807F7F807F7D7A849076849559608D9B1D
:102BC0008B5FB7B2195F95689BA5C16B1BBE710087
:102BD000B6E2AC6247AB4936CD8D7CB0846B4074B5
:102BE000B56F7BA17F787379837D84837E7F8080BE
:102BF000807F7F8080807D838A6D7C966A789B93BE
:102C00006E3DA2BE458AA5566F7DB27D40DA7F003B
:102C1000A4C996564ABC6954D178578F7E81658D78
:102C2000B55D639181847F7F827981827E8080809F
:102C300080807F7F7E7E7C8590757F905F6A939891
:102C40008157AEB6316B8E5A8AA2CA802AAD5E0019
:102C5000B7ECB8653D954847D695789E796D4F7F1E
:102C6000B36B749A817E787A817B83837E80808047
:102C7000807F7F8181807980916E7598777E797E63
:102C80009F5C819F53A4824BB47C717A65D9522496
:102C9000F68535839CBA2B56FF5939AC9382558201
:102CA000B65A6F9C787E7D7F877A80817E80808017
:102CB000807F7F807F7D798396797A8F6A6D718539
:102CC000B07B91953D7A6955CCA8947E4A9D312878
:102CD000FFB36A9284880E49FA8166B98B694072A3
:102CE000B06E83A47A777479857D83837F807F80BB
:102CF000807F7F8080807C83906E71917B86827ED6
:102D000090547DA46BA97C409B7C859170BD41252E
:102D1000EB9B5483859C3168FF6A3E958382668E67
:102D2000B15A69937B84817F83797F827F807F80A2
:102D300080807F807E7E7B859577768A6E777A84A9
:102D4000A2708B9B54846648B5A4A392578D23240C
:102D5000F9C37D907374135AFF8B64A47E6C507E0C
:102D6000AE6A7B9C7C7D787A827B82837F807F8049
:102D7000807F7E818182787D91727A976D7C848656
:102D8000974A85B657937153D27C556C79F94500B3
:102D9000F9A1437283C2405CF4443DC59670498DED
:102DA000C754639C7F83797A877C81817D80808012
:102DB00080807E807F7F7980957C7E8D616B7B8C2F
:102DC000AA6E95A6416A595DE4AA7E725AB3260C92
:102DD000FFCC79846E8B2050ED716DCC8C5A367A95
:102DE000BC6B7AA3807B7175857F83827E807F80B8
:102DF000807F7E8080817B809070759072868D85CB
:102E000089427FB96F9C6C43B57C6E8782DB320050
:102E1000F2B660746EA2406EFC583FAA85725C994F
:102E2000C2535C9481887E7B847A80817E8080809E
:102E300080807E7F7E7F7B83957A79896575838BA1
:102E40009E638FAD5576564CCEA7908964A214042C
:102E5000FFDE8C835D751F5EFB7D69B87E5C4586F9
:102E6000BC66729C82807576827D83837F807F8042
:102E7000807F7E81827E7784936973A1786E7D9056
:102E8000934B92B03F92A1588C7C997142E5781097
:102E9000D1A84D5D92DC2F35FF7A2E92A691447A0F
:102EA000C45F619C847B76838A787E837F80808008
:102EB000807F7E80807C7786987378996B6075952B
:102EC000A66A9FA52A6D865EA9A7B6752AAE52117D
:102ED000E3D17A6E7DAB0F2BFF9C58A29C782F6BB1
:102EE000BF7175A484746E7D887B81847F7F7F80B1
:102EF000807F7E80817E7A86916A70997C79858ECA
:102F000087478BB15899964C7B7DA68751CA62132F
:102F1000CCB766627EBB354CFF863480948E578674
:102F2000BE5E5D9385807B8286777E837F807F8097
:102F300080807E807F7C798896727492706B7D929F
:102F4000996297A84478805295A2BE893C9C44140B
:102F5000DCDA8B706E931941FFA158908E7943781B
:102F6000BA6E6F9B857A737D857A81847F7F7F803F
:102F7000807F7E8182807781906E789C716F86964B
:102F80008A4293BC49819064A07C816757F27100AA
:102F9000C7BA60517CD84B43E66C3BA1A481418306
:102FA000C95F5A98897F747F897A7F827E8080800A
:102FB000807F7E80807D778496767C9565607E9B21
:102FC0009D5FA1B2335F7868BAA5A06B3EBE4D008D
:102FD000DAE2896269AB2836EB8D61B09C6B2C74A8
:102FE000C66F6DA189786C79877D82837F7F7F80B2
:102FF000807F7E8081807A83906D749675788D93C2
:10300000803D8DBE5E8A89568D7D917D62DA5C0041
:10301000C7C974566BBC4A54EE783D8F9581518D6B
:10302000C55D56918A84797F86797F827F80808092
:1030300080807E7F807E798595757890696A859895
:1030400092579AB6486B745AA6A2AC804AAD3E001D
:10305000D8EC98655C952B47F2955F9E8E6D3D7F11
:10306000C26B689A8A7E717A857B81837F807F803C
:10307000807F7F827C80867882827F7C7B98617F64
:10308000B3369BBA13C3A313D7803CBF71727F8E34
:103090008E3DC88020F85732FF395EDC3D7FA95D48
:1030A0008685807B7C8F727F8B7482837C8080801E
:1030B000807F7F817A7C847D8B8C8475697E5B893F
:1030C000C865ACA900887D28F2BA72B84C354C7F2F
:1030D000AE86F49315AD2727FB7192E540607E4ED6
:1030E0008798978B7D836878887986857D807F80B7
:1030F000807F7F817B80877D837E78777F9E727FD4
:103100009C3490BB3EC39510B08060CE7D636179E6
:103110009568D2801BC55651FF555DB53A7FAE7399
:10312000897D74767F92797F867481837D808080AB
:10313000807F7F807A7D85808A877D726F886987AE
:10314000B25AA0AD2693771FCDB189C95C30386FD4
:10315000B09FF890108E2D42FF8089C33B648B6333
:103160008A8E898480887079847884857E807F8047
:10317000807F7F827C8286737F8887786F96708A53
:10318000A6249FD31DAA8D24F5801BAC8C91746856
:103190008760DE6A00FB793FE4236AF540699D6B36
:1031A0009681727885946E7A8B7883827B81808019
:1031B000807F7F807B7E837A888F8973617D699031
:1031C000B859ABB812746C3CFFB459A66554476249
:1031D000A5A0FB8005AC4A38DC609AF04752755DCB
:1031E00092938A8784876774877C86837D808080BA
:1031F000807F7F817C81877981837E74759C7D88C7
:10320000922493CF45AF831CCA8044C0937C575A05
:103210008F83E56E00C9725BEB4267CA3B6EA57E89
:10322000967A69748697767B867682827D818080A5
:10323000807F7F807B7E857D888B82706886758E9F
:10324000A650A1BB32816930DDAD71B8704B3557E6
:10325000A8B4FF8001904A4FE57090D04157826E2C
:10326000938A8082868C6E76847A85837E807F8046
:10327000807F7F827E7E817E857A7C897D816D9351
:103280009B36A5BE18A0BA3B988077A24D8AA36B47
:103290006E75C65733FF6022E76C55AA658F875F4E
:1032A00098866F7E88876E838C7480847D80808012
:1032B000807F7F817C7B80818C8380826E6F65992B
:1032C000B156B4B400779C41B8AF9BA42F57776335
:1032D0008BA8F06921CC3614EF927EBB60756A4FE3
:1032E0009895838A897F657D8A7783857E7F7F80B5
:1032F000807F7F817D7E838186777684808B7693C5
:103300009026A0CA2BACB42485808CBC557A885BEF
:103310007690DD561CE8582FFF794E975690946CA6
:103320009D7F65798B8D7283897280847E80808099
:10333000807F7F807C7C82848D807A7E71786E989D
:10334000A54AADBC16829530A4ADADB93A4A5E55DA
:1033500092BEFF6912B23125FF9D78A85475765D43
:103360009B8E7A858A846A7D877682867E807F803E
:10337000807F7F817F80817B837E81867580789A44
:10338000912AA7CE208EA947AE805F9562A19A515F
:10339000698ED5481DFF792DD25C5FBB677F7F6941
:1033A000A383667C8F8B6C7F8C7781837D8080800C
:1033B000807F7F817D7D807E8A87857F666E6FA01E
:1033C000A849B7C506668D4CCEAE8498426D6F494C
:1033D00086C0FF5A0BCE4D1CDD8286CD61656259D9
:1033E000A3937A888F8363798A7A84847D808080AE
:1033F000807F7E817E80837E847B7B81778A819CB7
:103400008714A4DF2E9CA52C9D8073B168927F3D0C
:1034100071AAF24400EF7036F06756AC567F8C7597
:10342000A97C5A7692926F7F8A7480847D80808096
:10343000807F7F807C7D82818A837F7C6B78799C92
:103440009945ABC427748641B3A894A952625B43E3
:103450008CCCFF5F0AAF4E36E38C80B3596970693C
:10346000A18B72838F876A7A877983847E807F803D
:10347000807F7F827E80807A8881757D8A91587F67
:10348000BB4B78AA51AF7632E48026ADA076548A41
:10349000B650887F65D63B48FF4D46C16D7F846737
:1034A00099846F7C898A6D7F8D777F827E807F8013
:1034B000807F7F817D7D7F7E8E897A777A7E53873C
:1034C000CB6B899F39865E3CF9AC51AB7E46307F31
:1034D000CB85B28E53A3183BFF7470CD69676859D2
:1034E00098928388898266798B7B82837F807F80B4
:1034F000807F7F817E80827D887F72798B96667FD8
:10350000A84775AC68B2722BC48045BBA26A437AE7
:10351000B56D997F57B43F5CFF5F49A8637F8E7696
:10352000987D6978898E747F89777E827F807F809D
:10353000807F7F807C7D81808D8676757D866086AC
:10354000B86384A3528E5E35DAA667B885422673C7
:10355000C798BC8C498B2150FF806DB4616A756936
:10356000978A7B8389866D7A877981837F807F8044
:10357000807F7E817F81807686867A7A829061875D
:10358000B43B7BBE559F653BFF800AA1B58D496E5C
:10359000B3689A6F4BDC524FF13A4DD76E6F7C7027
:1035A000A581657A908F6A7B8E7A80817D8080800C
:1035B000807F7F807D7F7F7B8B8C7F76747D608C2E
:1035C000BC628BAB4577554CFFA7419C8E5F32693F
:1035D000BF98BA8044A23749E36879D56C5D6465C9
:1035E0009E8E7B858D8566778A7D82827E807F80B8
:1035F000807F7E817E81827A8782757684986C87CF
:10360000A53177C46BA9612AE48025B7BA7D335F01
:10361000B783AD703ABF4D60FF4B4AC06170887E82
:10362000A67A5D7591946F7C8A787F827E80808097
:10363000807F7F807C7F817E8D8A79717586668DA3
:10364000B75387B752814B35F9AB4EB5964E1359E8
:10365000CCB1D2802D8F2A51FF7172CC5E5A6C6F23
:10366000A4897181908B6876887B82837F807F803C
:10367000807F7E82807E7E7E8A7A73888A815E9158
:10368000AD3C89B83E9D9541B980539F798A786D4C
:103690009876985A60F43E2AFF6E3BA6828E70613F
:1036A000A985627E938668838F757E837E807F8006
:1036B000807F7F817E7C7D81908278827C7159962B
:1036C000BE5B97AE29787C49D1A9769F5D5C546634
:1036D000AEA3BD6B50C21E21FF8F62B47C765855DD
:1036E000A6937589927F627D8D7880847F7F7F80AD
:1036F000807F7F817F7E7F818A7970838B886A8FCC
:103700009E3A83B956A28C38A28069AF807C6363ED
:103710009B8CA65F54D14141FF7B3F92768C7C709D
:10372000A67F5E7A928A6F838B757D837F807F8090
:10373000807F7F807E7C7F838F80747E7E7A65939E
:10374000AD5590AF43827740B8A386AD6855455ECE
:10375000AEB1C56E47A82538FF9761A07277666441
:10376000A48B6F849183697D897880847F807F803A
:10377000807F7E8180807D7B897E78868280669A4C
:10378000A82A8CCE3F8E8747D48037958CA16F5165
:10379000948EAB4846FF522DF65C3FBB837F676932
:1037A000B783567C9A8B647F91777E837E808080FE
:1037B000807F7E817E7D7D7E91877C7F736E5EA023
:1037C000BE499DC523676C4CF2AE5D986B6D464952
:1037D000B0BFD65A33CE281DFF8267CD7D664A59C9
:1037E000B6936B889A835B798F7A81847E807F80A1
:1037F000807F7E8180807F7E8A7B738184887197C1
:103800009A2587D056978039BB8050A9928F584708
:103810009AA4BA4D38DE4F41FF6B3FA5767F74778F
:10382000B57D51789A8F6A7F8D767E837F80808088
:10383000807F7E807E7D7F818F83777C77786A9C96
:10384000AB4595C440746942D2A873A875623844E8
:10385000B0CBDB5F2DAF2E36FF8C65B371695C6931
:10386000B18A65839887647A8B7981847F807F8031
:10387000807F7F827E7D817F83787F8A7881768F4B
:103880008F41AEAD13B3BC239A9E6B8367A47F5A5E
:10389000987C965F62E73B44FF4946CE6B6B8C7E1B
:1038A0008B70808B79807B85837684827C8080801E
:1038B000807F7F817D7B80828A8183836A706F9421
:1038C000A361BAA3028B9E2EB6C68D854C72595544
:1038D000B0ABBD7052B41938FF6F6ED96755706EBA
:1038E0008B8091957A79737E827987847D808080C0
:1038F000807F7F817E7E838284777A857B887F8DBF
:10390000843EA3AF33B6AE1E86997F9772926952FA
:103910009C92A46455C43E58FF5B49B4626E95897D
:103920008D6D77857C857F84807583827D808080A6
:10393000807F7F807C7C8284897F7E7F6F7A789293
:10394000965AAEA621929529A0BD9B975968494EDB
:10395000B0B9C572489A214CFF7B6CBF5F5B7C7B22
:103960008D7B878F7D7F787E7F7885847E80808049
:10397000807F7E827F7F827C827C85886D7F819A3A
:103980008827BAC908A8B420B8A34C7579C476357D
:103990009797AD4842FB4B44FF2D47F16956858808
:1039A000996A748B7F857781847786827B8080801B
:1039B000807F7F817D7C807F89858881616E779D16
:1039C0009D52C0B6007B9133CFCB777A5B864F395F
:1039D000AEC4D16138BA293BF65F75F067446776AB
:1039E000967D8995807D6F7B827B88837C808080BB
:1039F000807F7E817E7F837F837A7E8372888996B3
:103A00007C28ABC72EADA51C9D9D688E82AA5E3317
:103A10009BACB95139D04D5BFF474ACC5F5D909369
:103A200099686D84818A7D81817684827C808080A2
:103A3000807F7F807C7D82828982827D6678809A89
:103A40009149B6BA1B868A27B8C4898F65783C31FC
:103A5000B1D5DC632CA02A4DFF6C71D75C49748210
:103A60009878808F8282747B807987837D80808044
:103A7000807F7E82807C7F8386737D9379737A9E3C
:103A80008535B8BA08A0D234779B907948B39E4464
:103A90007E9DA33F5EFF4029FC6A3DB1807B787725
:103AA0009B74728C837D7587867482837D80808011
:103AB000807F7F817E7B7E858B7B808C6E6673A012
:103AC0009755BFAD007DB34092BDAA7D3584794442
:103AD00094C1C35452CC2525F78963BB7A67626AC7
:103AE0009982839484776F81847885847D808080B7
:103AF000807F7F817F7D80858672788D7C7B829BB5
:103B00007C32AEBB25A6C42C69989E8D54A1863EFE
:103B100084ADB04652DE413EFF763F9E747B82828A
:103B20009B706B8685827A87837482837D80808098
:103B3000807F7F817E7B80878B797C88716F7B9E85
:103B40008E4DB7B21686AB3583B9B68E3F78663CDC
:103B500099CFCE5646B62535FF9261AA70686D752D
:103B60009A7D7B8F857C7381827784847E80808040
:103B7000807F7E82807E7F8084768190727283A433
:103B80007E2BBAC81091C33F8A9A7B6F59C5962E77
:103B900079B1B1334BFF5633EA5C46C1816D717F19
:103BA000A471698A89817384867683837C8080800E
:103BB000807F7E817E7C7E838A7E848A66647BA70A
:103BC0009149C4BD006FA846A5BF98734196722C59
:103BD00091D7D3463DD13528ED7D69CC7B595A71BB
:103BE000A27F7B93897A6C7E857985847D808080B5
:103BF000807F7E817F7E808286747C8D747A8BA5A7
:103C0000741CB6D21F9CBE2B7A9B8C8460B97F1E1D
:103C100080C8C53237ED4E3DFF663FB2746D7C8B78
:103C2000A86B60858B867784847483837D80808095
:103C3000807F7E807E7C80858B7C7F86686C83A87D
:103C4000883DC0C60E79A33596BFA98647895C1FFB
:103C500098ECE4452CBE2E33FF8764BE7059647C1B
:103C6000A67A738F8B7F6F7E837785847D8080803B
:103C7000807F7F81807E7E7F877A788784806A8C50
:103C80009D4E90A342A89537B19750828D9C5E625D
:103C9000B47D706688D12C51FF5539BD866F777E13
:103CA0009873738983807683867881827E80808012
:103CB000807F7F817E7C7E828C817B827873659021
:103CC000AC679B9C3188803EC6B86E847475425D3B
:103CD000C5A2927378A91246FF735BC7805E6272B9
:103CE00097808291847A6F7E857A83837E807F80BD
:103CF000807F7F817F7E8081877975848587738AC5
:103D0000924A8AA656AB8E319F946492918E505BF4
:103D1000B48F806979B7305FFF623EAA7B7180877C
:103D200098706E8484847A83847781827E80808098
:103D3000807F7F807E7C7F838C7F787F7B7B6E8E95
:103D4000A061959F458F7B38B2B27D937A6C3857CE
:103D5000C2AE9E756C961955FF7C5BB477616D7C25
:103D6000977C7C8C857F747F837983837F807F8041
:103D7000807F7E81807F7E7C877D7B867D7F719446
:103D8000993C95B73F9E8A37CB9A36789FB3534775
:103D9000B6927D5575DD3652FF4138D587606F8606
:103DA000A46F698889847281877982817D8080800F
:103DB000807F7E817F7D7D7F8D847F8171716B9817
:103DC000AA59A1AD2C7C7340E0BE597B8285354455
:103DD000C9B9A26664B01946FF645DDE814D5878AA
:103DE000A27E7B91897D6C7B867C84837D808080B4
:103DF000807F7E81807F7F7F877B77827F877A91BC
:103E00008D3A8EB856A38431B3974F8BA1A1454309
:103E1000B5A28D5B66BF3A63FF533DBC7B647A8F6E
:103E2000A26D65838A887780847881817E80808096
:103E3000807F7E807E7D7F828C817A7D7479739590
:103E40009D5499AF44857039C7B76C8C877A2B40E5
:103E5000C5C4AD69599A2057FF705DC67753658216
:103E6000A179758C8A82717C837A83837E8080803D
:103E7000807F7E82817D7C828975768F84756E9944
:103E800094439BAF349AAA429396707A70A97A4F62
:103E90009D977E4B82E82F39FF6E31A8947C68781D
:103EA000A47669898B7D7186887680837E80808008
:103EB000807F7E817F7B7C848E7C798A796A699C15
:103EC000A35BA5A7257D9548A9B58A7D5B835D4B3E
:103ED000AEB89D5973C21731FF8851B38E6A556DC4
:103EE000A38178918B786C81877982847E807F80B2
:103EF000807F7E81807D7E848974738B857C7696BD
:103F00008B4095B0499FA13B85937F8B779B694AF6
:103F10009FA58C5174CD334AFF783698897C728284
:103F2000A37365858B817685867680837E8080808D
:103F3000807F7F807F7C7D858D7A76867B7171998D
:103F400099569EA93A858F4199AF958C63795047D0
:103F5000AEC2A75D68AC1D41FF8F52A3846C617730
:103F6000A17D738C8B7D7081857882847F807F803A
:103F7000807F7E81827E7C808977798F7E7375A237
:103F80009031A1C33090A343A8985B707DC0723379
:103F90009CAE8C386FF73938FF5E2FBC976E5F7F11
:103FA000B1725E8992816E848A7781827D80808001
:103FB000807F7E81807C7B828E7E7C8972666EA50E
:103FC000A04DABB81F718C4ABEBA79746594533258
:103FD000B0D0AD4A60CB1D2FFF7D53C6915C4B72B4
:103FE000AF7F6F91917B687E887A83837E808080AB
:103FF000807F7E81817E7E828976768A807B7C9DB1
:10400000863099C247969A3C96956E8383AD61320D
:104010009FBA994163D73D4AFF6B35A88A716B8976
:10402000AE6F5B8491857383877780827E8080808A
:10403000807F7E807F7C7D848D7C7985756F76A086
:104040009549A3B9377A8642AAB487856D874730E8
:10405000AFD8B65056B32441FF8554B28560597C21
:10406000AC7B6B8C907F6D7F857982837E80808036
:1040700011241FBECFEFD0E1DEBFCDBF11E0A0E025
:10408000B1E0E2E2F6E502C005900D92A233B1077D
:10409000D9F71AE0A2E3B1E001C01D92AB31B1073C
:1040A000E1F70E9466230C940F2B0C940000789487
:1040B000889518950F931F938C01FC01148A138A1D
:1040C000128A118A108A178616861586438D80817A
:1040D000918160E070E050E00E948C2AF801438DED
:1040E0008281938160E070E050E00E948C2AF801A8
:1040F000438D8481958160E070E050E00E948C2ABD
:10410000F801438D8681978160E070E050E00E9465
:104110008C2A1F910F9108952F923F924F925F9298
:104120006F927F928F929F92AF92BF92CF92DF92C7
:10413000EF92FF920F931F93CF93DF93EC018AA12D
:104140009BA1298D3A8D820F931F292F26952695A5
:1041500080914401821748F080914401622F70E001
:1041600090E0861B970B459784F08091440182175D
:1041700008F01BC1622F70E0809144017B01E81AB6
:10418000F108C70145970CF410C18885A881B98151
:10419000A80FB11D8C91992787FD90952D853E859F
:1041A000281B390B3E872D87EA8DE695E695F0E0D2
:1041B000EB5BFE4F4081842F992787FD9095820FFE
:1041C000931F9E878D874C938885AA81BB81A80FFA
:1041D000B11D8C91992787FD90954F855889481B73
:1041E000590B588B4F8788A199A1298D3A8D820F41
:1041F000931FE92FE695E695F0E0EB5BFE4F2081FB
:10420000822F992787FD9095840F951F988B8F8714
:104210002C938885AC81BD81A80FB11D8C91992705
:1042200087FD909549895A89481B590B5A8B498BB0
:104230008E8D9F8D298D3A8D820F931FE92FE695E4
:10424000E695F0E0EB5BFE4F2081822F992787FDFA
:104250009095840F951F9A8B898B2C938885EE817E
:10426000FF81E80FF11D8081992787FD90952B89AB
:104270003C89281B390B3C8B2B8B6B5B7E4FDB0106
:104280004C91842F992787FD9095820F931F9C8BCB
:104290008B8B40836D847E84882477FC8094982C5B
:1042A000AF84B888CC24B7FCC094DC2CE988FA88A9
:1042B0000027F7FC0095102F2B893C89442737FDF8
:1042C0004095542FCA01B9010E942D2A1B012C01CF
:1042D000C801B701A80197010E942D2A260E371E9A
:1042E000481E591EC601B501A60195010E942D2A3E
:1042F0007B018C01C401B301A40193010E942D2A0A
:10430000E60EF71E081F191F2E143F044006510623
:1043100014F4170128012EA13FA148A559A5221583
:104320003305440555050CF453C06CA12D8A3E8A13
:104330004F8A588E662379F08B859C85009709F00B
:1043400082C022153305440555052CF449855A854C
:104350005C874B8702C049855A85898D9A8D2C8D43
:104360003D8D820F931F9A8F898F329522952F70E2
:1043700023273F702327240F351F3A872987662379
:10438000A1F00024220F331F001C220F331F001C3A
:10439000232F302D2050324040F08DA18093C60055
:1043A0005B9A1CA2CE010E945A20DF91CF911F91EF
:1043B0000F91FF90EF90DF90CF90BF90AF909F90C4
:1043C0008F907F906F905F904F903F902F900895C7
:1043D0006CA1662309F0AACF8D899E89AF89B88D1B
:1043E00082017101E81AF90A0A0B1B0BD801C701F7
:1043F00088519C4FAF4FBF4F0CF098CF80913F0139
:1044000090914001892B31F481E090E0909340013C
:1044100080933F0181E08CA31DA28C8D9D8D96958C
:104420008795929582958F7089279F70892790959F
:1044300081959F4F9A8789871C861B86CE010E9493
:104440005A205B98B2CF22163306440655060CF06C
:1044500082CF49855A859A01281B390B20343105B2
:1044600018F41C861B8679CFCE010E945A202B851A
:104470003C8549855A85CA01821B930B9695879581
:10448000820F931F892F992782958F70EFE0F1E0BB
:10449000E81BF90B8DA19081892B8DA31C861B86AF
:1044A0006CA15BCF8F929F92AF92BF92CF92DF921F
:1044B000EF92FF920F931F93CF93DF938FEF87B904
:1044C0008FE88AB98BB18C608BB989E080938100C9
:1044D00084EF91E0909389008093880080EE91E0D2
:1044E00090938B0080938A0096E090936F0080E613
:1044F00080937C0086EC80937A0088E18093C100F1
:104500009093C20082E08093C0008AE090E0909394
:10451000C5008093C40025E431E0C90160E070E08B
:1045200040E450E00E948C2AA5E8B1E084E5ED016A
:1045300019928A95E9F7EBE1F6E080E094E0EF016B
:104540009C01199221503040E1F7809041019090F8
:104550004201ED01EBE1AE2EB12CAA0EBB1ECC2424
:10456000DD24F601EF5EFE4F60E070E48CE197E43D
:1045700020813181428153810E9457277B018C0128
:1045800020E030E040E854E40E945D260E94872449
:104590007D8F6C8FC801B70120E030E040E85EE31A
:1045A0000E945D2620E030E040E854E40E945D2651
:1045B0000E94872479A368A3C801B70120E030E0F6
:1045C00040E05EE30E945D2620E030E040E854E4F5
:1045D0000E945D260E9487247F8F6E8FC801B701DD
:1045E00020E030E040E450E40E945D2620E030E02E
:1045F00040E05EE30E945D2620E030E040E854E4C5
:104600000E945D260E948724F5017087678360E021
:1046100070E080E892E4A80197010E9457270E9469
:10462000932A0E948724F50160839401255E394F07
:104630003983288370E09B01280D391DA901455E4F
:10464000594F5B834A83260F371FA901455E594F97
:104650005D834C83260F371FA901455E594F5F8349
:104660004E834901860E971EF601E35EFE4F808160
:104670009181A281B381F50183879487A587B6874D
:1046800024E030E0C20ED31EAA968AE290E0A80E83
:10469000B91E98E0C916D10409F063CF9092420187
:1046A00080924101789483B7817F83BF83B7816013
:1046B00083BFDF91CF911F910F91FF90EF90DF901B
:1046C000CF90BF90AF909F908F9008950F931F93BE
:1046D0000E94522282E080933B0111E00FEF809113
:1046E0003F01909140018C5B924088F11092100143
:1046F00020913D0130913E012F5F3F4F30931A06CC
:104700002093190680913D0190913E0128173907A9
:10471000C1F08091C00085FFFCCFF901E752FE4F48
:1047200080818093C6002F5F3F4F337080913D01A1
:1047300090913E018217930761F730931A062093F8
:104740001906109310011092400110923F018091C0
:10475000C00087FD09C085E891E00E948C208FEAA7
:1047600091E00E948C20BBCF90913B01A92FB0E03B
:10477000FD01E050FF4F80818E3FE9F78091C60038
:10478000AD5CBE4F8C930083992319F410933B01C9
:10479000E2CF10923B01DFCF1F920F920FB60F9224
:1047A00011242F933F934F935F936F937F938F9336
:1047B0009F93AF93BF93CF93DF93EF93FF935F9854
:1047C00090913201E92FF0E0E752FA4F808188B9E9
:1047D000392F3F5F3F73309332015F9A209143013D
:1047E000A22FB0E0809179008E57AB5BBE4F8C93C7
:1047F00080917A00806480937A00209344018091B4
:1048000010018823C9F0E0913D01F0913E018C91A7
:10481000E752FE4F808380913D0190913E010196C9
:10482000937090933E0180933D0180913F01909160
:104830004001892B09F05EC02F5F2F732093430145
:10484000332309F041C0A3E3B1E0C8E0D1E060E068
:1048500020E030E09EEF17C08081883009F447C027
:104860008C9187FD51C080818F3F19F08C91880F0A
:104870008C9380818F5F80832F5F3F4F11962196AD
:104880002830310569F0F901E050FF4F80818E3FFB
:1048900099F380818F3F01F78881682B5A98E3CF85
:1048A00060933C0170E000247695679507947695B7
:1048B00067950794762F602D60597F4F89ED95E0BD
:1048C00040E450E00E94832AFF91EF91DF91CF9165
:1048D000BF91AF919F918F917F916F915F914F9118
:1048E0003F912F910F900FBE0F901F9018959083BE
:1048F0005A9AC2CF80913F019091400101969093C6
:10490000400180933F0198CF8881682BACCFEF9214
:10491000FF920F931F937B018C0120E030E040E079
:104920005FE40E94032888238CF0C801B70120E0CF
:1049300030E040E05FE40E94FF250E9433289B01A5
:10494000AC01205030404040504806C0C801B7017B
:104950000E9433289B01AC01B901CA011F910F913C
:10496000FF90EF900895A0E0B0E0E9EBF4E20C9442
:104970004C2ADC012B01FA019C91923008F439C1D8
:10498000EB018881823008F433C1943069F48430BB
:1049900009F02FC111969C9111978981981709F4FC
:1049A00028C1A9E2B1E025C1843009F421C18230D7
:1049B000A9F4923009F01DC19A01AD0188E0EA0125
:1049C0000990AE01E90109929E018150C1F7E2010F
:1049D000898111969C918923818308C1923009F4C1
:1049E00007C112962D903C901397EB018A819B8111
:1049F0001496AD90BD90CD90DC901797EC80FD8023
:104A00000E811F819101281B390BB90137FF04C0AA
:104A100066277727621B730B603271050CF061C04B
:104A2000121613066CF537014801062E04C0969441
:104A30008794779467940A94D2F721E030E040E0BD
:104A400050E004C0220F331F441F551F6A95D2F750
:104A500021503040404050402E213F2140235123DF
:104A6000211531054105510521F021E030E040E0FC
:104A700050E079018A01E628F728082919293CC065
:104A8000232BD1F1260E371E35014601062E04C018
:104A900096948794779467940A94D2F721E030E053
:104AA00040E050E004C0220F331F441F551F6A9599
:104AB000D2F721503040404050402A213B214C2128
:104AC0005D21211531054105510521F021E030E03E
:104AD00040E050E059016A01A628B728C828D92823
:104AE0000BC0821593052CF01C01AA24BB24650180
:104AF00003C0EE24FF24870111969C91D2011196E8
:104B00008C91981709F445C0992339F0A8019701B1
:104B10002A193B094C095D0906C0A60195012E1909
:104B20003F09400B510B57FD08C01182338222828E
:104B300024833583468357831DC081E0818333827C
:104B4000228288279927DC01821B930BA40BB50BCB
:104B500084839583A683B7830DC0220F331F441F20
:104B6000551F248335834683578382819381019720
:104B7000938382832481358146815781DA01C9017B
:104B80000197A109B1098F5F9F4FAF4FBF4328F332
:104B90000BC0918333822282EA0CFB1C0C1D1D1D6D
:104BA000E482F5820683178383E080832481358144
:104BB0004681578157FF1AC0C901AA2797FDA095C2
:104BC000BA2F81709070A070B07056954795379548
:104BD0002795822B932BA42BB52B84839583A683B7
:104BE000B78382819381019693838283DF0101C021
:104BF000D201CD01CDB7DEB7E2E10C94682AA0E284
:104C0000B0E0E5E0F6E20C94582A69837A838B835E
:104C10009C832D833E834F835887E9E0EE2EF12C51
:104C2000EC0EFD1ECE010196B7010E945C298E019B
:104C30000F5E1F4FCE010596B8010E945C298A893C
:104C400091E089278A8BC701B801AE01475E5F4FAB
:104C50000E94B3240E948728A096E6E00C94742A50
:104C6000A0E2B0E0E6E3F6E20C94582A69837A8386
:104C70008B839C832D833E834F835887F9E0EF2EEF
:104C8000F12CEC0EFD1ECE010196B7010E945C29AD
:104C90008E010F5E1F4FCE010596B8010E945C2960
:104CA000C701B801AE01475E5F4F0E94B3240E9466
:104CB0008728A096E6E00C94742AA0E2B0E0E3E630
:104CC000F6E20C944C2A69837A838B839C832D8330
:104CD0003E834F835887CE010196BE01675F7F4FA9
:104CE0000E945C29CE010596BE016F5E7F4F0E9437
:104CF0005C299985923088F089898230C8F0943097
:104D000019F4823051F404C0843029F4923081F4D3
:104D100089E291E0C6C0923049F420E09A858A8900
:104D2000981321E02A87CE010996BBC0823049F44E
:104D300020E09A858A89981321E02A8BCE0141963A
:104D4000B0C02D843E844F8458886D887E888F88BB
:104D5000988CEE24FF248701AA24BB24650140E03F
:104D600050E060E070E0E0E0F0E0C1018170907040
:104D7000892BE9F0E60CF71C081D191D9A01AB01FF
:104D80002A0D3B1D4C1D5D1D80E090E0A0E0B0E0D1
:104D9000E614F7040805190520F481E090E0A0E08E
:104DA000B0E0BA01A901480F591F6A1F7B1FAA0C66
:104DB000BB1CCC1CDD1C97FE08C081E090E0A0E08D
:104DC000B0E0A82AB92ACA2ADB2A3196E032F105D6
:104DD00049F0660C771C881C991C569447943794AC
:104DE0002794C3CFFA85EA892B893C898B859C85DA
:104DF000280F391F2E5F3F4F17C0CA018170907076
:104E0000892B61F016950795F794E79480E090E080
:104E1000A0E0B0E8E82AF92A0A2B1B2B76956795C3
:104E2000579547952F5F3F4F77FDE7CF0CC0440F55
:104E3000551F661F771F17FD4160EE0CFF1C001FFA
:104E4000111F21503040403090E0590790E0690731
:104E500090E4790760F32B8F3C8FDB01CA018F77D9
:104E60009070A070B07080349105A105B10561F417
:104E700047FD0AC0E114F1040105110529F0405C69
:104E80005F4F6F4F7F4F40781A8EFE1711F081E011
:104E90008A8F4D8F5E8F6F8F78A383E0898FCE01CD
:104EA00049960E948728A096E2E10C94682AA8E11E
:104EB000B0E0EDE5F7E20C94542A69837A838B83A2
:104EC0009C832D833E834F835887B9E0EB2EF12CD2
:104ED000EC0EFD1ECE010196B7010E945C298E01E9
:104EE0000F5E1F4FCE010596B8010E945C292985EF
:104EF000223008F47EC03989323010F4B8017CC009
:104F00008A859A8989278A87243011F0223031F4E2
:104F1000231709F06EC069E271E06EC0343039F4D5
:104F20001D861E861F86188A1C861B8604C032308A
:104F300021F484E08987B7015FC02B853C858B898C
:104F40009C89281B390B3C872B87ED84FE840F85B9
:104F50001889AD88BE88CF88D88CEA14FB040C056C
:104F60001D0540F4EE0CFF1C001F111F21503040A6
:104F70003C872B8720E030E040E050E080E090E08C
:104F8000A0E0B0E460E070E0EA14FB040C051D054D
:104F900040F0282B392B4A2B5B2BEA18FB080C0915
:104FA0001D09B695A79597958795EE0CFF1C001FD8
:104FB000111F6F5F7F4F6F31710531F7DA01C90142
:104FC0008F779070A070B07080349105A105B10505
:104FD00061F427FD0AC0E114F1040105110529F06F
:104FE000205C3F4F4F4F5F4F20782D873E874F8784
:104FF000588BBE01675F7F4FCB010E948728689660
:10500000EAE00C94702AA8E1B0E0E9E0F8E20C9440
:10501000582A69837A838B839C832D833E834F83B5
:10502000588789E0E82EF12CEC0EFD1ECE0101968A
:10503000B7010E945C298E010F5E1F4FCE010596BD
:10504000B8010E945C298985823040F089898230CC
:1050500028F0C701B8010E94D42901C08FEF6896DB
:10506000E6E00C94742AACE0B0E0E9E3F8E20C94DA
:105070005C2A69837A838B839C83CE010196BE016F
:105080006B5F7F4F0E945C298D81823061F182309D
:1050900050F1843021F48E81882351F12EC02F816C
:1050A000388537FD20C06E812F3131051CF0662315
:1050B000F9F023C08EE190E0821B930B29853A859D
:1050C0004B855C8504C056954795379527958A95FD
:1050D000D2F76623B1F050954095309521953F4F1A
:1050E0004F4F5F4F0EC020E030E040E050E009C07D
:1050F0002FEF3FEF4FEF5FE704C020E030E040E0EC
:1051000050E8B901CA012C96E2E00C94782ADF92AB
:10511000EF92FF920F931F93FC01E480F5800681CC
:105120001781D1808081823048F480E090E0A0E156
:10513000B0E0E82AF92A0A2B1B2BA5C0843009F419
:105140009FC0823021F4EE24FF24870105C0E114C2
:10515000F1040105110519F4E0E0F0E096C0628168
:1051600073819FEF623879070CF05BC022E83FEF54
:10517000261B370B2A3131052CF020E030E040E0CF
:1051800050E02AC0B801A701022E04C076956795A9
:10519000579547950A94D2F781E090E0A0E0B0E0FF
:1051A00004C0880F991FAA1FBB1F2A95D2F7019729
:1051B000A109B1098E219F21A023B1230097A10548
:1051C000B10521F081E090E0A0E0B0E09A01AB01F0
:1051D000282B392B4A2B5B2BDA01C9018F77907072
:1051E000A070B07080349105A105B10539F427FF96
:1051F00009C0205C3F4F4F4F5F4F04C0215C3F4FC1
:105200004F4F5F4FE0E0F0E02030A0E03A07A0E031
:105210004A07A0E45A0710F0E1E0F0E079018A01C2
:1052200027C06038710564F5FB01E158FF4FD801D4
:10523000C7018F779070A070B07080349105A10580
:10524000B10539F4E7FE0DC080E490E0A0E0B0E0E5
:1052500004C08FE390E0A0E0B0E0E80EF91E0A1F62
:105260001B1F17FF05C016950795F794E794319615
:1052700087E016950795F794E7948A95D1F705C0CE
:10528000EE24FF248701EFEFF0E06E2F679566278D
:105290006795902F9F77D794DD24D7948E2F86958E
:1052A000492F462B582F5D29B701CA011F910F9135
:1052B000FF90EF90DF900895FC01DB014081518168
:1052C0002281622F6F7770E0221F2227221F938195
:1052D000892F880F822B282F30E0991F9927991F3B
:1052E00011969C93119721153105A9F5411551058A
:1052F0006105710511F482E037C082E89FEF1396D3
:105300009C938E9312979A01AB0167E0220F331F93
:10531000441F551F6A95D1F783E08C930DC0220F6F
:10532000331F441F551F12968D919C91139701971F
:1053300013969C938E931297203080E0380780E07C
:10534000480780E4580758F314962D933D934D93E6
:105350005C93179708952F3F310579F44115510556
:105360006105710519F484E08C93089564FF03C00E
:1053700081E08C9312C01C9210C02F5730401396BE
:105380003C932E93129783E08C9387E0440F551F34
:10539000661F771F8A95D1F7706414964D935D93BD
:1053A0006D937C93179708951F93DC01FB019C91EB
:1053B000923008F447C08081823008F443C09430B2
:1053C00051F411961C91843099F58181682F70E019
:1053D000611B71093FC0843021F0923031F482307A
:1053E000B9F18181882389F12DC011961C91119703
:1053F0008230F1F081811817D9F412962D913C91E9
:105400001397828193818217930794F028173907A5
:10541000BCF014968D919D910D90BC91A02D24818E
:10542000358146815781281739074A075B0718F4E9
:10543000112341F00AC082179307A407B50740F46F
:10544000112319F061E070E005C06FEF7FEF02C03B
:1054500060E070E0CB011F910895629FD001739FBF
:10546000F001829FE00DF11D649FE00DF11D929F00
:10547000F00D839FF00D749FF00D659FF00D99273F
:10548000729FB00DE11DF91F639FB00DE11DF91F63
:10549000BD01CF01112408952F923F924F925F9248
:1054A0006F927F928F929F92AF92BF92CF92DF9234
:1054B000EF92FF920F931F93CF93DF93CDB7DEB799
:1054C000CA1BDB0B0FB6F894DEBF0FBECDBF09942D
:1054D0002A88398848885F846E847D848C849B8484
:1054E000AA84B984C884DF80EE80FD800C811B8192
:1054F000AA81B981CE0FD11D0FB6F894DEBF0FBEC1
:10550000CDBFED010895FB01DC0102C005900D92B5
:1055100041505040D8F70895DC0101C06D934150CF
:105520005040E0F708953BD080F09F3740F4911150
:105530000EF44DC060E070E080E89FE3089526F02F
:105540001B16611D711D811D01C01BC0882371F4D4
:10555000772321F09850872B762F07C0662311F40C
:1055600099270DC09051862B70E060E02AF09A9543
:10557000660F771F881FDAF7880F9695879597F93A
:1055800008959F3F31F0915020F487957795679566
:10559000B795880F911D9695879597F9089525D011
:1055A000A0F0BEE7B91788F4BB279F3860F4161641
:1055B000B11D672F782F8827985FF7CF869577954D
:1055C0006795B11D93959639C8F30895E894BB2764
:1055D00066277727CB0197F9089557FD9058440F18
:1055E000551F59F05F3F71F04795880F97FB991F42
:1055F00061F09F3F79F087950895121613061406FF
:10560000551FF2CF4695F1DF08C01616170618068B
:10561000991FF1CF86957105610508940895F89456
:02562000FFCFBA
:10562200FEFEFEFEFEFEFEFE010204081020408089
:1056320001004003460080BB45004003468813003A
:105642000088130000B8880000000000000000007D
:02565200000056
:00000001FF
